:020000040800F2
:1000000000000120A1320008992D00089F2D000852
:10001000A52D0008AB2D0008B12D00080000000040
:10002000000000000000000000000000B72D0008E4
:10003000C52D000800000000D32D0008E12D0008A8
:10004000F1320008F1320008F1320008F132000804
:10005000F1320008F1320008F1320008F1320008F4
:10006000F1320008F1320008F1320008F1320008E4
:10007000F1320008F1320008F1320008F1320008D4
:10008000F1320008F1320008F132000800000000EF
:10009000000000000000000000000000F132000835
:1000A000F1320008ED2D0008F1320008F1320008AD
:1000B000F1320008F1320008F1320008F132000894
:1000C000F1320008F1320008F1320008F132000884
:1000D000F1320008F1320008F1320008000000009F
:1000E000992E0008F1320008F132000800000000EB
:1000F000000000000000000000000000F1320008D5
:1001000000000000F1320008F1320008F13200086E
:1001100000000000000000000000000000000000DF
:10012000F1320008F1320008F1320008F132000823
:10013000F132000800000000000000000000000094
:10014000000000000000000000000000F132000884
:10015000F1320008F1320008F1320008F1320008F3
:10016000F1320008F1320008000000000000000039
:10017000000000000000000000000000000000007F
:1001800000000000F1320008000000000000000044
:04019000F132000840
:1001A00010B5054C237833B9044B13B10448AFF3B1
:1001B00000800123237010BD6C00002000000000AF
:1001C0000870000808B5034B1BB103490348AFF39F
:1001D000008008BD000000007000002008700008CA
:1001E00001F0FF01102A2BDB10F0070F08D010F8E8
:1001F000013B013A8B422DD010F0070F42B3F6D1EC
:10020000F0B441EA012141EA014122F007047FF004
:1002100000070023F0E80256083C85EA010586EA5B
:10022000010685FA47F5A3FA87F586FA47F6A5FA97
:1002300087F68EB9EED1F0BC01F0FF0102F00702A3
:1002400032B110F8013B013A83EA010313B1F8D14E
:100250000020704701387047002D06BF354603382F
:10026000073815F0010F07D1013015F4807F02BF68
:10027000013015F4C03F0130F0BC0138704700BFB9
:1002800053B94AB9002908BF00281CBF4FF0FF31FD
:100290004FF0FF3000F070B9ADF1080C6DE904CEFD
:1002A00000F006F8DDF804E0DDE9022304B0704751
:1002B0002DE9F047089E0D4604460F46002B4AD113
:1002C0008A42944665D9B2FA82F343B102FA03FC3A
:1002D000C3F120029F4020FA02F217439C404FEAEC
:1002E0001C4E1FFA8CF5B7FBFEF1220C0EFB1177AA
:1002F00042EA074201FB05F090420AD91CEB0202D8
:1003000001F1FF3780F01C81904240F219810239DF
:100310006244121AA4B2B2FBFEF00EFB102244EAB1
:10032000024400FB05F5A5420AD91CEB040400F1C8
:10033000FF3280F00781A54240F204816444023814
:1003400040EA0140641B00211EB1DC400023C6E9E5
:100350000043BDE8F0878B4208D9002E00F0ED8005
:100360000021C6E900050846BDE8F087B3FA83F12D
:10037000002949D1AB4202D3824200F2F880841AAC
:1003800065EB030201201746002EE2D0C6E90047C4
:10039000DFE702B9FFDEB2FA82F3002B40F0908073
:1003A0008A1A4FEA1C471FFA8CFE0121B2FBF7F5AF
:1003B00007FB1520220C42EA00420EFB05F090429A
:1003C00008D91CEB020205F1FF3802D2904200F27C
:1003D000CB804546121AA4B2B2FBF7F007FB1022FD
:1003E00044EA02440EFB00FEA64508D91CEB0404B7
:1003F00000F1FF3202D2A64500F2BB801046A4EB0A
:100400000E0440EA05409FE7C1F120078B4022FA25
:1004100007FC4CEA030C05FA01F420FA07F3FD404F
:100420004FEA1C492343B5FBF9F81FFA8CFE09FB80
:1004300018551C0C44EA054408FB0EF5A54202FAC7
:1004400001F200FA01F00BD91CEB040408F1FF3AA9
:1004500080F08880A54240F28580A8F102086444BB
:10046000641B9DB2B4FBF9F309FB134445EA044451
:1004700003FB0EFEA64508D91CEB040403F1FF356F
:100480006CD2A6456AD9023B644443EA0843A3FB05
:100490000295A4EB0E04AC42C846AE4656D353D0E8
:1004A00056B1B0EB080264EB0E0404FA07F7CA4039
:1004B000CC401743C6E9007418460021BDE8F08718
:1004C000C3F1200102FA03FC20FA01F225FA01F13E
:1004D0009D402A434FEA1C471FFA8CFEB1FBF7F000
:1004E00007FB1015110C41EA054100FB0EF58D428A
:1004F00004FA03F408D91CEB010100F1FF382FD2F4
:100500008D422DD902386144491B92B2B1FBF7F5F7
:1005100007FB151142EA014205FB0EF1914208D991
:100520001CEB020205F1FF3816D2914214D9023DAC
:100530006244521A45EA004138E73146304608E73E
:100540003946E6E61046FBE64845A9D2B9EB020873
:1005500065EB0C0E013BA3E74546EAE72B4694E723
:100560004046D1E7D0467BE7023D624432E7084689
:100570000AE76444023842E7704700BF80B582B0A2
:1005800000AF78600021002001F0ECFA084801F08B
:100590001FFB0121002001F0E5FA786801F018FB4B
:1005A0004FF47A7002F018FF00BF0837BD4680BDD7
:1005B0002070000880B582B000AF7648FFF7DEFFFC
:1005C00000BF02F00FFA03461A4640F2F2339A4295
:1005D000F7D840F2DC5002F0FFFE02F003FA0346C7
:1005E000BB80BB8840F2F132934218D8BB880A2BFB
:1005F00015D9FB88002B12D14FF4FA7002F0ECFEF3
:1006000002F0F0F903461A46634B1A8001210720D5
:1006100001F0A8FA614801F0DBFA0123FB80BB88F6
:1006200040F2F232934218D9FB88012B15D10121F7
:10063000072001F097FA5A4801F0CAFA0023FB801C
:1006400000BF0121002001F08DFA564801F0C0FAE8
:100650004FF47A7002F0C0FE03E0642002F0BCFEAA
:10066000BBE702F0BFF903461A4640F2F2339A4262
:10067000F7D84FF4FA7002F0AFFE02F0B3F9034678
:10068000BB80BB8840F2F132934218D8BB880A2B5A
:1006900015D9FB88002B12D14FF4FA7002F09CFEA2
:1006A00002F0A0F903461A463B4B5A80012107206D
:1006B00001F058FA394801F08BFA0123FB80BB881E
:1006C00040F2F2329342D8D9FB88012BD5D10121D7
:1006D000072001F047FA324801F07AFA0023FB8044
:1006E00000BF0121002001F03DFA2F4801F070FA0F
:1006F0004FF47A7002F070FE02F074F903461A4665
:1007000040F2F2339A42F7D84FF4FA7002F064FEE6
:1007100002F068F90346BB80BB8840F2F132934295
:1007200018D8BB880A2B15D9FB88002B12D14FF49F
:10073000FA7002F051FE02F055F903461A46164BC4
:10074000DA800121072001F00DFA144801F040FA87
:100750000123FB80BB8840F2F2329342D8D9FB8858
:10076000012BD5D10121072001F0FCF90C4801F043
:100770002FFA0123FB8000BF02F034F903461A462A
:1007800040F2F2339A42F7D802F0ACF900BF0837D2
:10079000BD4680BD2870000814020020307000089B
:1007A00034700008387000084070000880B500AF51
:1007B0000021002001F0D6F92D4801F009FA2D4B57
:1007C0001B78184601F020FA2B4801F001FA0121AC
:1007D000002001F0C7F9294801F0FAF9284801F092
:1007E000F7F9244B5B78184601F00EFA01210A2034
:1007F00001F0B8F9234801F0EBF91E4BDB78042B2C
:1008000034D801A252F823F01D0800082D08000872
:100810003D0800084D0800085D08000800210C2074
:1008200001F0A0F9184801F0D3F91FE000210C20D5
:1008300001F098F9154801F0CBF917E000210C20E0
:1008400001F090F9124801F0C3F90FE000210C20EB
:1008500001F088F90F4801F0BBF907E000210C20F6
:1008600001F080F90C4801F0B3F900BF00BF80BD72
:10087000487000081C0200205070000854700008E6
:100880005C70000860700008687000086C700008F8
:1008900070700008747000087870000880B582B02D
:1008A00000AF184B1B78184605F0AEFB0023FB7118
:1008B00000237B711CE005F0D5FB0246124B83FB45
:1008C00002139910D317C91A0B469B000B445B0007
:1008D000D11A0B46FB71BA79FB799A42EBD0FB79BE
:1008E000BB717B790949FA79CA547B7901337B71F1
:1008F000074B1B787A799A42EDD900BF00BF0837C1
:10090000BD4680BD700100206766666674010020E8
:100910001C02002080B582B000AF0023FB71644B45
:100920001B783B6000BF02F05DF80346042BFAD948
:100930004FF47A7002F050FD4EE0FB790133FB7109
:100940000021052001F00EF95A4801F041F9C820B4
:1009500002F042FD0021052001F004F9564A3B68EF
:1009600013441B78184601F04FF9C82002F034FDFB
:1009700002F038F803461A46504B5B880A3B9A420D
:1009800010DB02F02FF803461A464C4B5B880A3303
:100990009A4207DC3B68052B04DC3B6801333B6073
:1009A0000023FB7102F01EF803461A46434B1B88D6
:1009B0000A3B9A4210DB02F015F803461A463F4BF9
:1009C0001B880A339A4207DC3B68002B04D03B6843
:1009D000013B3B600023FB71FB79042BADD9364A08
:1009E0003B6813441A78364B1A703B68DAB2304BC6
:1009F0001A700023FB71324B5B783B604AE0FB7955
:100A00000133FB710121072001F0ACF82D4801F002
:100A1000DFF8962002F0E0FC0121072001F0A2F8A7
:100A2000386801F0F1F8962002F0D6FC01F0DAFF08
:100A300003461A46214B5B880A3B9A4210DB01F0C1
:100A4000D1FF03461A461D4B5B880A339A4207DCE6
:100A50003B68082B04DC3B6801333B600023FB71DF
:100A600001F0C0FF03461A46144B1B880A3B9A420A
:100A700010DB01F0B7FF03461A46104B1B880A3300
:100A80009A4207DC3B68002B04D03B68013B3B608B
:100A90000023FB71FB79042BB1D93B68DAB2084B18
:100AA0005A7002F01FF800BF0837BD4680BD00BF76
:100AB000120200207C700008C4700008140200209C
:100AC0001C0200208070000880B500AF00210020CB
:100AD00001F048F8484801F07BF875E001F082FF2A
:100AE00003461A46454B5B880A3B9A4212DB01F0EB
:100AF00079FF03461A46414B5B880A339A4209DC68
:100B00003F4BDB78032B05D83D4BDB780133DAB262
:100B10003B4BDA7001F066FF03461A46374B1B88E1
:100B20000A3B9A4212DB01F05DFF03461A46334B43
:100B30001B880A339A4209DC314BDB78002B05D045
:100B40002F4BDB78013BDAB22D4BDA702C4BDB7884
:100B5000042B35D801A252F823F000BF710B000816
:100B6000810B0008910B0008B10B0008A10B0008D5
:100B700000210C2000F0F6FF224801F029F81FE0C8
:100B800000210C2000F0EEFF1F4801F021F817E0D3
:100B900000210C2000F0E6FF1C4801F019F80FE0DE
:100BA00000210C2000F0DEFF194801F011F807E0E9
:100BB00000210C2000F0D6FF164801F009F800BF14
:100BC0004FF4FA7002F008FC01F00CFF0346042B0E
:100BD00084D801F087FF01F067F9FFF7E7FD00BF58
:100BE00001F000FF0346042BFAD94FF4967002F08F
:100BF000F3FB00BF80BD00BF84700008140200201A
:100C00001C02002094700008987000089C70000876
:100C1000A0700008A470000880B582B000AF002367
:100C20007B6016E001224FF480510E4803F070FD06
:100C30004FF4967002F0D0FB00224FF48051094827
:100C400003F066FD4FF4967002F0C6FB7B6801333B
:100C50007B607B68022BE5DD00BF00BF0837BD4627
:100C600080BD00BF0004024080B500AF01224FF4F8
:100C70008051074803F04CFD4FF4FA6002F0ACFBE2
:100C800000224FF48051024803F042FD00BF80BDB6
:100C90000004024080B582B000AF00237B6008E012
:100CA00001224FF480510A4803F032FD7B68013382
:100CB0007B607B68074A9342F2D900224FF480514F
:100CC000034803F025FD00BF0837BD4680BD00BFC7
:100CD000000402409F86010080B582B000AF034649
:100CE000FB71FB79013B092B00F29B8001A252F8BA
:100CF00023F000BF1D0D0008330D0008490D00084A
:100D00005F0D0008750D00088B0D0008A10D00088F
:100D1000B70D0008CD0D0008E50D0008012143487E
:100D200003F0DEFC0346002B68D0414B00221A7012
:100D300064E002213D4803F0D3FC0346002B5FD062
:100D40003B4B00221A705BE00421384803F0C8FCDA
:100D50000346002B56D0364B00221A7052E0082171
:100D6000324803F0BDFC0346002B4DD0304B00222F
:100D70001A7049E010212D4803F0B2FC0346002B05
:100D800044D02B4B00221A7040E02021274803F06A
:100D9000A7FC0346002B3BD0254B00221A7037E0FE
:100DA0004021224803F09CFC0346002B32D0204B0C
:100DB00000221A702EE080211C4803F091FC0346AB
:100DC000002B29D01A4B00221A7025E04FF48071B5
:100DD000164803F085FC0346002B1FD0144B00225D
:100DE0001A701BE04FF40071104803F079FC0346C1
:100DF000002B15D00E4B00221A7011E000BF10E03E
:100E000000BF0EE000BF0CE000BF0AE000BF08E03A
:100E100000BF06E000BF04E000BF02E000BF00E04A
:100E200000BF00BF0837BD4680BD00BF00000240C4
:100E30006D01002080B500AF5C4B1B79C3F3030349
:100E4000DBB21A46594B5B789A4242D1574A137922
:100E50006FF303031371564B1B780133DAB2544B13
:100E60001A7000224FF48061524803F051FC0022B6
:100E70004FF400614F4803F04BFC00224FF48051C7
:100E80004C4803F045FC00224FF40041494803F070
:100E90003FFC00220421484803F03AFC00220821CC
:100EA000454803F035FC00221021434803F030FC94
:100EB00000222021404803F02BFC00224FF48071D7
:100EC0003D4803F025FC00224FF400713A4803F03E
:100ED0001FFC364B1A78364B1B789A4213D3374B8C
:100EE00000221A80324B1B781A46354B9B5C184601
:100EF00000F06EF82E4B1B781A46314B9B5C18465F
:100F000000F030F93DE000224FF48061294803F001
:100F1000FFFB00224FF40061264803F0F9FB00229A
:100F20004FF48051234803F0F3FB00224FF40041BB
:100F3000204803F0EDFB002204211F4803F0E8FBEA
:100F4000002208211C4803F0E3FB002210211A486C
:100F500003F0DEFB00222021174803F0D9FB00221A
:100F60004FF48071144803F0D3FB00224FF400715A
:100F7000114803F0CDFB134B02221A70124B0122D1
:100F80001A70124B1B78002B0DD1084B1B79C3F341
:100F90000303DBB2013303F00F03D9B2034A137921
:100FA00061F30303137100BF80BD00BF1C0200206A
:100FB000A701002000000240000402406E01002052
:100FC00074010020A6010020A80100206D0100206E
:100FD00080B582B000AF0346FB71FB79092B59D86D
:100FE00001A252F823F000BF111000081F100008E2
:100FF0002D1000083B10000849100008551000088B
:10100000611000086D1000087910000887100008B2
:1010100001224FF48061214803F07AFB3AE001227B
:101020004FF400611D4803F073FB33E001224FF4DD
:1010300080511A4803F06CFB2CE001224FF4004170
:10104000164803F065FB25E001220421144803F053
:101050005FFB1FE001220821114803F059FB19E052
:10106000012210210E4803F053FB13E0012220213E
:101070000B4803F04DFB0DE001224FF4807108484E
:1010800003F046FB06E001224FF40071044803F030
:101090003FFB00BF00BF0837BD4680BD00000240D7
:1010A0000004024080B582B000AF0346FB71294BBB
:1010B0009B780133DAB2274B9A7000224FF480619B
:1010C000254803F025FB00224FF40061224803F07D
:1010D0001FFB00224FF480511F4803F019FB002230
:1010E0004FF400411C4803F013FB002204211B486D
:1010F00003F00EFB00220821184803F009FB002230
:101100001021164803F004FB00222021134803F0AD
:10111000FFFA00224FF48071104803F0F9FA002220
:101120004FF400710D4803F0F3FAFB790133DAB2A2
:101130000B4B1A70074B5B7803F00F03D9B2054ACB
:10114000137961F303031371FFF7A4FD00BF0837A0
:10115000BD4680BD1C020020000002400004024089
:101160006D01002080B582B000AF0346FB71FB79B2
:101170009BB21946064801F06BFF0346002B03D0D3
:10118000FB791846FFF78EFF00BF0837BD4680BDCC
:101190000000024080B582B000AF0023FB71012344
:1011A0007B7144E0394B1B78322B03D9374B00223B
:1011B0001A7005E0354B1B780133DAB2334B1A70E5
:1011C000324B1B780133DAB2304B1A7004F04AFF0D
:1011D00002462F4B83FB02135910D317C91A0B4633
:1011E0009B000B44D11A0B46FB71284B1B78184609
:1011F00004F00AFF0EE004F035FF0246244B83FBA7
:1012000002135910D317C91A0B469B000B44D11A6D
:101210000B46FB71BA79FB799A42ECD0FB79BB7132
:101220007B791C49FA79CA547B7901337B711A4B5B
:101230001B787A799A42B5D901233B711BE004F0FF
:1012400011FF0246124B83FB02135910D317C91A20
:101250000B469B000B44D11A0B46FB71BA79FB7904
:101260009A42ECD0FB79BB713B790C49FA79CA54AC
:101270003B7901333B71084B1B783A799A42EDD99F
:1012800000BF00BF0837BD4680BD00BF7001002011
:1012900067666666AC0100201C020020E0010020A9
:1012A00080B584B000AF03460A46FB711346BB719C
:1012B0000023FB73FB79013B042B4DD801A252F8AC
:1012C00023F000BFD9120008EF1200080513000830
:1012D0001B1300083113000801214C4803F000FAE9
:1012E0000346002B2FD0FB7B0133FB732BE0022145
:1012F000464803F0F5F90346002B26D0FB7B01336B
:10130000FB7322E00421414803F0EAF90346002B75
:101310001DD0FB7B0133FB7319E008213B4803F030
:10132000DFF90346002B14D0FB7B0133FB7310E085
:101330001021364803F0D4F90346002B0BD0FB7B79
:101340000133FB7307E000BF06E000BF04E000BF0D
:1013500002E000BF00E000BFBB79013B042B4FD887
:1013600001A252F823F000BF7D1300089313000878
:10137000A9130008BF130008D71300082021234831
:1013800003F0AEF90346002B31D0FB7B0133FB7336
:101390002DE040211D4803F0A3F90346002B28D07F
:1013A000FB7B0133FB7324E08021184803F098F99C
:1013B0000346002B1FD0FB7B0133FB731BE04FF474
:1013C0008071124803F08CF90346002B15D0FB7B8B
:1013D0000133FB7311E04FF400710C4803F080F906
:1013E0000346002B0BD0FB7B0133FB7307E000BFF0
:1013F00006E000BF04E000BF02E000BF00E000BF65
:10140000FB7B18461037BD4680BD00BF0000024080
:1014100080B500AFA54B1B79C3F30303DBB21A46BB
:10142000A24B5B789A4252D1A04A13796FF34513CD
:1014300013719E4A13796FF3041313719B4B0022AF
:101440005A719A4B00229A71984A13796FF30303E9
:101450001371974B1B780133DAB2954B1A70002247
:101460004FF48061934803F053F900224FF4006178
:10147000904803F04DF900224FF480518D4803F05D
:1014800047F900224FF400418A4803F041F9002255
:101490000421894803F03CF900220821864803F022
:1014A00037F900221021844803F032F9002220216C
:1014B000814803F02DF900224FF480717E4803F03B
:1014C00027F900224FF400717B4803F021F9774B94
:1014D0001A78774B1B789A42C0F0F680774B00223F
:1014E0001A80734B1B781A46754B9B5C704A1278B6
:1014F0001146744A525C1146184600F0ADF96C4B27
:101500001B781A466E4B9B5C042B66D801A252F8DE
:1015100023F000BF291500084915000869150008C7
:1015200089150008A91500080121624803F0D8F8C0
:101530000346002B48D15D4A137943F01003137121
:101540005A4B01225A713FE002215A4803F0C8F871
:101550000346002B3AD1554A137943F01003137117
:10156000524B02225A7131E00421524803F0B8F87C
:101570000346002B2CD14D4A137943F0100313710D
:101580004A4B03225A7123E008214A4803F0A8F885
:101590000346002B1ED1454A137943F01003137103
:1015A000424B04225A7115E01021424803F098F88A
:1015B0000346002B10D13D4A137943F010031371F9
:1015C0003A4B05225A7107E000BF06E000BF04E075
:1015D00000BF02E000BF00E000BF354B1B781A4699
:1015E000384B9B5C042B00F2B78001A252F823F029
:1015F0000516000827160008491600086916000895
:101600008B16000820212B4803F06AF80346002BB4
:1016100040F09980254A137943F020031371234B3E
:1016200001229A718FE04021224803F059F80346C5
:10163000002B40F08A801D4A137943F02003137178
:101640001A4B02229A7180E080211A4803F048F870
:101650000346002B7BD1154A137943F02003137105
:10166000124B03229A7172E04FF48071114803F01B
:1016700037F80346002B6CD10C4A137943F0200352
:1016800013710A4B04229A7163E04FF40071094808
:1016900003F026F80346002B5DD1044A137943F08A
:1016A00020031371014B05229A7154E01C020020A3
:1016B000A701002000000240000402406E0100204B
:1016C000AC010020E001002000224FF480615C4862
:1016D00003F01EF800224FF40061594803F018F897
:1016E00000224FF48051564803F012F800224FF4C4
:1016F0000041534803F00CF800220421514803F044
:1017000007F8002208214F4803F002F800221021B8
:101710004C4802F0FDFF002220214A4802F0F8FF69
:1017200000224FF48071474802F0F2FF00224FF48C
:101730000071444802F0ECFF434B02221A70434B05
:1017400001221A7008E000BF06E000BF04E000BFFD
:1017500002E000BF00E000BF3D4B1B7903F0200317
:10176000DBB2002B57D03A4B1B7903F01003DBB2EE
:10177000002B50D0374B1B780A2B4CD0344B9B7826
:101780000133DAB2324B9A7000224FF480612C4858
:1017900002F0BEFF00224FF40061294802F0B8FFBA
:1017A00000224FF48051264802F0B2FF00224FF48D
:1017B0000041234802F0ACFF00220421214802F03E
:1017C000A7FF002208211F4802F0A2FF00221021DB
:1017D0001C4802F09DFF002220211A4802F098FFC9
:1017E00000224FF48071174802F092FF00224FF45C
:1017F0000071144802F08CFFFFF74CFA154B0A22D7
:101800001A70134B5B7803F00F03D9B2104A1379A7
:1018100061F3030313710F4B1B78002B0DD10C4B9D
:101820001B79C3F30303DBB2013303F00F03D9B217
:10183000074A137961F30303137100BF80BD00BF32
:101840000000024000040240A6010020A801002080
:101850001C0200206D01002080B582B000AF03465D
:101860000A46FB711346BB71FB79042B2ED801A2EB
:1018700052F823F08918000897180008A5180008E6
:10188000B3180008C118000801224FF480612948EC
:1018900002F03EFF1AE001224FF40061254802F0F9
:1018A00037FF13E001224FF48051224802F030FF4D
:1018B0000CE001224FF400411E4802F029FF05E030
:1018C000012204211C4802F023FF00BFBB79042B36
:1018D0002CD801A252F823F0ED180008F9180008DE
:1018E00005190008111900081F1900080122082114
:1018F000114802F00DFF19E0012210210E4802F0FC
:1019000007FF13E0012220210B4802F001FF0DE048
:1019100001224FF48071084802F0FAFE06E001222D
:101920004FF40071044802F0F3FE00BF00BF083717
:10193000BD4680BD000002400004024080B586B074
:1019400002AF0346FB7107F10903FB60FB7923F04B
:101950000F03FB72FB791B01BB723A4B1B78012B07
:1019600005D1FB7A43F00C03DBB27B7204E0FB7A17
:1019700043F00403DBB27B72334B1B789BB25B00FA
:1019800099B24FF0FF3300930123FA682F4803F018
:1019900041F82C4B1B78012B05D17B7A23F00403F3
:1019A000DBB27B7204E07B7A23F00C03DBB27B7248
:1019B000254B1B789BB25B0099B24FF0FF3300932D
:1019C0000123FA68214803F025F81E4B1B78012BF0
:1019D00005D1BB7A43F00C03DBB27B7204E0BB7A27
:1019E00043F00403DBB27B72174B1B789BB25B00A6
:1019F00099B24FF0FF3300930123FA68134803F0C4
:101A000009F8104B1B78012B05D17B7A23F00403D6
:101A1000DBB27B7204E07B7A23F00C03DBB27B72D7
:101A2000094B1B789BB25B0099B24FF0FF330093D8
:101A30000123FA68054802F0EDFF00BF1037BD46EC
:101A400080BD00BF010000206C010020D0000020FC
:101A500080B586B002AF0346FB7107F10903FB6056
:101A6000FB7923F00F03FB72FB791B01BB723A4B2E
:101A70001B78012B05D1FB7A43F00D03DBB27B729F
:101A800004E0FB7A43F00503DBB27B72334B1B7837
:101A90009BB25B0099B24FF0FF3300930123FA68C9
:101AA0002F4802F0B7FF2C4B1B78012B05D17B7A16
:101AB00023F00403DBB27B7204E07B7A23F00C0397
:101AC000DBB27B72254B1B789BB25B0099B24FF067
:101AD000FF3300930123FA68214802F09BFF1E4B5D
:101AE0001B78012B05D1BB7A43F00D03DBB27B726F
:101AF00004E0BB7A43F00503DBB27B72174B1B7823
:101B00009BB25B0099B24FF0FF3300930123FA6858
:101B1000134802F07FFF104B1B78012B05D17B7A15
:101B200023F00403DBB27B7204E07B7A23F00C0326
:101B3000DBB27B72094B1B789BB25B0099B24FF012
:101B4000FF3300930123FA68054802F063FF00BFEA
:101B50001037BD4680BD00BF010000206C01002091
:101B6000D000002080B582B000AF03460A46FB716A
:101B70001346BB71154B1B78022B05D1BB79012B8A
:101B800002D1FB794033FB71104B1B78042B11D130
:101B9000BB79012B02D1FB794033FB71BB79022B5E
:101BA00002D1FB791433FB71BB79032B02D1FB7992
:101BB0005433FB71FB7963F07F03FB71FB791846AB
:101BC000FFF7BCFE00BF0837BD4680BD0000002007
:101BD00080B584B000AF78600023FB730AE07B68B7
:101BE0001B781846FFF734FF7B6801337B60FB7B73
:101BF0000133FB737B681B78002BF0D100BF00BF63
:101C00001037BD4680BD000080B584B000AF78605D
:101C10007B68002B05DA3C48FFF7DAFF7B685B4204
:101C20007B607B68FB607B6842F20F72934214DD3D
:101C3000FB68364A82FB03121213DB17D31AFB72BE
:101C4000FB7A3033DBB21846FFF702FFFB7A304AEB
:101C500002FB03F3FA681344FB607B68B3F57A7FF9
:101C600014DBFB682B4A82FB03129211DB17D31A99
:101C7000FB72FB7A3033DBB21846FFF7E9FEFB7AE2
:101C8000254A02FB03F3FA681344FB607B68632B6D
:101C900015DDFB68214A82FB03125211DB17D31AB0
:101CA000FB72FB7A3033DBB21846FFF7D1FEFB7ACA
:101CB0006FF0630202FB03F3FA681344FB607B6876
:101CC000092B15DDFB68164A82FB03129210DB1705
:101CD000D31AFB72FB7A3033DBB21846FFF7B8FE3B
:101CE000FB7A6FF0090202FB03F3FA681344FB600E
:101CF000FB68DBB23033DBB21846FFF7A9FE00BF4A
:101D00001037BD4680BD00BFA8700008AD8BDB68F2
:101D1000F0D8FFFFD34D621018FCFFFF1F85EB5179
:101D20006766666680B586B002AF0023FB7316E077
:101D3000FB7B9BB25B0099B20A230122584802F058
:101D400067FF0346FB71FB79002B05D1FB7B502B12
:101D500002D0544AFB7B1370FB7B0133FB7397F972
:101D60000F30002BE4DABB1DBB600F2001F034FB09
:101D70003423BB714B4B1B789BB25B0099B24FF085
:101D8000FF3300930123BA68454802F043FE012067
:101D900001F022FB3023BB71424B1B789BB25B00EE
:101DA00099B24FF0FF3300930123BA683C4802F028
:101DB00031FE052001F010FB3423BB71394B1B7839
:101DC0009BB25B0099B24FF0FF3300930123BA68D6
:101DD000334802F01FFE3023BB71012001F0FCFAF2
:101DE000304B1B789BB25B0099B24FF0FF330093EE
:101DF0000123BA682A4802F00DFE012001F0ECFA36
:101E00002423BB71274B1B789BB25B0099B24FF028
:101E1000FF3300930123BA68214802F0FBFD012043
:101E200001F0DAFA2023BB711E4B1B789BB25B00DA
:101E300099B24FF0FF3300930123BA68184802F0BB
:101E4000E9FD012001F0C8FA2820FFF777FD012005
:101E500001F0C2FA0920FFF771FD012001F0BCFA80
:101E60000120FFF76BFD022001F0B6FA0620FFF714
:101E700065FD012001F0B0FA0C20FFF75FFD0120A5
:101E800001F0AAFA0220FFF759FD022001F0A4FA9E
:101E900000210020FFF766FE00BF1037BD4680BD61
:101EA000D00000206C01002080B500AF0021002090
:101EB000FFF758FE0548FFF78BFE01210020FFF7D2
:101EC00051FE0248FFF784FE00BF80BDAC700008E1
:101ED00080B500AF5C4B1B79C3F30303DBB21A463A
:101EE000594B5B789A4242D1574A13796FF30303F7
:101EF0001371564B1B780133DAB2544B1A7001221E
:101F00004FF48061524802F003FC01224FF400615B
:101F10004F4802F0FDFB01224FF480514C4802F083
:101F2000F7FB01224FF40041494802F0F1FB012286
:101F30000421484802F0ECFB01220821454802F048
:101F4000E7FB01221021434802F0E2FB012220219D
:101F5000404802F0DDFB01224FF480713D4802F061
:101F6000D7FB01224FF400713A4802F0D1FB364B07
:101F70001A78364B1B789A4213D3374B00221A80BB
:101F8000324B1B781A46354B9B5C184600F06EF8B6
:101F90002E4B1B781A46314B9B5C184600F030F9EB
:101FA0003DE000224FF48061294802F0B1FB00229D
:101FB0004FF40061264802F0ABFB00224FF4805141
:101FC000234802F0A5FB00224FF40041204802F014
:101FD0009FFB002204211F4802F09AFB00220821E7
:101FE0001C4802F095FB002210211A4802F090FBD9
:101FF00000222021174802F08BFB00224FF4807151
:10200000144802F085FB00224FF40071114802F0E1
:102010007FFB134B02221A70124B01221A70124BD3
:102020001B78002B0DD1084B1B79C3F30303DBB2E4
:10203000013303F00F03D9B2034A137961F30303A9
:10204000137100BF80BD00BF1C020020A70100204B
:1020500000000240000402406E01002074010020D4
:10206000A6010020A80100206D01002080B582B0EB
:1020700000AF0346FB71FB79092B59D801A252F836
:1020800023F000BFAD200008BB200008C9200008D5
:10209000D7200008E5200008F1200008FD200008F6
:1020A00009210008152100082321000800224FF40F
:1020B0008061214802F02CFB3AE000224FF40061DD
:1020C0001D4802F025FB33E000224FF480511A48EE
:1020D00002F01EFB2CE000224FF40041164802F0F3
:1020E00017FB25E000220421144802F011FB1FE039
:1020F00000220821114802F00BFB19E000221021F8
:102100000E4802F005FB13E0002220210B4802F0EC
:10211000FFFA0DE000224FF48071084802F0F8FA4F
:1021200006E000224FF40071044802F0F1FA00BF0B
:1021300000BF0837BD4680BD0000024000040240D9
:1021400080B582B000AF0346FB71294B9B78013309
:10215000DAB2274B9A7001224FF48061254802F0D1
:10216000D7FA01224FF40061224802F0D1FA01228D
:102170004FF480511F4802F0CBFA01224FF4004186
:102180001C4802F0C5FA012204211B4802F0C0FAE3
:1021900001220821184802F0BBFA0122102116483A
:1021A00002F0B6FA01222021134802F0B1FA01220E
:1021B0004FF48071104802F0ABFA01224FF4007125
:1021C0000D4802F0A5FAFB790133DAB20B4B1A7015
:1021D000074B5B7803F00F03D9B2054A137961F31B
:1021E00003031371FEF756FD00BF0837BD4680BDDF
:1021F0001C02002000000240000402406D0100208B
:1022000080B582B000AF0346FB71FB799BB21946E3
:10221000064800F01DFF0346002B03D0FB7918464B
:10222000FFF78EFF00BF0837BD4680BD00000240AB
:1022300080B500AF01F05EF800F000FA00F00EFB90
:1022400000F0BAFA00F064FA00F0E4FAFFF76AFD71
:102250008D4803F0A9FC00224FF480618B4802F006
:1022600057FA00224FF40061884802F051FA002228
:102270004FF48051854802F04BFA00224FF40041A0
:10228000824802F045FA00220421814802F040FA17
:10229000002208217E4802F03BFA002210217C48EF
:1022A00002F036FA00222021794802F031FA0022A9
:1022B0004FF48071764802F02BFA00224FF400713F
:1022C000734802F025FA00F08DFB0346042B01D879
:1022D000FEF770F94FF47A7001F07EF800F0ACFB75
:1022E000FEF764FA6B4B03221A7001210E20FFF7F0
:1022F00039FC694B9B781846FFF786FC674B1B78C7
:10230000012B64D1634B03221A70654B00221A70B3
:10231000FFF7CAFD604B00229A7000224FF48061E3
:102320005A4802F0F5F900224FF40061574802F0D4
:10233000EFF900224FF48051544802F0E9F90022ED
:102340004FF40041514802F0E3F9002204215048C3
:1023500002F0DEF9002208214D4802F0D9F90022EE
:1023600010214B4802F0D4F900222021484802F005
:10237000CFF900224FF48071454802F0C9F90022DC
:102380004FF40071424802F0C3F900BF404B1B6993
:1023900003F48063002BF9D000BF3D4B1B6903F4AD
:1023A0008063002B07D00A223949142000F068FE10
:1023B0000346002BF1D100BF354B1B6903F480634A
:1023C000002BF9D0364B01221A70FEF7EFF9354B8E
:1023D0001B78012B0DD1304B9A782F4B1B789A42EA
:1023E00002D1FEF719FC01E0FEF73EFC2D4B002266
:1023F0001A70294BDB78012B03D0274BDB78002B9D
:1024000004D1294B1B781846FEF766FC224B5B79FA
:10241000214A927911461846FEF742FF0346022BE5
:1024200006D11D4BDB78022B02D11F4B00221A7004
:1024300000F0D8FA0346042B01D8FEF76BFA01210D
:10244000124802F04DF90346002B40F08A80114BF0
:102450001B78002B40F085800F4BDB78022B02D1DC
:10246000FEF798FE01E0FEF719FA0B4BDB78012B23
:1024700007D0094BDB78002B03D0074BDB78032B0D
:1024800014D1FEF70BFA17E02401002000000240EF
:1024900000040240A60100201C02002013020020BC
:1024A00001000020A80100206D0100205A4BDB78BC
:1024B000022B01D1FEF76EFE584B01221A70564ACC
:1024C00013796FF30303137100224FF480615448B2
:1024D00002F01EF900BF0121514802F001F9034644
:1024E000002BF8D04F4B01221A704B4BDB78012B9D
:1024F00037D101224FF48061494802F009F90122E5
:102500004FF40061464802F003F901224FF4805174
:10251000434802F0FDF801224FF40041404802F028
:10252000F7F801220421404802F0F2F801220821C4
:102530003D4802F0EDF8012210213B4802F0E8F896
:1025400001222021384802F0E3F801224FF4807183
:10255000354802F0DDF801224FF40071324802F0F4
:10256000D7F8324B1B78322B03D9304B00221A702C
:1025700005E02E4B1B780133DAB22C4B1A7000F0B9
:1025800031FA03461A462A4BDB880A3B9A423EDB65
:1025900000F028FA03461A46254BDB880A339A4294
:1025A00035DC244B00221A8003E0224B1B88142BBD
:1025B00012D800F017FA03461A461D4BDB880A3B77
:1025C0009A420ADB00F00EFA03461A46184BDB88E3
:1025D0000A339A42E9DD00E000BF164B1B880A2B44
:1025E00002D9FEF771FA12E00B4B00229A7001211A
:1025F0000F20FFF7B7FA1048FFF7EAFA01224FF46D
:102600008061074802F084F8064B00221A706420AB
:1026100000F0E2FE69E600BF1C020020A7010020D6
:1026200000000240A60100200004024070010020CA
:10263000140200206E010020C070000880B594B024
:1026400000AF07F1200330220021184603F03BFEC3
:1026500007F10C0300221A605A609A60DA601A616E
:102660000023BB60284B1B6C274A43F08053136444
:10267000254B1B6C03F08053BB60BB6800237B6061
:10268000224B1B6823F44043204A43F40043136069
:102690001E4B1B6803F440437B607B6801233B6255
:1026A0004FF480337B620223BB634FF48003FB63F0
:1026B00019233B64A8237B640223BB640423FB64CB
:1026C00007F12003184602F0DBFD0346002B01D082
:1026D00000F082F90F23FB6002233B6100237B6142
:1026E0004FF4A053BB610023FB6107F10C030221EF
:1026F000184603F03DF80346002B01D000F06CF9BA
:1027000000BF5037BD4680BD003802400070004019
:1027100080B584B000AF3B4600221A605A609A60D0
:10272000DA60224B224A1A60204B4FF480325A6002
:102730001E4B4FF080729A601C4B00221A611B4B9B
:1027400000221A76194B002283F82020174B002212
:10275000DA62164B174A9A62144B0022DA60134B66
:102760000122DA61114B002283F830200F4B012245
:102770005A610E4800F054FE0346002B01D000F0D1
:102780002BF908233B6001237B600023BB603B46A1
:102790001946064801F008F80346002B01D000F066
:1027A0001BF900BF1037BD4680BD00BF8800002068
:1027B000002001400100000F80B500AF124B134A0A
:1027C0001A60114B124A5A600F4B00229A600E4B4E
:1027D0000022DA600C4B4FF480421A610A4B00224F
:1027E0005A61094B00229A61074B0022DA61064BBD
:1027F00000221A62044801F0C9FF0346002B01D0F1
:1028000000F0EAF800BF80BDD00000200054004076
:10281000A086010080B500AF0E4B0F4A1A600D4B29
:102820004AF20F425A600B4B00229A60094BC722B2
:10283000DA60084B00221A61064B00229A610548B3
:1028400003F062F90346002B01D000F0C5F800BF89
:1028500080BD00BF240100200044014080B58AB043
:1028600000AF07F1140300221A605A609A60DA6020
:102870001A6100233B61544B1B6B534A43F0040322
:102880001363514B1B6B03F004033B613B69002353
:10289000FB604D4B1B6B4C4A43F0800313634A4B68
:1028A0001B6B03F08003FB60FB680023BB60464B9F
:1028B0001B6B454A43F001031363434B1B6B03F04F
:1028C0000103BB60BB6800237B603F4B1B6B3E4A30
:1028D00043F0020313633C4B1B6B03F002037B606A
:1028E0007B6800224FF42041384801F011FF00229C
:1028F00041F23C31364801F00BFF00224FF41C41FD
:10290000344801F005FF4FF420437B610123BB6194
:102910000023FB6100233B6207F1140319462B4897
:1029200001F05AFD40F2FF337B610023BB610123BC
:10293000FB6107F114031946264801F04DFD41F2F1
:102940003C337B610123BB610023FB6100233B62BD
:1029500007F1140319461E4801F03EFD4FF4806351
:102960007B614FF40413BB610123FB6107F1140386
:102970001946174801F030FD4FF400537B610023E6
:10298000BB610123FB6107F114031946104801F0F4
:1029900023FD4FF41C437B610123BB610023FB61DA
:1029A00000233B6207F1140319460A4801F014FDA5
:1029B00000220021282001F0F0F9282001F009FA76
:1029C00000BF2837BD4680BD0038024000080240E5
:1029D000000402400000024080B400AF72B600BFA5
:1029E000FEE7000080B582B000AF0023FB801148F5
:1029F00000F05AFD00237B710EE00A210D4800F023
:102A00003AFE0C4800F0C2FE0346FB80FB885B00E8
:102A1000FB807B7901337B717B79032BEDD9FB88BC
:102A20005B08FB80034800F0F3FDFB88184608377D
:102A3000BD4680BD8800002080B500AF194800F079
:102A400045F803469AB2184B1A80184800F03EF831
:102A500003469AB2144B5A80154800F037F80346E3
:102A60009AB2114BDA80134800F030F80346DAB21C
:102A7000114BDA70114800F029F80346DAB2104B16
:102A80001A700F4B1B781A460E4B9A5C0A4B1A7041
:102A90000D4800F01BF80346DAB2074B5A7000BF2E
:102AA00080BD00BF000002081402002002000208DE
:102AB00004000208060002081C02002008000208A8
:102AC00012020020C47000080A00020880B483B01B
:102AD00000AF78607B681B6818460C37BD465DF810
:102AE000047B70472DE9B04F86B000AF2E4B052216
:102AF0009A602D4B0122DA602B4B00221A6001F004
:102B0000D7F92A49284801F045FB294B1B889BB27D
:102B100000221C46154622462B462649012001F07C
:102B200073F9234B5B889BB200229846914642463C
:102B30004B462149012001F067F91D4BDB889BB210
:102B400000223B617A61D7E904231C49012001F08E
:102B50005BF91B4BDB78DBB20022BB60FA60D7E984
:102B600002231849012001F04FF9154B5B78DBB2C5
:102B700000223B607A60D7E900231349012001F06D
:102B800043F9124B1B78DBB200229A469346524619
:102B90005B460F49012001F037F901F0ABF900BFA6
:102BA0001837BD46BDE8B08F24020020380200204F
:102BB00014020020000002080200020804000208BB
:102BC0001C020020060002080A000208120200206F
:102BD0000800020880B500AFFEF72CF900BF80BDE9
:102BE00080B483B000AF00237B60104B5B6C0F4A56
:102BF00043F4804353640D4B5B6C03F480437B6070
:102C00007B6800233B60094B1B6C084A43F08053F0
:102C10001364064B1B6C03F080533B603B6800BFA2
:102C20000C37BD465DF8047B704700BF003802409A
:102C300080B58AB000AF786007F1140300221A60F3
:102C40005A609A60DA601A617B681B68174A93427F
:102C500027D100233B61164B5B6C154A43F480730C
:102C60005364134B5B6C03F480733B613B6900233B
:102C7000FB600F4B1B6B0E4A43F0020313630C4BBC
:102C80001B6B03F00203FB60FB6803237B610323E0
:102C9000BB610023FB6107F114031946054801F0ED
:102CA0009BFB00BF2837BD4680BD00BF0020014010
:102CB000003802400004024080B58AB000AF78605E
:102CC00007F1140300221A605A609A60DA601A61F0
:102CD0007B681B68194A93422BD100233B61184B38
:102CE0001B6B174A43F002031363154B1B6B03F076
:102CF00002033B613B69C0237B611223BB6101235B
:102D0000FB6103233B6204237B6207F11403194632
:102D10000C4801F061FB0023FB60094B1B6C084A67
:102D200043F400131364064B1B6C03F40013FB60A5
:102D3000FB6800BF2837BD4680BD00BF005400407F
:102D4000003802400004024080B584B000AF7860D3
:102D50007B681B680E4A934215D10023FB600D4B24
:102D60005B6C0C4A43F4003353640A4B5B6C03F412
:102D70000033FB60FB6800220021192001F00DF8F0
:102D8000192001F026F800BF1037BD4680BD00BFF6
:102D9000004401400038024080B400AFFEE780B438
:102DA00000AFFEE780B400AFFEE780B400AFFEE7FF
:102DB00080B400AFFEE780B400AF00BFBD465DF851
:102DC000047B704780B400AF00BFBD465DF8047B54
:102DD000704780B400AF00BFBD465DF8047B70470C
:102DE00080B500AF00F0D8FA00BF80BD80B500AF5D
:102DF000244802F03BFF244B1B8801339AB2224B3C
:102E00001A80224B1B78012B09D1214B1B78002BF8
:102E100005D1204BDB78002B01D1FEF70BF81B4BC3
:102E20001B78012B09D11A4B1B78002B05D1194BAC
:102E3000DB78012B01D1FFF74BF8144B1B78012BEA
:102E400009D1134B1B78002B05D1124BDB78022BD9
:102E500001D1FEF7DDFA0F4BDB78042B01D100F036
:102E600055F90A4B1B78012B09D1094B1B78002B14
:102E700005D1084BDB78032B01D1FFF7ABFE00BF78
:102E800080BD00BF240100206E010020A6010020AB
:102E90006D0100201C02002080B500AF4FF480605F
:102EA00001F050FC064B1B78002B03D1044B012290
:102EB0001A7002E0024B00221A7000BF80BD00BFF2
:102EC0001302002080B400AF01231846BD465DF810
:102ED000047B704780B582B000AF7860396003F042
:102EE00041FA034616221A604FF0FF33184608379E
:102EF000BD4680BD80B582B000AF78604FF0FF3135
:102F00007868FFF7E7FFFEE780B586B000AFF860AE
:102F1000B9607A6000237B610AE0AFF3008001466C
:102F2000BB685A1CBA60CAB21A707B6901337B61F4
:102F30007A697B689A42F0DB7B6818461837BD4691
:102F400080BD80B586B000AFF860B9607A600023BC
:102F50007B6109E0BB685A1CBA601B781846AFF366
:102F600000807B6901337B617A697B689A42F1DB7F
:102F70007B6818461837BD4680BD80B483B000AF6B
:102F800078604FF0FF3318460C37BD465DF8047B80
:102F9000704780B483B000AF786039603B684FF40D
:102FA00000525A60002318460C37BD465DF8047B7A
:102FB000704780B483B000AF7860012318460C37A7
:102FC000BD465DF8047B704780B485B000AFF86003
:102FD000B9607A60002318461437BD465DF8047B5B
:102FE0007047000080B586B000AF7860144A154B7A
:102FF000D31A7B617B693B61134B1B68002B02D1A9
:10300000114B124A1A60104B1A687B6813443A69D4
:103010009A4207D203F0A6F903460C221A604FF039
:10302000FF3309E0084B1B68FB60074B1A687B689D
:103030001344054A1360FB6818461837BD4680BD27
:1030400000000120000400003C020020B00300202A
:1030500080B483B000AF78600B467B807B681A69D0
:103060007B8822FA03F303F00103002B01D1012333
:1030700000E0002318460C37BD465DF8047B70471E
:1030800080B584B000AF03463960FB711346BB8046
:103090000023FB730023BB7300237B730023FB73AC
:1030A00012E03B681A69BB881340002B03D1BB7B3D
:1030B0000133BB7302E07B7B01337B73012000F0A3
:1030C0008BF9FB7B0133FB73FA7BFB799A42E8D3E4
:1030D000BA7B7B7B9A4201D9012300E0002318468A
:1030E0001037BD4680BD000080B400AF064BD3F85A
:1030F0008830054A43F47003C2F8883000BFBD46EB
:103100005DF8047B704700BF00ED00E080B500AFC4
:1031100000224FF48061604801F0FAFA00224FF477
:1031200000615D4801F0F4FA00224FF480515A48E2
:1031300001F0EEFA00224FF40041574801F0E8FA9E
:1031400000220421554801F0E3FA002208215348E7
:1031500001F0DEFA00221021504801F0D9FA0022D5
:1031600020214E4801F0D4FA00224FF480714B48E0
:1031700001F0CEFA00224FF40071484801F0C8FA7D
:103180000121454801F0ACFA0346002B06D101228B
:103190004FF48061404801F0BBFA7BE002213E48D9
:1031A00001F09EFA0346002B06D101224FF4006184
:1031B000394801F0ADFA6DE00421374801F090FA8A
:1031C0000346002B06D101224FF48051324801F012
:1031D0009FFA5FE00821304801F082FA0346002B95
:1031E00006D101224FF400412B4801F091FA51E041
:1031F0001021294801F074FA0346002B05D1012261
:103200000421264801F084FA44E02021224801F0FC
:1032100067FA0346002B05D1012208211F4801F05F
:1032200077FA37E040211C4801F05AFA0346002B98
:1032300005D101221021194801F06AFA2AE0802103
:10324000154801F04DFA0346002B05D1012220213B
:10325000124801F05DFA1DE04FF480710E4801F054
:103260003FFA0346002B06D101224FF480710B4830
:1032700001F04EFA0EE04FF40071074801F030FA09
:103280000346002B06D101224FF40071034801F0E0
:103290003FFAFFE700BF80BD00000240000402408B
:1032A000DFF834D00D480E490E4A002302E0D4580E
:1032B000C4500433C4188C42F9D30B4A0B4C00237E
:1032C00001E013600432A242FBD3FFF70DFF03F0CD
:1032D0004FF8FEF7ADFF704700000120000000200E
:1032E0006C000020D47100086C000020B0030020A6
:1032F000FEE7000080B500AF0E4B1B680D4A43F49B
:10330000007313600B4B1B680A4A43F4806313601D
:10331000084B1B68074A43F480731360032000F0D6
:1033200031FD002000F008F8FFF75AFC0023184692
:1033300080BD00BF003C024080B582B000AF786025
:10334000124B1A68124B1B7819464FF47A73B3FB71
:10335000F1F3B2FBF3F3184600F049FD0346002BEE
:1033600001D001230EE07B680F2B0AD80022796878
:103370004FF0FF3000F011FD064A7B681360002318
:1033800000E0012318460837BD4680BD0400002038
:103390000C0000200800002080B400AF064B1B7812
:1033A0001A46064B1B681344044A136000BFBD460F
:1033B0005DF8047B704700BF0C0000204002002035
:1033C00080B400AF034B1B681846BD465DF8047B14
:1033D000704700BF4002002080B584B000AF786025
:1033E000FFF7EEFFB8607B68FB60FB68B3F1FF3F5F
:1033F00005D00A4B1B781A46FB681344FB6000BFDC
:10340000FFF7DEFF0246BB68D31AFA689A42F7D884
:1034100000BF00BF1037BD4680BD00BF0C000020BC
:1034200080B584B000AF78600023FB737B68002B0D
:1034300001D1012333E07B681B6C002B09D1786834
:10344000FFF7F6FB7B6800225A647B68002283F852
:103450003C207B681B6C03F01003002B18D17B68A9
:103460001B6C23F4885323F0020343F002027B68B1
:103470001A64786800F0BAFA7B6800225A647B68A4
:103480001B6C23F0030343F001027B681A6401E024
:103490000123FB737B68002283F83C20FB7B1846EA
:1034A0001037BD4680BD000080B485B000AF7860A5
:1034B0000023BB607B6893F83C30012B01D10223D1
:1034C00097E07B68012283F83C207B681B689B683F
:1034D00003F00103012B18D07B681B689A687B6896
:1034E0001B6842F001029A60454B1B68454AA2FBEB
:1034F00003239A0C13465B001344BB6002E0BB68D5
:10350000013BBB60BB68002BF9D17B681B689B68E3
:1035100003F00103012B5FD17B681B6C23F4E06394
:1035200023F0010343F480727B681A647B681B6894
:103530005B6803F48063002B07D07B681B6C23F46B
:10354000405343F480527B681A647B681B6C03F41D
:103550008053B3F5805F06D17B685B6C23F0060275
:103560007B685A6402E07B6800225A647B68002210
:1035700083F83C20244BFB607B681B686FF02202C1
:103580001A60FB685B6803F01F03002B0FD17B6898
:103590001B689B6803F04053002B29D17B681B6894
:1035A0009A687B681B6842F080429A6020E07B68E2
:1035B0001B68164A93421BD17B681B689B6803F00B
:1035C0004053002B14D17B681B689A687B681B688A
:1035D00042F080429A600BE07B681B6C43F0100263
:1035E0007B681A647B685B6C43F001027B685A64F9
:1035F000002318461437BD465DF8047B704700BFB2
:103600000400002083DE1B43002301400020014012
:1036100080B483B000AF78607B6893F83C30012BB6
:1036200001D1022321E07B68012283F83C207B68E2
:103630001B689A687B681B6822F001029A607B68AD
:103640001B689B6803F00103002B09D17B681B6C8E
:1036500023F4885323F0010343F001027B681A64CA
:103660007B68002283F83C20002318460C37BD46B7
:103670005DF8047B704780B584B000AF7860396036
:103680000023FB607B681B689B6803F48063B3F5D1
:10369000806F13D17B681B689B6803F48073B3F55C
:1036A000807F0BD17B681B6C43F020027B681A641F
:1036B0007B68002283F83C20012363E0FFF780FE53
:1036C000F86021E03B68B3F1FF3F1DD03B68002B61
:1036D00007D0FFF775FE0246FB68D31A3A689A4294
:1036E00012D27B681B681B6803F00203022B0BD00D
:1036F0007B681B6C43F004027B681A647B680022C1
:1037000083F83C2003233DE07B681B681B6803F0C3
:103710000203022BD6D17B681B686FF012021A607D
:103720007B681B6C43F400727B681A647B681B68BF
:103730009B6803F04053002B23D17B681B7E002B3A
:103740001FD17B681B68DB6A03F47003002B06D073
:103750007B681B689B6803F48063002B11D17B6836
:103760001B6C23F480727B681A647B681B6C03F407
:103770008053002B05D17B681B6C43F001027B68F2
:103780001A64002318461037BD4680BD80B483B04C
:1037900000AF78607B681B68DB6C18460C37BD4651
:1037A0005DF8047B7047000080B485B000AF78609E
:1037B00039600023BB607B6893F83C30012B01D15A
:1037C000022305E17B68012283F83C203B681B68EB
:1037D000092B25D97B681B68D9683B681B689BB29D
:1037E0001A4613465B0013441E3B072202FA03F3FA
:1037F000DA437B681B680A40DA607B681B68D9681B
:103800003B689A683B681B689BB2184603465B009E
:1038100003441E3B9A407B681B680A43DA6022E03F
:103820007B681B6819693B681B689BB21A46134684
:103830005B001344072202FA03F3DA437B681B6838
:103840000A401A617B681B6819693B689A683B6883
:103850001B689BB2184603465B0003449A407B6892
:103860001B680A431A613B685B68062B24D87B6897
:103870001B68596B3B685A6813469B001344053B11
:103880001F2202FA03F3DA437B681B680A405A637B
:103890007B681B68596B3B681B689BB218463B688A
:1038A0005A6813469B001344053B00FA03F27B68F9
:1038B0001B680A435A634CE03B685B680C2B24D8B6
:1038C0007B681B68196B3B685A6813469B0013445E
:1038D000233B1F2202FA03F3DA437B681B680A408A
:1038E0001A637B681B68196B3B681B689BB21846A0
:1038F0003B685A6813469B001344233B00FA03F2CB
:103900007B681B680A431A6323E07B681B68D96ADB
:103910003B685A6813469B001344413B1F2202FA3E
:1039200003F3DA437B681B680A40DA627B681B6832
:10393000D96A3B681B689BB218463B685A681346B5
:103940009B001344413B00FA03F27B681B680A4367
:10395000DA62224BFB607B681B68214A934209D1E3
:103960003B681B68122B05D1FB685B6843F480023F
:10397000FB685A607B681B68194A934223D13B68F5
:103980001B68102B03D03B681B68112B1BD1FB68F5
:103990005B6843F40002FB685A603B681B68102BAD
:1039A00011D1104B1B68104AA2FB03239A0C13463B
:1039B0009B0013445B00BB6002E0BB68013BBB6043
:1039C000BB68002BF9D17B68002283F83C200023E0
:1039D00018461437BD465DF8047B7047002301404C
:1039E000002001400400002083DE1B4380B485B02A
:1039F00000AF7860794BFB60FB685B6823F4403272
:103A0000FB685A60FB685A687B685B681A43FB680E
:103A10005A607B681B685A687B681B6822F4807256
:103A20005A607B681B6859687B681B691A027B684F
:103A30001B680A435A607B681B685A687B681B686E
:103A400022F040725A607B681B6859687B689A68EC
:103A50007B681B680A435A607B681B689A687B68AE
:103A60001B6822F400629A607B681B6899687B6817
:103A7000DA687B681B680A439A607B689B6A584ACD
:103A8000934222D07B681B689A687B681B6822F08F
:103A900070629A607B681B6899687B689A6A7B6829
:103AA0001B680A439A607B681B689A687B681B687E
:103AB00022F040529A607B681B6899687B68DA6ADA
:103AC0007B681B680A439A600FE07B681B689A68F2
:103AD0007B681B6822F070629A607B681B689A683A
:103AE0007B681B6822F040529A607B681B689A686A
:103AF0007B681B6822F002029A607B681B689968E9
:103B00007B681B7E5A007B681B680A439A607B684F
:103B100093F82030002B1BD07B681B685A687B68A9
:103B20001B6842F400625A607B681B685A687B68B5
:103B30001B6822F460425A607B681B6859687B6886
:103B40005B6A013B5A037B681B680A435A6007E0C3
:103B50007B681B685A687B681B6822F400625A60A5
:103B60007B681B68DA6A7B681B6822F47002DA6281
:103B70007B681B68D96A7B68DB69013B1A057B6837
:103B80001B680A43DA627B681B689A687B681B685B
:103B900022F400729A607B681B6899687B6893F8CE
:103BA00030305A027B681B680A439A607B681B6846
:103BB0009A687B681B6822F480629A607B681B6845
:103BC00099687B685B699A027B681B680A439A6004
:103BD00000BF1437BD465DF8047B704700230140E9
:103BE0000100000F80B485B000AF78607B6803F0FF
:103BF0000703FB600C4BDB68BB60BA684FF6FF0342
:103C00001340BB60FB681A02BB68134343F0BF63F9
:103C100043F40033BB60044ABB68D36000BF143771
:103C2000BD465DF8047B704700ED00E080B400AF56
:103C3000044BDB681B0A03F007031846BD465DF81A
:103C4000047B704700ED00E080B483B000AF034612
:103C5000FB7197F90730002B0BDBFB7903F01F0298
:103C6000074997F907305B09012000FA02F241F891
:103C7000232000BF0C37BD465DF8047B704700BFB2
:103C800000E100E080B483B000AF03463960FB710F
:103C900097F90730002B0ADB3B68DAB20C4997F939
:103CA00007301201D2B20B4483F800230AE03B68CC
:103CB000DAB20849FB7903F00F03043B1201D2B2D8
:103CC0000B441A7600BF0C37BD465DF8047B704785
:103CD00000E100E000ED00E080B489B000AFF860E2
:103CE000B9607A60FB6803F00703FB61FB69C3F10D
:103CF0000703042B28BF0423BB61FB690433062B95
:103D000002D9FB69033B00E000237B614FF0FF32E7
:103D1000BB6902FA03F3DA43BB681A407B699A4035
:103D20004FF0FF317B6901FA03F3D9437B680B4005
:103D3000134318462437BD465DF8047B70470000E6
:103D400080B582B000AF78607B68013BB3F1807FC3
:103D500001D301230FE00A4A7B68013B53600F2126
:103D60004FF0FF30FFF78EFF054B00229A60044BA7
:103D700007221A60002318460837BD4680BD00BFE1
:103D800010E000E080B582B000AF78607868FFF79F
:103D900029FF00BF0837BD4680BD80B586B000AFA3
:103DA0000346B9607A60FB7300237B61FFF73EFF37
:103DB00078617A68B9687869FFF78EFF024697F9EB
:103DC0000F3011461846FFF75DFF00BF1837BD469C
:103DD00080BD80B582B000AF0346FB7197F9073014
:103DE0001846FFF731FF00BF0837BD4680BD80B5DC
:103DF00082B000AF78607868FFF7A2FF03461846EC
:103E00000837BD4680BD000080B586B000AFF860C1
:103E1000B960C7E900230123FB75234B1B7E012BEF
:103E200001D102233BE0204B01221A764CF25030A4
:103E300000F070F80346FB75FB7D002B2BD1FB686F
:103E4000002B05D13B781946B86800F01BF916E045
:103E5000FB68012B05D13B881946B86800F0EEF8E5
:103E60000DE0FB68022B05D13B681946B86800F0ED
:103E7000C3F804E0D7E90023B86800F08BF84CF2EF
:103E8000503000F047F80346FB75084B1B69074AA2
:103E900023F001031361044B00221A76FB7D1846C0
:103EA0001837BD4680BD00BF44020020003C0240E0
:103EB00080B483B000AF0023FB710B4B1B69002B58
:103EC0000BDA094B094A5A60074B094A5A60064BFC
:103ED0001B69002B01DA0123FB71FB7918460C37B3
:103EE000BD465DF8047B7047003C024023016745F6
:103EF000AB89EFCD80B400AF054B1B69044A43F09A
:103F00000043136100231846BD465DF8047B7047EB
:103F1000003C024080B584B000AF78600023FB60B5
:103F20001A4B0022DA61FFF74BFAF86010E07B6869
:103F3000B3F1FF3F0CD07B68002B07D0FFF740FAAE
:103F40000246FB68D31A7A689A4201D2032319E029
:103F50000F4BDB6803F48033002BE8D10C4BDB689C
:103F600003F00103002B02D0094B0122DA60084B59
:103F7000DB6803F4F973002B03D000F0A5F80123EC
:103F800000E0002318461037BD4680BD44020020E3
:103F9000003C024080B485B000AFF860C7E9002360
:103FA000144B1B69134A23F440731361114B1B69B3
:103FB000104A43F4407313610E4B1B690D4A43F0E2
:103FC00001031361FB683A681A60BFF36F8F00BF8B
:103FD000D7E900014FF000024FF000030A00002370
:103FE000F968043113460B6000BF1437BD465DF815
:103FF000047B7047003C024080B483B000AF78601F
:1040000039600D4B1B690C4A23F4407313610A4B52
:104010001B69094A43F400731361074B1B69064A85
:1040200043F0010313617B683A681A6000BF0C37E4
:10403000BD465DF8047B7047003C024080B483B00D
:1040400000AF78600B467B800D4B1B690C4A23F454
:10405000407313610A4B1B69094A43F4807313616F
:10406000074B1B69064A43F0010313617B687A889A
:104070001A8000BF0C37BD465DF8047B704700BF57
:10408000003C024080B483B000AF78600B46FB7008
:104090000C4B1B690B4A23F440731361094B094A0B
:1040A0001B691361074B1B69064A43F00103136147
:1040B0007B68FA781A7000BF0C37BD465DF8047B48
:1040C000704700BF003C024080B400AF2F4BDB685C
:1040D00003F01003002B08D02D4BDB6943F01003D5
:1040E0002B4AD361294B1022DA60284BDB6803F09E
:1040F0002003002B08D0264BDB6943F00803244A39
:10410000D361224B2022DA60204BDB6803F04003AE
:10411000002B08D01E4BDB6943F004031C4AD3611B
:104120001A4B4022DA60194BDB6803F08003002B46
:1041300008D0174BDB6943F00203154AD361134BD8
:104140008022DA60114BDB6803F48073002B09D006
:104150000F4BDB6943F001030D4AD3610B4B4FF466
:104160008072DA60094BDB6803F00203002B08D091
:10417000074BDB6943F02003054AD361034B02225E
:10418000DA6000BFBD465DF8047B7047003C02402A
:104190004402002080B584B000AF7860396001230C
:1041A000FB730023BB60314B1B7E012B01D102232B
:1041B00058E02E4B01221A764CF25030FFF7AAFE3F
:1041C0000346FB73FB7B002B48D13B684FF0FF326B
:1041D0001A607B681B68012B15D17B681B69DAB2FA
:1041E0007B685B681946104600F044F84CF250308A
:1041F000FFF790FE0346FB731D4B1B691C4A23F01F
:104200000403136128E07B689B68BB601CE07B684B
:104210001B69DBB21946B86800F050F84CF2503018
:10422000FFF778FE0346FB73114B1B69104A23F01E
:10423000FA031361FB7B002B03D03B68BA681A605A
:104240000AE0BB680133BB607B68DA687B689B6807
:104250001344BA689A42DAD300F078F8034B00228C
:104260001A76FB7B18461037BD4680BD44020020FD
:10427000003C024080B483B000AF03463960FB715C
:104280000D4B1B690C4A23F4407313610A4B1B69E5
:10429000094A43F004031361074B1A69FB791B02B7
:1042A0001343054A43F48033136100BF0C37BD4606
:1042B0005DF8047B704700BF003C024080B485B0CD
:1042C00000AF78600B46FB700023FB60FB78002B8F
:1042D00002D10023FB6010E0FB78012B03D14FF4E7
:1042E0008073FB6009E0FB78022B03D14FF400736D
:1042F000FB6002E04FF44073FB60134B1B69124AF2
:1043000023F440731361104B1A690F49FB68134380
:104310000B610D4B1B690C4A23F0F80313610A4B28
:104320001A697B68DB001343074A43F002031361F9
:10433000054B1B69044A43F48033136100BF1437F3
:10434000BD465DF8047B7047003C024080B400AF7E
:10435000204B1B6803F40073002B17D01D4B1B6808
:104360001C4A23F4007313601A4B1B68194A43F468
:1043700000631360174B1B68164A23F40063136035
:10438000144B1B68134A43F400731360114B1B68F2
:1043900003F48063002B17D00E4B1B680D4A23F4E7
:1043A000806313600B4B1B680A4A43F4805313600D
:1043B000084B1B68074A23F480531360054B1B68A6
:1043C000044A43F48063136000BFBD465DF8047B7C
:1043D000704700BF003C024080B489B000AF7860F5
:1043E000396000237B6100233B610023BB61002314
:1043F000FB6159E10122FB6902FA03F37B613B682F
:104400001B687A6913403B613A697B699A4240F0C4
:1044100048813B685B6803F00303012B05D03B68D0
:104420005B6803F00303022B30D17B689B68BB61A0
:10443000FB695B00032202FA03F3DB43BA69134012
:10444000BB613B68DA68FB695B0002FA03F3BA6997
:104450001343BB617B68BA699A607B685B68BB6128
:104460000122FB6902FA03F3DB43BA691340BB6123
:104470003B685B681B0903F00102FB6902FA03F366
:10448000BA691343BB617B68BA695A603B685B6871
:1044900003F00303032B17D07B68DB68BB61FB6968
:1044A0005B00032202FA03F3DB43BA691340BB61EA
:1044B0003B689A68FB695B0002FA03F3BA6913432D
:1044C000BB617B68BA69DA603B685B6803F0030331
:1044D000022B23D1FB69DA087B68083253F82230BB
:1044E000BB61FB6903F007039B000F2202FA03F391
:1044F000DB43BA691340BB613B681A69FB6903F08F
:1045000007039B0002FA03F3BA691343BB61FB691B
:10451000DA087B680832B96943F822107B681B68A7
:10452000BB61FB695B00032202FA03F3DB43BA6958
:104530001340BB613B685B6803F00302FB695B00EF
:1045400002FA03F3BA691343BB617B68BA691A6064
:104550003B685B6803F44033002B00F0A28000232B
:10456000FB60574B5B6C564A43F480435364544B97
:104570005B6C03F48043FB60FB68524AFB699B0859
:10458000023352F82330BB61FB6903F003039B0045
:104590000F2202FA03F3DB43BA691340BB617B6865
:1045A000494A934219D07B68484A934213D07B68AA
:1045B000474A93420DD07B68464A934207D07B68B6
:1045C000454A934201D1042308E0072306E0032370
:1045D00004E0022302E0012300E00023FA6902F074
:1045E000030292009340BA691343BB613549FB69EA
:1045F0009B080233BA6941F82320384B9B68BB61A2
:104600003B69DB43BA691340BB613B685B6803F4F9
:104610008013002B03D0BA693B691343BB612F4A57
:10462000BB6993602D4BDB68BB613B69DB43BA69B7
:104630001340BB613B685B6803F40013002B03D09D
:10464000BA693B691343BB61244ABB69D360234BFE
:104650005B68BB613B69DB43BA691340BB613B6884
:104660005B6803F40033002B03D0BA693B69134342
:10467000BB611A4ABB695360184B1B68BB613B693D
:10468000DB43BA691340BB613B685B6803F480336A
:10469000002B03D0BA693B691343BB610F4ABB6966
:1046A0001360FB690133FB61FB690F2B7FF6A2AE40
:1046B00000BF00BF2437BD465DF8047B704700BFD4
:1046C000003802400038014000000240000402406F
:1046D00000080240000C024000100240003C014073
:1046E00080B485B000AF78600B467B807B681A6928
:1046F0007B881340002B02D00123FB7301E00023D1
:10470000FB73FB7B18461437BD465DF8047B70478E
:1047100080B483B000AF78600B467B8013467B701B
:104720007B78002B03D07A887B689A6103E07B88D2
:104730001A047B689A6100BF0C37BD465DF8047BA4
:104740007047000080B582B000AF0346FB80084B85
:104750005A69FB881340002B06D0054AFB88536139
:10476000FB88184600F006F800BF0837BD4680BD3C
:10477000003C014080B483B000AF0346FB8000BF23
:104780000C37BD465DF8047B7047000080B584B0EF
:1047900000AF78607B68002B01D101232BE17B689F
:1047A00093F83D30DBB2002B06D17B68002283F802
:1047B0003C207868FEF780FA7B68242283F83D204D
:1047C0007B681B681A687B681B6822F001021A600C
:1047D0007B681B681A687B681B6842F400421A6099
:1047E0007B681B681A687B681B6822F400421A60A9
:1047F00001F076F9F8607B685B68814A934207D8DC
:10480000FB68804A934294BF01230023DBB206E099
:10481000FB687D4A934294BF01230023DBB2002B47
:1048200001D00123E7E0FB68784AA2FB03239B0C3D
:10483000BB607B681B685B6823F03F017B681B687B
:10484000BA680A435A607B681B681B6A23F03F0101
:104850007B685B686A4A934202D8BB68013309E00F
:10486000BB684FF4967202FB03F3694AA2FB032371
:104870009B0901337A6812680B4313627B681B68DB
:10488000DB6923F44F4222F0FF027B685B685C49DE
:104890008B4219D8FB68591E7B685B685B00B1FBD3
:1048A000F3F3591C40F6FC730B40002B0AD0FB6855
:1048B000591E7B685B685B00B1FBF3F30133C3F304
:1048C0000B0351E004234FE07B689B68002B11D160
:1048D000FB68581E7B6859680B465B000B44B0FBB5
:1048E000F3F30133C3F30B03002B0CBF01230023AD
:1048F000DBB212E0FB68581E7B6859680B469B00D0
:104900000B4499000B44B0FBF3F30133C3F30B03E7
:10491000002B0CBF01230023DBB2002B01D00123AD
:1049200022E07B689B68002B0ED1FB68581E7B68D9
:1049300059680B465B000B44B0FBF3F30133C3F340
:104940000B0343F400430FE0FB68581E7B68596873
:104950000B469B000B4499000B44B0FBF3F301336F
:10496000C3F30B0343F44043796809681343CB61F5
:104970007B681B681B6823F0C0017B68DA697B6871
:104980001B6A1A437B681B680A431A607B681B68B2
:104990009B6823F4034323F0FF037A6811697A6864
:1049A000D26811437A6812680B4393607B681B6876
:1049B000DB6823F0FF017B685A697B689B691A43B7
:1049C0007B681B680A43DA607B681B681A687B682F
:1049D0001B6842F001021A607B6800221A647B683F
:1049E000202283F83D207B6800221A637B68002226
:1049F00083F83E20002318461037BD4680BD00BF17
:104A0000A08601007F841E00FF083D0083DE1B435B
:104A1000D34D621080B588B002AFF8607A601A4654
:104A20000B467B8113463B81FEF7CAFC7861FB682D
:104A300093F83D30DBB2202B40F0E0807B6900939F
:104A4000192301227049F86800F092FA0346002BFE
:104A500001D00223D3E0FB6893F83C30012B01D155
:104A60000223CCE0FB68012283F83C20FB681B6832
:104A70001B6803F00103012B07D0FB681B681A6851
:104A8000FB681B6842F001021A60FB681B681A6829
:104A9000FB681B6822F400621A60FB68212283F81D
:104AA0003D20FB68102283F83E20FB6800221A6438
:104AB000FB687A685A62FB683A895A85FB685B8DA5
:104AC0009AB2FB681A85FB68504ADA6279897B6979
:104AD0003A6AF86800F0CAF90346002B01D00123B6
:104AE0008DE000233B61FB681B685B693B61FB68F1
:104AF0001B689B693B613B6966E07A69396AF868C3
:104B000000F00CFB0346002B0DD0FB681B6C042B44
:104B100007D1FB681B681A68FB681B6842F40072C7
:104B20001A6001236BE0FB685B6A1A78FB681B68FC
:104B30001A61FB685B6A5A1CFB685A62FB685B8DF2
:104B40009BB2013B9AB2FB685A85FB681B8D013B07
:104B50009AB2FB681A85FB681B685B6903F0040363
:104B6000042B1BD1FB681B8D002B17D0FB685B6AE5
:104B70001A78FB681B681A61FB685B6A5A1CFB6841
:104B80005A62FB685B8D9BB2013B9AB2FB685A8507
:104B9000FB681B8D013B9AB2FB681A857A69396AFA
:104BA000F86800F0FCFA0346002B0DD0FB681B6C84
:104BB000042B07D1FB681B681A68FB681B6842F46A
:104BC00000721A6001231AE0FB681B8D002B94D140
:104BD000FB681B681A68FB681B6842F400721A6065
:104BE000FB68202283F83D20FB68002283F83E20EA
:104BF000FB68002283F83C20002300E002231846D3
:104C00001837BD4680BD00BF020010000000FFFF46
:104C100080B58AB002AFF8607A603B600B467B815A
:104C2000FEF7CEFBF8610023BB61FB6893F83D30D3
:104C3000DBB2202B40F01181FB6900931923012284
:104C40008849F86800F094F90346002B01D002234C
:104C500004E1FB6893F83C30012B01D10223FDE015
:104C6000FB68012283F83C20FB681B681B6803F08B
:104C70000103012B07D0FB681B681A68FB681B68DF
:104C800042F001021A60FB681B681A68FB681B6827
:104C900022F400621A60FB68242283F83D20FB683E
:104CA00000221A64FB68704ADA62FB681B681A68A3
:104CB000FB681B6842F480721A60FB6900933B68D2
:104CC00000224FF00111F86800F052F90346002B62
:104CD0000DD0FB681B681B6803F48073B3F5807FFD
:104CE00003D1FB684FF400721A640323B6E07B899A
:104CF000DBB21A46FB681B6802F0FE021A61FEF77F
:104D00005FFBF861FB681B685B6903F00203022B21
:104D10000CBF01230023DBB2FB75FB681B685B69DA
:104D200003F48063B3F5806F0CBF01230023DBB273
:104D3000BB7525E0FEF744FB0246FB69D31A3A68CF
:104D40009A4202D33B68002B03D1FB68A02283F870
:104D50003D20FB681B685B6903F00203022B0CBF5C
:104D600001230023DBB2FB75FB681B685B6903F45E
:104D70008063B3F5806F0CBF01230023DBB2BB75EA
:104D8000FB6893F83D30DBB2A02B05D0FB7D002BF8
:104D900002D1BB7D002BCDD0FB68202283F83D20C3
:104DA000FB681B685B6903F00203022B29D1FB68D7
:104DB0001B681A68FB681B6842F400721A600023C3
:104DC0003B61FB681B685B693B61FB681B689B6917
:104DD0003B613B69FB690093192301222149F86873
:104DE00000F0C6F80346002B01D0012336E0FB6833
:104DF000202283F83D20FB68002283F83C2000231A
:104E00002CE0FB681B681A68FB681B6842F40072A0
:104E10001A60FB681B686FF480625A61FB6900933B
:104E2000192301220F49F86800F0A2F80346002B6D
:104E300001D0012312E0BB690133BB61BA697B6811
:104E40009A42FFF432AFFB68202283F83D20FB68D2
:104E5000002283F83C20012300E00223184620377B
:104E6000BD4680BD020010000000FFFF80B588B085
:104E700002AFF8607A603B600B467B81FB68DB6ABF
:104E80007B617B69082B06D07B69012B03D07B6992
:104E900013F5803F08D1FB681B681A68FB681B6824
:104EA00042F480721A600BE0FB681B6B122B07D177
:104EB000FB681B681A68FB681B6842F480721A6002
:104EC0003B6800937B6800224FF00111F86800F006
:104ED0004FF80346002B0DD0FB681B681B6803F4DA
:104EE0008073B3F5807F03D1FB684FF400721A64BE
:104EF000032335E0FB681B69B3F5804F08D17B893C
:104F0000DBB21A46FB681B6802F0FE021A611BE066
:104F10007B89DB11DBB203F00603DBB263F00F0326
:104F2000DAB2FB681B681A613B687A680E49F86858
:104F300000F075F80346002B01D0012310E07B89B7
:104F4000DAB2FB681B681A613B687A680749F8683F
:104F500000F065F80346002B01D0012300E0002398
:104F600018461837BD4680BD080001000200010048
:104F700080B584B000AFF860B9603B601346FB7148
:104F800025E03B68B3F1FF3F21D0FEF719FA024656
:104F9000BB69D31A3A689A4202D33B68002B16D1F8
:104FA000FB6800221A63FB68202283F83D20FB681F
:104FB000002283F83E20FB681B6C43F02002FB6854
:104FC0001A64FB68002283F83C20012323E0BB68BD
:104FD0001B0CDBB2012B0DD1FB681B685B69DA434C
:104FE000BB6813409BB2002B0CBF01230023DBB234
:104FF0001A460CE0FB681B689B69DA43BB681340E8
:105000009BB2002B0CBF01230023DBB21A46FB79B5
:105010009A42B6D0002318461037BD4680BD80B5F1
:1050200084B000AFF860B9607A603B6051E0FB6823
:105030001B685B6903F48063B3F5806F23D1FB6861
:105040001B681A68FB681B6842F400721A60FB68F0
:105050001B686FF480625A61FB6800221A63FB6868
:10506000202283F83D20FB68002283F83E20FB6865
:105070001B6C43F00402FB681A64FB68002283F88F
:105080003C20012346E07B68B3F1FF3F21D0FEF7CF
:1050900097F902463B68D31A7A689A4202D37B6832
:1050A000002B16D1FB6800221A63FB68202283F8CC
:1050B0003D20FB68002283F83E20FB681B6C43F018
:1050C0002002FB681A64FB68002283F83C2001235D
:1050D00020E0BB681B0CDBB2012B0CD1FB681B680A
:1050E0005B69DA43BB6813409BB2002B14BF0123FA
:1050F0000023DBB20BE0FB681B689B69DA43BB68EB
:1051000013409BB2002B14BF01230023DBB2002B02
:105110008DD1002318461037BD4680BD80B584B0C0
:1051200000AFF860B9607A602DE0F86800F078F8B8
:105130000346002B01D001232DE0BB68B3F1FF3FF4
:1051400021D0FEF73DF902467B68D31ABA689A422D
:1051500002D3BB68002B16D1FB6800221A63FB68E0
:10516000202283F83D20FB68002283F83E20FB6864
:105170001B6C43F02002FB681A64FB68002283F872
:105180003C20012307E0FB681B685B6903F0800398
:10519000802BCAD1002318461037BD4680BD80B58C
:1051A00084B000AFF860B9607A602DE0F86800F074
:1051B00037F80346002B01D001232DE0BB68B3F183
:1051C000FF3F21D0FEF7FCF802467B68D31ABA688D
:1051D0009A4202D3BB68002B16D1FB6800221A63E7
:1051E000FB68202283F83D20FB68002283F83E20E4
:1051F000FB681B6C43F02002FB681A64FB6800220A
:1052000083F83C20012307E0FB681B685B6903F01F
:105210000403042BCAD1002318461037BD4680BDB5
:1052200080B483B000AF78607B681B685B6903F46F
:105230008063B3F5806F1BD17B681B686FF480625D
:105240005A617B6800221A637B68202283F83D2024
:105250007B68002283F83E207B681B6C43F00402CD
:105260007B681A647B68002283F83C20012300E0FD
:10527000002318460C37BD465DF8047B70470000DC
:1052800080B586B000AF78607B68002B01D1012328
:1052900067E27B681B6803F00103002B75D0884B25
:1052A0009B6803F00C03042B0CD0854B9B6803F028
:1052B0000C03082B12D1824B5B6803F48003B3F517
:1052C000800F0BD17E4B1B6803F40033002B5BD0A7
:1052D0007B685B68002B57D1012342E27B685B68E7
:1052E000B3F5803F06D1764B1B68754A43F4803393
:1052F00013601DE07B685B68B3F5A02F0CD1704B89
:105300001B686F4A43F4802313606D4B1B686C4A23
:1053100043F4803313600BE0694B1B68684A23F445
:1053200080331360664B1B68654A23F48023136047
:105330007B685B68002B13D0FEF742F8386108E009
:10534000FEF73EF802463B69D31A642B01D90323CA
:1053500007E25B4B1B6803F40033002BF0D014E032
:10536000FEF72EF8386108E0FEF72AF802463B699E
:10537000D31A642B01D90323F3E1514B1B6803F4C7
:105380000033002BF0D100E000BF7B681B6803F006
:105390000203002B63D04A4B9B6803F00C03002BE5
:1053A0000BD0474B9B6803F00C03082B1CD1444BDC
:1053B0005B6803F48003002B16D1414B1B6803F09C
:1053C0000203002B05D07B68DB68012B01D0012391
:1053D000C7E13B4B1B6823F0F8027B681B69DB00CD
:1053E000374913430B603AE07B68DB68002B20D021
:1053F000344B01221A60FDF7E3FF386108E0FDF746
:10540000DFFF02463B69D31A022B01D90323A8E12F
:105410002B4B1B6803F00203002BF0D0284B1B68BA
:1054200023F0F8027B681B69DB00254913430B60FE
:1054300015E0244B00221A60FDF7C2FF386108E036
:10544000FDF7BEFF02463B69D31A022B01D90323A5
:1054500087E11B4B1B6803F00203002BF0D17B6834
:105460001B6803F00803002B36D07B685B69002BB8
:1054700016D0154B01221A60FDF7A2FF386108E033
:10548000FDF79EFF02463B69D31A022B01D9032385
:1054900067E10B4B5B6F03F00203002BF0D01BE0C6
:1054A000094B00221A60FDF78BFF38610EE0FDF713
:1054B00087FF02463B69D31A022B07D9032350E129
:1054C0000038024000004742800E4742884B5B6F25
:1054D00003F00203002BEAD17B681B6803F004038E
:1054E000002B00F097800023FB75814B1B6C03F0B1
:1054F0008053002B0FD10023BB607D4B1B6C7C4A7B
:1055000043F0805313647A4B1B6C03F08053BB60F1
:10551000BB680123FB75774B1B6803F48073002B7A
:1055200018D1744B1B68734A43F480731360FDF702
:1055300047FF386108E0FDF743FF02463B69D31A95
:10554000022B01D903230CE16A4B1B6803F480731F
:10555000002BF0D07B689B68012B06D1644B1B6F3E
:10556000634A43F0010313671CE07B689B68052BCB
:105570000CD15F4B1B6F5E4A43F0040313675C4B17
:105580001B6F5B4A43F0010313670BE0584B1B6F23
:10559000574A23F001031367554B1B6F544A23F0FE
:1055A000040313677B689B68002B15D0FDF708FF89
:1055B00038610AE0FDF704FF02463B69D31A41F265
:1055C0008832934201D90323CBE0494B1B6F03F090
:1055D0000203002BEED014E0FDF7F2FE38610AE082
:1055E000FDF7EEFE02463B69D31A41F28832934240
:1055F00001D90323B5E03E4B1B6F03F00203002BE0
:10560000EED1FB7D012B05D1394B1B6C384A23F0C1
:10561000805313647B689B69002B00F0A180344B9E
:105620009B6803F00C03082B5CD07B689B69022B02
:1056300041D1314B00221A60FDF7C2FE386108E00B
:10564000FDF7BEFE02463B69D31A022B01D90323A4
:1056500087E0274B1B6803F00073002BF0D17B68B9
:10566000DA697B681B6A1A437B685B6A9B011A4391
:105670007B689B6A5B08013B1B041A437B68DB6AFF
:105680001B061B4913434B601B4B01221A60FDF79D
:1056900097FE386108E0FDF793FE02463B69D31A96
:1056A000022B01D903235CE0114B1B6803F000734C
:1056B000002BF0D054E0104B00221A60FDF780FE62
:1056C000386108E0FDF77CFE02463B69D31A022BE5
:1056D00001D9032345E0064B1B6803F00073002B40
:1056E000F0D13DE07B689B69012B07D1012338E0B5
:1056F0000038024000700040600047421B4B5B686E
:10570000FB607B689B69012B28D0FB6803F4800257
:105710007B68DB699A4221D1FB6803F03F027B681A
:105720001B6A9A421AD1FA6847F6C07313407A6826
:10573000526A9201934211D1FB6803F440327B68B4
:105740009B6A5B08013B1B049A4207D1FB6803F08C
:1057500070627B68DB6A1B069A4201D0012300E07D
:10576000002318461837BD4680BD00BF00380240F0
:1057700080B584B000AF786039607B68002B01D1C0
:105780000123CCE0684B1B6803F007033A689A4298
:105790000CD9654B3A68D2B21A70634B1B6803F0A0
:1057A00007033A689A4201D00123B8E07B681B687E
:1057B00003F00203002B20D07B681B6803F0040376
:1057C000002B05D0594B9B68584A43F4E053936033
:1057D0007B681B6803F00803002B05D0534B9B68C4
:1057E000524A43F460439360504B9B6823F0F002AD
:1057F0007B689B684D4913438B607B681B6803F093
:105800000103002B44D07B685B68012B07D1474B19
:105810001B6803F40033002B19D101237FE07B6860
:105820005B68022B03D07B685B68032B07D13F4B7F
:105830001B6803F00073002B09D101236FE03B4B81
:105840001B6803F00203002B01D1012367E0374BF3
:105850009B6823F003027B685B68344913438B60C9
:10586000FDF7AEFDF8600AE0FDF7AAFD0246FB6811
:10587000D31A41F28832934201D903234FE02B4BD4
:105880009B6803F00C027B685B689B009A42EBD13B
:10589000254B1B6803F007033A689A420CD2224B4F
:1058A0003A68D2B21A70204B1B6803F007033A68BB
:1058B0009A4201D0012332E07B681B6803F00403A5
:1058C000002B08D0194B9B6823F4E0527B68DB68FF
:1058D000164913438B607B681B6803F00803002B99
:1058E00009D0124B9B6823F460427B681B69DB0084
:1058F0000E4913438B6000F021F802460B4B9B6866
:105900001B0903F00F030A49CB5C22FA03F3094A8F
:105910001360094B1B681846FDF70EFD002318465F
:105920001037BD4680BD00BF003C02400038024039
:10593000CC70000804000020080000202DE9B04FC2
:1059400090B000AF00237B630023FB6300233B6325
:105950000023BB63594B9B6803F00C03082B0DD04D
:10596000082B00F2A180002B02D0042B03D09BE077
:10597000534BBB639BE0534BBB6398E04F4B5B685F
:1059800003F03F037B634D4B5B6803F48003002B04
:1059900028D04A4B5B689B0900223B627A623B6AD3
:1059A000C3F308000021474B03FB01F2002300FB77
:1059B00003F31344434AA0FB0212FA620A46BA6296
:1059C000FA6A1344FB627B6B0022BB61FA61D7E980
:1059D0000623D7E90A01FAF753FC02460B461346A1
:1059E000FB6353E0354B5B689B0900223B617A61A6
:1059F0003B69C3F3080A4FF0000B52465B464FF079
:105A000000004FF00001590141EAD2615001024605
:105A10000B46B2EB0A0863EB0B094FF000024FF0A4
:105A200000034FEA891343EA98634FEA8812B2EB06
:105A3000080463EB09054FF000024FF00003EB0090
:105A400043EA5473E20014461D4614EB0A033B601C
:105A500045EB0B037B604FF000024FF00003D7E9EA
:105A6000004529468B02214643EA915321468A028A
:105A7000104619467B6B0022BB60FA60D7E902230F
:105A8000FAF7FEFB02460B461346FB630B4B5B68C3
:105A90001B0C03F0030301335B003B63FA6B3B6BAE
:105AA000B2FBF3F3BB6302E0054BBB6300BFBB6B10
:105AB00018464037BD46BDE8B08F00BF00380240F1
:105AC0000024F40040787D0180B400AF034B1B68D4
:105AD0001846BD465DF8047B704700BF04000020F7
