:020000040800F2
:100000000000012015330008552E00085B2E000863
:10001000612E0008672E00086D2E00080000000009
:10002000000000000000000000000000732E000827
:10003000812E0008000000008F2E00089D2E000871
:100040006533000865330008653300086533000830
:100050006533000865330008653300086533000820
:100060006533000865330008653300086533000810
:100070006533000865330008653300086533000800
:100080006533000865330008653300080000000090
:1000900000000000000000000000000065330008C0
:1000A00065330008A92E0008653300086533000891
:1000B00065330008653300086533000865330008C0
:1000C00065330008653300086533000865330008B0
:1000D0006533000865330008653300080000000040
:1000E0006533000865330008653300080000000030
:1000F0000000000000000000000000006533000860
:10010000000000006533000865330008653300080F
:1001100000000000000000000000000000000000DF
:10012000653300086533000865330008653300084F
:10013000653300080000000000000000000000001F
:10014000000000000000000000000000653300080F
:10015000653300086533000865330008653300081F
:10016000653300086533000800000000000000004F
:10017000000000000000000000000000000000007F
:1001800000000000653300080000000000000000CF
:0401900065330008CB
:1001A00010B5054C237833B9044B13B10448AFF3B1
:1001B00000800123237010BD7400002000000000A7
:1001C0007C75000808B5034B1BB103490348AFF326
:1001D000008008BD00000000780000207C75000849
:1001E00001F0FF01102A2BDB10F0070F08D010F8E8
:1001F000013B013A8B422DD010F0070F42B3F6D1EC
:10020000F0B441EA012141EA014122F007047FF004
:1002100000070023F0E80256083C85EA010586EA5B
:10022000010685FA47F5A3FA87F586FA47F6A5FA97
:1002300087F68EB9EED1F0BC01F0FF0102F00702A3
:1002400032B110F8013B013A83EA010313B1F8D14E
:100250000020704701387047002D06BF354603382F
:10026000073815F0010F07D1013015F4807F02BF68
:10027000013015F4C03F0130F0BC0138704700BFB9
:1002800053B94AB9002908BF00281CBF4FF0FF31FD
:100290004FF0FF3000F074B9ADF1080C6DE904CEF9
:1002A00000F006F8DDF804E0DDE9022304B0704751
:1002B0002DE9F047089D04468E46002B4DD18A4219
:1002C000944669D9B2FA82F252B101FA02F3C2F14C
:1002D000200120FA01F10CFA02FC41EA030E9440DD
:1002E0004FEA1C48210CBEFBF8F61FFA8CF708FBFE
:1002F00016E341EA034306FB07F199420AD91CEBD6
:10030000030306F1FF3080F01F81994240F21C8107
:10031000023E63445B1AA4B2B3FBF8F008FB10334F
:1003200044EA034400FB07F7A7420AD91CEB040484
:1003300000F1FF3380F00A81A74240F20781644454
:10034000023840EA0640E41B00261DB1D4400023D9
:10035000C5E900433146BDE8F0878B4209D9002D3D
:1003600000F0EF800026C5E9000130463146BDE8C7
:10037000F087B3FA83F6002E4AD18B4202D3824231
:1003800000F2F980841A61EB030301209E46002DE0
:10039000E0D0C5E9004EDDE702B9FFDEB2FA82F235
:1003A000002A40F09280A1EB0C014FEA1C471FFA93
:1003B0008CFE0126200CB1FBF7F307FB131140EA7A
:1003C00001410EFB03F0884208D91CEB010103F147
:1003D000FF3802D2884200F2CB804346091AA4B209
:1003E000B1FBF7F007FB101144EA01440EFB00FEDD
:1003F000A64508D91CEB040400F1FF3102D2A64542
:1004000000F2BB800846A4EB0E0440EA03409CE7E0
:10041000C6F12007B34022FA07FC4CEA030C20FA8D
:1004200007F401FA06F31C43F9404FEA1C4900FAAD
:1004300006F3B1FBF9F8200C1FFA8CFE09FB18112A
:1004400040EA014108FB0EF0884202FA06F20BD99D
:100450001CEB010108F1FF3A80F08880884240F2ED
:100460008580A8F102086144091AA4B2B1FBF9F031
:1004700009FB101144EA014100FB0EFE8E4508D92C
:100480001CEB010100F1FF346CD28E456AD90238B1
:10049000614440EA0840A0FB0294A1EB0E01A14296
:1004A000C846A64656D353D05DB1B3EB080261EB04
:1004B0000E0101FA07F722FA06F3F1401F43C5E9DE
:1004C000007100263146BDE8F087C2F12003D84014
:1004D0000CFA02FC21FA03F3914001434FEA1C4756
:1004E0001FFA8CFEB3FBF7F007FB10360B0C43EA48
:1004F000064300FB0EF69E4204FA02F408D91CEBF8
:10050000030300F1FF382FD29E422DD902386344F5
:100510009B1B89B2B3FBF7F607FB163341EA034195
:1005200006FB0EF38B4208D91CEB010106F1FF38E4
:1005300016D28B4214D9023E6144C91A46EA0046DB
:1005400038E72E46284605E70646E3E61846F8E66D
:100550004B45A9D2B9EB020864EB0C0E0138A3E7B6
:100560004646EAE7204694E74046D1E7D0467BE797
:10057000023B614432E7304609E76444023842E70F
:10058000704700BF80B582B000AF786000210020C6
:1005900001F018FB084801F04BFB0121002001F09D
:1005A00011FB786801F044FB4FF47A7002F04EFFC3
:1005B00000BF0837BD4680BD9475000880B582B085
:1005C00000AF7F48FFF7DEFF00BF02F061FA03468D
:1005D0001A4640F2F2339A42F7D840F2DC5002F069
:1005E00035FF02F055FA0346BB80BB8840F2F1327A
:1005F00093421ED8BB880A2B1BD9FB88002B18D12D
:100600004FF4FA7002F022FF02F042FA03461A4653
:100610006C4B1A806B4B1B881946C82002F062FA9B
:100620000121072001F0CEFA674801F001FB012308
:10063000FB80BB8840F2F232934218D9FB88012B31
:1006400015D10121072001F0BDFA604801F0F0FA50
:100650000023FB8000BF0121002001F0B3FA5C48B9
:1006600001F0E6FA4FF47A7002F0F0FE03E0642045
:1006700002F0ECFEB5E702F00BFA03461A4640F230
:10068000F2339A42F7D84FF4FA7002F0DFFE02F02C
:10069000FFF90346BB80BB8840F2F13293421ED87B
:1006A000BB880A2B1BD9FB88002B18D14FF4FA709A
:1006B00002F0CCFE02F0ECF903461A46414B5A8098
:1006C000404B5B881946142002F00CFA01210720E8
:1006D00001F078FA3C4801F0ABFA0123FB80BB88BB
:1006E00040F2F2329342D2D9FB88012BCFD10121C3
:1006F000072001F067FA354801F09AFA0023FB80E1
:1007000000BF0121002001F05DFA324801F090FAAB
:100710004FF47A7002F09AFE02F0BAF903461A46D4
:1007200040F2F2339A42F7D84FF4FA7002F08EFE9C
:1007300002F0AEF90346BB80BB8840F2F13293422F
:100740001ED8BB880A2B1BD9FB88002B18D14FF46D
:10075000FA7002F07BFE02F09BF903461A46194B31
:10076000DA80184BDB8819461E2002F0BBF9012104
:10077000072001F027FA144801F05AFA0123FB8000
:10078000BB8840F2F2329342D2D9FB88012BCFD101
:100790000121072001F016FA0C4801F049FA012363
:1007A000FB8000BF02F074F903461A4640F2F233B0
:1007B0009A42F7D800BF00BF0837BD4680BD00BFD2
:1007C0009C7500081C020020A4750008A87500088C
:1007D000AC750008B475000880B500AF002100209A
:1007E00001F0F0F92D4801F023FA2D4B1B78184643
:1007F00001F03AFA2B4801F01BFA0121002001F028
:10080000E1F9294801F014FA284801F011FA244BC3
:100810005B78184601F028FA01210A2001F0D2F98C
:10082000234801F005FA1E4BDB78042B34D801A2D3
:1008300052F823F049080008590800086908000820
:10084000790800088908000800210C2001F0BAF995
:10085000184801F0EDF91FE000210C2001F0B2F979
:10086000154801F0E5F917E000210C2001F0AAF984
:10087000124801F0DDF90FE000210C2001F0A2F98F
:100880000F4801F0D5F907E000210C2001F09AF99A
:100890000C4801F0CDF900BF00BF80BDBC75000859
:1008A00024020020C4750008C8750008D07500082F
:1008B000D4750008DC750008E0750008E4750008D0
:1008C000E8750008EC75000880B582B000AF184BE1
:1008D0001B78184605F0ECFD0023FB7100237B71AB
:1008E0001CE005F013FE0246124B83FB0213991025
:1008F000D317C91A0B469B000B445B00D11A0B4659
:10090000FB71BA79FB799A42EBD0FB79BB717B79A9
:100910000949FA79CA547B7901337B71074B1B78FB
:100920007A799A42EDD900BF00BF0837BD4680BD35
:1009300078010020676666667C01002024020020A2
:1009400080B582B000AF0023FB71292002F068F867
:1009500003463B6000BF02F09BF80346042BFAD924
:100960004FF47A7002F072FD4EE0FB790133FB71B7
:100970000021052001F026F9644801F059F9C8204A
:1009800002F064FD0021052001F01CF9604A3B687B
:1009900013441B78184601F067F9C82002F056FD91
:1009A00002F076F803461A465A4B5B880A3B9A4295
:1009B00010DB02F06DF803461A46564B5B880A338B
:1009C0009A4207DC3B68052B04DC3B6801333B6043
:1009D0000023FB7102F05CF803461A464D4B1B885E
:1009E0000A3B9A4210DB02F053F803461A46494B81
:1009F0001B880A339A4207DC3B68002B04D03B6813
:100A0000013B3B600023FB71FB79042BADD929200E
:100A100002F006F803461A463B68934205D03B684D
:100A2000DBB21946292002F017F8394A3B68134413
:100A30001A78394B1A700023FB71374B5B783B6097
:100A40004AE0FB790133FB710121072001F0BAF87C
:100A5000324801F0EDF8962002F0F8FC0121072061
:100A600001F0B0F8386801F0FFF8962002F0EEFCD3
:100A700002F00EF803461A46264B5B880A3B9A4260
:100A800010DB02F005F803461A46224B5B880A3356
:100A90009A4207DC3B68082B04DC3B6801333B606F
:100AA0000023FB7101F0F4FF03461A46194B1B8823
:100AB0000A3B9A4210DB01F0EBFF03461A46154B46
:100AC0001B880A339A4207DC3B68002B04D03B6842
:100AD000013B3B600023FB71FB79042BB1D96420FF
:100AE00001F09EFF03461A463B68934205D03B68DF
:100AF000DBB21946642001F0AFFF3B68DAB2064B67
:100B00005A7000BF0837BD4680BD00BFF0750008B1
:100B1000387600081C02002024020020F47500082A
:100B200080B500AF0021002001F04CF84A4801F0E8
:100B30007FF875E001F0ACFF03461A46474B5B882F
:100B40000A3B9A4212DB01F0A3FF03461A46434BCD
:100B50005B880A339A4209DC414BDB78032B05D8CA
:100B60003F4BDB780133DAB23D4BDA7001F090FF96
:100B700003461A46394B1B880A3B9A4212DB01F0A6
:100B800087FF03461A46354B1B880A339A4209DC15
:100B9000334BDB78002B05D0314BDB78013BDAB2ED
:100BA0002F4BDA702E4BDB78042B35D801A252F88C
:100BB00023F000BFC90B0008D90B0008E90B00089F
:100BC000090C0008F90B000800210C2000F0FAFFC6
:100BD000244801F02DF81FE000210C2000F0F2FF66
:100BE000214801F025F817E000210C2000F0EAFF71
:100BF0001E4801F01DF80FE000210C2000F0E2FF7C
:100C00001B4801F015F807E000210C2000F0DAFF86
:100C1000184801F00DF800BF4FF4FA7002F016FC0E
:100C200001F036FF0346042B84D80D4BDB781946C0
:100C3000282001F011FF01F067F9FFF7CDFD00BF9B
:100C400001F026FF0346042BFAD94FF4967002F008
:100C5000FDFB00BF80BD00BFF87500081C0200202E
:100C600024020020087600080C76000810760008A0
:100C7000147600081876000880B582B000AF002313
:100C80007B6016E001224FF480510E4803F092FA87
:100C90004FF4967002F0DAFB00224FF480510948BD
:100CA00003F088FA4FF4967002F0D0FB7B680133B2
:100CB0007B607B68022BE5DD00BF00BF0837BD46C7
:100CC00080BD00BF0004024080B500AF01224FF498
:100CD0008051074803F06EFA4FF4FA6002F0B6FB59
:100CE00000224FF48051024803F064FA00BF80BD37
:100CF0000004024080B582B000AF00237B6008E0B2
:100D000001224FF480510A4803F054FA7B68013302
:100D10007B607B68074A9342F2D900224FF48051EE
:100D2000034803F047FA00BF0837BD4680BD00BF47
:100D3000000402409F86010080B582B000AF0346E8
:100D4000FB71FB79013B092B00F29B8001A252F859
:100D500023F000BF7D0D0008930D0008A90D0008C9
:100D6000BF0D0008D50D0008EB0D0008010E0008AE
:100D7000170E00082D0E0008450E000801214348FB
:100D800003F000FA0346002B68D0414B00221A7092
:100D900064E002213D4803F0F5F90346002B5FD0E3
:100DA0003B4B00221A705BE00421384803F0EAF95B
:100DB0000346002B56D0364B00221A7052E0082111
:100DC000324803F0DFF90346002B4DD0304B0022B0
:100DD0001A7049E010212D4803F0D4F90346002B86
:100DE00044D02B4B00221A7040E02021274803F00A
:100DF000C9F90346002B3BD0254B00221A7037E07F
:100E00004021224803F0BEF90346002B32D0204B8C
:100E100000221A702EE080211C4803F0B3F903462B
:100E2000002B29D01A4B00221A7025E04FF4807154
:100E3000164803F0A7F90346002B1FD0144B0022DD
:100E40001A701BE04FF40071104803F09BF9034641
:100E5000002B15D00E4B00221A7011E000BF10E0DD
:100E600000BF0EE000BF0CE000BF0AE000BF08E0DA
:100E700000BF06E000BF04E000BF02E000BF00E0EA
:100E800000BF00BF0837BD4680BD00BF0000024064
:100E90007501002080B500AF5C4B1B79C3F30303E1
:100EA000DBB21A46594B5B789A4242D1574A1379C2
:100EB0006FF303031371564B1B780133DAB2544BB3
:100EC0001A7000224FF48061524803F073F9002237
:100ED0004FF400614F4803F06DF900224FF4805148
:100EE0004C4803F067F900224FF40041494803F0F1
:100EF00061F900220421484803F05CF9002208212E
:100F0000454803F057F900221021434803F052F9F5
:100F100000222021404803F04DF900224FF4807157
:100F20003D4803F047F900224FF400713A4803F0BE
:100F300041F9364B1A78364B1B789A4213D3374B0C
:100F400000221A80324B1B781A46354B9B5C1846A0
:100F500000F06EF82E4B1B781A46314B9B5C1846FE
:100F600000F030F93DE000224FF48061294803F0A1
:100F700021F900224FF40061264803F01BF90022FA
:100F80004FF48051234803F015F900224FF400413B
:100F9000204803F00FF9002204211F4803F00AF94A
:100FA000002208211C4803F005F9002210211A48EC
:100FB00003F000F900222021174803F0FBF800227B
:100FC0004FF48071144803F0F5F800224FF40071DB
:100FD000114803F0EFF8134B02221A70124B012252
:100FE0001A70124B1B78002B0DD1084B1B79C3F3E1
:100FF0000303DBB2013303F00F03D9B2034A1379C1
:1010000061F30303137100BF80BD00BF2402002001
:10101000AF010020000002400004024076010020E1
:101020007C010020AE010020B001002075010020ED
:1010300080B582B000AF0346FB71FB79092B59D80C
:1010400001A252F823F000BF711000087F100008C1
:101050008D1000089B100008A9100008B5100008AA
:10106000C1100008CD100008D9100008E7100008D2
:1010700001224FF48061214803F09CF83AE00122FC
:101080004FF400611D4803F095F833E001224FF45E
:1010900080511A4803F08EF82CE001224FF40041F1
:1010A000164803F087F825E001220421144803F0D4
:1010B00081F81FE001220821114803F07BF819E0B4
:1010C000012210210E4803F075F813E001222021BF
:1010D0000B4803F06FF80DE001224FF480710848CF
:1010E00003F068F806E001224FF40071044803F0B1
:1010F00061F800BF00BF0837BD4680BD0000024058
:101100000004024080B582B000AF0346FB71294B5A
:101110009B780133DAB2274B9A7000224FF480613A
:10112000254803F047F800224FF40061224803F0FD
:1011300041F800224FF480511F4803F03BF8002291
:101140004FF400411C4803F035F8002204211B48ED
:1011500003F030F800220821184803F02BF8002291
:101160001021164803F026F800222021134803F02E
:1011700021F800224FF48071104803F01BF8002280
:101180004FF400710D4803F015F8FB790133DAB222
:101190000B4B1A70074B5B7803F00F03D9B2054A6B
:1011A000137961F303031371FFF7A4FD00BF083740
:1011B000BD4680BD24020020000002400004024021
:1011C0007501002080B582B000AF0346FB71FB794A
:1011D0009BB21946064801F075FF0346002B03D069
:1011E000FB791846FFF78EFF00BF0837BD4680BD6C
:1011F0000000024080B582B000AF0023FB710123E4
:101200007B7144E0394B1B78322B03D9374B0022DA
:101210001A7005E0354B1B780133DAB2334B1A7084
:10122000324B1B780133DAB2304B1A7005F06EF98D
:1012300002462F4B83FB02135910D317C91A0B46D2
:101240009B000B44D11A0B46FB71284B1B781846A8
:1012500005F02EF90EE005F059F90246244B83FB08
:1012600002135910D317C91A0B469B000B44D11A0D
:101270000B46FB71BA79FB799A42ECD0FB79BB71D2
:101280007B791C49FA79CA547B7901337B711A4BFB
:101290001B787A799A42B5D901233B711BE005F09E
:1012A00035F90246124B83FB02135910D317C91AA2
:1012B0000B469B000B44D11A0B46FB71BA79FB79A4
:1012C0009A42ECD0FB79BB713B790C49FA79CA544C
:1012D0003B7901333B71084B1B783A799A42EDD93F
:1012E00000BF00BF0837BD4680BD00BF78010020A9
:1012F00067666666B401002024020020E801002031
:1013000080B584B000AF03460A46FB711346BB713B
:101310000023FB73FB79013B042B4DD801A252F84B
:1013200023F000BF391300084F13000865130008AD
:101330007B1300089113000801214C4802F022FFA2
:101340000346002B2FD0FB7B0133FB732BE00221E4
:10135000464802F017FF0346002B26D0FB7B0133E3
:10136000FB7322E00421414802F00CFF0346002BEE
:101370001DD0FB7B0133FB7319E008213B4802F0D1
:1013800001FF0346002B14D0FB7B0133FB7310E0FD
:101390001021364802F0F6FE0346002B0BD0FB7BF3
:1013A0000133FB7307E000BF06E000BF04E000BFAD
:1013B00002E000BF00E000BFBB79013B042B4FD827
:1013C00001A252F823F000BFDD130008F313000858
:1013D000091400081F1400083714000820212348AE
:1013E00002F0D0FE0346002B31D0FB7B0133FB73B0
:1013F0002DE040211D4802F0C5FE0346002B28D0F9
:10140000FB7B0133FB7324E08021184802F0BAFE15
:101410000346002B1FD0FB7B0133FB731BE04FF413
:101420008071124802F0AEFE0346002B15D0FB7B04
:101430000133FB7311E04FF400710C4802F0A2FE7F
:101440000346002B0BD0FB7B0133FB7307E000BF8F
:1014500006E000BF04E000BF02E000BF00E000BF04
:10146000FB7B18461037BD4680BD00BF0000024020
:1014700080B500AFA54B1B79C3F30303DBB21A465B
:10148000A24B5B789A4252D1A04A13796FF345136D
:1014900013719E4A13796FF3041313719B4B00224F
:1014A0005A719A4B00229A71984A13796FF3030389
:1014B0001371974B1B780133DAB2954B1A700022E7
:1014C0004FF48061934802F075FE00224FF40061F2
:1014D000904802F06FFE00224FF480518D4802F0D8
:1014E00069FE00224FF400418A4802F063FE0022A8
:1014F0000421894802F05EFE00220821864802F09D
:1015000059FE00221021844802F054FE00222021BE
:10151000814802F04FFE00224FF480717E4802F0B5
:1015200049FE00224FF400717B4802F043FE774BE6
:101530001A78774B1B789A42C0F0F680774B0022DE
:101540001A80734B1B781A46754B9B5C704A127855
:101550001146744A525C1146184600F0ADF96C4BC6
:101560001B781A466E4B9B5C042B66D801A252F87E
:1015700023F000BF89150008A9150008C915000847
:10158000E9150008091600080121624802F0FAFD79
:101590000346002B48D15D4A137943F010031371C1
:1015A0005A4B01225A713FE002215A4802F0EAFDEB
:1015B0000346002B3AD1554A137943F010031371B7
:1015C000524B02225A7131E00421524802F0DAFDF6
:1015D0000346002B2CD14D4A137943F010031371AD
:1015E0004A4B03225A7123E008214A4802F0CAFDFF
:1015F0000346002B1ED1454A137943F010031371A3
:10160000424B04225A7115E01021424802F0BAFD03
:101610000346002B10D13D4A137943F01003137198
:101620003A4B05225A7107E000BF06E000BF04E014
:1016300000BF02E000BF00E000BF354B1B781A4638
:10164000384B9B5C042B00F2B78001A252F823F0C8
:101650006516000887160008A9160008C9160008B4
:10166000EB16000820212B4802F08CFD0346002BCE
:1016700040F09980254A137943F020031371234BDE
:1016800001229A718FE04021224802F07BFD03463F
:10169000002B40F08A801D4A137943F02003137118
:1016A0001A4B02229A7180E080211A4802F06AFDEA
:1016B0000346002B7BD1154A137943F020031371A5
:1016C000124B03229A7172E04FF48071114802F0BC
:1016D00059FD0346002B6CD10C4A137943F02003CB
:1016E00013710A4B04229A7163E04FF400710948A8
:1016F00002F048FD0346002B5DD1044A137943F004
:1017000020031371014B05229A7154E0240200203A
:10171000AF010020000002400004024076010020DA
:10172000B4010020E801002000224FF480615C48F1
:1017300002F040FD00224FF40061594802F03AFDEA
:1017400000224FF48051564802F034FD00224FF43D
:101750000041534802F02EFD00220421514802F0BE
:1017600029FD002208214F4802F024FD002210210B
:101770004C4802F01FFD002220214A4802F01AFDC9
:1017800000224FF48071474802F014FD00224FF40C
:101790000071444802F00EFD434B02221A70434B85
:1017A00001221A7008E000BF06E000BF04E000BF9D
:1017B00002E000BF00E000BF3D4B1B7903F02003B7
:1017C000DBB2002B57D03A4B1B7903F01003DBB28E
:1017D000002B50D0374B1B780A2B4CD0344B9B78C6
:1017E0000133DAB2324B9A7000224FF480612C48F8
:1017F00002F0E0FC00224FF40061294802F0DAFC1C
:1018000000224FF48051264802F0D4FC00224FF40D
:101810000041234802F0CEFC00220421214802F0BE
:10182000C9FC002208211F4802F0C4FC002210213C
:101830001C4802F0BFFC002220211A4802F0BAFC2A
:1018400000224FF48071174802F0B4FC00224FF4DC
:101850000071144802F0AEFCFFF74CFA154B0A2257
:101860001A70134B5B7803F00F03D9B2104A137947
:1018700061F3030313710F4B1B78002B0DD10C4B3D
:101880001B79C3F30303DBB2013303F00F03D9B2B7
:10189000074A137961F30303137100BF80BD00BFD2
:1018A0000000024000040240AE010020B001002010
:1018B000240200207501002080B582B000AF0346ED
:1018C0000A46FB711346BB71FB79042B2ED801A28B
:1018D00052F823F0E9180008F71800080519000865
:1018E000131900082119000801224FF480612948CA
:1018F00002F060FC1AE001224FF40061254802F07A
:1019000059FC13E001224FF48051224802F052FCAE
:101910000CE001224FF400411E4802F04BFC05E0B0
:10192000012204211C4802F045FC00BFBB79042BB6
:101930002CD801A252F823F04D19000859190008BB
:1019400065190008711900087F1900080122082193
:10195000114802F02FFC19E0012210210E4802F07C
:1019600029FC13E0012220210B4802F023FC0DE0AA
:1019700001224FF48071084802F01CFC06E00122AD
:101980004FF40071044802F015FC00BF00BF083797
:10199000BD4680BD000002400004024080B586B014
:1019A00002AF0346FB7107F10903FB60FB7923F0EB
:1019B0000F03FB72FB791B01BB723A4B1B78012BA7
:1019C00005D1FB7A43F00C03DBB27B7204E0FB7AB7
:1019D00043F00403DBB27B72334B1B789BB25B009A
:1019E00099B24FF0FF3300930123FA682F4802F0B9
:1019F0003FFD2C4B1B78012B05D17B7A23F0040390
:101A0000DBB27B7204E07B7A23F00C03DBB27B72E7
:101A1000254B1B789BB25B0099B24FF0FF330093CC
:101A20000123FA68214802F023FD1E4B1B78012B8D
:101A300005D1BB7A43F00C03DBB27B7204E0BB7AC6
:101A400043F00403DBB27B72174B1B789BB25B0045
:101A500099B24FF0FF3300930123FA68134802F064
:101A600007FD104B1B78012B05D17B7A23F0040373
:101A7000DBB27B7204E07B7A23F00C03DBB27B7277
:101A8000094B1B789BB25B0099B24FF0FF33009378
:101A90000123FA68054802F0EBFC00BF1037BD4691
:101AA00080BD00BF0100002074010020D80000208C
:101AB00080B586B002AF0346FB7107F10903FB60F6
:101AC000FB7923F00F03FB72FB791B01BB723A4BCE
:101AD0001B78012B05D1FB7A43F00D03DBB27B723F
:101AE00004E0FB7A43F00503DBB27B72334B1B78D7
:101AF0009BB25B0099B24FF0FF3300930123FA6869
:101B00002F4802F0B5FC2C4B1B78012B05D17B7ABA
:101B100023F00403DBB27B7204E07B7A23F00C0336
:101B2000DBB27B72254B1B789BB25B0099B24FF006
:101B3000FF3300930123FA68214802F099FC1E4B01
:101B40001B78012B05D1BB7A43F00D03DBB27B720E
:101B500004E0BB7A43F00503DBB27B72174B1B78C2
:101B60009BB25B0099B24FF0FF3300930123FA68F8
:101B7000134802F07DFC104B1B78012B05D17B7ABA
:101B800023F00403DBB27B7204E07B7A23F00C03C6
:101B9000DBB27B72094B1B789BB25B0099B24FF0B2
:101BA000FF3300930123FA68054802F061FC00BF8F
:101BB0001037BD4680BD00BF010000207401002029
:101BC000D800002080B582B000AF03460A46FB7102
:101BD0001346BB71154B1B78022B05D1BB79012B2A
:101BE00002D1FB794033FB71104B1B78042B11D1D0
:101BF000BB79012B02D1FB794033FB71BB79022BFE
:101C000002D1FB791433FB71BB79032B02D1FB7931
:101C10005433FB71FB7963F07F03FB71FB7918464A
:101C2000FFF7BCFE00BF0837BD4680BD00000020A6
:101C300080B584B000AF78600023FB730AE07B6856
:101C40001B781846FFF734FF7B6801337B60FB7B12
:101C50000133FB737B681B78002BF0D100BF00BF02
:101C60001037BD4680BD000080B584B000AF7860FD
:101C70007B68002B05DA3C48FFF7DAFF7B685B42A4
:101C80007B607B68FB607B6842F20F72934214DDDD
:101C9000FB68364A82FB03121213DB17D31AFB725E
:101CA000FB7A3033DBB21846FFF702FFFB7A304A8B
:101CB00002FB03F3FA681344FB607B68B3F57A7F99
:101CC00014DBFB682B4A82FB03129211DB17D31A39
:101CD000FB72FB7A3033DBB21846FFF7E9FEFB7A82
:101CE000254A02FB03F3FA681344FB607B68632B0D
:101CF00015DDFB68214A82FB03125211DB17D31A50
:101D0000FB72FB7A3033DBB21846FFF7D1FEFB7A69
:101D10006FF0630202FB03F3FA681344FB607B6815
:101D2000092B15DDFB68164A82FB03129210DB17A4
:101D3000D31AFB72FB7A3033DBB21846FFF7B8FEDA
:101D4000FB7A6FF0090202FB03F3FA681344FB60AD
:101D5000FB68DBB23033DBB21846FFF7A9FE00BFE9
:101D60001037BD4680BD00BF1C760008AD8BDB6818
:101D7000F0D8FFFFD34D621018FCFFFF1F85EB5119
:101D80006766666680B586B002AF0023FB7316E017
:101D9000FB7B9BB25B0099B20A230122584802F0F8
:101DA00085FF0346FB71FB79002B05D1FB7B502B94
:101DB00002D0544AFB7B1370FB7B0133FB7397F912
:101DC0000F30002BE4DABB1DBB600F2001F03EFB9F
:101DD0003423BB714B4B1B789BB25B0099B24FF025
:101DE000FF3300930123BA68454802F041FB01200C
:101DF00001F02CFB3023BB71424B1B789BB25B0084
:101E000099B24FF0FF3300930123BA683C4802F0C7
:101E10002FFB052001F01AFB3423BB71394B1B78D3
:101E20009BB25B0099B24FF0FF3300930123BA6875
:101E3000334802F01DFB3023BB71012001F006FB8B
:101E4000304B1B789BB25B0099B24FF0FF3300938D
:101E50000123BA682A4802F00BFB012001F0F6FAD0
:101E60002423BB71274B1B789BB25B0099B24FF0C8
:101E7000FF3300930123BA68214802F0F9FA0120E8
:101E800001F0E4FA2023BB711E4B1B789BB25B0070
:101E900099B24FF0FF3300930123BA68184802F05B
:101EA000E7FA012001F0D2FA2820FFF777FD0120A0
:101EB00001F0CCFA0920FFF771FD012001F0C6FA0C
:101EC0000120FFF76BFD022001F0C0FA0620FFF7AA
:101ED00065FD012001F0BAFA0C20FFF75FFD01203B
:101EE00001F0B4FA0220FFF759FD022001F0AEFA2A
:101EF00000210020FFF766FE00BF1037BD4680BD01
:101F0000D80000207401002080B500AF002100201F
:101F1000FFF758FE0548FFF78BFE01210020FFF771
:101F200051FE0248FFF784FE00BF80BD2076000806
:101F300080B500AF5C4B1B79C3F30303DBB21A46D9
:101F4000594B5B789A4242D1574A13796FF3030396
:101F50001371564B1B780133DAB2544B1A700122BD
:101F60004FF48061524802F025F901224FF40061DC
:101F70004F4802F01FF901224FF480514C4802F003
:101F800019F901224FF40041494802F013F90122E6
:101F90000421484802F00EF901220821454802F0C8
:101FA00009F901221021434802F004F901222021FD
:101FB000404802F0FFF801224FF480713D4802F0E2
:101FC000F9F801224FF400713A4802F0F3F8364B69
:101FD0001A78364B1B789A4213D3374B00221A805B
:101FE000324B1B781A46354B9B5C184600F06EF856
:101FF0002E4B1B781A46314B9B5C184600F030F98B
:102000003DE000224FF48061294802F0D3F800221D
:102010004FF40061264802F0CDF800224FF48051C1
:10202000234802F0C7F800224FF40041204802F094
:10203000C1F8002204211F4802F0BCF80022082148
:102040001C4802F0B7F8002210211A4802F0B2F83A
:1020500000222021174802F0ADF800224FF48071D1
:10206000144802F0A7F800224FF40071114802F062
:10207000A1F8134B02221A70124B01221A70124B54
:102080001B78002B0DD1084B1B79C3F30303DBB284
:10209000013303F00F03D9B2034A137961F3030349
:1020A000137100BF80BD00BF24020020AF010020DB
:1020B0000000024000040240760100207C01002064
:1020C000AE010020B00100207501002080B582B073
:1020D00000AF0346FB71FB79092B59D801A252F8D6
:1020E00023F000BF0D2100081B2100082921000852
:1020F0003721000845210008512100085D21000812
:1021000069210008752100088321000800224FF48E
:102110008061214802F04EF83AE000224FF400615D
:102120001D4802F047F833E000224FF480511A486E
:1021300002F040F82CE000224FF40041164802F073
:1021400039F825E000220421144802F033F81FE09A
:1021500000220821114802F02DF819E00022102178
:102160000E4802F027F813E0002220210B4802F06D
:1021700021F80DE000224FF48071084802F01AF8AF
:1021800006E000224FF40071044802F013F800BF8B
:1021900000BF0837BD4680BD000002400004024079
:1021A00080B582B000AF0346FB71294B9B780133A9
:1021B000DAB2274B9A7001224FF48061254801F072
:1021C000F9FF01224FF40061224801F0F3FF0122E0
:1021D0004FF480511F4801F0EDFF01224FF4004100
:1021E0001C4801F0E7FF012204211B4801F0E2FF37
:1021F00001220821184801F0DDFF012210211648B4
:1022000001F0D8FF01222021134801F0D3FF012261
:102210004FF48071104801F0CDFF01224FF400719E
:102220000D4801F0C7FFFB790133DAB20B4B1A708E
:10223000074B5B7803F00F03D9B2054A137961F3BA
:1022400003031371FEF756FD00BF0837BD4680BD7E
:10225000240200200000024000040240750100201A
:1022600080B582B000AF0346FB71FB799BB2194683
:10227000064800F027FF0346002B03D0FB791846E1
:10228000FFF78EFF00BF0837BD4680BD000002404B
:1022900080B500AF01F068F800F004FA00F012FB1E
:1022A00000F0BEFA00F068FA00F0E8FAFFF76AFD05
:1022B000904803F09BFE00224FF480618E4801F0AD
:1022C00079FF00224FF400618B4801F073FF002278
:1022D0004FF48051884801F06DFF00224FF4004117
:1022E000854801F067FF00220421844801F062FF65
:1022F00000220821814801F05DFF002210217F4863
:1023000001F058FF002220217C4801F053FF0022F9
:102310004FF48071794801F04DFF00224FF40071B5
:10232000764801F047FF00F0B3FB0346042B01D8C9
:10233000FEF744F94FF47A7001F088F800F054FC8D
:10234000FEF74AFA6E4B03221A7001210E20FFF7A6
:1023500039FC6C4B9B781846FFF786FC674B1B6972
:1023600003F48063002B6CD10A226449142000F02E
:10237000C1FE0346002B64D0634B00221A70FFF7A6
:10238000C3FD5F4B03221A705E4B00229A7000223D
:102390004FF48061584801F00DFF00224FF40061B6
:1023A000554801F007FF00224FF48051524801F0D8
:1023B00001FF00224FF400414F4801F0FBFE0022D4
:1023C00004214E4801F0F6FE002208214B4801F09E
:1023D000F1FE00221021494801F0ECFE00222021EC
:1023E000464801F0E7FE00224FF48071434801F0B7
:1023F000E1FE00224FF40071404801F0DBFE00BF17
:102400003E4B1B6903F48063002BF9D000BF3B4BAC
:102410001B6903F48063002B07D00A22374914207C
:1024200000F068FE0346002BF1D100BF334B1B695F
:1024300003F48063002BF9D0334B01221A70FEF7AE
:10244000CBF9324B1B78012B0DD12E4B9A782D4BAB
:102450001B789A4202D1FEF70FFC01E0FEF734FC34
:102460002A4B00221A70274BDB78012B03D0254B17
:10247000DB78002B04D1264B1B781846FEF75CFC5A
:10248000204B5B791F4A927911461846FEF738FFB8
:102490000346022B06D11B4BDB78022B02D11C4BCF
:1024A00000221A7000F0F4FA0346042B01D8FEF75C
:1024B00047FA0121104801F065FE0346002B40F069
:1024C00084800F4B1B78002B7FD10E4BDB78022BC7
:1024D00002D1FEF78FFE01E0FEF7F6F9094BDB783B
:1024E000012B03D0074BDB78002B13D1FEF7ECF95F
:1024F00016E000BF2C010020000002400004024052
:10250000AE0100202402002001000020B0010020C4
:10251000750100205A4BDB78022B01D1FEF76AFED1
:10252000584B01221A70564A13796FF30303137143
:1025300000224FF48061544801F03CFE00BF0121AD
:10254000514801F01FFE0346002BF8D04F4B0122EB
:102550001A704B4BDB78012B37D101224FF480618D
:10256000494801F027FE01224FF40061464801F07E
:1025700021FE01224FF48051434801F01BFE01224D
:102580004FF40041404801F015FE0122042140486B
:1025900001F010FE012208213D4801F00BFE01224E
:1025A00010213B4801F006FE01222021384801F0AD
:1025B00001FE01224FF48071354801F0FBFD01223C
:1025C0004FF40071324801F0F5FD324B1B78322B8D
:1025D00003D9304B00221A7005E02E4B1B780133D3
:1025E000DAB22C4B1A7000F053FA03461A462A4B03
:1025F000DB880A3B9A423EDB00F04AFA03461A4661
:10260000254BDB880A339A4235DC244B00221A80A2
:1026100003E0224B1B88142B12D800F039FA034632
:102620001A461D4BDB880A3B9A420ADB00F030FA5F
:1026300003461A46184BDB880A339A42E9DD00E06C
:1026400000BF164B1B880A2B02D9FEF769FA12E06D
:102650000B4B00229A7001210F20FFF7B3FA1048AC
:10266000FFF7E6FA01224FF48061074801F0A2FD6E
:10267000064B00221A70642000F0E8FE65E600BFF9
:1026800024020020AF01002000000240AE01002023
:1026900000040240780100201C0200207601002086
:1026A0003476000880B594B000AF07F120033022E3
:1026B0000021184603F0F4FE07F10C0300221A6013
:1026C0005A609A60DA601A610023BB60284B1B6C69
:1026D000274A43F080531364254B1B6C03F080534F
:1026E000BB60BB6800237B60224B1B6823F4404324
:1026F000204A43F4004313601E4B1B6803F440431D
:102700007B607B6801233B624FF480337B62022352
:10271000BB634FF48003FB6319233B64A8237B64F2
:102720000223BB640423FB6407F12003184602F074
:10273000C9FF0346002B01D000F06CF90F23FB60AA
:1027400002233B6100237B614FF4A053BB61002354
:10275000FB6107F10C030221184603F02BFA034634
:10276000002B01D000F056F900BF5037BD4680BDA8
:10277000003802400070004080B584B000AF3B4696
:1027800000221A605A609A60DA60224B224A1A606C
:10279000204B4FF480325A601E4B4FF080729A608B
:1027A0001C4B00221A611B4B00221A76194B002287
:1027B00083F82020174B0022DA62164B174A9A62E0
:1027C000144B0022DA60134B0122DA61114B002214
:1027D00083F830200F4B01225A610E4800F05AFE58
:1027E0000346002B01D000F015F908233B600123BC
:1027F0007B600023BB603B461946064801F00EF89B
:102800000346002B01D000F005F900BF1037BD468C
:1028100080BD00BF90000020002001400100000F9B
:1028200080B500AF124B134A1A60114B124A5A601E
:102830000F4B00229A600E4B0022DA600C4B4FF4D3
:1028400080421A610A4B00225A61094B00229A61A8
:10285000074B0022DA61064B00221A62044801F09D
:10286000C3FC0346002B01D000F0D4F800BF80BDAC
:10287000D800002000540040A086010080B500AFC1
:102880000E4B0F4A1A600D4B4AF20F425A600B4B27
:1028900000229A60094BC722DA60084B00221A61B5
:1028A000064B00229A61054803F050FB0346002BBB
:1028B00001D000F0AFF800BF80BD00BF2C010020A8
:1028C0000044014080B58AB000AF07F11403002234
:1028D0001A605A609A60DA601A6100233B61494BC2
:1028E0001B6B484A43F004031363464B1B6B03F016
:1028F00004033B613B690023FB60424B1B6B414A75
:1029000043F0800313633F4B1B6B03F08003FB60BA
:10291000FB680023BB603B4B1B6B3A4A43F001034F
:102920001363384B1B6B03F00103BB60BB680023D0
:102930007B60344B1B6B334A43F002031363314B10
:102940001B6B03F002037B607B6800224FF4204185
:102950002D4801F02FFC002241F23C312B4801F0C0
:1029600029FC00224FF41C41294801F023FC4FF4BC
:1029700020437B610123BB610023FB6100233B6299
:1029800007F114031946204801F078FA40F2FF33AA
:102990007B610023BB610123FB6107F1140319462E
:1029A0001B4801F06BFA41F23C337B610123BB61B0
:1029B0000023FB6100233B6207F11403194613480F
:1029C00001F05CFA4FF410537B610023BB610123DB
:1029D000FB6107F1140319460C4801F04FFA4FF45C
:1029E0001C437B610123BB610023FB6100233B622D
:1029F00007F114031946064801F040FA00BF2837D2
:102A0000BD4680BD0038024000080240000402407C
:102A10000000024080B400AF72B600BFFEE70000C5
:102A200080B588B004AF0346FB71FB799AB24FF0D2
:102A3000FF3302930123019307F10F030093102347
:102A4000A021044801F00CFFFB7B18461037BD465F
:102A500080BD00BFD800002080B586B004AF03461B
:102A60000A46FB711346BB71FB799AB24FF0FF33F4
:102A7000029301230193BB1D00931023A02103485F
:102A800001F0F4FD00BF0837BD4680BDD80000202E
:102A900080B582B000AF0023FB80114800F03EFDFE
:102AA00000237B710EE00A210D4800F01EFE0C4849
:102AB00000F0A6FE0346FB80FB885B00FB807B7971
:102AC00001337B717B79032BEDD9FB885B08FB809D
:102AD000034800F0D7FDFB8818460837BD4680BD87
:102AE0009000002080B588B004AF03460A46FB7111
:102AF0001346BB805023FB73BB88FF2B19D8BB88C0
:102B0000DBB23B7300237B730023BB73FB7B9BB265
:102B10005B0099B2FB799AB24FF0FF330293032323
:102B2000019307F10C0300931023154801F09EFD5B
:102B300021E0BB88134AA2FB0323DB099BB2DBB273
:102B40003B73BB88DAB23B7B1344DBB27B7301235C
:102B5000BB73FB7B9BB25B0099B2FB799AB24FF0DF
:102B6000FF3302930323019307F10C030093102317
:102B7000034801F07BFD00BF1037BD4680BD00BF9C
:102B8000D80000208180808090B585B000AF0346DA
:102B9000FB710023FB81FB790233DBB21846FFF7A0
:102BA0003FFF0346002B06D1FB791846FFF738FF9D
:102BB00003469BB214E0FB791846FFF731FF03464A
:102BC0009BB21A461202D31A9CB2FB790133DBB2D4
:102BD0001846FFF725FF03469BB22344FB81FB8980
:102BE00018461437BD4690BD80B500AFC820FFF72A
:102BF000CBFF03461A46264B1A801420FFF7C4FF6A
:102C000003461A46224B5A801E20FFF7BDFF03469B
:102C10001A461F4BDA802820FFF702FF03461A46A8
:102C20001C4BDA702920FFF7FBFE03461A461A4BAD
:102C30009A5C184B1A706420FFF7F2FE03461A469E
:102C4000144B5A70134B1B78642B06D90021292092
:102C5000FFF702FF0F4B00221A700E4BDB78032B9D
:102C600006D900212820FFF7F7FE0A4B0022DA7070
:102C70006420FFF7D5FE0346142B06D901216420FA
:102C8000FFF7EAFE034B01225A7000BF80BD00BF70
:102C90001C020020240200203876000880B483B093
:102CA00000AF00237B60104B5B6C0F4A43F4804302
:102CB00053640D4B5B6C03F480437B607B680023A3
:102CC0003B60094B1B6C084A43F080531364064B6E
:102CD0001B6C03F080533B603B6800BF0C37BD4664
:102CE0005DF8047B704700BF0038024080B58AB0B1
:102CF00000AF786007F1140300221A605A609A60EE
:102D0000DA601A617B681B68174A934227D1002357
:102D10003B61164B5B6C154A43F480735364134B51
:102D20005B6C03F480733B613B690023FB600F4BDA
:102D30001B6B0E4A43F0020313630C4B1B6B03F037
:102D40000203FB60FB6803237B610323BB61002359
:102D5000FB6107F114031946054801F08FF800BF25
:102D60002837BD4680BD00BF00200140003802402A
:102D70000004024080B58AB000AF786007F1140308
:102D800000221A605A609A60DA601A617B681B68D8
:102D9000194A93422BD100233B61184B1B6B174AF6
:102DA00043F002031363154B1B6B03F002033B61FB
:102DB0003B69C0237B611223BB610123FB610323B9
:102DC0003B6204237B6207F1140319460C4801F0AF
:102DD00055F80023FB60094B1B6C084A43F40013B1
:102DE0001364064B1B6C03F40013FB60FB6800BF0D
:102DF0002837BD4680BD00BF005400400038024067
:102E00000004024080B584B000AF78607B681B6826
:102E10000E4A934215D10023FB600D4B5B6C0C4AAC
:102E200043F4003353640A4B5B6C03F40033FB60E0
:102E3000FB6800220021192000F0E9FF192001F0B1
:102E400002F800BF1037BD4680BD00BF00440140FE
:102E50000038024080B400AFFEE780B400AFFEE768
:102E600080B400AFFEE780B400AFFEE780B400AFEF
:102E7000FEE780B400AF00BFBD465DF8047B70473D
:102E800080B400AF00BFBD465DF8047B704780B4DE
:102E900000AF00BFBD465DF8047B704780B500AF52
:102EA00000F0B4FA00BF80BD80B500AF1D4803F04C
:102EB000FFF81D4B1B8801339AB21B4B1A801B4B2A
:102EC0001B78012B09D11A4B1B78002B05D1194B0C
:102ED000DB78002B01D1FDF7DDFF144B1B78012BB4
:102EE00009D1134B1B78002B05D1124BDB78012B3A
:102EF00001D1FFF71DF80D4B1B78012B09D10C4BAD
:102F00001B78002B05D10B4BDB78022B01D1FEF790
:102F1000AFFA084BDB78042B01D100F031F900BF88
:102F200080BD00BF2C01002076010020AE010020F2
:102F3000750100202402002080B400AF0123184650
:102F4000BD465DF8047B704780B582B000AF786005
:102F5000396003F07BFA034616221A604FF0FF3304
:102F600018460837BD4680BD80B582B000AF786096
:102F70004FF0FF317868FFF7E7FFFEE780B586B0D6
:102F800000AFF860B9607A6000237B610AE0AFF3BC
:102F900000800146BB685A1CBA60CAB21A707B69CD
:102FA00001337B617A697B689A42F0DB7B68184663
:102FB0001837BD4680BD80B586B000AFF860B960F7
:102FC0007A6000237B6109E0BB685A1CBA601B78F9
:102FD0001846AFF300807B6901337B617A697B68B7
:102FE0009A42F1DB7B6818461837BD4680BD80B435
:102FF00083B000AF78604FF0FF3318460C37BD4602
:103000005DF8047B704780B483B000AF78603960AE
:103010003B684FF400525A60002318460C37BD46F7
:103020005DF8047B704780B483B000AF7860012303
:1030300018460C37BD465DF8047B704780B485B0F8
:1030400000AFF860B9607A60002318461437BD46B7
:103050005DF8047B7047000080B586B000AF7860F3
:10306000144A154BD31A7B617B693B61134B1B6878
:10307000002B02D1114B124A1A60104B1A687B6860
:1030800013443A699A4207D203F0E0F903460C224E
:103090001A604FF0FF3309E0084B1B68FB60074BD9
:1030A0001A687B681344054A1360FB681846183792
:1030B000BD4680BD00000120000400002C0200205D
:1030C0004802002080B483B000AF78600B467B805C
:1030D0007B681A697B8822FA03F303F00103002B53
:1030E00001D1012300E0002318460C37BD465DF8EE
:1030F000047B704780B584B000AF03463960FB7134
:103100001346BB800023FB730023BB7300237B7338
:103110000023FB7312E03B681A69BB881340002B45
:1031200003D1BB7B0133BB7302E07B7B01337B7339
:10313000012000F08BF9FB7B0133FB73FA7BFB79F9
:103140009A42E8D3BA7B7B7B9A4201D9012300E003
:10315000002318461037BD4680BD000080B400AF84
:10316000064BD3F88830054A43F47003C2F8883020
:1031700000BFBD465DF8047B704700BF00ED00E076
:1031800080B500AF00224FF48061604801F012F872
:1031900000224FF400615D4801F00CF800224FF46A
:1031A00080515A4801F006F800224FF40041574878
:1031B00001F000F800220421554800F0FBFF002236
:1031C0000821534800F0F6FF00221021504800F07B
:1031D000F1FF002220214E4800F0ECFF00224FF4C6
:1031E00080714B4800F0E6FF00224FF40071484820
:1031F00000F0E0FF0121454800F0C4FF0346002B2A
:1032000006D101224FF48061404800F0D3FF7BE0FB
:1032100002213E4800F0B6FF0346002B06D10122F2
:103220004FF40061394800F0C5FF6DE004213748D4
:1032300000F0A8FF0346002B06D101224FF4805175
:10324000324800F0B7FF5FE00821304800F09AFFF5
:103250000346002B06D101224FF400412B4800F019
:10326000A9FF51E01021294800F08CFF0346002BF4
:1032700005D101220421264800F09CFF44E02021D2
:10328000224800F07FFF0346002B05D101220821D0
:103290001F4800F08FFF37E040211C4800F072FF0C
:1032A0000346002B05D101221021194800F082FFAE
:1032B0002AE08021154800F065FF0346002B05D168
:1032C00001222021124800F075FF1DE04FF48071AB
:1032D0000E4800F057FF0346002B06D101224FF4A1
:1032E00080710B4800F066FF0EE04FF40071074854
:1032F00000F048FF0346002B06D101224FF4007175
:10330000034800F057FFFFE700BF80BD0000024008
:1033100000040240DFF834D00D480E490E4A002365
:1033200002E0D458C4500433C4188C42F9D30B4A79
:103330000B4C002301E013600432A242FBD3FFF7E1
:103340000DFF03F089F8FEF7A3FF7047000001208E
:103350000000002074000020B077000874000020F6
:1033600044020020FEE7000080B500AF0E4B1B6852
:103370000D4A43F4007313600B4B1B680A4A43F475
:1033800080631360084B1B68074A43F48073136023
:10339000032000F031FD002000F008F8FFF77EFC6C
:1033A0000023184680BD00BF003C024080B582B0BB
:1033B00000AF7860124B1A68124B1B7819464FF415
:1033C0007A73B3FBF1F3B2FBF3F3184600F049FD57
:1033D0000346002B01D001230EE07B680F2B0AD897
:1033E000002279684FF0FF3000F011FD064A7B683B
:1033F0001360002300E0012318460837BD4680BD56
:10340000040000200C0000200800002080B400AF61
:10341000064B1B781A46064B1B681344044A13607C
:1034200000BFBD465DF8047B704700BF0C00002064
:103430003002002080B400AF034B1B681846BD4625
:103440005DF8047B704700BF3002002080B584B077
:1034500000AF7860FFF7EEFFB8607B68FB60FB6849
:10346000B3F1FF3F05D00A4B1B781A46FB681344A3
:10347000FB6000BFFFF7DEFF0246BB68D31AFA68A5
:103480009A42F7D800BF00BF1037BD4680BD00BFCD
:103490000C00002080B584B000AF78600023FB737F
:1034A0007B68002B01D1012333E07B681B6C002B70
:1034B00009D17868FFF71AFC7B6800225A647B68A0
:1034C000002283F83C207B681B6C03F01003002B68
:1034D00018D17B681B6C23F4885323F0020343F05C
:1034E00002027B681A64786800F0BAFA7B680022EE
:1034F0005A647B681B6C23F0030343F001027B6872
:103500001A6401E00123FB737B68002283F83C20EE
:10351000FB7B18461037BD4680BD000080B485B0E7
:1035200000AF78600023BB607B6893F83C30012BD0
:1035300001D1022397E07B68012283F83C207B685D
:103540001B689B6803F00103012B18D07B681B6884
:103550009A687B681B6842F001029A60454B1B68C1
:10356000454AA2FB03239A0C13465B001344BB603D
:1035700002E0BB68013BBB60BB68002BF9D17B68F4
:103580001B689B6803F00103012B5FD17B681B6CF8
:1035900023F4E06323F0010343F480727B681A6430
:1035A0007B681B685B6803F48063002B07D07B6833
:1035B0001B6C23F4405343F480527B681A647B688D
:1035C0001B6C03F48053B3F5805F06D17B685B6CA2
:1035D00023F006027B685A6402E07B6800225A648A
:1035E0007B68002283F83C20244BFB607B681B68CF
:1035F0006FF022021A60FB685B6803F01F03002B68
:103600000FD17B681B689B6803F04053002B29D1C6
:103610007B681B689A687B681B6842F080429A60EE
:1036200020E07B681B68164A93421BD17B681B68AD
:103630009B6803F04053002B14D17B681B689A6889
:103640007B681B6842F080429A600BE07B681B6CD1
:1036500043F010027B681A647B685B6C43F00102E4
:103660007B685A64002318461437BD465DF8047B16
:10367000704700BF0400002083DE1B43002301408D
:103680000020014080B483B000AF78607B6893F87D
:103690003C30012B01D1022321E07B68012283F819
:1036A0003C207B681B689A687B681B6822F00102DB
:1036B0009A607B681B689B6803F00103002B09D1AB
:1036C0007B681B6C23F4885323F0010343F0010251
:1036D0007B681A647B68002283F83C20002318462C
:1036E0000C37BD465DF8047B704780B584B000AFF1
:1036F000786039600023FB607B681B689B6803F47B
:103700008063B3F5806F13D17B681B689B6803F4FB
:103710008073B3F5807F0BD17B681B6C43F0200274
:103720007B681A647B68002283F83C20012363E0F5
:10373000FFF780FEF86021E03B68B3F1FF3F1DD04A
:103740003B68002B07D0FFF775FE0246FB68D31AD3
:103750003A689A4212D27B681B681B6803F0020326
:10376000022B0BD07B681B6C43F004027B681A644D
:103770007B68002283F83C2003233DE07B681B68C4
:103780001B6803F00203022BD6D17B681B686FF025
:1037900012021A607B681B6C43F400727B681A6427
:1037A0007B681B689B6803F04053002B23D17B6828
:1037B0001B7E002B1FD17B681B68DB6A03F4700340
:1037C000002B06D07B681B689B6803F48063002B8A
:1037D00011D17B681B6C23F480727B681A647B6850
:1037E0001B6C03F48053002B05D17B681B6C43F0EA
:1037F00001027B681A64002318461037BD4680BD5D
:1038000080B483B000AF78607B681B68DB6C1846BF
:103810000C37BD465DF8047B7047000080B485B06E
:1038200000AF786039600023BB607B6893F83C3060
:10383000012B01D1022305E17B68012283F83C20A2
:103840003B681B68092B25D97B681B68D9683B68D6
:103850001B689BB21A4613465B0013441E3B0722AB
:1038600002FA03F3DA437B681B680A40DA607B687C
:103870001B68D9683B689A683B681B689BB218460E
:1038800003465B0003441E3B9A407B681B680A4367
:10389000DA6022E07B681B6819693B681B689BB291
:1038A0001A4613465B001344072202FA03F3DA4375
:1038B0007B681B680A401A617B681B6819693B6852
:1038C0009A683B681B689BB2184603465B0003443A
:1038D0009A407B681B680A431A613B685B68062B49
:1038E00024D87B681B68596B3B685A6813469B0059
:1038F0001344053B1F2202FA03F3DA437B681B687B
:103900000A405A637B681B68596B3B681B689BB213
:1039100018463B685A6813469B001344053B00FA5F
:1039200003F27B681B680A435A634CE03B685B68A0
:103930000C2B24D87B681B68196B3B685A681346AC
:103940009B001344233B1F2202FA03F3DA437B68F4
:103950001B680A401A637B681B68196B3B681B680D
:103960009BB218463B685A6813469B001344233B9E
:1039700000FA03F27B681B680A431A6323E07B6842
:103980001B68D96A3B685A6813469B001344413B45
:103990001F2202FA03F3DA437B681B680A40DA62EB
:1039A0007B681B68D96A3B681B689BB218463B68FA
:1039B0005A6813469B001344413B00FA03F27B68AC
:1039C0001B680A43DA62224BFB607B681B68214A52
:1039D000934209D13B681B68122B05D1FB685B68D9
:1039E00043F48002FB685A607B681B68194A934263
:1039F00023D13B681B68102B03D03B681B68112B3D
:103A00001BD1FB685B6843F40002FB685A603B68AB
:103A10001B68102B11D1104B1B68104AA2FB03230B
:103A20009A0C13469B0013445B00BB6002E0BB682A
:103A3000013BBB60BB68002BF9D17B68002283F897
:103A40003C20002318461437BD465DF8047B7047C0
:103A500000230140002001400400002083DE1B43BE
:103A600080B485B000AF7860794BFB60FB685B6821
:103A700023F44032FB685A60FB685A687B685B68D5
:103A80001A43FB685A607B681B685A687B681B682E
:103A900022F480725A607B681B6859687B681B69D6
:103AA0001A027B681B680A435A607B681B685A6865
:103AB0007B681B6822F040725A607B681B685968FB
:103AC0007B689A687B681B680A435A607B681B683E
:103AD0009A687B681B6822F400629A607B681B68A6
:103AE00099687B68DA687B681B680A439A607B6820
:103AF0009B6A584A934222D07B681B689A687B680D
:103B00001B6822F070629A607B681B6899687B680A
:103B10009A6A7B681B680A439A607B681B689A688C
:103B20007B681B6822F040529A607B681B6899682A
:103B30007B68DA6A7B681B680A439A600FE07B68DF
:103B40001B689A687B681B6822F070629A607B68C9
:103B50001B689A687B681B6822F040529A607B68F9
:103B60001B689A687B681B6822F002029A607B6877
:103B70001B6899687B681B7E5A007B681B680A4338
:103B80009A607B6893F82030002B1BD07B681B6801
:103B90005A687B681B6842F400625A607B681B6845
:103BA0005A687B681B6822F460425A607B681B6815
:103BB00059687B685B6A013B5A037B681B680A4350
:103BC0005A6007E07B681B685A687B681B6822F4B0
:103BD00000625A607B681B68DA6A7B681B6822F4A3
:103BE0007002DA627B681B68D96A7B68DB69013B1B
:103BF0001A057B681B680A43DA627B681B689A684F
:103C00007B681B6822F400729A607B681B68996865
:103C10007B6893F830305A027B681B680A439A60CD
:103C20007B681B689A687B681B6822F480629A60D4
:103C30007B681B6899687B685B699A027B681B6874
:103C40000A439A6000BF1437BD465DF8047B704795
:103C5000002301400100000F80B485B000AF786000
:103C60007B6803F00703FB600C4BDB68BB60BA6842
:103C70004FF6FF031340BB60FB681A02BB68134397
:103C800043F0BF6343F40033BB60044ABB68D360B6
:103C900000BF1437BD465DF8047B704700ED00E0BF
:103CA00080B400AF044BDB681B0A03F0070318461F
:103CB000BD465DF8047B704700ED00E080B483B042
:103CC00000AF0346FB7197F90730002B0BDBFB7944
:103CD00003F01F02074997F907305B09012000FA3A
:103CE00002F241F8232000BF0C37BD465DF8047B8B
:103CF000704700BF00E100E080B483B000AF03462E
:103D00003960FB7197F90730002B0ADB3B68DAB2A8
:103D10000C4997F907301201D2B20B4483F8002303
:103D20000AE03B68DAB20849FB7903F00F03043B71
:103D30001201D2B20B441A7600BF0C37BD465DF8B3
:103D4000047B704700E100E000ED00E080B489B042
:103D500000AFF860B9607A60FB6803F00703FB61AD
:103D6000FB69C3F10703042B28BF0423BB61FB6974
:103D70000433062B02D9FB69033B00E000237B617F
:103D80004FF0FF32BB6902FA03F3DA43BB681A4013
:103D90007B699A404FF0FF317B6901FA03F3D94305
:103DA0007B680B40134318462437BD465DF8047BFF
:103DB0007047000080B582B000AF78607B68013B3F
:103DC000B3F1807F01D301230FE00A4A7B68013BF6
:103DD00053600F214FF0FF30FFF78EFF054B00229D
:103DE0009A60044B07221A60002318460837BD4624
:103DF00080BD00BF10E000E080B582B000AF786009
:103E00007868FFF729FF00BF0837BD4680BD80B541
:103E100086B000AF0346B9607A60FB7300237B6114
:103E2000FFF73EFF78617A68B9687869FFF78EFF1F
:103E3000024697F90F3011461846FFF75DFF00BFA5
:103E40001837BD4680BD80B582B000AF0346FB7118
:103E500097F907301846FFF731FF00BF0837BD4616
:103E600080BD80B582B000AF78607868FFF7A2FFB0
:103E7000034618460837BD4680BD000080B489B0AF
:103E800000AF7860396000237B6100233B61002331
:103E9000BB610023FB6159E10122FB6902FA03F3D4
:103EA0007B613B681B687A6913403B613A697B69B7
:103EB0009A4240F048813B685B6803F00303012BA2
:103EC00005D03B685B6803F00303022B30D17B68AD
:103ED0009B68BB61FB695B00032202FA03F3DB43CF
:103EE000BA691340BB613B68DA68FB695B0002FAA0
:103EF00003F3BA691343BB617B68BA699A607B6854
:103F00005B68BB610122FB6902FA03F3DB43BA6918
:103F10001340BB613B685B681B0903F00102FB694E
:103F200002FA03F3BA691343BB617B68BA695A604A
:103F30003B685B6803F00303032B17D07B68DB68E7
:103F4000BB61FB695B00032202FA03F3DB43BA693E
:103F50001340BB613B689A68FB695B0002FA03F39C
:103F6000BA691343BB617B68BA69DA603B685B6816
:103F700003F00303022B23D1FB69DA087B680832C4
:103F800053F82230BB61FB6903F007039B000F224B
:103F900002FA03F3DB43BA691340BB613B681A6959
:103FA000FB6903F007039B0002FA03F3BA691343AA
:103FB000BB61FB69DA087B680832B96943F82210F3
:103FC0007B681B68BB61FB695B00032202FA03F399
:103FD000DB43BA691340BB613B685B6803F00302D3
:103FE000FB695B0002FA03F3BA691343BB617B68A8
:103FF000BA691A603B685B6803F44033002B00F039
:10400000A2800023FB60574B5B6C564A43F480430D
:104010005364544B5B6C03F48043FB60FB68524A6F
:10402000FB699B08023352F82330BB61FB6903F044
:1040300003039B000F2202FA03F3DB43BA69134028
:10404000BB617B68494A934219D07B68484A9342D6
:1040500013D07B68474A93420DD07B68464A93420F
:1040600007D07B68454A934201D1042308E0072327
:1040700006E0032304E0022302E0012300E0002322
:10408000FA6902F0030292009340BA691343BB61DC
:104090003549FB699B080233BA6941F82320384B44
:1040A0001B68BB613B69DB43BA691340BB613B687A
:1040B0005B6803F48033002B03D0BA693B69134378
:1040C000BB612F4ABB6913602D4B5B68BB613B69C9
:1040D000DB43BA691340BB613B685B6803F40033A0
:1040E000002B03D0BA693B691343BB61244ABB6907
:1040F0005360234B9B68BB613B69DB43BA69134048
:10410000BB613B685B6803F48013002B03D0BA6982
:104110003B691343BB611A4ABB699360184BDB6868
:10412000BB613B69DB43BA691340BB613B685B68B9
:1041300003F40013002B03D0BA693B691343BB613E
:104140000F4ABB69D360FB690133FB61FB690F2B2D
:104150007FF6A2AE00BF00BF2437BD465DF8047BEA
:10416000704700BF003802400038014000000240A4
:104170000004024000080240000C0240001002400F
:10418000003C014080B485B000AF78600B467B8076
:104190007B681A697B881340002B02D00123FB73D4
:1041A00001E00023FB73FB7B18461437BD465DF826
:1041B000047B704780B483B000AF78600B467B808F
:1041C00013467B707B78002B03D07A887B689A61DA
:1041D00003E07B881A047B689A6100BF0C37BD46F8
:1041E0005DF8047B7047000080B584B000AF786054
:1041F0007B68002B01D101232BE17B6893F83D30D4
:10420000DBB2002B06D17B68002283F83C20786863
:10421000FEF7B0FD7B68242283F83D207B681B6895
:104220001A687B681B6822F001021A607B681B68B1
:104230001A687B681B6842F400421A607B681B683E
:104240001A687B681B6822F400421A6001F06AFE5B
:10425000F8607B685B68814A934207D8FB68804AB4
:10426000934294BF01230023DBB206E0FB687D4A42
:10427000934294BF01230023DBB2002B01D0012322
:10428000E7E0FB68784AA2FB03239B0CBB607B68DA
:104290001B685B6823F03F017B681B68BA680A43B0
:1042A0005A607B681B681B6A23F03F017B685B6870
:1042B0006A4A934202D8BB68013309E0BB684FF4F5
:1042C000967202FB03F3694AA2FB03239B090133A5
:1042D0007A6812680B4313627B681B68DB6923F4FE
:1042E0004F4222F0FF027B685B685C498B4219D821
:1042F000FB68591E7B685B685B00B1FBF3F3591CDC
:1043000040F6FC730B40002B0AD0FB68591E7B68FB
:104310005B685B00B1FBF3F30133C3F30B0351E0C4
:1043200004234FE07B689B68002B11D1FB68581E6B
:104330007B6859680B465B000B44B0FBF3F3013319
:10434000C3F30B03002B0CBF01230023DBB212E0ED
:10435000FB68581E7B6859680B469B000B4499000C
:104360000B44B0FBF3F30133C3F30B03002B0CBF7F
:1043700001230023DBB2002B01D0012322E07B6864
:104380009B68002B0ED1FB68581E7B6859680B4652
:104390005B000B44B0FBF3F30133C3F30B0343F4B3
:1043A00000430FE0FB68581E7B6859680B469B0072
:1043B0000B4499000B44B0FBF3F30133C3F30B033D
:1043C00043F44043796809681343CB617B681B68F9
:1043D0001B6823F0C0017B68DA697B681B6A1A439B
:1043E0007B681B680A431A607B681B689B6823F420
:1043F000034323F0FF037A6811697A68D268114396
:104400007A6812680B4393607B681B68DB6823F053
:10441000FF017B685A697B689B691A437B681B684C
:104420000A43DA607B681B681A687B681B6842F085
:1044300001021A607B6800221A647B68202283F8DC
:104440003D207B6800221A637B68002283F83E20AF
:10445000002318461037BD4680BD00BFA08601006E
:104460007F841E00FF083D0083DE1B43D34D621096
:1044700080B588B002AFF8607A601A460B467B813F
:1044800013463B81FEF7D6FF7861FB6893F83D3019
:10449000DBB2202B40F0E0807B69009319230122DE
:1044A0007049F86800F030FF0346002B01D002236A
:1044B000D3E0FB6893F83C30012B01D10223CCE020
:1044C000FB68012283F83C20FB681B681B6803F033
:1044D0000103012B07D0FB681B681A68FB681B6887
:1044E00042F001021A60FB681B681A68FB681B68CF
:1044F00022F400621A60FB68212283F83D20FB68E9
:10450000102283F83E20FB6800221A64FB687A6858
:104510005A62FB683A895A85FB685B8D9AB2FB68E0
:104520001A85FB68504ADA6279897B693A6AF868C9
:1045300000F0EAFC0346002B01D001238DE00023AC
:104540003B61FB681B685B693B61FB681B689B699F
:104550003B613B6966E07A69396AF86800F0AAFF56
:104560000346002B0DD0FB681B6C042B07D1FB68A6
:104570001B681A68FB681B6842F400721A6001230A
:104580006BE0FB685B6A1A78FB681B681A61FB6862
:104590005B6A5A1CFB685A62FB685B8D9BB2013BED
:1045A0009AB2FB685A85FB681B8D013B9AB2FB6887
:1045B0001A85FB681B685B6903F00403042B1BD19D
:1045C000FB681B8D002B17D0FB685B6A1A78FB68B1
:1045D0001B681A61FB685B6A5A1CFB685A62FB68BD
:1045E0005B8D9BB2013B9AB2FB685A85FB681B8DC1
:1045F000013B9AB2FB681A857A69396AF86800F05B
:104600009AFF0346002B0DD0FB681B6C042B07D1CF
:10461000FB681B681A68FB681B6842F400721A602A
:1046200001231AE0FB681B8D002B94D1FB681B68EB
:104630001A68FB681B6842F400721A60FB6820224B
:1046400083F83D20FB68002283F83E20FB680022AF
:1046500083F83C20002300E0022318461837BD46AB
:1046600080BD00BF020010000000FFFF80B588B0D1
:1046700002AFF860084611461A4603467B810B4696
:104680003B811346FB80FEF7D5FE7861FB6893F80B
:104690003D30DBB2202B40F0D9807B690093192399
:1046A00001226D49F86800F02FFE0346002B01D06F
:1046B0000223CCE0FB6893F83C30012B01D10223AC
:1046C000C5E0FB68012283F83C20FB681B681B687F
:1046D00003F00103012B07D0FB681B681A68FB6815
:1046E0001B6842F001021A60FB681B681A68FB68CD
:1046F0001B6822F400621A60FB68212283F83D20C7
:10470000FB68402283F83E20FB6800221A64FB68A5
:104710003A6A5A62FB68BA8C5A85FB685B8D9AB21A
:10472000FB681A85FB684D4ADA62F8883A8979890C
:104730007B690193BB6A00930346F86800F066FC4E
:104740000346002B52D0012381E07A69B96AF868E8
:1047500000F0B0FE0346002B0DD0FB681B6C042B51
:1047600007D1FB681B681A68FB681B6842F400727B
:104770001A6001236BE0FB685B6A1A78FB681B68B0
:104780001A61FB685B6A5A1CFB685A62FB681B8DE6
:10479000013B9AB2FB681A85FB685B8D9BB2013BBB
:1047A0009AB2FB685A85FB681B685B6903F00403D7
:1047B000042B1BD1FB681B8D002B17D0FB685B6A99
:1047C0001A78FB681B681A61FB685B6A5A1CFB68F5
:1047D0005A62FB681B8D013B9AB2FB681A85FB6825
:1047E0005B8D9BB2013B9AB2FB685A85FB681B8DBF
:1047F000002BAAD17A69B96AF86800F09CFE0346DA
:10480000002B0DD0FB681B6C042B07D1FB681B68C9
:104810001A68FB681B6842F400721A60012316E0F4
:10482000FB681B681A68FB681B6842F400721A6018
:10483000FB68202283F83D20FB68002283F83E209D
:10484000FB68002283F83C20002300E00223184686
:104850001837BD4680BD00BF020010000000FFFFFA
:1048600080B58CB002AFF860084611461A46034680
:104870007B810B463B811346FB80FEF7DBFD7862B4
:10488000FB6893F83D30DBB2202B40F008827B6A56
:104890000093192301227B49F86800F035FD034697
:1048A000002B01D00223FBE1FB6893F83C30012B85
:1048B00001D10223F4E1FB68012283F83C20FB686C
:1048C0001B681B6803F00103012B07D0FB681B6802
:1048D0001A68FB681B6842F001021A60FB681B68DB
:1048E0001A68FB681B6822F400621A60FB682222C7
:1048F00083F83D20FB68402283F83E20FB680022BD
:104900001A64FB683A6B5A62FB68BA8E5A85FB6878
:104910005B8D9AB2FB681A85FB685B4ADA62F8889D
:104920003A8979897B6A0193BB6B00930346F868E7
:1049300000F002FC0346002B01D00123B0E1FB682C
:104940001B8D002B13D100233B62FB681B685B6946
:104950003B62FB681B689B693B623B6AFB681B68A8
:104960001A68FB681B6842F400721A6084E1FB68F5
:104970001B8D012B1BD1FB681B681A68FB681B6829
:1049800022F480621A600023FB61FB681B685B698C
:10499000FB61FB681B689B69FB61FB69FB681B682B
:1049A0001A68FB681B6842F400721A6064E1FB68D5
:1049B0001B8D022B1BD1FB681B681A68FB681B68E8
:1049C00022F480621A60FB681B681A68FB681B6827
:1049D00042F400621A600023BB61FB681B685B69DC
:1049E000BB61FB681B689B69BB61BB6944E1002339
:1049F0007B61FB681B685B697B61FB681B689B696B
:104A00007B617B6938E1FB681B8D032B00F2F18031
:104A1000FB681B8D012B23D17A6AB96BF86800F013
:104A2000CBFD0346002B01D0012339E1FB681B6855
:104A30001A69FB685B6AD2B21A70FB685B6A5A1C1F
:104A4000FB685A62FB681B8D013B9AB2FB681A85B2
:104A5000FB685B8D9BB2013B9AB2FB685A850BE108
:104A6000FB681B8D022B4ED17B6A0093BB6B00222F
:104A70000649F86800F048FC0346002B08D00123E3
:104A80000EE100BF020010000000FFFF0400010063
:104A9000FB681B681A68FB681B6842F400721A60A6
:104AA000FB681B681A69FB685B6AD2B21A70FB6804
:104AB0005B6A5A1CFB685A62FB681B8D013B9AB209
:104AC000FB681A85FB685B8D9BB2013B9AB2FB6861
:104AD0005A85FB681B681A69FB685B6AD2B21A7058
:104AE000FB685B6A5A1CFB685A62FB681B8D013BC2
:104AF0009AB2FB681A85FB685B8D9BB2013B9AB248
:104B0000FB685A85B8E07B6A0093BB6B002266495C
:104B1000F86800F0F9FB0346002B01D00123BFE049
:104B2000FB681B681A68FB681B6822F480621A60C5
:104B3000FB681B681A69FB685B6AD2B21A70FB6873
:104B40005B6A5A1CFB685A62FB681B8D013B9AB278
:104B5000FB681A85FB685B8D9BB2013B9AB2FB68D0
:104B60005A857B6A0093BB6B00224F49F86800F0BE
:104B7000CBFB0346002B01D0012391E0FB681B68AF
:104B80001A68FB681B6842F400721A60FB681B68B5
:104B90001A69FB685B6AD2B21A70FB685B6A5A1CBE
:104BA000FB685A62FB681B8D013B9AB2FB681A8551
:104BB000FB685B8D9BB2013B9AB2FB685A85FB6830
:104BC0001B681A69FB685B6AD2B21A70FB685B6A81
:104BD0005A1CFB685A62FB681B8D013B9AB2FB684A
:104BE0001A85FB685B8D9BB2013B9AB2FB685A85C4
:104BF00042E07A6AB96BF86800F0DEFC0346002BED
:104C000001D001234CE0FB681B681A69FB685B6AF2
:104C1000D2B21A70FB685B6A5A1CFB685A62FB6866
:104C20001B8D013B9AB2FB681A85FB685B8D9BB2BA
:104C3000013B9AB2FB685A85FB681B685B6903F00D
:104C40000403042B18D1FB681B681A69FB685B6AB4
:104C5000D2B21A70FB685B6A5A1CFB685A62FB6826
:104C60001B8D013B9AB2FB681A85FB685B8D9BB27A
:104C7000013B9AB2FB685A85FB681B8D002B7FF4C1
:104C8000C2AEFB68202283F83D20FB68002283F837
:104C90003E20FB68002283F83C20002300E0022332
:104CA00018462837BD4680BD0400010080B58AB093
:104CB00002AFF8607A603B600B467B81FEF7BAFB7F
:104CC000F8610123BB61FB6893F83D30DBB2202B18
:104CD00040F01181FB690093192301228849F8688B
:104CE00000F012FB0346002B01D0022304E1FB6815
:104CF00093F83C30012B01D10223FDE0FB68012237
:104D000083F83C20FB681B681B6803F00103012B40
:104D100007D0FB681B681A68FB681B6842F0010239
:104D20001A60FB681B681A68FB681B6822F4006243
:104D30001A60FB68242283F83D20FB6800221A6475
:104D4000FB68704ADA62FB681B681A68FB681B68BC
:104D500042F480721A60FB6900933B6800224FF0B6
:104D60000111F86800F0D0FA0346002B0DD0FB6863
:104D70001B681B6803F48073B3F5807F03D1FB6865
:104D80004FF400721A640323B6E07B89DBB21A4643
:104D9000FB681B6802F0FE021A61FEF74BFBF8612C
:104DA000FB681B685B6903F00203022B0CBF012345
:104DB0000023DBB2FB75FB681B685B6903F480634F
:104DC000B3F5806F0CBF01230023DBB2BB7525E078
:104DD000FEF730FB0246FB69D31A3A689A4202D3C7
:104DE0003B68002B03D1FB68A02283F83D20FB68C1
:104DF0001B685B6903F00203022B0CBF0123002335
:104E0000DBB2FB75FB681B685B6903F48063B3F579
:104E1000806F0CBF01230023DBB2BB75FB6893F8E6
:104E20003D30DBB2A02B05D0FB7D002B02D1BB7D3A
:104E3000002BCDD0FB68202283F83D20FB681B6847
:104E40005B6903F00203022B29D1FB681B681A6817
:104E5000FB681B6842F400721A6000233B61FB6828
:104E60001B685B693B61FB681B689B693B613B6935
:104E7000FB690093192301222149F86800F044FAE4
:104E80000346002B01D0012336E0FB68202283F883
:104E90003D20FB68002283F83C2000232CE0FB68C7
:104EA0001B681A68FB681B6842F400721A60FB6892
:104EB0001B686FF480625A61FB6900931923012219
:104EC0000F49F86800F020FA0346002B01D00123B7
:104ED00012E0BB690133BB61BA697B689A42FFF497
:104EE00032AFFB68202283F83D20FB68002283F864
:104EF0003C20012300E0022318462037BD4680BD38
:104F0000020010000000FFFF80B588B002AFF8601B
:104F10007A603B600B467B81FB68DB6A7B617B6967
:104F2000082B06D07B69012B03D07B6913F5803FEA
:104F300008D1FB681B681A68FB681B6842F4807222
:104F40001A600BE0FB681B6B122B07D1FB681B6818
:104F50001A68FB681B6842F480721A603B68009311
:104F60007B6800224FF00111F86800F0CDF903468C
:104F7000002B0DD0FB681B681B6803F48073B3F52E
:104F8000807F03D1FB684FF400721A64032335E07D
:104F9000FB681B69B3F5804F08D17B89DBB21A46E9
:104FA000FB681B6802F0FE021A611BE07B89DB11C3
:104FB000DBB203F00603DBB263F00F03DAB2FB6887
:104FC0001B681A613B687A680E49F86800F0F3F9CB
:104FD0000346002B01D0012310E07B89DAB2FB6885
:104FE0001B681A613B687A680749F86800F0E3F9C2
:104FF0000346002B01D0012300E000231846183798
:10500000BD4680BD080001000200010080B588B0E7
:1050100002AFF860084611461A4603467B810B46EC
:105020003B811346FB80FB681B681A68FB681B68A2
:1050300042F480721A607B6A00933B6A00224FF050
:105040000111F86800F060F90346002B0DD0FB68F1
:105050001B681B6803F48073B3F5807F03D1FB6882
:105060004FF400721A6403235FE07B89DBB21A46B7
:10507000FB681B6802F0FE021A617B6A3A6A2D49DE
:10508000F86800F098F90346002B01D001234CE0AA
:1050900000237B61FB681B685B697B61FB681B68A5
:1050A0009B697B617B697A6A396AF86800F002FA69
:1050B0000346002B0DD0FB681B6C042B07D1FB684B
:1050C0001B681A68FB681B6842F400721A600123AF
:1050D0002BE0FB88012B05D13B89DAB2FB681B680A
:1050E0001A6121E03B891B0A9BB2DAB2FB681B689C
:1050F0001A617A6A396AF86800F0DCF90346002B15
:105100000DD0FB681B6C042B07D1FB681B681A6869
:10511000FB681B6842F400721A60012305E03B89BA
:10512000DAB2FB681B681A61002318461837BD46BF
:1051300080BD00BF0200010080B588B002AFF860FA
:10514000084611461A4603467B810B463B811346AF
:10515000FB80FB681B681A68FB681B6842F480626E
:105160001A60FB681B681A68FB681B6842F480724F
:105170001A607B6A00933B6A00224FF00111F868C5
:1051800000F0C2F80346002B0DD0FB681B681B68BB
:1051900003F48073B3F5807F03D1FB684FF4007292
:1051A0001A640323AAE07B89DBB21A46FB681B68FA
:1051B00002F0FE021A617B6A3A6A5249F86800F00E
:1051C000FAF80346002B01D0012397E000237B610E
:1051D000FB681B685B697B61FB681B689B697B6183
:1051E0007B697A6A396AF86800F064F90346002B33
:1051F0000DD0FB681B6C042B07D1FB681B681A6879
:10520000FB681B6842F400721A60012376E0FB8899
:10521000012B05D13B89DAB2FB681B681A6121E0DA
:105220003B891B0A9BB2DAB2FB681B681A617A6A77
:10523000396AF86800F03EF90346002B0DD0FB6890
:105240001B6C042B07D1FB681B681A68FB681B6882
:1052500042F400721A60012350E03B89DAB2FB6825
:105260001B681A617A6A396AF86800F023F9034604
:10527000002B0DD0FB681B6C042B07D1FB681B684F
:105280001A68FB681B6842F400721A60012335E05B
:10529000FB681B681A68FB681B6842F480721A601E
:1052A0007B6A00933B6A00224FF00111F86800F01E
:1052B0002BF80346002B0DD0FB681B681B6803F41A
:1052C0008073B3F5807F03D1FB684FF400721A64DA
:1052D000032313E07B89DBB243F00103DAB2FB68FE
:1052E0001B681A617B6A3A6A0649F86800F063F83D
:1052F0000346002B01D0012300E000231846183795
:10530000BD4680BD0200010080B584B000AFF860EA
:10531000B9603B601346FB7125E03B68B3F1FF3F8A
:1053200021D0FEF787F80246BB69D31A3A689A4241
:1053300002D33B68002B16D1FB6800221A63FB687E
:10534000202283F83D20FB68002283F83E20FB6882
:105350001B6C43F02002FB681A64FB68002283F890
:105360003C20012323E0BB681B0CDBB2012B0DD1D9
:10537000FB681B685B69DA43BB6813409BB2002B78
:105380000CBF01230023DBB21A460CE0FB681B684C
:105390009B69DA43BB6813409BB2002B0CBF01230F
:1053A0000023DBB21A46FB799A42B6D00023184696
:1053B0001037BD4680BD80B584B000AFF860B960DD
:1053C0007A603B6051E0FB681B685B6903F48063B3
:1053D000B3F5806F23D1FB681B681A68FB681B68F4
:1053E00042F400721A60FB681B686FF480625A61B5
:1053F000FB6800221A63FB68202283F83D20FB68CB
:10540000002283F83E20FB681B6C43F00402FB681B
:105410001A64FB68002283F83C20012346E07B6885
:10542000B3F1FF3F21D0FEF705F802463B68D31ADF
:105430007A689A4202D37B68002B16D1FB6800225F
:105440001A63FB68202283F83D20FB68002283F862
:105450003E20FB681B6C43F02002FB681A64FB686B
:10546000002283F83C20012320E0BB681B0CDBB248
:10547000012B0CD1FB681B685B69DA43BB681340E6
:105480009BB2002B14BF01230023DBB20BE0FB68AF
:105490001B689B69DA43BB6813409BB2002B14BFA7
:1054A00001230023DBB2002B8DD1002318461037D7
:1054B000BD4680BD80B584B000AFF860B9607A6049
:1054C0002DE0F86800F0CEF80346002B01D0012350
:1054D0002DE0BB68B3F1FF3F21D0FDF7ABFF0246E3
:1054E0007B68D31ABA689A4202D3BB68002B16D1E4
:1054F000FB6800221A63FB68202283F83D20FB68CA
:10550000002283F83E20FB681B6C43F02002FB68FE
:105510001A64FB68002283F83C20012307E0FB6843
:105520001B685B6903F08003802BCAD100231846F7
:105530001037BD4680BD80B584B000AFF860B9605B
:105540007A602DE0F86800F08DF80346002B01D05A
:1055500001232DE0BB68B3F1FF3F21D0FDF76AFFC7
:1055600002467B68D31ABA689A4202D3BB68002B02
:1055700016D1FB6800221A63FB68202283F83D20C5
:10558000FB68002283F83E20FB681B6C43F020027E
:10559000FB681A64FB68002283F83C20012307E0C3
:1055A000FB681B685B6903F00403042BCAD100236A
:1055B00018461037BD4680BD80B584B000AFF86096
:1055C000B9607A6042E0FB681B685B6903F0100316
:1055D000102B19D1FB681B686FF010025A61FB6831
:1055E00000221A63FB68202283F83D20FB6800221A
:1055F00083F83E20FB681A6CFB681A64FB68002283
:1056000083F83C20012329E0FDF714FF02467B6864
:10561000D31ABA689A4202D3BB68002B16D1FB6832
:1056200000221A63FB68202283F83D20FB680022D9
:1056300083F83E20FB681B6C43F02002FB681A6471
:10564000FB68002283F83C20012307E0FB681B680D
:105650005B6903F04003402BB5D100231846103797
:10566000BD4680BD80B483B000AF78607B681B68A6
:105670005B6903F48063B3F5806F1BD17B681B68A3
:105680006FF480625A617B6800221A637B68202273
:1056900083F83D207B68002283F83E207B681B6CEA
:1056A00043F004027B681A647B68002283F83C2084
:1056B000012300E0002318460C37BD465DF8047B4B
:1056C0007047000080B586B000AF78607B68002B23
:1056D00001D1012367E27B681B6803F00103002B03
:1056E00075D0884B9B6803F00C03042B0CD0854BC2
:1056F0009B6803F00C03082B12D1824B5B6803F408
:105700008003B3F5800F0BD17E4B1B6803F400338D
:10571000002B5BD07B685B68002B57D1012342E2F2
:105720007B685B68B3F5803F06D1764B1B68754A92
:1057300043F4803313601DE07B685B68B3F5A02FF2
:105740000CD1704B1B686F4A43F4802313606D4B80
:105750001B686C4A43F4803313600BE0694B1B6891
:10576000684A23F480331360664B1B68654A23F450
:10577000802313607B685B68002B13D0FDF75AFE13
:10578000386108E0FDF756FE02463B69D31A642BE8
:1057900001D9032307E25B4B1B6803F40033002BA2
:1057A000F0D014E0FDF746FE386108E0FDF742FE58
:1057B00002463B69D31A642B01D90323F3E1514B11
:1057C0001B6803F40033002BF0D100E000BF7B68BE
:1057D0001B6803F00203002B63D04A4B9B6803F065
:1057E0000C03002B0BD0474B9B6803F00C03082BDA
:1057F0001CD1444B5B6803F48003002B16D1414B52
:105800001B6803F00203002B05D07B68DB68012BCB
:1058100001D00123C7E13B4B1B6823F0F8027B68F2
:105820001B69DB00374913430B603AE07B68DB6898
:10583000002B20D0344B01221A60FDF7FBFD3861AC
:1058400008E0FDF7F7FD02463B69D31A022B01D9A8
:105850000323A8E12B4B1B6803F00203002BF0D0BD
:10586000284B1B6823F0F8027B681B69DB00254985
:1058700013430B6015E0244B00221A60FDF7DAFD9C
:10588000386108E0FDF7D6FD02463B69D31A022BCA
:1058900001D9032387E11B4B1B6803F00203002B94
:1058A000F0D17B681B6803F00803002B36D07B68BF
:1058B0005B69002B16D0154B01221A60FDF7BAFD6B
:1058C000386108E0FDF7B6FD02463B69D31A022BAA
:1058D00001D9032367E10B4B5B6F03F00203002B3D
:1058E000F0D01BE0094B00221A60FDF7A3FD3861E0
:1058F0000EE0FDF79FFD02463B69D31A022B07D944
:10590000032350E10038024000004742800E474226
:10591000884B5B6F03F00203002BEAD17B681B68A6
:1059200003F00403002B00F097800023FB75814BEC
:105930001B6C03F08053002B0FD10023BB607D4B09
:105940001B6C7C4A43F0805313647A4B1B6C03F04E
:105950008053BB60BB680123FB75774B1B6803F466
:105960008073002B18D1744B1B68734A43F4807307
:105970001360FDF75FFD386108E0FDF75BFD02464F
:105980003B69D31A022B01D903230CE16A4B1B6834
:1059900003F48073002BF0D07B689B68012B06D149
:1059A000644B1B6F634A43F0010313671CE07B6881
:1059B0009B68052B0CD15F4B1B6F5E4A43F00403C1
:1059C00013675C4B1B6F5B4A43F0010313670BE0EB
:1059D000584B1B6F574A23F001031367554B1B6F3E
:1059E000544A23F0040313677B689B68002B15D08F
:1059F000FDF720FD38610AE0FDF71CFD02463B691A
:105A0000D31A41F28832934201D90323CBE0494BA8
:105A10001B6F03F00203002BEED014E0FDF70AFD2C
:105A200038610AE0FDF706FD02463B69D31A41F2F0
:105A30008832934201D90323B5E03E4B1B6F03F03C
:105A40000203002BEED1FB7D012B05D1394B1B6CE2
:105A5000384A23F0805313647B689B69002B00F065
:105A6000A180344B9B6803F00C03082B5CD07B684F
:105A70009B69022B41D1314B00221A60FDF7DAFC01
:105A8000386108E0FDF7D6FC02463B69D31A022BC9
:105A900001D9032387E0274B1B6803F00073002B19
:105AA000F0D17B68DA697B681B6A1A437B685B6AA2
:105AB0009B011A437B689B6A5B08013B1B041A43EA
:105AC0007B68DB6A1B061B4913434B601B4B01229F
:105AD0001A60FDF7AFFC386108E0FDF7ABFC024649
