:020000040800F2
:100000000000012005330008452E00084B2E000893
:10001000512E0008572E00085D2E00080000000039
:10002000000000000000000000000000632E000837
:10003000712E0008000000007F2E00088D2E0008A1
:100040005533000855330008553300085533000870
:100050005533000855330008553300085533000860
:100060005533000855330008553300085533000850
:100070005533000855330008553300085533000840
:1000800055330008553300085533000800000000C0
:1000900000000000000000000000000055330008D0
:1000A00055330008992E00085533000855330008D1
:1000B0005533000855330008553300085533000800
:1000C00055330008553300085533000855330008F0
:1000D0005533000855330008553300080000000070
:1000E0005533000855330008553300080000000060
:1000F0000000000000000000000000005533000870
:10010000000000005533000855330008553300083F
:1001100000000000000000000000000000000000DF
:10012000553300085533000855330008553300088F
:10013000553300080000000000000000000000002F
:10014000000000000000000000000000553300081F
:10015000553300085533000855330008553300085F
:10016000553300085533000800000000000000006F
:10017000000000000000000000000000000000007F
:1001800000000000553300080000000000000000DF
:0401900055330008DB
:1001A00010B5054C237833B9044B13B10448AFF3B1
:1001B00000800123237010BD7400002000000000A7
:1001C000E074000808B5034B1BB103490348AFF3C3
:1001D000008008BD0000000078000020E0740008E6
:1001E00001F0FF01102A2BDB10F0070F08D010F8E8
:1001F000013B013A8B422DD010F0070F42B3F6D1EC
:10020000F0B441EA012141EA014122F007047FF004
:1002100000070023F0E80256083C85EA010586EA5B
:10022000010685FA47F5A3FA87F586FA47F6A5FA97
:1002300087F68EB9EED1F0BC01F0FF0102F00702A3
:1002400032B110F8013B013A83EA010313B1F8D14E
:100250000020704701387047002D06BF354603382F
:10026000073815F0010F07D1013015F4807F02BF68
:10027000013015F4C03F0130F0BC0138704700BFB9
:1002800053B94AB9002908BF00281CBF4FF0FF31FD
:100290004FF0FF3000F06EB9ADF1080C6DE904CEFF
:1002A00000F006F8DDF804E0DDE9022304B0704751
:1002B0002DE9F047089D04468C46002B40F08380D2
:1002C0008A42174647D9B2FA82F242B1C2F12000FF
:1002D00024FA00F09140974040EA010C94404FEA24
:1002E0001748230CBCFBF8F61FFA87FE08FB16C163
:1002F00043EA014306FB0EF1994209D9FB1806F1C6
:10030000FF3080F01981994240F21681023E3B4451
:100310005B1AA4B2B3FBF8F008FB103344EA0344C1
:1003200000FB0EFEA64509D93C1900F1FF3380F011
:100330000581A64540F2028102383C4440EA06406D
:10034000A4EB0E0400261DB1D4400023C5E90043F0
:100350003146BDE8F08702B9FFDEB2FA82F2002A28
:1003600050D1CB1B4FEA174E1FFA87F80126B3FB7B
:10037000FEFC210C0EFB1C3341EA034108FB0CF38D
:100380008B4207D979180CF1FF3002D28B4200F270
:10039000E9808446C91AA3B2B1FBFEF00EFB10112E
:1003A00043EA014408FB00F8A04507D93C1900F1D5
:1003B000FF3302D2A04500F2D9801846A4EB08040E
:1003C00040EA0C40BFE78B4209D9002D00F0B18014
:1003D0000026C5E9000130463146BDE8F087B3FA92
:1003E00083F6002E4AD18B4202D3824200F2B880BB
:1003F000841A61EB030101208C46002DA8D0C5E9C9
:10040000004CA5E7C2F1200320FA03F6974001FA59
:1004100002F04FEA174ED9403043030CB1FBFEF611
:100420001FFA87F80EFB161143EA014306FB08F199
:10043000994204FA02F409D9FB1806F1FF3C80F056
:100440008D80994240F28A80023E3B445B1A81B221
:10045000B3FBFEF00EFB103341EA034100FB08F34F
:100460008B4207D9791800F1FF3C73D28B4271D9C6
:1004700002383944CB1A40EA064678E7C6F1200C28
:1004800003FA06F422FA0CF31C4320FA0CF701FAE3
:1004900006F34FEA144E21FA0CF11F433B0CB1FB5B
:1004A000FEF91FFA84F80EFB191143EA014109FB1A
:1004B00008FA8A4502FA06F200FA06F308D961182A
:1004C00009F1FF3048D28A4546D9A9F102092144F1
:1004D000A1EB0A01BFB2B1FBFEF00EFB101147EA1F
:1004E000014700FB08F8B84507D9E71900F1FF31CB
:1004F0002ED2B8452CD90238274440EA0940A7EB50
:100500000807A0FB02894F45C64649461AD317D0B3
:100510005DB1B3EB0E0267EB010707FA0CFCF2408A
:100520004CEA0202F740C5E9002700263146BDE843
:10053000F0872E4628460BE70646E9E61846FDE614
:100540004345E5D2B8EB020E69EB04010138DFE761
:100550000846D2E760468DE78146B9E7664675E70B
:1005600030464AE7ACF1020C394413E702383C4408
:1005700024E700BF704700BF80B582B000AF78604D
:100580000021002001F018FB084801F04BFB01217D
:10059000002001F011FB786801F044FB4FF47A7001
:1005A00002F04CFF00BF0837BD4680BDF87400085C
:1005B00080B582B000AF7F48FFF7DEFF00BF02F0DA
:1005C0005FFA03461A4640F2F2339A42F7D840F2F5
:1005D000DC5002F033FF02F053FA0346BB80BB88C5
:1005E00040F2F13293421ED8BB880A2B1BD9FB88FC
:1005F000002B18D14FF4FA7002F020FF02F040FAFD
:1006000003461A466C4B1A806B4B1B881946C82050
:1006100002F060FA0121072001F0CEFA674801F0EC
:1006200001FB0123FB80BB8840F2F232934218D9D0
:10063000FB88012B15D10121072001F0BDFA60488C
:1006400001F0F0FA0023FB8000BF0121002001F03F
:10065000B3FA5C4801F0E6FA4FF47A7002F0EEFE6D
:1006600003E0642002F0EAFEB5E702F009FA03466F
:100670001A4640F2F2339A42F7D84FF4FA7002F079
:10068000DDFE02F0FDF90346BB80BB8840F2F1328B
:1006900093421ED8BB880A2B1BD9FB88002B18D18C
:1006A0004FF4FA7002F0CAFE02F0EAF903461A4665
:1006B000414B5A80404B5B881946142002F00AFADD
:1006C0000121072001F078FA3C4801F0ABFA012340
:1006D000FB80BB8840F2F2329342D2D9FB88012BD7
:1006E000CFD10121072001F067FA354801F09AFACD
:1006F0000023FB8000BF0121002001F05DFA324899
:1007000001F090FA4FF47A7002F098FE02F0B8F916
:1007100003461A4640F2F2339A42F7D84FF4FA7081
:1007200002F08CFE02F0ACF90346BB80BB8840F2BD
:10073000F13293421ED8BB880A2B1BD9FB88002BB1
:1007400018D14FF4FA7002F079FE02F099F90346DD
:100750001A46194BDA80184BDB8819461E2002F026
:10076000B9F90121072001F027FA144801F05AFADB
:100770000123FB80BB8840F2F2329342D2D9FB883E
:10078000012BCFD10121072001F016FA0C4801F00E
:1007900049FA0123FB8000BF02F072F903461A46B2
:1007A00040F2F2339A42F7D800BF00BF0837BD4687
:1007B00080BD00BF00750008F80100200875000822
:1007C0000C750008107500081875000880B500AF9A
:1007D0000021002001F0F0F92D4801F023FA2D4B03
:1007E0001B78184601F03AFA2B4801F01BFA012158
:1007F000002001F0E1F9294801F014FA284801F03D
:1008000011FA244B5B78184601F028FA01210A20DE
:1008100001F0D2F9234801F005FA1E4BDB78042BD6
:1008200034D801A252F823F03D0800084D08000812
:100830005D0800086D0800087D08000800210C20F4
:1008400001F0BAF9184801F0EDF91FE000210C2081
:1008500001F0B2F9154801F0E5F917E000210C208C
:1008600001F0AAF9124801F0DDF90FE000210C2097
:1008700001F0A2F90F4801F0D5F907E000210C20A2
:1008800001F09AF90C4801F0CDF900BF00BF80BD1E
:1008900020750008F8000020287500082C75000855
:1008A0003475000838750008407500084475000864
:1008B000487500084C7500085075000880B582B076
:1008C00000AF184B1B78184605F0DAFD0023FB71CA
:1008D00000237B711CE005F001FE0246124B83FBF6
:1008E00002139910D317C91A0B469B000B445B00E7
:1008F000D11A0B46FB71BA79FB799A42EBD0FB799E
:10090000BB717B790949FA79CA547B7901337B71D0
:10091000074B1B787A799A42EDD900BF00BF0837A0
:10092000BD4680BD3202002067666666C4010020B5
:10093000F800002080B582B000AF0023FB712920B1
:1009400002F066F803463B6000BF02F099F80346E8
:10095000042BFAD94FF47A7002F070FD4EE0FB7967
:100960000133FB710021052001F026F9644801F0F4
:1009700059F9C82002F062FD0021052001F01CF9A0
:10098000604A3B6813441B78184601F067F9C82099
:1009900002F054FD02F074F803461A465A4B5B8885
:1009A0000A3B9A4210DB02F06BF803461A46564B9C
:1009B0005B880A339A4207DC3B68052B04DC3B6802
:1009C00001333B600023FB7102F05AF803461A46DC
:1009D0004D4B1B880A3B9A4210DB02F051F803464C
:1009E0001A46494B1B880A339A4207DC3B68002BA6
:1009F00004D03B68013B3B600023FB71FB79042B77
:100A0000ADD9292002F004F803461A463B68934208
:100A100005D03B68DBB21946292002F015F8394AA7
:100A20003B6813441A78394B1A700023FB71374B1B
:100A30005B783B604AE0FB790133FB7101210720C1
:100A400001F0BAF8324801F0EDF8962002F0F6FC19
:100A50000121072001F0B0F8386801F0FFF8962076
:100A600002F0ECFC02F00CF803461A46264B5B88B9
:100A70000A3B9A4210DB02F003F803461A46224B67
:100A80005B880A339A4207DC3B68082B04DC3B682E
:100A900001333B600023FB7101F0F2FF03461A466D
:100AA000194B1B880A3B9A4210DB01F0E9FF034611
:100AB0001A46154B1B880A339A4207DC3B68002B09
:100AC00004D03B68013B3B600023FB71FB79042BA6
:100AD000B1D9642001F09CFF03461A463B6893425B
:100AE00005D03B68DBB21946642001F0ADFF3B68DE
:100AF000DAB2064B5A7000BF0837BD4680BD00BF52
:100B0000547500089C750008F8010020F8000020CA
:100B10005875000880B500AF0021002001F04CF8A6
:100B20004A4801F07FF875E001F0AAFF03461A4633
:100B3000474B5B880A3B9A4212DB01F0A1FF034658
:100B40001A46434B5B880A339A4209DC414BDB78F7
:100B5000032B05D83F4BDB780133DAB23D4BDA701B
:100B600001F08EFF03461A46394B1B880A3B9A4216
:100B700012DB01F085FF03461A46354B1B880A330A
:100B80009A4209DC334BDB78002B05D0314BDB7804
:100B9000013BDAB22F4BDA702E4BDB78042B35D8C1
:100BA00001A252F823F000BFBD0B0008CD0B0008D6
:100BB000DD0B0008FD0B0008ED0B000800210C20E8
:100BC00000F0FAFF244801F02DF81FE000210C206E
:100BD00000F0F2FF214801F025F817E000210C2079
:100BE00000F0EAFF1E4801F01DF80FE000210C2084
:100BF00000F0E2FF1B4801F015F807E000210C208F
:100C000000F0DAFF184801F00DF800BF4FF4FA7059
:100C100002F014FC01F034FF0346042B84D80D4B82
:100C2000DB781946282001F00FFF01F067F9FFF784
:100C3000CDFD00BF01F024FF0346042BFAD94FF489
:100C4000967002F0FBFB00BF80BD00BF5C75000822
:100C5000F8010020F80000206C750008707500088D
:100C600074750008787500087C75000880B582B03E
:100C700000AF00237B6016E001224FF480510E4844
:100C800003F090FA4FF4967002F0D8FB00224FF474
:100C90008051094803F086FA4FF4967002F0CEFBBB
:100CA0007B6801337B607B68022BE5DD00BF00BF02
:100CB0000837BD4680BD00BF0004024080B500AFCC
:100CC00001224FF48051074803F06CFA4FF4FA60A8
:100CD00002F0B4FB00224FF48051024803F062FAA4
:100CE00000BF80BD0004024080B582B000AF002389
:100CF0007B6008E001224FF480510A4803F052FA69
:100D00007B6801337B607B68074A9342F2D90022FB
:100D10004FF48051034803F045FA00BF0837BD4641
:100D200080BD00BF000402409F86010080B582B0F4
:100D300000AF0346FB71FB79013B092B00F29B805E
:100D400001A252F823F000BF710D0008870D0008C2
:100D50009D0D0008B30D0008C90D0008DF0D000847
:100D6000F50D00080B0E0008210E0008390E0008D2
:100D70000121434803F0FEF90346002B68D0414BA4
:100D800000221A7064E002213D4803F0F3F90346A3
:100D9000002B5FD03B4B00221A705BE004213848E7
:100DA00003F0E8F90346002B56D0364B00221A70A8
:100DB00052E00821324803F0DDF90346002B4DD004
:100DC000304B00221A7049E010212D4803F0D2F96F
:100DD0000346002B44D02B4B00221A7040E0202108
:100DE000274803F0C7F90346002B3BD0254B0022D0
:100DF0001A7037E04021224803F0BCF90346002B6B
:100E000032D0204B00221A702EE080211C4803F0C3
:100E1000B1F90346002B29D01A4B00221A7025E0A5
:100E20004FF48071164803F0A5F90346002B1FD03C
:100E3000144B00221A701BE04FF40071104803F0AD
:100E400099F90346002B15D00E4B00221A7011E0C1
:100E500000BF10E000BF0EE000BF0CE000BF0AE0E2
:100E600000BF08E000BF06E000BF04E000BF02E0F2
:100E700000BF00E000BF00BF0837BD4680BD00BF17
:100E8000000002409000002080B500AF5C4B1B7951
:100E9000C3F30303DBB21A46594B5B789A4242D143
:100EA000574A13796FF303031371564B1B780133C1
:100EB000DAB2544B1A7000224FF48061524803F0AA
:100EC00071F900224FF400614F4803F06BF90022E2
:100ED0004FF480514C4803F065F900224FF4004173
:100EE000494803F05FF900220421484803F05AF909
:100EF00000220821454803F055F9002210214348FB
:100F000003F050F900222021404803F04BF9002261
:100F10004FF480713D4803F045F900224FF4007111
:100F20003A4803F03FF9364B1A78364B1B789A4211
:100F300013D3374B00221A80324B1B781A46354B9D
:100F40009B5C184600F06EF82E4B1B781A46314B0E
:100F50009B5C184600F030F93DE000224FF48061C0
:100F6000294803F01FF900224FF40061264803F0DE
:100F700019F900224FF48051234803F013F900229D
:100F80004FF40041204803F00DF9002204211F48CE
:100F900003F008F9002208211C4803F003F900229D
:100FA00010211A4803F0FEF800222021174803F010
:100FB000F9F800224FF48071144803F0F3F800228E
:100FC0004FF40071114803F0EDF8134B02221A7030
:100FD000124B01221A70124B1B78002B0DD1084BBB
:100FE0001B79C3F30303DBB2013303F00F03D9B260
:100FF000034A137961F30303137100BF80BD00BF7F
:10100000F80000209500002000000240000402408B
:1010100092000020C40100209400002096000020CF
:101020009000002080B582B000AF0346FB71FB79D1
:10103000092B59D801A252F823F000BF651000080F
:1010400073100008811000088F1000089D10000820
:10105000A9100008B5100008C1100008CD10000844
:10106000DB10000801224FF48061214803F09AF858
:101070003AE001224FF400611D4803F093F833E099
:1010800001224FF480511A4803F08CF82CE0012221
:101090004FF40041164803F085F825E001220421B1
:1010A000144803F07FF81FE001220821114803F0E3
:1010B00079F819E0012210210E4803F073F813E0CB
:1010C000012220210B4803F06DF80DE001224FF4BE
:1010D0008071084803F066F806E001224FF40071C1
:1010E000044803F05FF800BF00BF0837BD4680BD6D
:1010F000000002400004024080B582B000AF034609
:10110000FB71294B9B780133DAB2274B9A7000228E
:101110004FF48061254803F045F800224FF4006148
:10112000224803F03FF800224FF480511F4803F09B
:1011300039F800224FF400411C4803F033F8002234
:1011400004211B4803F02EF800220821184803F060
:1011500029F800221021164803F024F8002220214B
:10116000134803F01FF800224FF48071104803F079
:1011700019F800224FF400710D4803F013F8FB79C1
:101180000133DAB20B4B1A70074B5B7803F00F0395
:10119000D9B2054A137961F303031371FFF7A4FD74
:1011A00000BF0837BD4680BDF800002000000240A7
:1011B000000402409000002080B582B000AF0346DA
:1011C000FB71FB799BB21946064801F073FF034699
:1011D000002B03D0FB791846FFF78EFF00BF0837BE
:1011E000BD4680BD0000024080B582B000AF002344
:1011F000FB7101237B7144E0394B1B78322B03D9FF
:10120000374B00221A7005E0354B1B780133DAB2F8
:10121000334B1A70324B1B780133DAB2304B1A70F1
:1012200005F05CF902462F4B83FB02135910D317CC
:10123000C91A0B469B000B44D11A0B46FB71284B75
:101240001B78184605F01CF90EE005F047F9024638
:10125000244B83FB02135910D317C91A0B469B006A
:101260000B44D11A0B46FB71BA79FB799A42ECD048
:10127000FB79BB717B791C49FA79CA547B790133BC
:101280007B711A4B1B787A799A42B5D901233B714D
:101290001BE005F023F90246124B83FB02135910A1
:1012A000D317C91A0B469B000B44D11A0B46FB718E
:1012B000BA79FB799A42ECD0FB79BB713B790C4946
:1012C000FA79CA543B7901333B71084B1B783A7960
:1012D0009A42EDD900BF00BF0837BD4680BD00BFB0
:1012E000320200206766666600020020F8000020D7
:1012F0004801002080B584B000AF03460A46FB7168
:101300001346BB710023FB73FB79013B042B4DD8C3
:1013100001A252F823F000BF2D1300084313000868
:10132000591300086F1300088513000801214C4869
:1013300002F020FF0346002B2FD0FB7B0133FB7311
:101340002BE00221464802F015FF0346002B26D071
:10135000FB7B0133FB7322E00421414802F00AFFCA
:101360000346002B1DD0FB7B0133FB7319E00821E2
:101370003B4802F0FFFE0346002B14D0FB7B0133F9
:10138000FB7310E01021364802F0F4FE0346002BF8
:101390000BD0FB7B0133FB7307E000BF06E000BF0F
:1013A00004E000BF02E000BF00E000BFBB79013BEA
:1013B000042B4FD801A252F823F000BFD11300082C
:1013C000E7130008FD130008131400082B1400088D
:1013D0002021234802F0CEFE0346002B31D0FB7BB8
:1013E0000133FB732DE040211D4802F0C3FE03468C
:1013F000002B28D0FB7B0133FB7324E080211848AD
:1014000002F0B8FE0346002B1FD0FB7B0133FB73B9
:101410001BE04FF48071124802F0ACFE0346002B33
:1014200015D0FB7B0133FB7311E04FF400710C48C6
:1014300002F0A0FE0346002B0BD0FB7B0133FB73B5
:1014400007E000BF06E000BF04E000BF02E000BF0D
:1014500000E000BFFB7B18461037BD4680BD00BFD3
:101460000000024080B500AFA54B1B79C3F3030316
:10147000DBB21A46A24B5B789A4252D1A04A13794A
:101480006FF3451313719E4A13796FF304131371AD
:101490009B4B00225A719A4B00229A71984A1379F9
:1014A0006FF303031371974B1B780133DAB2954B3B
:1014B0001A7000224FF48061934802F073FE0022FC
:1014C0004FF40061904802F06DFE00224FF480510D
:1014D0008D4802F067FE00224FF400418A4802F076
:1014E00061FE00220421894802F05CFE00220821EE
:1014F000864802F057FE00221021844802F052FE76
:1015000000222021814802F04DFE00224FF480711C
:101510007E4802F047FE00224FF400717B4802F043
:1015200041FE774B1A78774B1B789A42C0F0F680D1
:10153000774B00221A80734B1B781A46754B9B5CC5
:10154000704A12781146744A525C1146184600F0EF
:10155000ADF96C4B1B781A466E4B9B5C042B66D81E
:1015600001A252F823F000BF7D1500089D15000868
:10157000BD150008DD150008FD15000801216248B1
:1015800002F0F8FD0346002B48D15D4A137943F081
:10159000100313715A4B01225A713FE002215A483D
:1015A00002F0E8FD0346002B3AD1554A137943F087
:1015B00010031371524B02225A7131E00421524838
:1015C00002F0D8FD0346002B2CD14D4A137943F08D
:1015D000100313714A4B03225A7123E008214A4831
:1015E00002F0C8FD0346002B1ED1454A137943F093
:1015F00010031371424B04225A7115E01021424826
:1016000002F0B8FD0346002B10D13D4A137943F098
:10161000100313713A4B05225A7107E000BF06E030
:1016200000BF04E000BF02E000BF00E000BF354B98
:101630001B781A46384B9B5C042B00F2B78001A242
:1016400052F823F0591600087B1600089D16000872
:10165000BD160008DF16000820212B4802F08AFD85
:101660000346002B40F09980254A137943F020036C
:101670001371234B01229A718FE04021224802F01E
:1016800079FD0346002B40F08A801D4A137943F010
:10169000200313711A4B02229A7180E080211A48AC
:1016A00002F068FD0346002B7BD1154A137943F005
:1016B00020031371124B03229A7172E04FF4807170
:1016C000114802F057FD0346002B6CD10C4A1379E8
:1016D00043F0200313710A4B04229A7163E04FF424
:1016E0000071094802F046FD0346002B5DD1044A13
:1016F000137943F020031371014B05229A7154E0D2
:10170000F800002095000020000002400004024084
:1017100092000020000200204801002000224FF427
:1017200080615C4802F03EFD00224FF400615948A0
:1017300002F038FD00224FF48051564802F032FD8D
:1017400000224FF40041534802F02CFD00220421F6
:10175000514802F027FD002208214F4802F022FDE7
:10176000002210214C4802F01DFD002220214A4891
:1017700002F018FD00224FF48071474802F012FD7C
:1017800000224FF40071444802F00CFD434B02224A
:101790001A70434B01221A7008E000BF06E000BF38
:1017A00004E000BF02E000BF00E000BF3D4B1B793A
:1017B00003F02003DBB2002B57D03A4B1B7903F028
:1017C0001003DBB2002B50D0374B1B780A2B4CD0C8
:1017D000344B9B780133DAB2324B9A7000224FF4CB
:1017E00080612C4802F0DEFC00224FF400612948A1
:1017F00002F0D8FC00224FF48051264802F0D2FCBF
:1018000000224FF40041234802F0CCFC00220421C6
:10181000214802F0C7FC002208211F4802F0C2FC48
:10182000002210211C4802F0BDFC002220211A4891
:1018300002F0B8FC00224FF48071174802F0B2FCAD
:1018400000224FF40071144802F0ACFCFFF74CFA90
:10185000154B0A221A70134B5B7803F00F03D9B2B1
:10186000104A137961F3030313710F4B1B78002B9C
:101870000DD10C4B1B79C3F30303DBB2013303F02F
:101880000F03D9B2074A137961F30303137100BF41
:1018900080BD00BF00000240000402409400002010
:1018A00096000020F80000209000002080B582B053
:1018B00000AF03460A46FB711346BB71FB79042B4C
:1018C0002ED801A252F823F0DD180008EB1800080A
:1018D000F9180008071900081519000801224FF42B
:1018E0008061294802F05EFC1AE001224FF4006199
:1018F000254802F057FC13E001224FF480512248A2
:1019000002F050FC0CE001224FF400411E4802F0AE
:1019100049FC05E0012204211C4802F043FC00BF01
:10192000BB79042B2CD801A252F823F041190008EE
:101930004D190008591900086519000873190008A5
:1019400001220821114802F02DFC19E0012210218A
:101950000E4802F027FC13E0012220210B4802F080
:1019600021FC0DE001224FF48071084802F01AFCBE
:1019700006E001224FF40071044802F013FC00BF9E
:1019800000BF0837BD4680BD000002400004024091
:1019900080B586B002AF0346FB7107F10903FB6017
:1019A000FB7923F00F03FB72FB791B01BB723A4BEF
:1019B0001B78012B05D1FB7A43F00C03DBB27B7261
:1019C00004E0FB7A43F00403DBB27B72334B1B78F9
:1019D0009BB25B0099B24FF0FF3300930123FA688A
:1019E0002F4802F03DFD2C4B1B78012B05D17B7A53
:1019F00023F00403DBB27B7204E07B7A23F00C0358
:101A0000DBB27B72254B1B789BB25B0099B24FF027
:101A1000FF3300930123FA68214802F021FD1E4B99
:101A20001B78012B05D1BB7A43F00C03DBB27B7230
:101A300004E0BB7A43F00403DBB27B72174B1B78E4
:101A40009BB25B0099B24FF0FF3300930123FA6819
:101A5000134802F005FD104B1B78012B05D17B7A52
:101A600023F00403DBB27B7204E07B7A23F00C03E7
:101A7000DBB27B72094B1B789BB25B0099B24FF0D3
:101A8000FF3300930123FA68054802F0E9FC00BF28
:101A90001037BD4680BD00BF010000207A01002044
:101AA000A400002080B586B002AF0346FB7107F1A9
:101AB0000903FB60FB7923F00F03FB72FB791B0129
:101AC000BB723A4B1B78012B05D1FB7A43F00D0317
:101AD000DBB27B7204E0FB7A43F00503DBB27B727E
:101AE000334B1B789BB25B0099B24FF0FF330093EE
:101AF0000123FA682F4802F0B3FC2C4B1B78012B12
:101B000005D17B7A23F00403DBB27B7204E07B7A9D
:101B100023F00C03DBB27B72254B1B789BB25B007E
:101B200099B24FF0FF3300930123FA68214802F085
:101B300097FC1E4B1B78012B05D1BB7A43F00D039C
:101B4000DBB27B7204E0BB7A43F00503DBB27B724D
:101B5000174B1B789BB25B0099B24FF0FF33009399
:101B60000123FA68134802F07BFC104B1B78012B11
:101B700005D17B7A23F00403DBB27B7204E07B7A2D
:101B800023F00C03DBB27B72094B1B789BB25B002A
:101B900099B24FF0FF3300930123FA68054802F031
:101BA0005FFC00BF1037BD4680BD00BF01000020B4
:101BB0007A010020A400002080B582B000AF034667
:101BC0000A46FB711346BB71154B1B78022B05D1DE
:101BD000BB79012B02D1FB794033FB71104B1B7891
:101BE000042B11D1BB79012B02D1FB794033FB715E
:101BF000BB79022B02D1FB791433FB71BB79032B28
:101C000002D1FB795433FB71FB7963F07F03FB71E5
:101C1000FB791846FFF7BCFE00BF0837BD4680BD04
:101C20000000002080B584B000AF78600023FB7313
:101C30000AE07B681B781846FFF734FF7B680133A6
:101C40007B60FB7B0133FB737B681B78002BF0D13F
:101C500000BF00BF1037BD4680BD000080B584B016
:101C600000AF78607B68002B05DA3C48FFF7DAFFAD
:101C70007B685B427B607B68FB607B6842F20F7233
:101C8000934214DDFB68364A82FB03121213DB1702
:101C9000D31AFB72FB7A3033DBB21846FFF702FF30
:101CA000FB7A304A02FB03F3FA681344FB607B685B
:101CB000B3F57A7F14DBFB682B4A82FB0312921187
:101CC000DB17D31AFB72FB7A3033DBB21846FFF70F
:101CD000E9FEFB7A254A02FB03F3FA681344FB6032
:101CE0007B68632B15DDFB68214A82FB03125211CE
:101CF000DB17D31AFB72FB7A3033DBB21846FFF7DF
:101D0000D1FEFB7A6FF0630202FB03F3FA6813441F
:101D1000FB607B68092B15DDFB68164A82FB03120A
:101D20009210DB17D31AFB72FB7A3033DBB2184602
:101D3000FFF7B8FEFB7A6FF0090202FB03F3FA68C3
:101D40001344FB60FB68DBB23033DBB21846FFF7AD
:101D5000A9FE00BF1037BD4680BD00BF80750008DA
:101D6000AD8BDB68F0D8FFFFD34D621018FCFFFF8E
:101D70001F85EB516766666680B586B002AF0023AB
:101D8000FB7316E0FB7B9BB25B0099B20A23012236
:101D9000584802F083FF0346FB71FB79002B05D105
:101DA000FB7B502B02D0544AFB7B1370FB7B01332F
:101DB000FB7397F90F30002BE4DABB1DBB600F20DB
:101DC00001F03CFB3423BB714B4B1B789BB25B0097
:101DD00099B24FF0FF3300930123BA68454802F0EF
:101DE0003FFB012001F02AFB3023BB71424B1B78E3
:101DF0009BB25B0099B24FF0FF3300930123BA68A6
:101E00003C4802F02DFB052001F018FB3423BB7188
:101E1000394B1B789BB25B0099B24FF0FF330093B4
:101E20000123BA68334802F01BFB3023BB71012049
:101E300001F004FB304B1B789BB25B0099B24FF072
:101E4000FF3300930123BA682A4802F009FB0120FE
:101E500001F0F4FA2423BB71274B1B789BB25B0083
:101E600099B24FF0FF3300930123BA68214802F082
:101E7000F7FA012001F0E2FA2023BB711E4B1B7818
:101E80009BB25B0099B24FF0FF3300930123BA6815
:101E9000184802F0E5FA012001F0D0FA2820FFF7F7
:101EA00077FD012001F0CAFA0920FFF771FD01203A
:101EB00001F0C4FA0120FFF76BFD022001F0BEFA29
:101EC0000620FFF765FD012001F0B8FA0C20FFF7AE
:101ED0005FFD012001F0B2FA0220FFF759FD022058
:101EE00001F0ACFA00210020FFF766FE00BF1037BA
:101EF000BD4680BDA40000207A01002080B500AF5F
:101F000000210020FFF758FE0548FFF78BFE012156
:101F10000020FFF751FE0248FFF784FE00BF80BD9E
:101F20008475000880B500AF5C4B1B79C3F30303D5
:101F3000DBB21A46594B5B789A4242D1574A137921
:101F40006FF303031371564B1B780133DAB2544B12
:101F50001A7001224FF48061524802F023F90122E5
:101F60004FF400614F4802F01DF901224FF48051F7
:101F70004C4802F017F901224FF40041494802F0A1
:101F800011F901220421484802F00CF9012208212C
:101F9000454802F007F901221021434802F002F9F6
:101FA00001222021404802F0FDF801224FF4807107
:101FB0003D4802F0F7F801224FF400713A4802F070
:101FC000F1F8364B1A78364B1B789A4213D3374BBD
:101FD00000221A80324B1B781A46354B9B5C184600
:101FE00000F06EF82E4B1B781A46314B9B5C18465E
:101FF00000F030F93DE000224FF48061294802F002
:10200000D1F800224FF40061264802F0CBF80022FC
:102010004FF48051234802F0C5F800224FF40041EC
:10202000204802F0BFF8002204211F4802F0BAF84D
:10203000002208211C4802F0B5F8002210211A489D
:1020400002F0B0F800222021174802F0ABF800227D
:102050004FF48071144802F0A5F800224FF400718B
:10206000114802F09FF8134B02221A70124B012202
:102070001A70124B1B78002B0DD1084B1B79C3F340
:102080000303DBB2013303F00F03D9B2034A137920
:1020900061F30303137100BF80BD00BFF80000208F
:1020A0009500002000000240000402409200002041
:1020B000C401002094000020960000209000002021
:1020C00080B582B000AF0346FB71FB79092B59D86C
:1020D00001A252F823F000BF012100080F210008DF
:1020E0001D2100082B210008392100084521000886
:1020F000512100085D2100086921000877210008AE
:1021000000224FF48061214802F04CF83AE00022AE
:102110004FF400611D4802F045F833E000224FF40F
:1021200080511A4802F03EF82CE000224FF40041A2
:10213000164802F037F825E000220421144802F086
:1021400031F81FE000220821114802F02BF819E0B5
:10215000002210210E4802F025F813E00022202171
:102160000B4802F01FF80DE000224FF48071084880
:1021700002F018F806E000224FF40071044802F063
:1021800011F800BF00BF0837BD4680BD0000024007
:102190000004024080B582B000AF0346FB71294BBA
:1021A0009B780133DAB2274B9A7001224FF4806199
:1021B000254801F0F7FF01224FF40061224801F0A9
:1021C000F1FF01224FF480511F4801F0EBFF012283
:1021D0004FF400411C4801F0E5FF012204211B4897
:1021E00001F0E0FF01220821184801F0DBFF012285
:1021F0001021164801F0D6FF01222021134801F0DA
:10220000D1FF01224FF48071104801F0CBFF012271
:102210004FF400710D4801F0C5FFFB790133DAB2CC
:102220000B4B1A70074B5B7803F00F03D9B2054ACA
:10223000137961F303031371FEF756FD00BF0837EE
:10224000BD4680BDF80000200000024000040240AE
:102250009000002080B582B000AF0346FB71FB798F
:102260009BB21946064800F025FF0346002B03D019
:10227000FB791846FFF78EFF00BF0837BD4680BDCB
:102280000000024080B500AF01F066F800F002FAED
:1022900000F010FB00F0BCFA00F066FA00F0E6FA7D
:1022A000FFF76AFDC14803F089FE00224FF4806108
:1022B000BF4801F077FF00224FF40061BC4801F0F5
:1022C00071FF00224FF48051B94801F06BFF0022EA
:1022D0004FF40041B64801F065FF00220421B548E3
:1022E00001F060FF00220821B24801F05BFF0022EC
:1022F0001021B04801F056FF00222021AD4801F026
:1023000051FF00224FF48071AA4801F04BFF0022D8
:102310004FF40071A74801F045FF00F0B1FB034600
:10232000042B01D8FEF744F94FF47A7001F086F8D7
:1023300000F052FCFEF74AFA9F4B03221A7001216B
:102340000E20FFF739FC9D4B9B781846FFF786FC63
:10235000984B1B6903F48063002B6CD10A229549CA
:10236000142000F0BFFE0346002B64D0944B0022E3
:102370001A70FFF7C3FD904B03221A708F4B002297
:102380009A7000224FF48061894801F00BFF00220F
:102390004FF40061864801F005FF00224FF48051A0
:1023A000834801F0FFFE00224FF40041804801F015
:1023B000F9FE002204217F4801F0F4FE00220821EA
:1023C0007C4801F0EFFE002210217A4801F0EAFE7D
:1023D00000222021774801F0E5FE00224FF48071B1
:1023E000744801F0DFFE00224FF40071714801F0E3
:1023F000D9FE00BF6F4B1B6903F48063002BF9D03B
:1024000000BF6C4B1B6903F48063002B07D00A22CA
:102410006849142000F066FE0346002BF1D100BF8E
:10242000644B1B6903F48063002BF9D0644B0122D9
:102430001A70FEF7CBF9634B1B78012B0DD15F4B64
:102440009A785E4B1B789A4202D1FEF70FFC01E0AE
:10245000FEF734FC5B4B00221A70584BDB78012BE3
:1024600003D0564BDB78002B04D1574B1B78184612
:10247000FEF75CFC514B5B79504A92791146184645
:10248000FEF738FF0346022B06D14C4BDB78022BBC
:1024900002D14D4B00221A7000F0F2FA0346042BD1
:1024A00001D8FEF747FA0121414801F063FE0346D7
:1024B000002B72D1404B1B78002B6ED13F4BDB7849
:1024C000022B02D1FEF790FE01E0FEF7F7F93B4B3D
:1024D000DB78012B03D0394BDB78002B02D1FEF7E0
:1024E000EDF905E0354BDB78022B01D1FEF77CFEE0
:1024F000364B01221A70314A13796FF303031371BB
:1025000000224FF480612A4801F04CFE00BF0121F7
:10251000274801F02FFE0346002BF8D0264B01225E
:102520001A70264BDB78012B37D101224FF48061E2
:102530001F4801F037FE01224FF400611C4801F0F2
:1025400031FE01224FF48051194801F02BFE012287
:102550004FF40041164801F025FE012204211548E0
:1025600001F020FE01220821124801F01BFE012289
:102570001021104801F016FE012220210D4801F023
:1025800011FE01224FF480710A4801F00BFE012276
:102590004FF40071074801F005FE0D4B1B78322BFC
:1025A00018D90B4B00221A701AE000BF7C010020E2
:1025B000000002400004024094000020F8000020C7
:1025C00001000020960000209000002095000020CF
:1025D00032020020284B1B780133DAB2264B1A70E6
:1025E00000F04EFA03461A46244BDB880A3B9A4217
:1025F0003EDB00F045FA03461A46204BDB880A33DF
:102600009A4235DC1E4B00221A8003E01C4B1B88CB
:10261000142B12D800F034FA03461A46174BDB8805
:102620000A3B9A420ADB00F02BFA03461A46134B88
:10263000DB880A339A42E9DD00E000BF104B1B88BB
:102640000A2B02D9FEF766FA12E00E4B00229A70AE
:1026500001210F20FFF7B0FA0B48FFF7E3FA012240
:102660004FF48061094801F09DFD094B00221A706A
:10267000642000F0E3FE62E632020020F801002050
:1026800092000020F8000020987500080000024029
:102690009400002080B594B000AF07F120033022F1
:1026A0000021184603F0E4FE07F10C0300221A6033
:1026B0005A609A60DA601A610023BB60284B1B6C79
:1026C000274A43F080531364254B1B6C03F080535F
:1026D000BB60BB6800237B60224B1B6823F4404334
:1026E000204A43F4004313601E4B1B6803F440432D
:1026F0007B607B6801233B624FF480337B62022363
:10270000BB634FF48003FB6319233B64A8237B6402
:102710000223BB640423FB6407F12003184602F084
:10272000C9FF0346002B01D000F06CF90F23FB60BA
:1027300002233B6100237B614FF4A053BB61002364
:10274000FB6107F10C030221184603F02BFA034644
:10275000002B01D000F056F900BF5037BD4680BDB8
:10276000003802400070004080B584B000AF3B46A6
:1027700000221A605A609A60DA60224B224A1A607C
:10278000204B4FF480325A601E4B4FF080729A609B
:102790001C4B00221A611B4B00221A76194B002297
:1027A00083F82020174B0022DA62164B174A9A62F0
:1027B000144B0022DA60134B0122DA61114B002224
:1027C00083F830200F4B01225A610E4800F05AFE68
:1027D0000346002B01D000F015F908233B600123CC
:1027E0007B600023BB603B461946064801F00EF8AB
:1027F0000346002B01D000F005F900BF1037BD469D
:1028000080BD00BF00010020002001400100000F3A
:1028100080B500AF124B134A1A60114B124A5A602E
:102820000F4B00229A600E4B0022DA600C4B4FF4E3
:1028300080421A610A4B00225A61094B00229A61B8
:10284000074B0022DA61064B00221A62044801F0AD
:10285000C3FC0346002B01D000F0D4F800BF80BDBC
:10286000A400002000540040A086010080B500AF05
:102870000E4B0F4A1A600D4B4AF20F425A600B4B37
:1028800000229A60094BC722DA60084B00221A61C5
:10289000064B00229A61054803F040FB0346002BDB
:1028A00001D000F0AFF800BF80BD00BF7C01002068
:1028B0000044014080B58AB000AF07F11403002244
:1028C0001A605A609A60DA601A6100233B61494BD2
:1028D0001B6B484A43F004031363464B1B6B03F026
:1028E00004033B613B690023FB60424B1B6B414A85
:1028F00043F0800313633F4B1B6B03F08003FB60CB
:10290000FB680023BB603B4B1B6B3A4A43F001035F
:102910001363384B1B6B03F00103BB60BB680023E0
:102920007B60344B1B6B334A43F002031363314B20
:102930001B6B03F002037B607B6800224FF4204195
:102940002D4801F02FFC002241F23C312B4801F0D0
:1029500029FC00224FF41C41294801F023FC4FF4CC
:1029600020437B610123BB610023FB6100233B62A9
:1029700007F114031946204801F078FA40F2FF33BA
:102980007B610023BB610123FB6107F1140319463E
:102990001B4801F06BFA41F23C337B610123BB61C0
:1029A0000023FB6100233B6207F11403194613481F
:1029B00001F05CFA4FF410537B610023BB610123EB
:1029C000FB6107F1140319460C4801F04FFA4FF46C
:1029D0001C437B610123BB610023FB6100233B623D
:1029E00007F114031946064801F040FA00BF2837E2
:1029F000BD4680BD0038024000080240000402408D
:102A00000000024080B400AF72B600BFFEE70000D5
:102A100080B588B004AF0346FB71FB799AB24FF0E2
:102A2000FF3302930123019307F10F030093102357
:102A3000A021044801F00CFFFB7B18461037BD466F
:102A400080BD00BFA400002080B586B004AF03465F
:102A50000A46FB711346BB71FB799AB24FF0FF3304
:102A6000029301230193BB1D00931023A02103486F
:102A700001F0F4FD00BF0837BD4680BDA400002072
:102A800080B582B000AF0023FB80114800F03EFD0E
:102A900000237B710EE00A210D4800F01EFE0C4859
:102AA00000F0A6FE0346FB80FB885B00FB807B7981
:102AB00001337B717B79032BEDD9FB885B08FB80AD
:102AC000034800F0D7FDFB8818460837BD4680BD97
:102AD0000001002080B588B004AF03460A46FB71B0
:102AE0001346BB805023FB73BB88FF2B19D8BB88D0
:102AF000DBB23B7300237B730023BB73FB7B9BB276
:102B00005B0099B2FB799AB24FF0FF330293032333
:102B1000019307F10C0300931023154801F09EFD6B
:102B200021E0BB88134AA2FB0323DB099BB2DBB283
:102B30003B73BB88DAB23B7B1344DBB27B7301236C
:102B4000BB73FB7B9BB25B0099B2FB799AB24FF0EF
:102B5000FF3302930323019307F10C030093102327
:102B6000034801F07BFD00BF1037BD4680BD00BFAC
:102B7000A40000208180808090B585B000AF03461E
:102B8000FB710023FB81FB790233DBB21846FFF7B0
:102B90003FFF0346002B06D1FB791846FFF738FFAD
:102BA00003469BB214E0FB791846FFF731FF03465A
:102BB0009BB21A461202D31A9CB2FB790133DBB2E4
:102BC0001846FFF725FF03469BB22344FB81FB8990
:102BD00018461437BD4690BD80B500AFC820FFF73A
:102BE000CBFF03461A46264B1A801420FFF7C4FF7A
:102BF00003461A46224B5A801E20FFF7BDFF0346AC
:102C00001A461F4BDA802820FFF702FF03461A46B8
:102C10001C4BDA702920FFF7FBFE03461A461A4BBD
:102C20009A5C184B1A706420FFF7F2FE03461A46AE
:102C3000144B5A70134B1B78642B06D900212920A2
:102C4000FFF702FF0F4B00221A700E4BDB78032BAD
:102C500006D900212820FFF7F7FE0A4B0022DA7080
:102C60006420FFF7D5FE0346142B06D9012164200A
:102C7000FFF7EAFE034B01225A7000BF80BD00BF80
:102C8000F8010020F80000209C75000880B483B093
:102C900000AF00237B60104B5B6C0F4A43F4804312
:102CA00053640D4B5B6C03F480437B607B680023B3
:102CB0003B60094B1B6C084A43F080531364064B7E
:102CC0001B6C03F080533B603B6800BF0C37BD4674
:102CD0005DF8047B704700BF0038024080B58AB0C1
:102CE00000AF786007F1140300221A605A609A60FE
:102CF000DA601A617B681B68174A934227D1002368
:102D00003B61164B5B6C154A43F480735364134B61
:102D10005B6C03F480733B613B690023FB600F4BEA
:102D20001B6B0E4A43F0020313630C4B1B6B03F047
:102D30000203FB60FB6803237B610323BB61002369
:102D4000FB6107F114031946054801F08FF800BF35
:102D50002837BD4680BD00BF00200140003802403A
:102D60000004024080B58AB000AF786007F1140318
:102D700000221A605A609A60DA601A617B681B68E8
:102D8000194A93422BD100233B61184B1B6B174A06
:102D900043F002031363154B1B6B03F002033B610B
:102DA0003B69C0237B611223BB610123FB610323C9
:102DB0003B6204237B6207F1140319460C4801F0BF
:102DC00055F80023FB60094B1B6C084A43F40013C1
:102DD0001364064B1B6C03F40013FB60FB6800BF1D
:102DE0002837BD4680BD00BF005400400038024077
:102DF0000004024080B584B000AF78607B681B6837
:102E00000E4A934215D10023FB600D4B5B6C0C4ABC
:102E100043F4003353640A4B5B6C03F40033FB60F0
:102E2000FB6800220021192000F0E9FF192001F0C1
:102E300002F800BF1037BD4680BD00BF004401400E
:102E40000038024080B400AFFEE780B400AFFEE778
:102E500080B400AFFEE780B400AFFEE780B400AFFF
:102E6000FEE780B400AF00BFBD465DF8047B70474D
:102E700080B400AF00BFBD465DF8047B704780B4EE
:102E800000AF00BFBD465DF8047B704780B500AF62
:102E900000F0B4FA00BF80BD80B500AF1D4803F05C
:102EA000EFF81D4B1B8801339AB21B4B1A801B4B4A
:102EB0001B78012B09D11A4B1B78002B05D1194B1C
:102EC000DB78002B01D1FDF7DFFF144B1B78012BC2
:102ED00009D1134B1B78002B05D1124BDB78012B4A
:102EE00001D1FFF71FF80D4B1B78012B09D10C4BBB
:102EF0001B78002B05D10B4BDB78022B01D1FEF7A1
:102F0000B1FA084BDB78042B01D100F031F900BF96
:102F100080BD00BF7C0100209200002094000020B2
:102F200090000020F800002080B400AF0123184674
:102F3000BD465DF8047B704780B582B000AF786015
:102F4000396003F06BFA034616221A604FF0FF3324
:102F500018460837BD4680BD80B582B000AF7860A6
:102F60004FF0FF317868FFF7E7FFFEE780B586B0E6
:102F700000AFF860B9607A6000237B610AE0AFF3CC
:102F800000800146BB685A1CBA60CAB21A707B69DD
:102F900001337B617A697B689A42F0DB7B68184673
:102FA0001837BD4680BD80B586B000AFF860B96007
:102FB0007A6000237B6109E0BB685A1CBA601B7809
:102FC0001846AFF300807B6901337B617A697B68C7
:102FD0009A42F1DB7B6818461837BD4680BD80B445
:102FE00083B000AF78604FF0FF3318460C37BD4612
:102FF0005DF8047B704780B483B000AF78603960BF
:103000003B684FF400525A60002318460C37BD4607
:103010005DF8047B704780B483B000AF7860012313
:1030200018460C37BD465DF8047B704780B485B008
:1030300000AFF860B9607A60002318461437BD46C7
:103040005DF8047B7047000080B586B000AF786003
:10305000144A154BD31A7B617B693B61134B1B6888
:10306000002B02D1114B124A1A60104B1A687B6870
:1030700013443A699A4207D203F0D0F903460C226E
:103080001A604FF0FF3309E0084B1B68FB60074BE9
:103090001A687B681344054A1360FB6818461837A2
:1030A000BD4680BD00000120000400009800002003
:1030B0005802002080B483B000AF78600B467B805C
:1030C0007B681A697B8822FA03F303F00103002B63
:1030D00001D1012300E0002318460C37BD465DF8FE
:1030E000047B704780B584B000AF03463960FB7144
:1030F0001346BB800023FB730023BB7300237B7349
:103100000023FB7312E03B681A69BB881340002B55
:1031100003D1BB7B0133BB7302E07B7B01337B7349
:10312000012000F08BF9FB7B0133FB73FA7BFB7909
:103130009A42E8D3BA7B7B7B9A4201D9012300E013
:10314000002318461037BD4680BD000080B400AF94
:10315000064BD3F88830054A43F47003C2F8883030
:1031600000BFBD465DF8047B704700BF00ED00E086
:1031700080B500AF00224FF48061604801F012F882
:1031800000224FF400615D4801F00CF800224FF47A
:1031900080515A4801F006F800224FF40041574888
:1031A00001F000F800220421554800F0FBFF002246
:1031B0000821534800F0F6FF00221021504800F08B
:1031C000F1FF002220214E4800F0ECFF00224FF4D6
:1031D00080714B4800F0E6FF00224FF40071484830
:1031E00000F0E0FF0121454800F0C4FF0346002B3A
:1031F00006D101224FF48061404800F0D3FF7BE00C
:1032000002213E4800F0B6FF0346002B06D1012202
:103210004FF40061394800F0C5FF6DE004213748E4
:1032200000F0A8FF0346002B06D101224FF4805185
:10323000324800F0B7FF5FE00821304800F09AFF05
:103240000346002B06D101224FF400412B4800F029
:10325000A9FF51E01021294800F08CFF0346002B04
:1032600005D101220421264800F09CFF44E02021E2
:10327000224800F07FFF0346002B05D101220821E0
:103280001F4800F08FFF37E040211C4800F072FF1C
:103290000346002B05D101221021194800F082FFBE
:1032A0002AE08021154800F065FF0346002B05D178
:1032B00001222021124800F075FF1DE04FF48071BB
:1032C0000E4800F057FF0346002B06D101224FF4B1
:1032D00080710B4800F066FF0EE04FF40071074864
:1032E00000F048FF0346002B06D101224FF4007185
:1032F000034800F057FFFFE700BF80BD0000024019
:1033000000040240DFF834D00D480E490E4A002375
:1033100002E0D458C4500433C4188C42F9D30B4A89
:103320000B4C002301E013600432A242FBD3FFF7F1
:103330000DFF03F079F8FEF7A5FF704700000120AC
:10334000000000207400002018770008740000209E
:1033500054020020FEE7000080B500AF0E4B1B6852
:103360000D4A43F4007313600B4B1B680A4A43F485
:1033700080631360084B1B68074A43F48073136033
:10338000032000F031FD002000F008F8FFF77EFC7C
:103390000023184680BD00BF003C024080B582B0CB
:1033A00000AF7860124B1A68124B1B7819464FF425
:1033B0007A73B3FBF1F3B2FBF3F3184600F049FD67
:1033C0000346002B01D001230EE07B680F2B0AD8A7
:1033D000002279684FF0FF3000F011FD064A7B684B
:1033E0001360002300E0012318460837BD4680BD66
:1033F000040000200C0000200800002080B400AF72
:10340000064B1B781A46064B1B681344044A13608C
:1034100000BFBD465DF8047B704700BF0C00002074
:103420004002002080B400AF034B1B681846BD4625
:103430005DF8047B704700BF4002002080B584B077
:1034400000AF7860FFF7EEFFB8607B68FB60FB6859
:10345000B3F1FF3F05D00A4B1B781A46FB681344B3
:10346000FB6000BFFFF7DEFF0246BB68D31AFA68B5
:103470009A42F7D800BF00BF1037BD4680BD00BFDD
:103480000C00002080B584B000AF78600023FB738F
:103490007B68002B01D1012333E07B681B6C002B80
:1034A00009D17868FFF71AFC7B6800225A647B68B0
:1034B000002283F83C207B681B6C03F01003002B78
:1034C00018D17B681B6C23F4885323F0020343F06C
:1034D00002027B681A64786800F0BAFA7B680022FE
:1034E0005A647B681B6C23F0030343F001027B6882
:1034F0001A6401E00123FB737B68002283F83C20FF
:10350000FB7B18461037BD4680BD000080B485B0F7
:1035100000AF78600023BB607B6893F83C30012BE0
:1035200001D1022397E07B68012283F83C207B686D
:103530001B689B6803F00103012B18D07B681B6894
:103540009A687B681B6842F001029A60454B1B68D1
:10355000454AA2FB03239A0C13465B001344BB604D
:1035600002E0BB68013BBB60BB68002BF9D17B6804
:103570001B689B6803F00103012B5FD17B681B6C08
:1035800023F4E06323F0010343F480727B681A6440
:103590007B681B685B6803F48063002B07D07B6843
:1035A0001B6C23F4405343F480527B681A647B689D
:1035B0001B6C03F48053B3F5805F06D17B685B6CB2
:1035C00023F006027B685A6402E07B6800225A649A
:1035D0007B68002283F83C20244BFB607B681B68DF
:1035E0006FF022021A60FB685B6803F01F03002B78
:1035F0000FD17B681B689B6803F04053002B29D1D7
:103600007B681B689A687B681B6842F080429A60FE
:1036100020E07B681B68164A93421BD17B681B68BD
:103620009B6803F04053002B14D17B681B689A6899
:103630007B681B6842F080429A600BE07B681B6CE1
:1036400043F010027B681A647B685B6C43F00102F4
:103650007B685A64002318461437BD465DF8047B26
:10366000704700BF0400002083DE1B43002301409D
:103670000020014080B483B000AF78607B6893F88D
:103680003C30012B01D1022321E07B68012283F829
:103690003C207B681B689A687B681B6822F00102EB
:1036A0009A607B681B689B6803F00103002B09D1BB
:1036B0007B681B6C23F4885323F0010343F0010261
:1036C0007B681A647B68002283F83C20002318463C
:1036D0000C37BD465DF8047B704780B584B000AF01
:1036E000786039600023FB607B681B689B6803F48B
:1036F0008063B3F5806F13D17B681B689B6803F40C
:103700008073B3F5807F0BD17B681B6C43F0200284
:103710007B681A647B68002283F83C20012363E005
:10372000FFF780FEF86021E03B68B3F1FF3F1DD05A
:103730003B68002B07D0FFF775FE0246FB68D31AE3
:103740003A689A4212D27B681B681B6803F0020336
:10375000022B0BD07B681B6C43F004027B681A645D
:103760007B68002283F83C2003233DE07B681B68D4
:103770001B6803F00203022BD6D17B681B686FF035
:1037800012021A607B681B6C43F400727B681A6437
:103790007B681B689B6803F04053002B23D17B6838
:1037A0001B7E002B1FD17B681B68DB6A03F4700350
:1037B000002B06D07B681B689B6803F48063002B9A
:1037C00011D17B681B6C23F480727B681A647B6860
:1037D0001B6C03F48053002B05D17B681B6C43F0FA
:1037E00001027B681A64002318461037BD4680BD6D
:1037F00080B483B000AF78607B681B68DB6C1846D0
:103800000C37BD465DF8047B7047000080B485B07E
:1038100000AF786039600023BB607B6893F83C3070
:10382000012B01D1022305E17B68012283F83C20B2
:103830003B681B68092B25D97B681B68D9683B68E6
:103840001B689BB21A4613465B0013441E3B0722BB
:1038500002FA03F3DA437B681B680A40DA607B688C
:103860001B68D9683B689A683B681B689BB218461E
:1038700003465B0003441E3B9A407B681B680A4377
:10388000DA6022E07B681B6819693B681B689BB2A1
:103890001A4613465B001344072202FA03F3DA4385
:1038A0007B681B680A401A617B681B6819693B6862
:1038B0009A683B681B689BB2184603465B0003444A
:1038C0009A407B681B680A431A613B685B68062B59
:1038D00024D87B681B68596B3B685A6813469B0069
:1038E0001344053B1F2202FA03F3DA437B681B688B
:1038F0000A405A637B681B68596B3B681B689BB224
:1039000018463B685A6813469B001344053B00FA6F
:1039100003F27B681B680A435A634CE03B685B68B0
:103920000C2B24D87B681B68196B3B685A681346BC
:103930009B001344233B1F2202FA03F3DA437B6804
:103940001B680A401A637B681B68196B3B681B681D
:103950009BB218463B685A6813469B001344233BAE
:1039600000FA03F27B681B680A431A6323E07B6852
:103970001B68D96A3B685A6813469B001344413B55
:103980001F2202FA03F3DA437B681B680A40DA62FB
:103990007B681B68D96A3B681B689BB218463B680A
:1039A0005A6813469B001344413B00FA03F27B68BC
:1039B0001B680A43DA62224BFB607B681B68214A62
:1039C000934209D13B681B68122B05D1FB685B68E9
:1039D00043F48002FB685A607B681B68194A934273
:1039E00023D13B681B68102B03D03B681B68112B4D
:1039F0001BD1FB685B6843F40002FB685A603B68BC
:103A00001B68102B11D1104B1B68104AA2FB03231B
:103A10009A0C13469B0013445B00BB6002E0BB683A
:103A2000013BBB60BB68002BF9D17B68002283F8A7
:103A30003C20002318461437BD465DF8047B7047D0
:103A400000230140002001400400002083DE1B43CE
:103A500080B485B000AF7860794BFB60FB685B6831
:103A600023F44032FB685A60FB685A687B685B68E5
:103A70001A43FB685A607B681B685A687B681B683E
:103A800022F480725A607B681B6859687B681B69E6
:103A90001A027B681B680A435A607B681B685A6875
:103AA0007B681B6822F040725A607B681B6859680B
:103AB0007B689A687B681B680A435A607B681B684E
:103AC0009A687B681B6822F400629A607B681B68B6
:103AD00099687B68DA687B681B680A439A607B6830
:103AE0009B6A584A934222D07B681B689A687B681D
:103AF0001B6822F070629A607B681B6899687B681B
:103B00009A6A7B681B680A439A607B681B689A689C
:103B10007B681B6822F040529A607B681B6899683A
:103B20007B68DA6A7B681B680A439A600FE07B68EF
:103B30001B689A687B681B6822F070629A607B68D9
:103B40001B689A687B681B6822F040529A607B6809
:103B50001B689A687B681B6822F002029A607B6887
:103B60001B6899687B681B7E5A007B681B680A4348
:103B70009A607B6893F82030002B1BD07B681B6811
:103B80005A687B681B6842F400625A607B681B6855
:103B90005A687B681B6822F460425A607B681B6825
:103BA00059687B685B6A013B5A037B681B680A4360
:103BB0005A6007E07B681B685A687B681B6822F4C0
:103BC00000625A607B681B68DA6A7B681B6822F4B3
:103BD0007002DA627B681B68D96A7B68DB69013B2B
:103BE0001A057B681B680A43DA627B681B689A685F
:103BF0007B681B6822F400729A607B681B68996876
:103C00007B6893F830305A027B681B680A439A60DD
:103C10007B681B689A687B681B6822F480629A60E4
:103C20007B681B6899687B685B699A027B681B6884
:103C30000A439A6000BF1437BD465DF8047B7047A5
:103C4000002301400100000F80B485B000AF786010
:103C50007B6803F00703FB600C4BDB68BB60BA6852
:103C60004FF6FF031340BB60FB681A02BB681343A7
:103C700043F0BF6343F40033BB60044ABB68D360C6
:103C800000BF1437BD465DF8047B704700ED00E0CF
:103C900080B400AF044BDB681B0A03F0070318462F
:103CA000BD465DF8047B704700ED00E080B483B052
:103CB00000AF0346FB7197F90730002B0BDBFB7954
:103CC00003F01F02074997F907305B09012000FA4A
:103CD00002F241F8232000BF0C37BD465DF8047B9B
:103CE000704700BF00E100E080B483B000AF03463E
:103CF0003960FB7197F90730002B0ADB3B68DAB2B9
:103D00000C4997F907301201D2B20B4483F8002313
:103D10000AE03B68DAB20849FB7903F00F03043B81
:103D20001201D2B20B441A7600BF0C37BD465DF8C3
:103D3000047B704700E100E000ED00E080B489B052
:103D400000AFF860B9607A60FB6803F00703FB61BD
:103D5000FB69C3F10703042B28BF0423BB61FB6984
:103D60000433062B02D9FB69033B00E000237B618F
:103D70004FF0FF32BB6902FA03F3DA43BB681A4023
:103D80007B699A404FF0FF317B6901FA03F3D94315
:103D90007B680B40134318462437BD465DF8047B0F
:103DA0007047000080B582B000AF78607B68013B4F
:103DB000B3F1807F01D301230FE00A4A7B68013B06
:103DC00053600F214FF0FF30FFF78EFF054B0022AD
:103DD0009A60044B07221A60002318460837BD4634
:103DE00080BD00BF10E000E080B582B000AF786019
:103DF0007868FFF729FF00BF0837BD4680BD80B552
:103E000086B000AF0346B9607A60FB7300237B6124
:103E1000FFF73EFF78617A68B9687869FFF78EFF2F
:103E2000024697F90F3011461846FFF75DFF00BFB5
:103E30001837BD4680BD80B582B000AF0346FB7128
:103E400097F907301846FFF731FF00BF0837BD4626
:103E500080BD80B582B000AF78607868FFF7A2FFC0
:103E6000034618460837BD4680BD000080B489B0BF
:103E700000AF7860396000237B6100233B61002341
:103E8000BB610023FB6159E10122FB6902FA03F3E4
:103E90007B613B681B687A6913403B613A697B69C7
:103EA0009A4240F048813B685B6803F00303012BB2
:103EB00005D03B685B6803F00303022B30D17B68BD
:103EC0009B68BB61FB695B00032202FA03F3DB43DF
:103ED000BA691340BB613B68DA68FB695B0002FAB0
:103EE00003F3BA691343BB617B68BA699A607B6864
:103EF0005B68BB610122FB6902FA03F3DB43BA6929
:103F00001340BB613B685B681B0903F00102FB695E
:103F100002FA03F3BA691343BB617B68BA695A605A
:103F20003B685B6803F00303032B17D07B68DB68F7
:103F3000BB61FB695B00032202FA03F3DB43BA694E
:103F40001340BB613B689A68FB695B0002FA03F3AC
:103F5000BA691343BB617B68BA69DA603B685B6826
:103F600003F00303022B23D1FB69DA087B680832D4
:103F700053F82230BB61FB6903F007039B000F225B
:103F800002FA03F3DB43BA691340BB613B681A6969
:103F9000FB6903F007039B0002FA03F3BA691343BA
:103FA000BB61FB69DA087B680832B96943F8221003
:103FB0007B681B68BB61FB695B00032202FA03F3A9
:103FC000DB43BA691340BB613B685B6803F00302E3
:103FD000FB695B0002FA03F3BA691343BB617B68B8
:103FE000BA691A603B685B6803F44033002B00F049
:103FF000A2800023FB60574B5B6C564A43F480431E
:104000005364544B5B6C03F48043FB60FB68524A7F
:10401000FB699B08023352F82330BB61FB6903F054
:1040200003039B000F2202FA03F3DB43BA69134038
:10403000BB617B68494A934219D07B68484A9342E6
:1040400013D07B68474A93420DD07B68464A93421F
:1040500007D07B68454A934201D1042308E0072337
:1040600006E0032304E0022302E0012300E0002332
:10407000FA6902F0030292009340BA691343BB61EC
:104080003549FB699B080233BA6941F82320384B54
:104090001B68BB613B69DB43BA691340BB613B688A
:1040A0005B6803F48033002B03D0BA693B69134388
:1040B000BB612F4ABB6913602D4B5B68BB613B69D9
:1040C000DB43BA691340BB613B685B6803F40033B0
:1040D000002B03D0BA693B691343BB61244ABB6917
:1040E0005360234B9B68BB613B69DB43BA69134058
:1040F000BB613B685B6803F48013002B03D0BA6993
:104100003B691343BB611A4ABB699360184BDB6878
:10411000BB613B69DB43BA691340BB613B685B68C9
:1041200003F40013002B03D0BA693B691343BB614E
:104130000F4ABB69D360FB690133FB61FB690F2B3D
:104140007FF6A2AE00BF00BF2437BD465DF8047BFA
:10415000704700BF003802400038014000000240B4
:104160000004024000080240000C0240001002401F
:10417000003C014080B485B000AF78600B467B8086
:104180007B681A697B881340002B02D00123FB73E4
:1041900001E00023FB73FB7B18461437BD465DF836
:1041A000047B704780B483B000AF78600B467B809F
:1041B00013467B707B78002B03D07A887B689A61EA
:1041C00003E07B881A047B689A6100BF0C37BD4608
:1041D0005DF8047B7047000080B584B000AF786064
:1041E0007B68002B01D101232BE17B6893F83D30E4
:1041F000DBB2002B06D17B68002283F83C20786874
:10420000FEF7B0FD7B68242283F83D207B681B68A5
:104210001A687B681B6822F001021A607B681B68C1
:104220001A687B681B6842F400421A607B681B684E
:104230001A687B681B6822F400421A6001F05AFE7B
:10424000F8607B685B68814A934207D8FB68804AC4
:10425000934294BF01230023DBB206E0FB687D4A52
:10426000934294BF01230023DBB2002B01D0012332
:10427000E7E0FB68784AA2FB03239B0CBB607B68EA
:104280001B685B6823F03F017B681B68BA680A43C0
:104290005A607B681B681B6A23F03F017B685B6880
:1042A0006A4A934202D8BB68013309E0BB684FF405
:1042B000967202FB03F3694AA2FB03239B090133B5
:1042C0007A6812680B4313627B681B68DB6923F40E
:1042D0004F4222F0FF027B685B685C498B4219D831
:1042E000FB68591E7B685B685B00B1FBF3F3591CEC
:1042F00040F6FC730B40002B0AD0FB68591E7B680C
:104300005B685B00B1FBF3F30133C3F30B0351E0D4
:1043100004234FE07B689B68002B11D1FB68581E7B
:104320007B6859680B465B000B44B0FBF3F3013329
:10433000C3F30B03002B0CBF01230023DBB212E0FD
:10434000FB68581E7B6859680B469B000B4499001C
:104350000B44B0FBF3F30133C3F30B03002B0CBF8F
:1043600001230023DBB2002B01D0012322E07B6874
:104370009B68002B0ED1FB68581E7B6859680B4662
:104380005B000B44B0FBF3F30133C3F30B0343F4C3
:1043900000430FE0FB68581E7B6859680B469B0082
:1043A0000B4499000B44B0FBF3F30133C3F30B034D
:1043B00043F44043796809681343CB617B681B6809
:1043C0001B6823F0C0017B68DA697B681B6A1A43AB
:1043D0007B681B680A431A607B681B689B6823F430
:1043E000034323F0FF037A6811697A68D2681143A6
:1043F0007A6812680B4393607B681B68DB6823F064
:10440000FF017B685A697B689B691A437B681B685C
:104410000A43DA607B681B681A687B681B6842F095
:1044200001021A607B6800221A647B68202283F8EC
:104430003D207B6800221A637B68002283F83E20BF
:10444000002318461037BD4680BD00BFA08601007E
:104450007F841E00FF083D0083DE1B43D34D6210A6
:1044600080B588B002AFF8607A601A460B467B814F
:1044700013463B81FEF7D6FF7861FB6893F83D3029
:10448000DBB2202B40F0E0807B69009319230122EE
:104490007049F86800F030FF0346002B01D002237A
:1044A000D3E0FB6893F83C30012B01D10223CCE030
:1044B000FB68012283F83C20FB681B681B6803F043
:1044C0000103012B07D0FB681B681A68FB681B6897
:1044D00042F001021A60FB681B681A68FB681B68DF
:1044E00022F400621A60FB68212283F83D20FB68F9
:1044F000102283F83E20FB6800221A64FB687A6869
:104500005A62FB683A895A85FB685B8D9AB2FB68F0
:104510001A85FB68504ADA6279897B693A6AF868D9
:1045200000F0EAFC0346002B01D001238DE00023BC
:104530003B61FB681B685B693B61FB681B689B69AF
:104540003B613B6966E07A69396AF86800F0AAFF66
:104550000346002B0DD0FB681B6C042B07D1FB68B6
:104560001B681A68FB681B6842F400721A6001231A
:104570006BE0FB685B6A1A78FB681B681A61FB6872
:104580005B6A5A1CFB685A62FB685B8D9BB2013BFD
:104590009AB2FB685A85FB681B8D013B9AB2FB6897
:1045A0001A85FB681B685B6903F00403042B1BD1AD
:1045B000FB681B8D002B17D0FB685B6A1A78FB68C1
:1045C0001B681A61FB685B6A5A1CFB685A62FB68CD
:1045D0005B8D9BB2013B9AB2FB685A85FB681B8DD1
:1045E000013B9AB2FB681A857A69396AF86800F06B
:1045F0009AFF0346002B0DD0FB681B6C042B07D1E0
:10460000FB681B681A68FB681B6842F400721A603A
:1046100001231AE0FB681B8D002B94D1FB681B68FB
:104620001A68FB681B6842F400721A60FB6820225B
:1046300083F83D20FB68002283F83E20FB680022BF
:1046400083F83C20002300E0022318461837BD46BB
:1046500080BD00BF020010000000FFFF80B588B0E1
:1046600002AFF860084611461A4603467B810B46A6
:104670003B811346FB80FEF7D5FE7861FB6893F81B
:104680003D30DBB2202B40F0D9807B6900931923A9
:1046900001226D49F86800F02FFE0346002B01D07F
:1046A0000223CCE0FB6893F83C30012B01D10223BC
:1046B000C5E0FB68012283F83C20FB681B681B688F
:1046C00003F00103012B07D0FB681B681A68FB6825
:1046D0001B6842F001021A60FB681B681A68FB68DD
:1046E0001B6822F400621A60FB68212283F83D20D7
:1046F000FB68402283F83E20FB6800221A64FB68B6
:104700003A6A5A62FB68BA8C5A85FB685B8D9AB22A
:10471000FB681A85FB684D4ADA62F8883A8979891C
:104720007B690193BB6A00930346F86800F066FC5E
:104730000346002B52D0012381E07A69B96AF868F8
:1047400000F0B0FE0346002B0DD0FB681B6C042B61
:1047500007D1FB681B681A68FB681B6842F400728B
:104760001A6001236BE0FB685B6A1A78FB681B68C0
:104770001A61FB685B6A5A1CFB685A62FB681B8DF6
:10478000013B9AB2FB681A85FB685B8D9BB2013BCB
:104790009AB2FB685A85FB681B685B6903F00403E7
:1047A000042B1BD1FB681B8D002B17D0FB685B6AA9
:1047B0001A78FB681B681A61FB685B6A5A1CFB6805
:1047C0005A62FB681B8D013B9AB2FB681A85FB6835
:1047D0005B8D9BB2013B9AB2FB685A85FB681B8DCF
:1047E000002BAAD17A69B96AF86800F09CFE0346EA
:1047F000002B0DD0FB681B6C042B07D1FB681B68DA
:104800001A68FB681B6842F400721A60012316E004
:10481000FB681B681A68FB681B6842F400721A6028
:10482000FB68202283F83D20FB68002283F83E20AD
:10483000FB68002283F83C20002300E00223184696
:104840001837BD4680BD00BF020010000000FFFF0A
:1048500080B58CB002AFF860084611461A46034690
:104860007B810B463B811346FB80FEF7DBFD7862C4
:10487000FB6893F83D30DBB2202B40F008827B6A66
:104880000093192301227B49F86800F035FD0346A7
:10489000002B01D00223FBE1FB6893F83C30012B95
:1048A00001D10223F4E1FB68012283F83C20FB687C
:1048B0001B681B6803F00103012B07D0FB681B6812
:1048C0001A68FB681B6842F001021A60FB681B68EB
:1048D0001A68FB681B6822F400621A60FB682222D7
:1048E00083F83D20FB68402283F83E20FB680022CD
:1048F0001A64FB683A6B5A62FB68BA8E5A85FB6889
:104900005B8D9AB2FB681A85FB685B4ADA62F888AD
:104910003A8979897B6A0193BB6B00930346F868F7
:1049200000F002FC0346002B01D00123B0E1FB683C
:104930001B8D002B13D100233B62FB681B685B6956
:104940003B62FB681B689B693B623B6AFB681B68B8
:104950001A68FB681B6842F400721A6084E1FB6805
:104960001B8D012B1BD1FB681B681A68FB681B6839
:1049700022F480621A600023FB61FB681B685B699C
:10498000FB61FB681B689B69FB61FB69FB681B683B
:104990001A68FB681B6842F400721A6064E1FB68E5
:1049A0001B8D022B1BD1FB681B681A68FB681B68F8
:1049B00022F480621A60FB681B681A68FB681B6837
:1049C00042F400621A600023BB61FB681B685B69EC
:1049D000BB61FB681B689B69BB61BB6944E1002349
:1049E0007B61FB681B685B697B61FB681B689B697B
:1049F0007B617B6938E1FB681B8D032B00F2F18042
:104A0000FB681B8D012B23D17A6AB96BF86800F023
:104A1000CBFD0346002B01D0012339E1FB681B6865
:104A20001A69FB685B6AD2B21A70FB685B6A5A1C2F
:104A3000FB685A62FB681B8D013B9AB2FB681A85C2
:104A4000FB685B8D9BB2013B9AB2FB685A850BE118
:104A5000FB681B8D022B4ED17B6A0093BB6B00223F
:104A60000649F86800F048FC0346002B08D00123F3
:104A70000EE100BF020010000000FFFF0400010073
:104A8000FB681B681A68FB681B6842F400721A60B6
:104A9000FB681B681A69FB685B6AD2B21A70FB6814
:104AA0005B6A5A1CFB685A62FB681B8D013B9AB219
:104AB000FB681A85FB685B8D9BB2013B9AB2FB6871
:104AC0005A85FB681B681A69FB685B6AD2B21A7068
:104AD000FB685B6A5A1CFB685A62FB681B8D013BD2
:104AE0009AB2FB681A85FB685B8D9BB2013B9AB258
:104AF000FB685A85B8E07B6A0093BB6B002266496D
:104B0000F86800F0F9FB0346002B01D00123BFE059
:104B1000FB681B681A68FB681B6822F480621A60D5
:104B2000FB681B681A69FB685B6AD2B21A70FB6883
:104B30005B6A5A1CFB685A62FB681B8D013B9AB288
:104B4000FB681A85FB685B8D9BB2013B9AB2FB68E0
:104B50005A857B6A0093BB6B00224F49F86800F0CE
:104B6000CBFB0346002B01D0012391E0FB681B68BF
:104B70001A68FB681B6842F400721A60FB681B68C5
:104B80001A69FB685B6AD2B21A70FB685B6A5A1CCE
:104B9000FB685A62FB681B8D013B9AB2FB681A8561
:104BA000FB685B8D9BB2013B9AB2FB685A85FB6840
:104BB0001B681A69FB685B6AD2B21A70FB685B6A91
:104BC0005A1CFB685A62FB681B8D013B9AB2FB685A
:104BD0001A85FB685B8D9BB2013B9AB2FB685A85D4
:104BE00042E07A6AB96BF86800F0DEFC0346002BFD
:104BF00001D001234CE0FB681B681A69FB685B6A03
:104C0000D2B21A70FB685B6A5A1CFB685A62FB6876
:104C10001B8D013B9AB2FB681A85FB685B8D9BB2CA
:104C2000013B9AB2FB685A85FB681B685B6903F01D
:104C30000403042B18D1FB681B681A69FB685B6AC4
:104C4000D2B21A70FB685B6A5A1CFB685A62FB6836
:104C50001B8D013B9AB2FB681A85FB685B8D9BB28A
:104C6000013B9AB2FB685A85FB681B8D002B7FF4D1
:104C7000C2AEFB68202283F83D20FB68002283F847
:104C80003E20FB68002283F83C20002300E0022342
:104C900018462837BD4680BD0400010080B58AB0A3
:104CA00002AFF8607A603B600B467B81FEF7BAFB8F
:104CB000F8610123BB61FB6893F83D30DBB2202B28
:104CC00040F01181FB690093192301228849F8689B
:104CD00000F012FB0346002B01D0022304E1FB6825
:104CE00093F83C30012B01D10223FDE0FB68012247
:104CF00083F83C20FB681B681B6803F00103012B51
:104D000007D0FB681B681A68FB681B6842F0010249
:104D10001A60FB681B681A68FB681B6822F4006253
:104D20001A60FB68242283F83D20FB6800221A6485
:104D3000FB68704ADA62FB681B681A68FB681B68CC
:104D400042F480721A60FB6900933B6800224FF0C6
:104D50000111F86800F0D0FA0346002B0DD0FB6873
:104D60001B681B6803F48073B3F5807F03D1FB6875
:104D70004FF400721A640323B6E07B89DBB21A4653
:104D8000FB681B6802F0FE021A61FEF74BFBF8613C
:104D9000FB681B685B6903F00203022B0CBF012355
:104DA0000023DBB2FB75FB681B685B6903F480635F
:104DB000B3F5806F0CBF01230023DBB2BB7525E088
:104DC000FEF730FB0246FB69D31A3A689A4202D3D7
:104DD0003B68002B03D1FB68A02283F83D20FB68D1
:104DE0001B685B6903F00203022B0CBF0123002345
:104DF000DBB2FB75FB681B685B6903F48063B3F58A
:104E0000806F0CBF01230023DBB2BB75FB6893F8F6
:104E10003D30DBB2A02B05D0FB7D002B02D1BB7D4A
:104E2000002BCDD0FB68202283F83D20FB681B6857
:104E30005B6903F00203022B29D1FB681B681A6827
:104E4000FB681B6842F400721A6000233B61FB6838
:104E50001B685B693B61FB681B689B693B613B6945
:104E6000FB690093192301222149F86800F044FAF4
:104E70000346002B01D0012336E0FB68202283F893
:104E80003D20FB68002283F83C2000232CE0FB68D7
:104E90001B681A68FB681B6842F400721A60FB68A2
:104EA0001B686FF480625A61FB6900931923012229
:104EB0000F49F86800F020FA0346002B01D00123C7
:104EC00012E0BB690133BB61BA697B689A42FFF4A7
:104ED00032AFFB68202283F83D20FB68002283F874
:104EE0003C20012300E0022318462037BD4680BD48
:104EF000020010000000FFFF80B588B002AFF8602C
:104F00007A603B600B467B81FB68DB6A7B617B6977
:104F1000082B06D07B69012B03D07B6913F5803FFA
:104F200008D1FB681B681A68FB681B6842F4807232
:104F30001A600BE0FB681B6B122B07D1FB681B6828
:104F40001A68FB681B6842F480721A603B68009321
:104F50007B6800224FF00111F86800F0CDF903469C
:104F6000002B0DD0FB681B681B6803F48073B3F53E
:104F7000807F03D1FB684FF400721A64032335E08D
:104F8000FB681B69B3F5804F08D17B89DBB21A46F9
:104F9000FB681B6802F0FE021A611BE07B89DB11D3
:104FA000DBB203F00603DBB263F00F03DAB2FB6897
:104FB0001B681A613B687A680E49F86800F0F3F9DB
:104FC0000346002B01D0012310E07B89DAB2FB6895
:104FD0001B681A613B687A680749F86800F0E3F9D2
:104FE0000346002B01D0012300E0002318461837A8
:104FF000BD4680BD080001000200010080B588B0F8
:1050000002AFF860084611461A4603467B810B46FC
:105010003B811346FB80FB681B681A68FB681B68B2
:1050200042F480721A607B6A00933B6A00224FF060
:105030000111F86800F060F90346002B0DD0FB6801
:105040001B681B6803F48073B3F5807F03D1FB6892
:105050004FF400721A6403235FE07B89DBB21A46C7
:10506000FB681B6802F0FE021A617B6A3A6A2D49EE
:10507000F86800F098F90346002B01D001234CE0BA
:1050800000237B61FB681B685B697B61FB681B68B5
:105090009B697B617B697A6A396AF86800F002FA79
:1050A0000346002B0DD0FB681B6C042B07D1FB685B
:1050B0001B681A68FB681B6842F400721A600123BF
:1050C0002BE0FB88012B05D13B89DAB2FB681B681A
:1050D0001A6121E03B891B0A9BB2DAB2FB681B68AC
:1050E0001A617A6A396AF86800F0DCF90346002B25
:1050F0000DD0FB681B6C042B07D1FB681B681A687A
:10510000FB681B6842F400721A60012305E03B89CA
:10511000DAB2FB681B681A61002318461837BD46CF
:1051200080BD00BF0200010080B588B002AFF8600A
:10513000084611461A4603467B810B463B811346BF
:10514000FB80FB681B681A68FB681B6842F480627E
:105150001A60FB681B681A68FB681B6842F480725F
:105160001A607B6A00933B6A00224FF00111F868D5
:1051700000F0C2F80346002B0DD0FB681B681B68CB
:1051800003F48073B3F5807F03D1FB684FF40072A2
:105190001A640323AAE07B89DBB21A46FB681B680A
:1051A00002F0FE021A617B6A3A6A5249F86800F01E
:1051B000FAF80346002B01D0012397E000237B611E
:1051C000FB681B685B697B61FB681B689B697B6193
:1051D0007B697A6A396AF86800F064F90346002B43
:1051E0000DD0FB681B6C042B07D1FB681B681A6889
:1051F000FB681B6842F400721A60012376E0FB88AA
:10520000012B05D13B89DAB2FB681B681A6121E0EA
:105210003B891B0A9BB2DAB2FB681B681A617A6A87
:10522000396AF86800F03EF90346002B0DD0FB68A0
:105230001B6C042B07D1FB681B681A68FB681B6892
:1052400042F400721A60012350E03B89DAB2FB6835
:105250001B681A617A6A396AF86800F023F9034614
:10526000002B0DD0FB681B6C042B07D1FB681B685F
:105270001A68FB681B6842F400721A60012335E06B
:10528000FB681B681A68FB681B6842F480721A602E
:105290007B6A00933B6A00224FF00111F86800F02E
:1052A0002BF80346002B0DD0FB681B681B6803F42A
:1052B0008073B3F5807F03D1FB684FF400721A64EA
:1052C000032313E07B89DBB243F00103DAB2FB680E
:1052D0001B681A617B6A3A6A0649F86800F063F84D
:1052E0000346002B01D0012300E0002318461837A5
:1052F000BD4680BD0200010080B584B000AFF860FB
:10530000B9603B601346FB7125E03B68B3F1FF3F9A
:1053100021D0FEF787F80246BB69D31A3A689A4251
:1053200002D33B68002B16D1FB6800221A63FB688E
:10533000202283F83D20FB68002283F83E20FB6892
:105340001B6C43F02002FB681A64FB68002283F8A0
:105350003C20012323E0BB681B0CDBB2012B0DD1E9
:10536000FB681B685B69DA43BB6813409BB2002B88
:105370000CBF01230023DBB21A460CE0FB681B685C
:105380009B69DA43BB6813409BB2002B0CBF01231F
:105390000023DBB21A46FB799A42B6D000231846A6
:1053A0001037BD4680BD80B584B000AFF860B960ED
:1053B0007A603B6051E0FB681B685B6903F48063C3
:1053C000B3F5806F23D1FB681B681A68FB681B6804
:1053D00042F400721A60FB681B686FF480625A61C5
:1053E000FB6800221A63FB68202283F83D20FB68DB
:1053F000002283F83E20FB681B6C43F00402FB682C
:105400001A64FB68002283F83C20012346E07B6895
:10541000B3F1FF3F21D0FEF705F802463B68D31AEF
:105420007A689A4202D37B68002B16D1FB6800226F
:105430001A63FB68202283F83D20FB68002283F872
:105440003E20FB681B6C43F02002FB681A64FB687B
:10545000002283F83C20012320E0BB681B0CDBB258
:10546000012B0CD1FB681B685B69DA43BB681340F6
:105470009BB2002B14BF01230023DBB20BE0FB68BF
:105480001B689B69DA43BB6813409BB2002B14BFB7
:1054900001230023DBB2002B8DD1002318461037E7
:1054A000BD4680BD80B584B000AFF860B9607A6059
:1054B0002DE0F86800F0CEF80346002B01D0012360
:1054C0002DE0BB68B3F1FF3F21D0FDF7ABFF0246F3
:1054D0007B68D31ABA689A4202D3BB68002B16D1F4
:1054E000FB6800221A63FB68202283F83D20FB68DA
:1054F000002283F83E20FB681B6C43F02002FB680F
:105500001A64FB68002283F83C20012307E0FB6853
:105510001B685B6903F08003802BCAD10023184607
:105520001037BD4680BD80B584B000AFF860B9606B
:105530007A602DE0F86800F08DF80346002B01D06A
:1055400001232DE0BB68B3F1FF3F21D0FDF76AFFD7
:1055500002467B68D31ABA689A4202D3BB68002B12
:1055600016D1FB6800221A63FB68202283F83D20D5
:10557000FB68002283F83E20FB681B6C43F020028E
:10558000FB681A64FB68002283F83C20012307E0D3
:10559000FB681B685B6903F00403042BCAD100237A
:1055A00018461037BD4680BD80B584B000AFF860A6
:1055B000B9607A6042E0FB681B685B6903F0100326
:1055C000102B19D1FB681B686FF010025A61FB6841
:1055D00000221A63FB68202283F83D20FB6800222A
:1055E00083F83E20FB681A6CFB681A64FB68002293
:1055F00083F83C20012329E0FDF714FF02467B6875
:10560000D31ABA689A4202D3BB68002B16D1FB6842
:1056100000221A63FB68202283F83D20FB680022E9
:1056200083F83E20FB681B6C43F02002FB681A6481
:10563000FB68002283F83C20012307E0FB681B681D
:105640005B6903F04003402BB5D1002318461037A7
:10565000BD4680BD80B483B000AF78607B681B68B6
:105660005B6903F48063B3F5806F1BD17B681B68B3
:105670006FF480625A617B6800221A637B68202283
:1056800083F83D207B68002283F83E207B681B6CFA
:1056900043F004027B681A647B68002283F83C2094
:1056A000012300E0002318460C37BD465DF8047B5B
:1056B0007047000080B586B000AF78607B68002B33
:1056C00001D1012364E27B681B6803F00103002B16
:1056D00075D0A34B9B6803F00C03042B0CD0A04B9C
:1056E0009B6803F00C03082B12D19D4B5B6803F4FD
:1056F0008003B3F5800F0BD1994B1B6803F4003383
:10570000002B5BD07B685B68002B57D101233FE205
:105710007B685B68B3F5803F06D1914B1B68904A6C
:1057200043F4803313601DE07B685B68B3F5A02F02
:105730000CD18B4B1B688A4A43F480231360884B3F
:105740001B68874A43F4803313600BE0844B1B686B
:10575000834A23F480331360814B1B68804A23F40F
:10576000802313607B685B68002B13D0FDF75AFE23
:10577000386108E0FDF756FE02463B69D31A642BF8
:1057800001D9032304E2764B1B6803F40033002B9A
:10579000F0D014E0FDF746FE386108E0FDF742FE68
:1057A00002463B69D31A642B01D90323F0E16C4B09
:1057B0001B6803F40033002BF0D100E000BF7B68CE
:1057C0001B6803F00203002B63D0654B9B6803F05A
:1057D0000C03002B0BD0624B9B6803F00C03082BCF
:1057E0001CD15F4B5B6803F48003002B16D15C4B2C
:1057F0001B6803F00203002B05D07B68DB68012BDC
:1058000001D00123C4E1564B1B6823F0F8027B68EA
:105810001B69DB00524913430B603AE07B68DB688D
:10582000002B20D04F4B01221A60FDF7FBFD3861A1
:1058300008E0FDF7F7FD02463B69D31A022B01D9B8
:105840000323A5E1464B1B6803F00203002BF0D0B5
:10585000434B1B6823F0F8027B681B69DB0040495F
:1058600013430B6015E03F4B00221A60FDF7DAFD91
:10587000386108E0FDF7D6FD02463B69D31A022BDA
:1058800001D9032384E1364B1B6803F00203002B8C
:10589000F0D17B681B6803F00803002B30D07B68D5
:1058A0005B69002B16D0304B01221A60FDF7BAFD60
:1058B000386108E0FDF7B6FD02463B69D31A022BBA
:1058C00001D9032364E1264B5B6F03F00203002B35
:1058D000F0D015E0244B00221A60FDF7A3FD3861DB
:1058E00008E0FDF79FFD02463B69D31A022B01D960
:1058F00003234DE11A4B5B6F03F00203002BF0D141
:105900007B681B6803F00403002B00F0A0800023D9
:10591000FB75134B1B6C03F08053002B0FD100233E
:10592000BB600F4B1B6C0E4A43F0805313640C4B4F
:105930001B6C03F08053BB60BB680123FB750B4BF2
:105940001B6803F48073002B21D1084B1B68074AA6
:1059500043F480731360FDF765FD386111E000BF0B
:105960000038024000004742800E4742007000406D
:10597000FDF758FD02463B69D31A022B01D90323D8
:1059800006E1854B1B6803F48073002BF0D07B6825
:105990009B68012B06D1814B1B6F804A43F00103AA
:1059A00013671CE07B689B68052B0CD17B4B1B6F3E
:1059B0007A4A43F004031367784B1B6F774A43F02E
:1059C000010313670BE0754B1B6F744A23F001034F
:1059D0001367724B1B6F714A23F0040313677B68D4
:1059E0009B68002B15D0FDF71DFD38610AE0FDF71F
:1059F00019FD02463B69D31A41F28832934201D91C
:105A00000323C5E0654B1B6F03F00203002BEED0B0
:105A100014E0FDF707FD38610AE0FDF703FD0246DB
:105A20003B69D31A41F28832934201D90323AFE094
:105A30005A4B1B6F03F00203002BEED1FB7D012BB1
:105A400005D1564B1B6C554A23F0805313647B6879
:105A50009B69002B00F09B80504B9B6803F00C036C
:105A6000082B5CD07B689B69022B41D14C4B0022F8
:105A70001A60FDF7D7FC386108E0FDF7D3FC024659
:105A80003B69D31A022B01D9032381E0434B1B68E6
:105A900003F00073002BF0D17B68DA697B681B6A26
:105AA0001A437B685B6A9B011A437B689B6A5B08AD
:105AB000013B1B041A437B68DB6A1B06374913430F
:105AC0004B60374B01221A60FDF7ACFC386108E0EF
:105AD000FDF7A8FC02463B69D31A022B01D9032328
