:020000040800F2
:100000000000012031320008712D0008772D000812
:100010007D2D0008832D0008892D000800000000B8
:100020000000000000000000000000008F2D00080C
:100030009D2D000800000000AB2D0008B92D000820
:1000400081320008813200088132000881320008C4
:1000500081320008813200088132000881320008B4
:1000600081320008813200088132000881320008A4
:100070008132000881320008813200088132000894
:10008000813200088132000881320008000000003F
:1000900000000000000000000000000081320008A5
:1000A00081320008C52D0008813200088132000825
:1000B0008132000881320008813200088132000854
:1000C0008132000881320008813200088132000844
:1000D00081320008813200088132000800000000EF
:1000E00081320008813200088132000800000000DF
:1000F0000000000000000000000000008132000845
:1001000000000000813200088132000881320008BE
:1001100000000000000000000000000000000000DF
:1001200081320008813200088132000881320008E3
:100130008132000800000000000000000000000004
:1001400000000000000000000000000081320008F4
:1001500081320008813200088132000881320008B3
:100160008132000881320008000000000000000019
:10017000000000000000000000000000000000007F
:1001800000000000813200080000000000000000B4
:0401900081320008B0
:1001A00010B5054C237833B9044B13B10448AFF3B1
:1001B00000800123237010BD7400002000000000A7
:1001C0008070000808B5034B1BB103490348AFF327
:1001D000008008BD0000000078000020807000084A
:1001E00001F0FF01102A2BDB10F0070F08D010F8E8
:1001F000013B013A8B422DD010F0070F42B3F6D1EC
:10020000F0B441EA012141EA014122F007047FF004
:1002100000070023F0E80256083C85EA010586EA5B
:10022000010685FA47F5A3FA87F586FA47F6A5FA97
:1002300087F68EB9EED1F0BC01F0FF0102F00702A3
:1002400032B110F8013B013A83EA010313B1F8D14E
:100250000020704701387047002D06BF354603382F
:10026000073815F0010F07D1013015F4807F02BF68
:10027000013015F4C03F0130F0BC0138704700BFB9
:1002800053B94AB9002908BF00281CBF4FF0FF31FD
:100290004FF0FF3000F074B9ADF1080C6DE904CEF9
:1002A00000F006F8DDF804E0DDE9022304B0704751
:1002B0002DE9F047089D04468E46002B4DD18A4219
:1002C000944669D9B2FA82F252B101FA02F3C2F14C
:1002D000200120FA01F10CFA02FC41EA030E9440DD
:1002E0004FEA1C48210CBEFBF8F61FFA8CF708FBFE
:1002F00016E341EA034306FB07F199420AD91CEBD6
:10030000030306F1FF3080F01F81994240F21C8107
:10031000023E63445B1AA4B2B3FBF8F008FB10334F
:1003200044EA034400FB07F7A7420AD91CEB040484
:1003300000F1FF3380F00A81A74240F20781644454
:10034000023840EA0640E41B00261DB1D4400023D9
:10035000C5E900433146BDE8F0878B4209D9002D3D
:1003600000F0EF800026C5E9000130463146BDE8C7
:10037000F087B3FA83F6002E4AD18B4202D3824231
:1003800000F2F980841A61EB030301209E46002DE0
:10039000E0D0C5E9004EDDE702B9FFDEB2FA82F235
:1003A000002A40F09280A1EB0C014FEA1C471FFA93
:1003B0008CFE0126200CB1FBF7F307FB131140EA7A
:1003C00001410EFB03F0884208D91CEB010103F147
:1003D000FF3802D2884200F2CB804346091AA4B209
:1003E000B1FBF7F007FB101144EA01440EFB00FEDD
:1003F000A64508D91CEB040400F1FF3102D2A64542
:1004000000F2BB800846A4EB0E0440EA03409CE7E0
:10041000C6F12007B34022FA07FC4CEA030C20FA8D
:1004200007F401FA06F31C43F9404FEA1C4900FAAD
:1004300006F3B1FBF9F8200C1FFA8CFE09FB18112A
:1004400040EA014108FB0EF0884202FA06F20BD99D
:100450001CEB010108F1FF3A80F08880884240F2ED
:100460008580A8F102086144091AA4B2B1FBF9F031
:1004700009FB101144EA014100FB0EFE8E4508D92C
:100480001CEB010100F1FF346CD28E456AD90238B1
:10049000614440EA0840A0FB0294A1EB0E01A14296
:1004A000C846A64656D353D05DB1B3EB080261EB04
:1004B0000E0101FA07F722FA06F3F1401F43C5E9DE
:1004C000007100263146BDE8F087C2F12003D84014
:1004D0000CFA02FC21FA03F3914001434FEA1C4756
:1004E0001FFA8CFEB3FBF7F007FB10360B0C43EA48
:1004F000064300FB0EF69E4204FA02F408D91CEBF8
:10050000030300F1FF382FD29E422DD902386344F5
:100510009B1B89B2B3FBF7F607FB163341EA034195
:1005200006FB0EF38B4208D91CEB010106F1FF38E4
:1005300016D28B4214D9023E6144C91A46EA0046DB
:1005400038E72E46284605E70646E3E61846F8E66D
:100550004B45A9D2B9EB020864EB0C0E0138A3E7B6
:100560004646EAE7204694E74046D1E7D0467BE797
:10057000023B614432E7304609E76444023842E70F
:10058000704700BF80B582B000AF786000210020C6
:1005900001F0ECFA084801F01FFB0121002001F0F6
:1005A000E5FA786801F018FB4FF47A7002F0DCFE8F
:1005B00000BF0837BD4680BD9870000880B582B086
:1005C00000AF7648FFF7DEFF00BF02F0FDF90346FB
:1005D0001A4640F2F2339A42F7D840F2DC5002F069
:1005E000C3FE02F0F1F90346BB80BB8840F2F13252
:1005F000934218D8BB880A2B15D9FB88002B12D13F
:100600004FF4FA7002F0B0FE02F0DEF903461A462B
:10061000634B1A800121072001F0A8FA614801F01C
:10062000DBFA0123FB80BB8840F2F232934218D9F7
:10063000FB88012B15D10121072001F097FA5A48B8
:1006400001F0CAFA0023FB8000BF0121002001F065
:100650008DFA564801F0C0FA4FF47A7002F084FE29
:1006600003E0642002F080FEBBE702F0ADF9034630
:100670001A4640F2F2339A42F7D84FF4FA7002F079
:1006800073FE02F0A1F90346BB80BB8840F2F13251
:10069000934218D8BB880A2B15D9FB88002B12D19E
:1006A0004FF4FA7002F060FE02F08EF903461A462B
:1006B0003B4B5A800121072001F058FA394801F0DC
:1006C0008BFA0123FB80BB8840F2F2329342D8D9E7
:1006D000FB88012BD5D10121072001F047FA3248D0
:1006E00001F07AFA0023FB8000BF0121002001F015
:1006F0003DFA2F4801F070FA4FF47A7002F034FEA0
:1007000002F062F903461A4640F2F2339A42F7D8F1
:100710004FF4FA7002F028FE02F056F90346BB804F
:10072000BB8840F2F132934218D8BB880A2B15D906
:10073000FB88002B12D14FF4FA7002F015FE02F084
:1007400043F903461A46164BDA800121072001F0CF
:100750000DFA144801F040FA0123FB80BB8840F2F7
:10076000F2329342D8D9FB88012BD5D10121072041
:1007700001F0FCF90C4801F02FFA0123FB8000BFC7
:1007800002F022F903461A4640F2F2339A42F7D8B1
:1007900002F09AF900BF0837BD4680BDA07000087E
:1007A0001C020020A8700008AC700008B07000089F
:1007B000B870000880B500AF0021002001F0D6F924
:1007C0002D4801F009FA2D4B1B78184601F020FA4C
:1007D0002B4801F001FA0121002001F0C7F9294856
:1007E00001F0FAF9284801F0F7F9244B5B78184634
:1007F00001F00EFA01210A2001F0B8F9234801F0B6
:10080000EBF91E4BDB78042B34D801A252F823F00D
:1008100025080008350800084508000855080008A4
:100820006508000800210C2001F0A0F9184801F02B
:10083000D3F91FE000210C2001F098F9154801F0D0
:10084000CBF917E000210C2001F090F9124801F0DB
:10085000C3F90FE000210C2001F088F90F4801F0E6
:10086000BBF907E000210C2001F080F90C4801F0F1
:10087000B3F900BF00BF80BDC07000082402002093
:10088000C8700008CC700008D4700008D870000848
:10089000E0700008E4700008E8700008EC700008E0
:1008A000F070000880B582B000AF184B1B78184676
:1008B00005F080FB0023FB7100237B711CE005F039
:1008C000A7FB0246124B83FB02139910D317C91AD8
:1008D0000B469B000B445B00D11A0B46FB71BA79A7
:1008E000FB799A42EBD0FB79BB717B790949FA79A4
:1008F000CA547B7901337B71074B1B787A799A4212
:10090000EDD900BF00BF0837BD4680BD780100208B
:10091000676666667C0100202402002080B582B0F4
:1009200000AF0023FB71644B1B783B6000BF02F0FB
:100930004BF80346042BFAD94FF47A7002F014FDF9
:100940004EE0FB790133FB710021052001F00EF927
:100950005A4801F041F9C82002F006FD00210520A7
:1009600001F004F9564A3B6813441B78184601F01D
:100970004FF9C82002F0F8FC02F026F803461A46A8
:10098000504B5B880A3B9A4210DB02F01DF803468D
:100990001A464C4B5B880A339A4207DC3B68052BAE
:1009A00004DC3B6801333B600023FB7102F00CF870
:1009B00003461A46434B1B880A3B9A4210DB02F05F
:1009C00003F803461A463F4B1B880A339A4207DC5A
:1009D0003B68002B04D03B68013B3B600023FB716C
:1009E000FB79042BADD9364A3B6813441A78364B51
:1009F0001A703B68DAB2304B1A700023FB71324B2D
:100A00005B783B604AE0FB790133FB7101210720F1
:100A100001F0ACF82D4801F0DFF8962002F0A4FCBC
:100A20000121072001F0A2F8386801F0F1F89620C2
:100A300002F09AFC01F0C8FF03461A46214B5B887E
:100A40000A3B9A4210DB01F0BFFF03461A461D4BDA
:100A50005B880A339A4207DC3B68082B04DC3B685E
:100A600001333B600023FB7101F0AEFF03461A46E1
:100A7000144B1B880A3B9A4210DB01F0A5FF03468A
:100A80001A46104B1B880A339A4207DC3B68002B3E
:100A900004D03B68013B3B600023FB71FB79042BD6
:100AA000B1D93B68DAB2084B5A7002F00DF800BFBA
:100AB0000837BD4680BD00BF1A020020F470000850
:100AC0003C7100081C02002024020020F87000087D
:100AD00080B500AF0021002001F048F8484801F03F
:100AE0007BF875E001F070FF03461A46454B5B88C2
:100AF0000A3B9A4212DB01F067FF03461A46414B5C
:100B00005B880A339A4209DC3F4BDB78032B05D81C
:100B10003D4BDB780133DAB23B4BDA7001F054FF26
:100B200003461A46374B1B880A3B9A4212DB01F0F8
:100B30004BFF03461A46334B1B880A339A4209DCA3
:100B4000314BDB78002B05D02F4BDB78013BDAB241
:100B50002D4BDA702C4BDB78042B35D801A252F8E0
:100B600023F000BF790B0008890B0008990B0008DF
:100B7000B90B0008A90B000800210C2000F0F6FFBB
:100B8000224801F029F81FE000210C2000F0EEFFC0
:100B90001F4801F021F817E000210C2000F0E6FFCB
:100BA0001C4801F019F80FE000210C2000F0DEFFD6
:100BB000194801F011F807E000210C2000F0D6FFE1
:100BC000164801F009F800BF4FF4FA7002F0CCFBB0
:100BD00001F0FAFE0346042B84D801F075FF01F002
:100BE00067F9FFF7E7FD00BF01F0EEFE0346042BB7
:100BF000FAD94FF4967002F0B7FB00BF80BD00BF7A
:100C0000FC7000081C020020240200200C71000867
:100C10001071000814710008187100081C71000898
:100C200080B582B000AF00237B6016E001224FF454
:100C300080510E4803F034FD4FF4967002F094FB9F
:100C400000224FF48051094803F02AFD4FF49670BA
:100C500002F08AFB7B6801337B607B68022BE5DD59
:100C600000BF00BF0837BD4680BD00BF0004024082
:100C700080B500AF01224FF48051074803F010FD0A
:100C80004FF4FA6002F070FB00224FF480510248EA
:100C900003F006FD00BF80BD0004024080B582B0B5
:100CA00000AF00237B6008E001224FF480510A4826
:100CB00003F0F6FC7B6801337B607B68074A934254
:100CC000F2D900224FF48051034803F0E9FC00BF41
:100CD0000837BD4680BD00BF000402409F8601006A
:100CE00080B582B000AF0346FB71FB79013B092B55
:100CF00000F29B8001A252F823F000BF250D0008EE
:100D00003B0D0008510D0008670D00087D0D00081F
:100D1000930D0008A90D0008BF0D0008D50D0008AF
:100D2000ED0D00080121434803F0A2FC0346002B0F
:100D300068D0414B00221A7064E002213D4803F064
:100D400097FC0346002B5FD03B4B00221A705BE000
:100D50000421384803F08CFC0346002B56D0364B58
:100D600000221A7052E00821324803F081FC034649
:100D7000002B4DD0304B00221A7049E010212D4835
:100D800003F076FC0346002B44D02B4B00221A7054
:100D900040E02021274803F06BFC0346002B3BD0AA
:100DA000254B00221A7037E04021224803F060FCF6
:100DB0000346002B32D0204B00221A702EE08021F7
:100DC0001C4803F055FC0346002B29D01A4B002287
:100DD0001A7025E04FF48071164803F049FC034671
:100DE000002B1FD0144B00221A701BE04FF400712F
:100DF000104803F03DFC0346002B15D00E4B00229B
:100E00001A7011E000BF10E000BF0EE000BF0CE060
:100E100000BF0AE000BF08E000BF06E000BF04E03A
:100E200000BF02E000BF00E000BF00BF0837BD46C2
:100E300080BD00BF000002407501002080B500AFFA
:100E40005C4B1B79C3F30303DBB21A46594B5B7847
:100E50009A4242D1574A13796FF303031371564BE9
:100E60001B780133DAB2544B1A7000224FF48061C0
:100E7000524803F015FC00224FF400614F4803F084
:100E80000FFC00224FF480514C4803F009FC002273
:100E90004FF40041494803F003FC00220421484874
:100EA00003F0FEFB00220821454803F0F9FB002275
:100EB0001021434803F0F4FB00222021404803F0B6
:100EC000EFFB00224FF480713D4803F0E9FB002264
:100ED0004FF400713A4803F0E3FB364B1A78364B77
:100EE0001B789A4213D3374B00221A80324B1B785F
:100EF0001A46354B9B5C184600F06EF82E4B1B785B
:100F00001A46314B9B5C184600F030F93DE0002258
:100F10004FF48061294803F0C3FB00224FF40061C5
:100F2000264803F0BDFB00224FF48051234803F014
:100F3000B7FB00224FF40041204803F0B1FB002230
:100F400004211F4803F0ACFB002208211C4803F0D9
:100F5000A7FB002210211A4803F0A2FB0022202147
:100F6000174803F09DFB00224FF48071144803F0F2
:100F700097FB00224FF40071114803F091FB134BD3
:100F800002221A70124B01221A70124B1B78002B8E
:100F90000DD1084B1B79C3F30303DBB2013303F01C
:100FA0000F03D9B2034A137961F30303137100BF2E
:100FB00080BD00BF24020020AF01002000000240DD
:100FC00000040240760100207C010020AE010020D8
:100FD000B00100207501002080B582B000AF03464B
:100FE000FB71FB79092B59D801A252F823F000BFFD
:100FF00019100008271000083510000843100008D9
:10100000511000085D1000086910000875100008F4
:10101000811000088F10000801224FF480612148E0
:1010200003F03EFB3AE001224FF400611D4803F05B
:1010300037FB33E001224FF480511A4803F030FBB4
:101040002CE001224FF40041164803F029FB25E073
:1010500001220421144803F023FB1FE00122082190
:10106000114803F01DFB19E0012210210E4803F086
:1010700017FB13E0012220210B4803F011FB0DE0C8
:1010800001224FF48071084803F00AFB06E00122B8
:101090004FF40071044803F003FB00BF00BF0837A2
:1010A000BD4680BD000002400004024080B582B011
:1010B00000AF0346FB71294B9B780133DAB2274B13
:1010C0009A7000224FF48061254803F0E9FA00226B
:1010D0004FF40061224803F0E3FA00224FF48051FC
:1010E0001F4803F0DDFA00224FF400411C4803F0D2
:1010F000D7FA002204211B4803F0D2FA002208216B
:10110000184803F0CDFA00221021164803F0C8FA5F
:1011100000222021134803F0C3FA00224FF480710B
:10112000104803F0BDFA00224FF400710D4803F09F
:10113000B7FAFB790133DAB20B4B1A70074B5B78C5
:1011400003F00F03D9B2054A137961F30303137156
:10115000FFF7A4FD00BF0837BD4680BD2402002074
:1011600000000240000402407501002080B582B0FA
:1011700000AF0346FB71FB799BB21946064801F0AC
:101180002FFF0346002B03D0FB791846FFF78EFF95
:1011900000BF0837BD4680BD0000024080B582B068
:1011A00000AF0023FB7101237B7144E0394B1B78B6
:1011B000322B03D9374B00221A7005E0354B1B78D0
:1011C0000133DAB2334B1A70324B1B780133DAB287
:1011D000304B1A7004F01CFF02462F4B83FB0213A6
:1011E0005910D317C91A0B469B000B44D11A0B4652
:1011F000FB71284B1B78184604F0DCFE0EE004F06F
:1012000007FF0246244B83FB02135910D317C91A58
:101210000B469B000B44D11A0B46FB71BA79FB7944
:101220009A42ECD0FB79BB717B791C49FA79CA549C
:101230007B7901337B711A4B1B787A799A42B5D945
:1012400001233B711BE004F0E3FE0246124B83FBDB
:1012500002135910D317C91A0B469B000B44D11A1D
:101260000B46FB71BA79FB799A42ECD0FB79BB71E2
:101270003B790C49FA79CA543B7901333B71084BED
:101280001B783A799A42EDD900BF00BF0837BD46B6
:1012900080BD00BF7801002067666666B40100204B
:1012A00024020020E801002080B584B000AF03468E
:1012B0000A46FB711346BB710023FB73FB79013BAC
:1012C000042B4DD801A252F823F000BFE112000810
:1012D000F71200080D130008231300083913000843
:1012E00001214C4803F0C4F90346002B2FD0FB7BAF
:1012F0000133FB732BE00221464803F0B9F90346A2
:10130000002B26D0FB7B0133FB7322E004214148F4
:1013100003F0AEF90346002B1DD0FB7B0133FB73BA
:1013200019E008213B4803F0A3F90346002B14D031
:10133000FB7B0133FB7310E01021364803F098F972
:101340000346002B0BD0FB7B0133FB7307E000BF90
:1013500006E000BF04E000BF02E000BF00E000BF05
:10136000BB79013B042B4FD801A252F823F000BFF8
:10137000851300089B130008B1130008C713000869
:10138000DF1300082021234803F072F90346002BE5
:1013900031D0FB7B0133FB732DE040211D4803F06E
:1013A00067F90346002B28D0FB7B0133FB7324E055
:1013B0008021184803F05CF90346002B1FD0FB7B0B
:1013C0000133FB731BE04FF48071124803F050F9B6
:1013D0000346002B15D0FB7B0133FB7311E04FF468
:1013E00000710C4803F044F90346002B0BD0FB7B43
:1013F0000133FB7307E000BF06E000BF04E000BF5D
:1014000002E000BF00E000BFFB7B18461037BD467E
:1014100080BD00BF0000024080B500AFA54B1B7926
:10142000C3F30303DBB21A46A24B5B789A4252D154
:10143000A04A13796FF3451313719E4A13796FF322
:10144000041313719B4B00225A719A4B00229A711C
:10145000984A13796FF303031371974B1B78013389
:10146000DAB2954B1A7000224FF48061934803F072
:1014700017F900224FF40061904803F011F900229F
:101480004FF480518D4803F00BF900224FF40041D6
:101490008A4803F005F900220421894803F000F985
:1014A00000220821864803F0FBF80022102184481E
:1014B00003F0F6F800222021814803F0F1F8002221
:1014C0004FF480717E4803F0EBF800224FF4007176
:1014D0007B4803F0E5F8774B1A78774B1B789A42F4
:1014E000C0F0F680774B00221A80734B1B781A46A7
:1014F000754B9B5C704A12781146744A525C1146D7
:10150000184600F0ADF96C4B1B781A466E4B9B5C8D
:10151000042B66D801A252F823F000BF3115000851
:10152000511500087115000891150008B115000843
:101530000121624803F09CF80346002B48D15D4A24
:10154000137943F0100313715A4B01225A713FE093
:1015500002215A4803F08CF80346002B3AD1554A31
:10156000137943F010031371524B02225A7131E088
:101570000421524803F07CF80346002B2CD14D4A3D
:10158000137943F0100313714A4B03225A7123E07D
:1015900008214A4803F06CF80346002B1ED1454A47
:1015A000137943F010031371424B04225A7115E072
:1015B0001021424803F05CF80346002B10D13D4A4D
:1015C000137943F0100313713A4B05225A7107E067
:1015D00000BF06E000BF04E000BF02E000BF00E083
:1015E00000BF354B1B781A46384B9B5C042B00F22E
:1015F000B78001A252F823F00D1600082F1600083C
:1016000051160008711600089316000820212B4877
:1016100003F02EF80346002B40F09980254A1379F9
:1016200043F020031371234B01229A718FE0402174
:10163000224803F01DF80346002B40F08A801D4A23
:10164000137943F0200313711A4B02229A7180E040
:1016500080211A4803F00CF80346002B7BD1154A71
:10166000137943F020031371124B03229A7172E035
:101670004FF48071114802F0FBFF0346002B6CD140
:101680000C4A137943F0200313710A4B04229A7118
:1016900063E04FF40071094802F0EAFF0346002BB3
:1016A0005DD1044A137943F020031371014B0522E5
:1016B0009A7154E024020020AF0100200000024093
:1016C0000004024076010020B4010020E80100205F
:1016D00000224FF480615C4802F0E2FF00224FF4E8
:1016E0000061594802F0DCFF00224FF48051564857
:1016F00002F0D6FF00224FF40041534802F0D0FF21
:1017000000220421514802F0CBFF002208214F485B
:1017100002F0C6FF002210214C4802F0C1FF002257
:1017200020214A4802F0BCFF00224FF48071474854
:1017300002F0B6FF00224FF40071444802F0B0FFFF
:10174000434B02221A70434B01221A7008E000BF7B
:1017500006E000BF04E000BF02E000BF00E000BF01
:101760003D4B1B7903F02003DBB2002B57D03A4BE3
:101770001B7903F01003DBB2002B50D0374B1B78E2
:101780000A2B4CD0344B9B780133DAB2324B9A702F
:1017900000224FF480612C4802F082FF00224FF4B7
:1017A0000061294802F07CFF00224FF48051264856
:1017B00002F076FF00224FF40041234802F070FF50
:1017C00000220421214802F06BFF002208211F485B
:1017D00002F066FF002210211C4802F061FF002287
:1017E00020211A4802F05CFF00224FF48071174854
:1017F00002F056FF00224FF40071144802F050FF2F
:10180000FFF74CFA154B0A221A70134B5B7803F062
:101810000F03D9B2104A137961F3030313710F4B0D
:101820001B78002B0DD10C4B1B79C3F30303DBB2E8
:10183000013303F00F03D9B2074A137961F30303AD
:10184000137100BF80BD00BF0000024000040240D1
:10185000AE010020B001002024020020750100200C
:1018600080B582B000AF03460A46FB711346BB71D8
:10187000FB79042B2ED801A252F823F0911800080E
:101880009F180008AD180008BB180008C918000808
:1018900001224FF48061294802F002FF1AE0012280
:1018A0004FF40061254802F0FBFE13E001224FF4E3
:1018B0008051224802F0F4FE0CE001224FF4004176
:1018C0001E4802F0EDFE05E0012204211C4802F052
:1018D000E7FE00BFBB79042B2CD801A252F823F0FD
:1018E000F5180008011900080D1900081919000859
:1018F0002719000801220821114802F0D1FE19E041
:10190000012210210E4802F0CBFE13E0012220211B
:101910000B4802F0C5FE0DE001224FF4807108482B
:1019200002F0BEFE06E001224FF40071044802F00E
:10193000B7FE00BF00BF0837BD4680BD00000240B3
:101940000004024080B586B002AF0346FB7107F188
:101950000903FB60FB7923F00F03FB72FB791B018A
:10196000BB723A4B1B78012B05D1FB7A43F00C0379
:10197000DBB27B7204E0FB7A43F00403DBB27B72E0
:10198000334B1B789BB25B0099B24FF0FF3300934F
:101990000123FA682F4802F0E1FF2C4B1B78012B42
:1019A00005D17B7A23F00403DBB27B7204E07B7AFF
:1019B00023F00C03DBB27B72254B1B789BB25B00E0
:1019C00099B24FF0FF3300930123FA68214802F0E7
:1019D000C5FF1E4B1B78012B05D1BB7A43F00C03CE
:1019E000DBB27B7204E0BB7A43F00403DBB27B72B0
:1019F000174B1B789BB25B0099B24FF0FF330093FB
:101A00000123FA68134802F0A9FF104B1B78012B41
:101A100005D17B7A23F00403DBB27B7204E07B7A8E
:101A200023F00C03DBB27B72094B1B789BB25B008B
:101A300099B24FF0FF3300930123FA68054802F092
:101A40008DFF00BF1037BD4680BD00BF01000020E4
:101A500074010020D800002080B586B002AF034694
:101A6000FB7107F10903FB60FB7923F00F03FB72A5
:101A7000FB791B01BB723A4B1B78012B05D1FB7A1A
:101A800043F00D03DBB27B7204E0FB7A43F0050305
:101A9000DBB27B72334B1B789BB25B0099B24FF089
:101AA000FF3300930123FA682F4802F057FF2C4BB5
:101AB0001B78012B05D17B7A23F00403DBB27B7208
:101AC00004E07B7A23F00C03DBB27B72254B1B789E
:101AD0009BB25B0099B24FF0FF3300930123FA6889
:101AE000214802F03BFF1E4B1B78012B05D1BB7A2E
:101AF00043F00D03DBB27B7204E0BB7A43F00503D5
:101B0000DBB27B72174B1B789BB25B0099B24FF034
:101B1000FF3300930123FA68134802F01FFF104BB4
:101B20001B78012B05D17B7A23F00403DBB27B7297
:101B300004E07B7A23F00C03DBB27B72094B1B7849
:101B40009BB25B0099B24FF0FF3300930123FA6818
:101B5000054802F003FF00BF1037BD4680BD00BF3F
:101B60000100002074010020D800002080B582B060
:101B700000AF03460A46FB711346BB71154B1B7839
:101B8000022B05D1BB79012B02D1FB794033FB71CC
:101B9000104B1B78042B11D1BB79012B02D1FB799F
:101BA0004033FB71BB79022B02D1FB791433FB71FB
:101BB000BB79032B02D1FB795433FB71FB7963F0C2
:101BC0007F03FB71FB791846FFF7BCFE00BF0837A7
:101BD000BD4680BD0000002080B584B000AF7860B5
:101BE0000023FB730AE07B681B781846FFF734FF7D
:101BF0007B6801337B60FB7B0133FB737B681B7865
:101C0000002BF0D100BF00BF1037BD4680BD0000E3
:101C100080B584B000AF78607B68002B05DA3C4863
:101C2000FFF7DAFF7B685B427B607B68FB607B6869
:101C300042F20F72934214DDFB68364A82FB0312B4
:101C40001213DB17D31AFB72FB7A3033DBB2184660
:101C5000FFF702FFFB7A304A02FB03F3FA681344F2
:101C6000FB607B68B3F57A7F14DBFB682B4A82FB51
:101C700003129211DB17D31AFB72FB7A3033DBB2FB
:101C80001846FFF7E9FEFB7A254A02FB03F3FA68E0
:101C90001344FB607B68632B15DDFB68214A82FBE4
:101CA00003125211DB17D31AFB72FB7A3033DBB20B
:101CB0001846FFF7D1FEFB7A6FF0630202FB03F3D5
:101CC000FA681344FB607B68092B15DDFB68164A34
:101CD00082FB03129210DB17D31AFB72FB7A3033AC
:101CE000DBB21846FFF7B8FEFB7A6FF0090202FB81
:101CF00003F3FA681344FB60FB68DBB23033DBB2FA
:101D00001846FFF7A9FE00BF1037BD4680BD00BFD3
:101D100020710008AD8BDB68F0D8FFFFD34D621057
:101D200018FCFFFF1F85EB516766666680B586B0BD
:101D300002AF0023FB7316E0FB7B9BB25B0099B202
:101D40000A230122584802F007FF0346FB71FB7982
:101D5000002B05D1FB7B502B02D0544AFB7B137028
:101D6000FB7B0133FB7397F90F30002BE4DABB1DCB
:101D7000BB600F2001F0F8FA3423BB714B4B1B788A
:101D80009BB25B0099B24FF0FF3300930123BA6816
:101D9000454802F0E3FD012001F0E6FA3023BB7173
:101DA000424B1B789BB25B0099B24FF0FF3300931C
:101DB0000123BA683C4802F0D1FD052001F0D4FAB5
:101DC0003423BB71394B1B789BB25B0099B24FF047
:101DD000FF3300930123BA68334802F0BFFD30237C
:101DE000BB71012001F0C0FA304B1B789BB25B0045
:101DF00099B24FF0FF3300930123BA682A4802F0EA
:101E0000ADFD012001F0B0FA2423BB71274B1B78F4
:101E10009BB25B0099B24FF0FF3300930123BA6885
:101E2000214802F09BFD012001F09EFA2023BB71A6
:101E30001E4B1B789BB25B0099B24FF0FF330093AF
:101E40000123BA68184802F089FD012001F08CFADC
:101E50002820FFF777FD012001F086FA0920FFF71F
:101E600071FD012001F080FA0120FFF76BFD0220D7
:101E700001F07AFA0620FFF765FD012001F074FAFF
:101E80000C20FFF75FFD012001F06EFA0220FFF742
:101E900059FD022001F068FA00210020FFF766FEDC
:101EA00000BF1037BD4680BDD8000020740100205F
:101EB00080B500AF00210020FFF758FE0548FFF76E
:101EC0008BFE01210020FFF751FE0248FFF784FE40
:101ED00000BF80BD2471000880B500AF5C4B1B794A
:101EE000C3F30303DBB21A46594B5B789A4242D1E3
:101EF000574A13796FF303031371564B1B78013361
:101F0000DAB2544B1A7001224FF48061524802F049
:101F1000C7FB01224FF400614F4802F0C1FB0122D0
:101F20004FF480514C4802F0BBFB01224FF40041BA
:101F3000494802F0B5FB01220421484802F0B0FBF9
:101F400001220821454802F0ABFB01221021434841
:101F500002F0A6FB01222021404802F0A1FB012251
:101F60004FF480713D4802F09BFB01224FF4007159
:101F70003A4802F095FB364B1A78364B1B789A425A
:101F800013D3374B00221A80324B1B781A46354B3D
:101F90009B5C184600F06EF82E4B1B781A46314BAE
:101FA0009B5C184600F030F93DE000224FF4806160
:101FB000294802F075FB00224FF40061264802F028
:101FC0006FFB00224FF48051234802F069FB00228E
:101FD0004FF40041204802F063FB002204211F4817
:101FE00002F05EFB002208211C4802F059FB00228F
:101FF00010211A4802F054FB00222021174802F059
:102000004FFB00224FF48071144802F049FB00227C
:102010004FF40071114802F043FB134B02221A7077
:10202000124B01221A70124B1B78002B0DD1084B5A
:102030001B79C3F30303DBB2013303F00F03D9B2FF
:10204000034A137961F30303137100BF80BD00BF1E
:1020500024020020AF0100200000024000040240E2
:10206000760100207C010020AE010020B00100209C
:102070007501002080B582B000AF0346FB71FB798B
:10208000092B59D801A252F823F000BFB52000084F
:10209000C3200008D1200008DF200008ED20000840
:1020A000F920000805210008112100081D21000861
:1020B0002B21000800224FF48061214802F0F0FA41
:1020C0003AE000224FF400611D4802F0E9FA33E0E3
:1020D00000224FF480511A4802F0E2FA2CE000226C
:1020E0004FF40041164802F0DBFA25E000220421FB
:1020F000144802F0D5FA1FE000220821114802F02E
:10210000CFFA19E0002210210E4802F0C9FA13E0BC
:10211000002220210B4802F0C3FA0DE000224FF408
:102120008071084802F0BCFA06E000224FF400710A
:10213000044802F0B5FA00BF00BF0837BD4680BDB5
:10214000000002400004024080B582B000AF0346A8
:10215000FB71294B9B780133DAB2274B9A7001222D
:102160004FF48061254802F09BFA01224FF4006190
:10217000224802F095FA01224FF480511F4802F0E4
:102180008FFA01224FF400411C4802F089FA012223
:1021900004211B4802F084FA01220821184802F0A9
:1021A0007FFA01221021164802F07AFA012220213A
:1021B000134802F075FA01224FF48071104802F0C2
:1021C0006FFA01224FF400710D4802F069FAFB79B1
:1021D0000133DAB20B4B1A70074B5B7803F00F0335
:1021E000D9B2054A137961F303031371FEF756FD63
:1021F00000BF0837BD4680BD240200200000024019
:10220000000402407501002080B582B000AF034693
:10221000FB71FB799BB21946064800F0E1FE0346CC
:10222000002B03D0FB791846FFF78EFF00BF08375D
:10223000BD4680BD0000024080B500AF01F022F82D
:1022400000F004FA00F012FB00F0BEFA00F068FAA9
:1022500000F0E8FAFFF76AFD904803F049FC00221D
:102260004FF480618E4802F01BFA00224FF40061A7
:102270008B4802F015FA00224FF48051884802F092
:102280000FFA00224FF40041854802F009FA0022BB
:102290000421844802F004FA00220821814802F057
:1022A000FFF9002210217F4802F0FAF900222021D4
:1022B0007C4802F0F5F900224FF48071794802F071
:1022C000EFF900224FF40071764802F0E9F900F0CE
:1022D0007BFB0346042B01D8FEF770F94FF47A70AC
:1022E00001F042F800F09AFBFEF764FA6E4B03220D
:1022F0001A7001210E20FFF739FC6C4B9B781846B1
:10230000FFF786FC674B1B6903F48063002B6CD1DD
:102310000A226449142000F07BFE0346002B64D09F
:10232000634B00221A70FFF7C3FD5F4B03221A7044
:102330005E4B00229A7000224FF48061584802F0F0
:10234000AFF900224FF40061554802F0A9F90022CC
:102350004FF48051524802F0A3F900224FF400419B
:102360004F4802F09DF9002204214E4802F098F9EE
:10237000002208214B4802F093F90022102149481D
:1023800002F08EF900222021464802F089F900224D
:102390004FF48071434802F083F900224FF400713A
:1023A000404802F07DF900BF3E4B1B6903F4806397
:1023B000002BF9D000BF3B4B1B6903F48063002B5B
:1023C00007D00A223749142000F022FE0346002BD2
:1023D000F1D100BF334B1B6903F48063002BF9D0AC
:1023E000334B01221A70FEF7E5F9324B1B78012BB3
:1023F0000DD12E4B9A782D4B1B789A4202D1FEF7C5
:102400000FFC01E0FEF734FC2A4B00221A70274B28
:10241000DB78012B03D0254BDB78002B04D1264B36
:102420001B781846FEF75CFC204B5B791F4A9279BB
:1024300011461846FEF738FF0346022B06D11B4B08
:10244000DB78022B02D11C4B00221A7000F0BCFA80
:102450000346042B01D8FEF761FA0121104802F06F
:1024600007F90346002B40F084800F4B1B78002BAC
:102470007FD10E4BDB78022B02D1FEF78FFE01E0FD
:10248000FEF710FA094BDB78012B03D0074BDB7802
:10249000002B13D1FEF706FA16E000BF2C01002036
:1024A0000000024000040240AE010020240200208F
:1024B00001000020B0010020750100205A4BDB789C
:1024C000022B01D1FEF76AFE584B01221A70564AC0
:1024D00013796FF30303137100224FF480615448A2
:1024E00002F0DEF800BF0121514802F0C1F80346B6
:1024F000002BF8D04F4B01221A704B4BDB78012B8D
:1025000037D101224FF48061494802F0C9F8012215
:102510004FF40061464802F0C3F801224FF48051A5
:10252000434802F0BDF801224FF40041404802F058
:10253000B7F801220421404802F0B2F80122082134
:102540003D4802F0ADF8012210213B4802F0A8F806
:1025500001222021384802F0A3F801224FF48071B3
:10256000354802F09DF801224FF40071324802F024
:1025700097F8324B1B78322B03D9304B00221A705C
:1025800005E02E4B1B780133DAB22C4B1A7000F0A9
:102590001BFA03461A462A4BDB880A3B9A423EDB6B
:1025A00000F012FA03461A46254BDB880A339A429A
:1025B00035DC244B00221A8003E0224B1B88142BAD
:1025C00012D800F001FA03461A461D4BDB880A3B7D
:1025D0009A420ADB00F0F8F903461A46184BDB88EA
:1025E0000A339A42E9DD00E000BF164B1B880A2B34
:1025F00002D9FEF76DFA12E00B4B00229A7001210E
:102600000F20FFF7B3FA1048FFF7E6FA01224FF464
:102610008061074802F044F8064B00221A706420DB
:1026200000F0A2FE65E600BF24020020AF010020FA
:1026300000000240AE0100200004024078010020AA
:102640001C020020760100203871000880B594B08B
:1026500000AF07F1200330220021184603F0A2FC4E
:1026600007F10C0300221A605A609A60DA601A615E
:102670000023BB60284B1B6C274A43F08053136434
:10268000254B1B6C03F08053BB60BB6800237B6051
:10269000224B1B6823F44043204A43F40043136059
:1026A0001E4B1B6803F440437B607B6801233B6245
:1026B0004FF480337B620223BB634FF48003FB63E0
:1026C00019233B64A8237B640223BB640423FB64BB
:1026D00007F12003184602F077FD0346002B01D0D6
:1026E00000F06CF90F23FB6002233B6100237B6148
:1026F0004FF4A053BB610023FB6107F10C030221DF
:10270000184602F0D9FF0346002B01D000F056F91D
:1027100000BF5037BD4680BD003802400070004009
:1027200080B584B000AF3B4600221A605A609A60C0
:10273000DA60224B224A1A60204B4FF480325A60F2
:102740001E4B4FF080729A601C4B00221A611B4B8B
:1027500000221A76194B002283F82020174B002202
:10276000DA62164B174A9A62144B0022DA60134B56
:102770000122DA61114B002283F830200F4B012235
:102780005A610E4800F014FE0346002B01D000F001
:1027900015F908233B6001237B600023BB603B46A7
:1027A0001946064800F0C8FF0346002B01D000F090
:1027B00005F900BF1037BD4680BD00BF9000002066
:1027C000002001400100000F80B500AF124B134AFA
:1027D0001A60114B124A5A600F4B00229A600E4B3E
:1027E0000022DA600C4B4FF480421A610A4B00223F
:1027F0005A61094B00229A61074B0022DA61064BAD
:1028000000221A62044801F065FF0346002B01D044
:1028100000F0D4F800BF80BDD80000200054004074
:10282000A086010080B500AF0E4B0F4A1A600D4B19
:102830004AF20F425A600B4B00229A60094BC722A2
:10284000DA60084B00221A61064B00229A610548A3
:1028500003F0FEF80346002B01D000F0AFF800BFF4
:1028600080BD00BF2C0100200044014080B58AB02B
:1028700000AF07F1140300221A605A609A60DA6010
:102880001A6100233B61494B1B6B484A43F0040328
:102890001363464B1B6B03F004033B613B6900234E
:1028A000FB60424B1B6B414A43F0800313633F4B79
:1028B0001B6B03F08003FB60FB680023BB603B4B9A
:1028C0001B6B3A4A43F001031363384B1B6B03F055
:1028D0000103BB60BB6800237B60344B1B6B334A36
:1028E00043F002031363314B1B6B03F002037B6065
:1028F0007B6800224FF420412D4801F0D1FE0022D8
:1029000041F23C312B4801F0CBFE00224FF41C4138
:10291000294801F0C5FE4FF420437B610123BB61D0
:102920000023FB6100233B6207F114031946204892
:1029300001F01AFD40F2FF337B610023BB610123EC
:10294000FB6107F1140319461B4801F00DFD41F22C
:102950003C337B610123BB610023FB6100233B62AD
:1029600007F114031946134801F0FEFC4FF410530D
:102970007B610023BB610123FB6107F1140319464E
:102980000C4801F0F1FC4FF41C437B610123BB6157
:102990000023FB6100233B6207F11403194606483C
:1029A00001F0E2FC00BF2837BD4680BD0038024080
:1029B00000080240000402400000024080B400AF62
:1029C00072B600BFFEE7000080B582B000AF002302
:1029D000FB80114800F030FD00237B710EE00A21DE
:1029E0000D4800F010FE0C4800F098FE0346FB80F6
:1029F000FB885B00FB807B7901337B717B79032B48
:102A0000EDD9FB885B08FB80034800F0C9FDFB881B
:102A100018460837BD4680BD9000002080B500AF45
:102A2000194800F045F803469AB2184B1A80184826
:102A300000F03EF803469AB2144B5A80154800F055
:102A400037F803469AB2114BDA80134800F030F899
:102A50000346DAB2114BDA70114800F029F8034648
:102A6000DAB2104B1A700F4B1B781A460E4B9A5C59
:102A70000A4B1A700D4800F01BF80346DAB2074BF8
:102A80005A7000BF80BD00BF000002081C02002079
:102A900002000208040002080600020824020020C6
:102AA000080002081A0200203C7100080A0002080F
:102AB00080B483B000AF78607B681B6818460C3721
:102AC000BD465DF8047B70472DE9B04F86B000AF7E
:102AD0002E4B05229A602D4B0122DA602B4B0022EF
:102AE0001A6001F0ADF92A49284801F01BFB294B77
:102AF0001B889BB200221C46154622462B462649BF
:102B0000012001F049F9234B5B889BB200229846D3
:102B1000914642464B462149012001F03DF91D4BAB
:102B2000DB889BB200223B617A61D7E904231C4910
:102B3000012001F031F91B4BDB78DBB20022BB60D6
:102B4000FA60D7E902231849012001F025F9154B55
:102B50005B78DBB200223B607A60D7E9002313493F
:102B6000012001F019F9124B1B78DBB200229A46C2
:102B7000934652465B460F49012001F00DF901F0E2
:102B800081F900BF1837BD46BDE8B08F2C02002088
:102B9000400200201C02002000000208020002087F
:102BA0000400020824020020060002080A000208AD
:102BB0001A0200200800020880B483B000AF00238E
:102BC0007B60104B5B6C0F4A43F4804353640D4BA6
:102BD0005B6C03F480437B607B6800233B60094BA4
:102BE0001B6C084A43F080531364064B1B6C03F0C4
:102BF00080533B603B6800BF0C37BD465DF8047BEB
:102C0000704700BF0038024080B58AB000AF7860DE
:102C100007F1140300221A605A609A60DA601A61A0
:102C20007B681B68174A934227D100233B61164BF0
:102C30005B6C154A43F480735364134B5B6C03F471
:102C400080733B613B690023FB600F4B1B6B0E4A9B
:102C500043F0020313630C4B1B6B03F00203FB6096
:102C6000FB6803237B610323BB610023FB6107F146
:102C700014031946054801F077FB00BF2837BD460D
:102C800080BD00BF00200140003802400004024027
:102C900080B58AB000AF786007F1140300221A6093
:102CA0005A609A60DA601A617B681B68194A93421D
:102CB0002BD100233B61184B1B6B174A43F00203D7
:102CC0001363154B1B6B03F002033B613B69C0238D
:102CD0007B611223BB610123FB6103233B6204235D
:102CE0007B6207F1140319460C4801F03DFB0023F9
:102CF000FB60094B1B6C084A43F400131364064B3A
:102D00001B6C03F40013FB60FB6800BF2837BD4653
:102D100080BD00BF00540040003802400004024063
:102D200080B584B000AF78607B681B680E4A934220
:102D300015D10023FB600D4B5B6C0C4A43F4003350
:102D400053640A4B5B6C03F40033FB60FB680022A6
:102D50000021192000F0E9FF192001F002F800BF5E
:102D60001037BD4680BD00BF00440140003802401E
:102D700080B400AFFEE780B400AFFEE780B400AFE0
:102D8000FEE780B400AFFEE780B400AFFEE780B49A
:102D900000AF00BFBD465DF8047B704780B400AF54
:102DA00000BFBD465DF8047B704780B400AF00BF34
:102DB000BD465DF8047B704780B500AF00F0B4FA03
:102DC00000BF80BD80B500AF1D4802F0F3FE1D4B73
:102DD0001B8801339AB21B4B1A801B4B1B78012BAB
:102DE00009D11A4B1B78002B05D1194BDB78002B2E
:102DF00001D1FEF723F8144B1B78012B09D1134B9B
:102E00001B78002B05D1124BDB78012B01D1FFF78A
:102E100063F80D4B1B78012B09D10C4B1B78002B51
:102E200005D10B4BDB78022B01D1FEF7F5FA084BED
:102E3000DB78042B01D100F031F900BF80BD00BF69
:102E40002C01002076010020AE0100207501002039
:102E50002402002080B400AF01231846BD465DF86F
:102E6000047B704780B582B000AF7860396003F0B2
:102E70006FF8034616221A604FF0FF3318460837E2
:102E8000BD4680BD80B582B000AF78604FF0FF31A5
:102E90007868FFF7E7FFFEE780B586B000AFF8601F
:102EA000B9607A6000237B610AE0AFF300800146DD
:102EB000BB685A1CBA60CAB21A707B6901337B6165
:102EC0007A697B689A42F0DB7B6818461837BD4602
:102ED00080BD80B586B000AFF860B9607A6000232D
:102EE0007B6109E0BB685A1CBA601B781846AFF3D7
:102EF00000807B6901337B617A697B689A42F1DBF0
:102F00007B6818461837BD4680BD80B483B000AFDB
:102F100078604FF0FF3318460C37BD465DF8047BF0
:102F2000704780B483B000AF786039603B684FF47D
:102F300000525A60002318460C37BD465DF8047BEA
:102F4000704780B483B000AF7860012318460C3717
:102F5000BD465DF8047B704780B485B000AFF86073
:102F6000B9607A60002318461437BD465DF8047BCB
:102F70007047000080B586B000AF7860144A154BEA
:102F8000D31A7B617B693B61134B1B68002B02D119
:102F9000114B124A1A60104B1A687B6813443A6945
:102FA0009A4207D202F0D4FF03460C221A604FF077
:102FB000FF3309E0084B1B68FB60074B1A687B680E
:102FC0001344054A1360FB6818461837BD4680BD98
:102FD00000000120000400004402002080020020C4
:102FE00080B483B000AF78600B467B807B681A6941
:102FF0007B8822FA03F303F00103002B01D10123A4
:1030000000E0002318460C37BD465DF8047B70478E
:1030100080B584B000AF03463960FB711346BB80B6
:103020000023FB730023BB7300237B730023FB731C
:1030300012E03B681A69BB881340002B03D1BB7BAD
:103040000133BB7302E07B7B01337B73012000F013
:103050008BF9FB7B0133FB73FA7BFB799A42E8D354
:10306000BA7B7B7B9A4201D9012300E000231846FA
:103070001037BD4680BD000080B400AF064BD3F8CA
:103080008830054A43F47003C2F8883000BFBD465B
:103090005DF8047B704700BF00ED00E080B500AF35
:1030A00000224FF48061604801F0FAFA00224FF4E8
:1030B00000615D4801F0F4FA00224FF480515A4853
:1030C00001F0EEFA00224FF40041574801F0E8FA0F
:1030D00000220421554801F0E3FA00220821534858
:1030E00001F0DEFA00221021504801F0D9FA002246
:1030F00020214E4801F0D4FA00224FF480714B4851
:1031000001F0CEFA00224FF40071484801F0C8FAED
:103110000121454801F0ACFA0346002B06D10122FB
:103120004FF48061404801F0BBFA7BE002213E4849
:1031300001F09EFA0346002B06D101224FF40061F4
:10314000394801F0ADFA6DE00421374801F090FAFA
:103150000346002B06D101224FF48051324801F082
:103160009FFA5FE00821304801F082FA0346002B05
:1031700006D101224FF400412B4801F091FA51E0B1
:103180001021294801F074FA0346002B05D10122D1
:103190000421264801F084FA44E02021224801F06D
:1031A00067FA0346002B05D1012208211F4801F0D0
:1031B00077FA37E040211C4801F05AFA0346002B09
:1031C00005D101221021194801F06AFA2AE0802174
:1031D000154801F04DFA0346002B05D101222021AC
:1031E000124801F05DFA1DE04FF480710E4801F0C5
:1031F0003FFA0346002B06D101224FF480710B48A1
:1032000001F04EFA0EE04FF40071074801F030FA79
:103210000346002B06D101224FF40071034801F050
:103220003FFAFFE700BF80BD0000024000040240FB
:10323000DFF834D00D480E490E4A002302E0D4587E
:10324000C4500433C4188C42F9D30B4A0B4C0023EE
:1032500001E013600432A242FBD3FFF70DFF02F03E
:103260007DFEFEF7E9FF704700000120000000200E
:1032700074000020B4720008740000207C0200205A
:10328000FEE7000080B500AF0E4B1B680D4A43F40B
:10329000007313600B4B1B680A4A43F4806313608E
:1032A000084B1B68074A43F480731360032000F047
:1032B00031FD002000F008F8FFF77EFC00231846DF
:1032C00080BD00BF003C024080B582B000AF786096
:1032D000124B1A68124B1B7819464FF47A73B3FBE2
:1032E000F1F3B2FBF3F3184600F049FD0346002B5F
:1032F00001D001230EE07B680F2B0AD800227968E9
:103300004FF0FF3000F011FD064A7B681360002388
:1033100000E0012318460837BD4680BD04000020A8
:103320000C0000200800002080B400AF064B1B7882
:103330001A46064B1B681344044A136000BFBD467F
:103340005DF8047B704700BF0C000020480200209D
:1033500080B400AF034B1B681846BD465DF8047B84
:10336000704700BF4802002080B584B000AF78608D
:10337000FFF7EEFFB8607B68FB60FB68B3F1FF3FCF
:1033800005D00A4B1B781A46FB681344FB6000BF4C
:10339000FFF7DEFF0246BB68D31AFA689A42F7D8F5
:1033A00000BF00BF1037BD4680BD00BF0C0000202D
:1033B00080B584B000AF78600023FB737B68002B7E
:1033C00001D1012333E07B681B6C002B09D17868A5
:1033D000FFF71AFC7B6800225A647B68002283F89E
:1033E0003C207B681B6C03F01003002B18D17B681A
:1033F0001B6C23F4885323F0020343F002027B6822
:103400001A64786800F0BAFA7B6800225A647B6814
:103410001B6C23F0030343F001027B681A6401E094
:103420000123FB737B68002283F83C20FB7B18465A
:103430001037BD4680BD000080B485B000AF786015
:103440000023BB607B6893F83C30012B01D1022341
:1034500097E07B68012283F83C207B681B689B68AF
:1034600003F00103012B18D07B681B689A687B6806
:103470001B6842F001029A60454B1B68454AA2FB5B
:1034800003239A0C13465B001344BB6002E0BB6845
:10349000013BBB60BB68002BF9D17B681B689B6854
:1034A00003F00103012B5FD17B681B6C23F4E06305
:1034B00023F0010343F480727B681A647B681B6805
:1034C0005B6803F48063002B07D07B681B6C23F4DC
:1034D000405343F480527B681A647B681B6C03F48E
:1034E0008053B3F5805F06D17B685B6C23F00602E6
:1034F0007B685A6402E07B6800225A647B68002281
:1035000083F83C20244BFB607B681B686FF0220231
:103510001A60FB685B6803F01F03002B0FD17B6808
:103520001B689B6803F04053002B29D17B681B6804
:103530009A687B681B6842F080429A6020E07B6852
:103540001B68164A93421BD17B681B689B6803F07B
:103550004053002B14D17B681B689A687B681B68FA
:1035600042F080429A600BE07B681B6C43F01002D3
:103570007B681A647B685B6C43F001027B685A6469
:10358000002318461437BD465DF8047B704700BF22
:103590000400002083DE1B43002301400020014083
:1035A00080B483B000AF78607B6893F83C30012B27
:1035B00001D1022321E07B68012283F83C207B6853
:1035C0001B689A687B681B6822F001029A607B681E
:1035D0001B689B6803F00103002B09D17B681B6CFF
:1035E00023F4885323F0010343F001027B681A643B
:1035F0007B68002283F83C20002318460C37BD4628
:103600005DF8047B704780B584B000AF78603960A6
:103610000023FB607B681B689B6803F48063B3F541
:10362000806F13D17B681B689B6803F48073B3F5CC
:10363000807F0BD17B681B6C43F020027B681A648F
:103640007B68002283F83C20012363E0FFF780FEC3
:10365000F86021E03B68B3F1FF3F1DD03B68002BD1
:1036600007D0FFF775FE0246FB68D31A3A689A4204
:1036700012D27B681B681B6803F00203022B0BD07D
:103680007B681B6C43F004027B681A647B68002231
:1036900083F83C2003233DE07B681B681B6803F034
:1036A0000203022BD6D17B681B686FF012021A60EE
:1036B0007B681B6C43F400727B681A647B681B6830
:1036C0009B6803F04053002B23D17B681B7E002BAB
:1036D0001FD17B681B68DB6A03F47003002B06D0E4
:1036E0007B681B689B6803F48063002B11D17B68A7
:1036F0001B6C23F480727B681A647B681B6C03F478
:103700008053002B05D17B681B6C43F001027B6862
:103710001A64002318461037BD4680BD80B483B0BC
:1037200000AF78607B681B68DB6C18460C37BD46C1
:103730005DF8047B7047000080B485B000AF78600E
:1037400039600023BB607B6893F83C30012B01D1CA
:10375000022305E17B68012283F83C203B681B685B
:10376000092B25D97B681B68D9683B681B689BB20D
:103770001A4613465B0013441E3B072202FA03F36A
:10378000DA437B681B680A40DA607B681B68D9688B
:103790003B689A683B681B689BB2184603465B000F
:1037A00003441E3B9A407B681B680A43DA6022E0B0
:1037B0007B681B6819693B681B689BB21A461346F5
:1037C0005B001344072202FA03F3DA437B681B68A9
:1037D0000A401A617B681B6819693B689A683B68F4
:1037E0001B689BB2184603465B0003449A407B6803
:1037F0001B680A431A613B685B68062B24D87B6808
:103800001B68596B3B685A6813469B001344053B81
:103810001F2202FA03F3DA437B681B680A405A63EB
:103820007B681B68596B3B681B689BB218463B68FA
:103830005A6813469B001344053B00FA03F27B6869
:103840001B680A435A634CE03B685B680C2B24D826
:103850007B681B68196B3B685A6813469B001344CE
:10386000233B1F2202FA03F3DA437B681B680A40FA
:103870001A637B681B68196B3B681B689BB2184610
:103880003B685A6813469B001344233B00FA03F23B
:103890007B681B680A431A6323E07B681B68D96A4C
:1038A0003B685A6813469B001344413B1F2202FAAF
:1038B00003F3DA437B681B680A40DA627B681B68A3
:1038C000D96A3B681B689BB218463B685A68134626
:1038D0009B001344413B00FA03F27B681B680A43D8
:1038E000DA62224BFB607B681B68214A934209D154
:1038F0003B681B68122B05D1FB685B6843F48002B0
:10390000FB685A607B681B68194A934223D13B6865
:103910001B68102B03D03B681B68112B1BD1FB6865
:103920005B6843F40002FB685A603B681B68102B1D
:1039300011D1104B1B68104AA2FB03239A0C1346AB
:103940009B0013445B00BB6002E0BB68013BBB60B3
:10395000BB68002BF9D17B68002283F83C20002350
:1039600018461437BD465DF8047B704700230140BC
:10397000002001400400002083DE1B4380B485B09A
:1039800000AF7860794BFB60FB685B6823F44032E2
:10399000FB685A60FB685A687B685B681A43FB687F
:1039A0005A607B681B685A687B681B6822F48072C7
:1039B0005A607B681B6859687B681B691A027B68C0
:1039C0001B680A435A607B681B685A687B681B68DF
:1039D00022F040725A607B681B6859687B689A685D
:1039E0007B681B680A435A607B681B689A687B681F
:1039F0001B6822F400629A607B681B6899687B6888
:103A0000DA687B681B680A439A607B689B6A584A3D
:103A1000934222D07B681B689A687B681B6822F0FF
:103A200070629A607B681B6899687B689A6A7B6899
:103A30001B680A439A607B681B689A687B681B68EE
:103A400022F040529A607B681B6899687B68DA6A4A
:103A50007B681B680A439A600FE07B681B689A6862
:103A60007B681B6822F070629A607B681B689A68AA
:103A70007B681B6822F040529A607B681B689A68DA
:103A80007B681B6822F002029A607B681B68996859
:103A90007B681B7E5A007B681B680A439A607B68C0
:103AA00093F82030002B1BD07B681B685A687B681A
:103AB0001B6842F400625A607B681B685A687B6826
:103AC0001B6822F460425A607B681B6859687B68F7
:103AD0005B6A013B5A037B681B680A435A6007E034
:103AE0007B681B685A687B681B6822F400625A6016
:103AF0007B681B68DA6A7B681B6822F47002DA62F2
:103B00007B681B68D96A7B68DB69013B1A057B68A7
:103B10001B680A43DA627B681B689A687B681B68CB
:103B200022F400729A607B681B6899687B6893F83E
:103B300030305A027B681B680A439A607B681B68B6
:103B40009A687B681B6822F480629A607B681B68B5
:103B500099687B685B699A027B681B680A439A6074
:103B600000BF1437BD465DF8047B70470023014059
:103B70000100000F80B485B000AF78607B6803F06F
:103B80000703FB600C4BDB68BB60BA684FF6FF03B2
:103B90001340BB60FB681A02BB68134343F0BF636A
:103BA00043F40033BB60044ABB68D36000BF1437E2
:103BB000BD465DF8047B704700ED00E080B400AFC7
:103BC000044BDB681B0A03F007031846BD465DF88B
:103BD000047B704700ED00E080B483B000AF034683
:103BE000FB7197F90730002B0BDBFB7903F01F0209
:103BF000074997F907305B09012000FA02F241F802
:103C0000232000BF0C37BD465DF8047B704700BF22
:103C100000E100E080B483B000AF03463960FB717F
:103C200097F90730002B0ADB3B68DAB20C4997F9A9
:103C300007301201D2B20B4483F800230AE03B683C
:103C4000DAB20849FB7903F00F03043B1201D2B248
:103C50000B441A7600BF0C37BD465DF8047B7047F5
:103C600000E100E000ED00E080B489B000AFF86052
:103C7000B9607A60FB6803F00703FB61FB69C3F17D
:103C80000703042B28BF0423BB61FB690433062B05
:103C900002D9FB69033B00E000237B614FF0FF3258
:103CA000BB6902FA03F3DA43BB681A407B699A40A6
:103CB0004FF0FF317B6901FA03F3D9437B680B4076
:103CC000134318462437BD465DF8047B7047000057
:103CD00080B582B000AF78607B68013BB3F1807F34
:103CE00001D301230FE00A4A7B68013B53600F2197
:103CF0004FF0FF30FFF78EFF054B00229A60044B18
:103D000007221A60002318460837BD4680BD00BF51
:103D100010E000E080B582B000AF78607868FFF70F
:103D200029FF00BF0837BD4680BD80B586B000AF13
:103D30000346B9607A60FB7300237B61FFF73EFFA7
:103D400078617A68B9687869FFF78EFF024697F95B
:103D50000F3011461846FFF75DFF00BF1837BD460C
:103D600080BD80B582B000AF0346FB7197F9073084
:103D70001846FFF731FF00BF0837BD4680BD80B54C
:103D800082B000AF78607868FFF7A2FF034618465C
:103D90000837BD4680BD000080B586B000AFF86032
:103DA000B960C7E900230123FB75234B1B7E012B60
:103DB00001D102233BE0204B01221A764CF2503015
:103DC00000F070F80346FB75FB7D002B2BD1FB68E0
:103DD000002B05D13B781946B86800F01BF916E0B6
:103DE000FB68012B05D13B881946B86800F0EEF856
:103DF0000DE0FB68022B05D13B681946B86800F05E
:103E0000C3F804E0D7E90023B86800F08BF84CF25F
:103E1000503000F047F80346FB75084B1B69074A12
:103E200023F001031361044B00221A76FB7D184630
:103E30001837BD4680BD00BF4C020020003C024048
:103E400080B483B000AF0023FB710B4B1B69002BC8
:103E50000BDA094B094A5A60074B094A5A60064B6C
:103E60001B69002B01DA0123FB71FB7918460C3723
:103E7000BD465DF8047B7047003C02402301674566
:103E8000AB89EFCD80B400AF054B1B69044A43F00A
:103E90000043136100231846BD465DF8047B70475C
:103EA000003C024080B584B000AF78600023FB6026
:103EB0001A4B0022DA61FFF74BFAF86010E07B68DA
:103EC000B3F1FF3F0CD07B68002B07D0FFF740FA1F
:103ED0000246FB68D31A7A689A4201D2032319E09A
:103EE0000F4BDB6803F48033002BE8D10C4BDB680D
:103EF00003F00103002B02D0094B0122DA60084BCA
:103F0000DB6803F4F973002B03D000F0A5F801235C
:103F100000E0002318461037BD4680BD4C0200204B
:103F2000003C024080B485B000AFF860C7E90023D0
:103F3000144B1B69134A23F440731361114B1B6923
:103F4000104A43F4407313610E4B1B690D4A43F052
:103F500001031361FB683A681A60BFF36F8F00BFFB
:103F6000D7E900014FF000024FF000030A000023E0
:103F7000F968043113460B6000BF1437BD465DF885
:103F8000047B7047003C024080B483B000AF78608F
:103F900039600D4B1B690C4A23F4407313610A4BC3
:103FA0001B69094A43F400731361074B1B69064AF6
:103FB00043F0010313617B683A681A6000BF0C3755
:103FC000BD465DF8047B7047003C024080B483B07E
:103FD00000AF78600B467B800D4B1B690C4A23F4C5
:103FE000407313610A4B1B69094A43F480731361E0
:103FF000074B1B69064A43F0010313617B687A880B
:104000001A8000BF0C37BD465DF8047B704700BFC7
:10401000003C024080B483B000AF78600B46FB7078
:104020000C4B1B690B4A23F440731361094B094A7B
:104030001B691361074B1B69064A43F001031361B7
:104040007B68FA781A7000BF0C37BD465DF8047BB8
:10405000704700BF003C024080B400AF2F4BDB68CC
:1040600003F01003002B08D02D4BDB6943F0100345
:104070002B4AD361294B1022DA60284BDB6803F00E
:104080002003002B08D0264BDB6943F00803244AA9
:10409000D361224B2022DA60204BDB6803F040031F
:1040A000002B08D01E4BDB6943F004031C4AD3618C
:1040B0001A4B4022DA60194BDB6803F08003002BB7
:1040C00008D0174BDB6943F00203154AD361134B49
:1040D0008022DA60114BDB6803F48073002B09D077
:1040E0000F4BDB6943F001030D4AD3610B4B4FF4D7
:1040F0008072DA60094BDB6803F00203002B08D002
:10410000074BDB6943F02003054AD361034B0222CE
:10411000DA6000BFBD465DF8047B7047003C02409A
:104120004C02002080B584B000AF78603960012374
:10413000FB730023BB60314B1B7E012B01D102239B
:1041400058E02E4B01221A764CF25030FFF7AAFEAF
:104150000346FB73FB7B002B48D13B684FF0FF32DB
:104160001A607B681B68012B15D17B681B69DAB26A
:104170007B685B681946104600F044F84CF25030FA
:10418000FFF790FE0346FB731D4B1B691C4A23F08F
:104190000403136128E07B689B68BB601CE07B68BC
:1041A0001B69DBB21946B86800F050F84CF2503089
:1041B000FFF778FE0346FB73114B1B69104A23F08F
:1041C000FA031361FB7B002B03D03B68BA681A60CB
:1041D0000AE0BB680133BB607B68DA687B689B6878
:1041E0001344BA689A42DAD300F078F8034B0022FD
:1041F0001A76FB7B18461037BD4680BD4C02002066
:10420000003C024080B483B000AF03463960FB71CC
:104210000D4B1B690C4A23F4407313610A4B1B6955
:10422000094A43F004031361074B1A69FB791B0227
:104230001343054A43F48033136100BF0C37BD4676
:104240005DF8047B704700BF003C024080B485B03D
:1042500000AF78600B46FB700023FB60FB78002BFF
:1042600002D10023FB6010E0FB78012B03D14FF457
:104270008073FB6009E0FB78022B03D14FF40073DD
:10428000FB6002E04FF44073FB60134B1B69124A62
:1042900023F440731361104B1A690F49FB681343F1
:1042A0000B610D4B1B690C4A23F0F80313610A4B99
:1042B0001A697B68DB001343074A43F0020313616A
:1042C000054B1B69044A43F48033136100BF143764
:1042D000BD465DF8047B7047003C024080B400AFEF
:1042E000204B1B6803F40073002B17D01D4B1B6879
:1042F0001C4A23F4007313601A4B1B68194A43F4D9
:1043000000631360174B1B68164A23F400631360A5
:10431000144B1B68134A43F400731360114B1B6862
:1043200003F48063002B17D00E4B1B680D4A23F457
:10433000806313600B4B1B680A4A43F4805313607D
:10434000084B1B68074A23F480531360054B1B6816
:10435000044A43F48063136000BFBD465DF8047BEC
:10436000704700BF003C024080B489B000AF786065
:10437000396000237B6100233B610023BB61002384
:10438000FB6159E10122FB6902FA03F37B613B689F
:104390001B687A6913403B613A697B699A4240F035
:1043A00048813B685B6803F00303012B05D03B6841
:1043B0005B6803F00303022B30D17B689B68BB6111
:1043C000FB695B00032202FA03F3DB43BA69134083
:1043D000BB613B68DA68FB695B0002FA03F3BA6908
:1043E0001343BB617B68BA699A607B685B68BB6199
:1043F0000122FB6902FA03F3DB43BA691340BB6194
:104400003B685B681B0903F00102FB6902FA03F3D6
:10441000BA691343BB617B68BA695A603B685B68E1
:1044200003F00303032B17D07B68DB68BB61FB69D8
:104430005B00032202FA03F3DB43BA691340BB615A
:104440003B689A68FB695B0002FA03F3BA6913439D
:10445000BB617B68BA69DA603B685B6803F00303A1
:10446000022B23D1FB69DA087B68083253F822302B
:10447000BB61FB6903F007039B000F2202FA03F301
:10448000DB43BA691340BB613B681A69FB6903F0FF
:1044900007039B0002FA03F3BA691343BB61FB698C
:1044A000DA087B680832B96943F822107B681B6818
:1044B000BB61FB695B00032202FA03F3DB43BA69C9
:1044C0001340BB613B685B6803F00302FB695B0060
:1044D00002FA03F3BA691343BB617B68BA691A60D5
:1044E0003B685B6803F44033002B00F0A28000239C
:1044F000FB60574B5B6C564A43F480435364544B08
:104500005B6C03F48043FB60FB68524AFB699B08C9
:10451000023352F82330BB61FB6903F003039B00B5
:104520000F2202FA03F3DB43BA691340BB617B68D5
:10453000494A934219D07B68484A934213D07B681A
:10454000474A93420DD07B68464A934207D07B6826
:10455000454A934201D1042308E0072306E00323E0
:1045600004E0022302E0012300E00023FA6902F0E4
:10457000030292009340BA691343BB613549FB695A
:104580009B080233BA6941F82320384B9B68BB6112
:104590003B69DB43BA691340BB613B685B6803F46A
:1045A0008013002B03D0BA693B691343BB612F4AC8
:1045B000BB6993602D4BDB68BB613B69DB43BA6928
:1045C0001340BB613B685B6803F40013002B03D00E
:1045D000BA693B691343BB61244ABB69D360234B6F
:1045E0005B68BB613B69DB43BA691340BB613B68F5
:1045F0005B6803F40033002B03D0BA693B691343B3
:10460000BB611A4ABB695360184B1B68BB613B69AD
:10461000DB43BA691340BB613B685B6803F48033DA
:10462000002B03D0BA693B691343BB610F4ABB69D6
:104630001360FB690133FB61FB690F2B7FF6A2AEB0
:1046400000BF00BF2437BD465DF8047B704700BF44
:1046500000380240003801400000024000040240DF
:1046600000080240000C024000100240003C0140E3
:1046700080B485B000AF78600B467B807B681A6998
:104680007B881340002B02D00123FB7301E0002341
:10469000FB73FB7B18461437BD465DF8047B7047FF
:1046A00080B483B000AF78600B467B8013467B708C
:1046B0007B78002B03D07A887B689A6103E07B8843
:1046C0001A047B689A6100BF0C37BD465DF8047B15
:1046D0007047000080B584B000AF78607B68002B25
:1046E00001D101232BE17B6893F83D30DBB2002B35
:1046F00006D17B68002283F83C207868FEF7C8FA70
:104700007B68242283F83D207B681B681A687B68DD
:104710001B6822F001021A607B681B681A687B68BC
:104720001B6842F400421A607B681B681A687B6849
:104730001B6822F400421A6001F076F9F8607B6889
:104740005B68814A934207D8FB68804A934294BFD2
:1047500001230023DBB206E0FB687D4A934294BF4D
:1047600001230023DBB2002B01D00123E7E0FB682B
:10477000784AA2FB03239B0CBB607B681B685B68C9
:1047800023F03F017B681B68BA680A435A607B6864
:104790001B681B6A23F03F017B685B686A4A93428F
:1047A00002D8BB68013309E0BB684FF4967202FB84
:1047B00003F3694AA2FB03239B0901337A68126859
:1047C0000B4313627B681B68DB6923F44F4222F0C2
:1047D000FF027B685B685C498B4219D8FB68591EF5
:1047E0007B685B685B00B1FBF3F3591C40F6FC731C
:1047F0000B40002B0AD0FB68591E7B685B685B008E
:10480000B1FBF3F30133C3F30B0351E004234FE097
:104810007B689B68002B11D1FB68581E7B68596828
:104820000B465B000B44B0FBF3F30133C3F30B0304
:10483000002B0CBF01230023DBB212E0FB68581EE3
:104840007B6859680B469B000B4499000B44B0FBF6
:10485000F3F30133C3F30B03002B0CBF012300233D
:10486000DBB2002B01D0012322E07B689B68002B88
:104870000ED1FB68581E7B6859680B465B000B44E1
:10488000B0FBF3F30133C3F30B0343F400430FE036
:10489000FB68581E7B6859680B469B000B449900C7
:1048A0000B44B0FBF3F30133C3F30B0343F4404376
:1048B000796809681343CB617B681B681B6823F028
:1048C000C0017B68DA697B681B6A1A437B681B68D6
:1048D0000A431A607B681B689B6823F4034323F038
:1048E000FF037A6811697A68D26811437A6812689E
:1048F0000B4393607B681B68DB6823F0FF017B68D8
:104900005A697B689B691A437B681B680A43DA60B3
:104910007B681B681A687B681B6842F001021A609A
:104920007B6800221A647B68202283F83D207B6824
:1049300000221A637B68002283F83E200023184679
:104940001037BD4680BD00BFA08601007F841E00D9
:10495000FF083D0083DE1B43D34D621080B588B055
:1049600002AFF8607A601A460B467B8113463B81A2
:10497000FEF7EEFC7861FB6893F83D30DBB2202B4C
:1049800040F0E0807B690093192301227049F868A8
:1049900000F092FA0346002B01D00223D3E0FB681B
:1049A00093F83C30012B01D10223CCE0FB680122BB
:1049B00083F83C20FB681B681B6803F00103012B94
:1049C00007D0FB681B681A68FB681B6842F001028D
:1049D0001A60FB681B681A68FB681B6822F4006297
:1049E0001A60FB68212283F83D20FB68102283F8BF
:1049F0003E20FB6800221A64FB687A685A62FB68F2
:104A00003A895A85FB685B8D9AB2FB681A85FB6808
:104A1000504ADA6279897B693A6AF86800F0CAF923
:104A20000346002B01D001238DE000233B61FB688E
:104A30001B685B693B61FB681B689B693B613B6969
:104A400066E07A69396AF86800F00CFB0346002BCF
:104A50000DD0FB681B6C042B07D1FB681B681A6820
:104A6000FB681B6842F400721A6001236BE0FB686C
:104A70005B6A1A78FB681B681A61FB685B6A5A1CE0
:104A8000FB685A62FB685B8D9BB2013B9AB2FB6884
:104A90005A85FB681B8D013B9AB2FB681A85FB683F
:104AA0001B685B6903F00403042B1BD1FB681B8D9F
:104AB000002B17D0FB685B6A1A78FB681B681A61C9
:104AC000FB685B6A5A1CFB685A62FB685B8D9BB291
:104AD000013B9AB2FB685A85FB681B8D013B9AB279
:104AE000FB681A857A69396AF86800F0FCFA0346AF
:104AF000002B0DD0FB681B6C042B07D1FB681B68D7
:104B00001A68FB681B6842F400721A6001231AE0FD
:104B1000FB681B8D002B94D1FB681B681A68FB682F
:104B20001B6842F400721A60FB68202283F83D2063
:104B3000FB68002283F83E20FB68002283F83C20BB
:104B4000002300E0022318461837BD4680BD00BF91
:104B5000020010000000FFFF80B58AB002AFF860CD
:104B60007A603B600B467B81FEF7F2FBF861002325
:104B7000BB61FB6893F83D30DBB2202B40F0118124
:104B8000FB690093192301228849F86800F094F921
:104B90000346002B01D0022304E1FB6893F83C306C
:104BA000012B01D10223FDE0FB68012283F83C20A8
:104BB000FB681B681B6803F00103012B07D0FB682F
:104BC0001B681A68FB681B6842F001021A60FB68E8
:104BD0001B681A68FB681B6822F400621A60FB6895
:104BE000242283F83D20FB6800221A64FB68704A87
:104BF000DA62FB681B681A68FB681B6842F4807203
:104C00001A60FB6900933B6800224FF00111F868BD
:104C100000F052F90346002B0DD0FB681B681B689F
:104C200003F48073B3F5807F03D1FB684FF4007207
:104C30001A640323B6E07B89DBB21A46FB681B6863
:104C400002F0FE021A61FEF783FBF861FB681B6845
:104C50005B6903F00203022B0CBF01230023DBB2CC
:104C6000FB75FB681B685B6903F48063B3F5806FB9
:104C70000CBF01230023DBB2BB7525E0FEF768FB08
:104C80000246FB69D31A3A689A4202D33B68002B6A
:104C900003D1FB68A02283F83D20FB681B685B6999
:104CA00003F00203022B0CBF01230023DBB2FB75D0
:104CB000FB681B685B6903F48063B3F5806F0CBF0E
:104CC00001230023DBB2BB75FB6893F83D30DBB2F8
:104CD000A02B05D0FB7D002B02D1BB7D002BCDD0BE
:104CE000FB68202283F83D20FB681B685B6903F0AA
:104CF0000203022B29D1FB681B681A68FB681B683A
:104D000042F400721A6000233B61FB681B685B6918
:104D10003B61FB681B689B693B613B69FB690093D6
:104D2000192301222149F86800F0C6F80346002B38
:104D300001D0012336E0FB68202283F83D20FB6888
:104D4000002283F83C2000232CE0FB681B681A68D3
:104D5000FB681B6842F400721A60FB681B686FF402
:104D600080625A61FB690093192301220F49F86898
:104D700000F0A2F80346002B01D0012312E0BB692A
:104D80000133BB61BA697B689A42FFF432AFFB68BA
:104D9000202283F83D20FB68002283F83C20012379
:104DA00000E0022318462037BD4680BD02001000F7
:104DB0000000FFFF80B588B002AFF8607A603B600A
:104DC0000B467B81FB68DB6A7B617B69082B06D025
:104DD0007B69012B03D07B6913F5803F08D1FB6809
:104DE0001B681A68FB681B6842F480721A600BE04B
:104DF000FB681B6B122B07D1FB681B681A68FB68EA
:104E00001B6842F480721A603B6800937B68002242
:104E10004FF00111F86800F04FF80346002B0DD059
:104E2000FB681B681B6803F48073B3F5807F03D1B4
:104E3000FB684FF400721A64032335E0FB681B69BA
:104E4000B3F5804F08D17B89DBB21A46FB681B683B
:104E500002F0FE021A611BE07B89DB11DBB203F07A
:104E60000603DBB263F00F03DAB2FB681B681A615A
:104E70003B687A680E49F86800F075F80346002B25
:104E800001D0012310E07B89DAB2FB681B681A614C
:104E90003B687A680749F86800F065F80346002B1C
:104EA00001D0012300E0002318461837BD4680BD1D
:104EB000080001000200010080B584B000AFF86076
:104EC000B9603B601346FB7125E03B68B3F1FF3FDF
:104ED00021D0FEF73DFA0246BB69D31A3A689A42DE
:104EE00002D33B68002B16D1FB6800221A63FB68D3
:104EF000202283F83D20FB68002283F83E20FB68D7
:104F00001B6C43F02002FB681A64FB68002283F8E4
:104F10003C20012323E0BB681B0CDBB2012B0DD12D
:104F2000FB681B685B69DA43BB6813409BB2002BCC
:104F30000CBF01230023DBB21A460CE0FB681B68A0
:104F40009B69DA43BB6813409BB2002B0CBF012363
:104F50000023DBB21A46FB799A42B6D000231846EA
:104F60001037BD4680BD80B584B000AFF860B96031
:104F70007A603B6051E0FB681B685B6903F4806307
:104F8000B3F5806F23D1FB681B681A68FB681B6848
:104F900042F400721A60FB681B686FF480625A6109
:104FA000FB6800221A63FB68202283F83D20FB681F
:104FB000002283F83E20FB681B6C43F00402FB6870
:104FC0001A64FB68002283F83C20012346E07B68DA
:104FD000B3F1FF3F21D0FEF7BBF902463B68D31A7D
:104FE0007A689A4202D37B68002B16D1FB680022B4
:104FF0001A63FB68202283F83D20FB68002283F8B7
:105000003E20FB681B6C43F02002FB681A64FB68BF
:10501000002283F83C20012320E0BB681B0CDBB29C
:10502000012B0CD1FB681B685B69DA43BB6813403A
:105030009BB2002B14BF01230023DBB20BE0FB6803
:105040001B689B69DA43BB6813409BB2002B14BFFB
:1050500001230023DBB2002B8DD10023184610372B
:10506000BD4680BD80B584B000AFF860B9607A609D
:105070002DE0F86800F078F80346002B01D00123FA
:105080002DE0BB68B3F1FF3F21D0FEF761F9024686
:105090007B68D31ABA689A4202D3BB68002B16D138
:1050A000FB6800221A63FB68202283F83D20FB681E
:1050B000002283F83E20FB681B6C43F02002FB6853
:1050C0001A64FB68002283F83C20012307E0FB6898
:1050D0001B685B6903F08003802BCAD1002318464C
:1050E0001037BD4680BD80B584B000AFF860B960B0
:1050F0007A602DE0F86800F037F80346002B01D005
:1051000001232DE0BB68B3F1FF3F21D0FEF720F96A
:1051100002467B68D31ABA689A4202D3BB68002B56
:1051200016D1FB6800221A63FB68202283F83D2019
:10513000FB68002283F83E20FB681B6C43F02002D2
:10514000FB681A64FB68002283F83C20012307E017
:10515000FB681B685B6903F00403042BCAD10023BE
:1051600018461037BD4680BD80B483B000AF78606C
:105170007B681B685B6903F48063B3F5806F1BD1A8
:105180007B681B686FF480625A617B6800221A6337
:105190007B68202283F83D207B68002283F83E2034
:1051A0007B681B6C43F004027B681A647B680022F6
:1051B00083F83C20012300E0002318460C37BD464D
:1051C0005DF8047B7047000080B586B000AF786062
:1051D0007B68002B01D1012367E27B681B6803F029
:1051E0000103002B75D0884B9B6803F00C03042B44
:1051F0000CD0854B9B6803F00C03082B12D1824B1B
:105200005B6803F48003B3F5800F0BD17E4B1B6802
:1052100003F40033002B5BD07B685B68002B57D115
:10522000012342E27B685B68B3F5803F06D1764B91
:105230001B68754A43F4803313601DE07B685B682C
:10524000B3F5A02F0CD1704B1B686F4A43F4802339
:1052500013606D4B1B686C4A43F4803313600BE0A2
:10526000694B1B68684A23F480331360664B1B68E4
:10527000654A23F4802313607B685B68002B13D09E
:10528000FEF766F8386108E0FEF762F802463B690F
:10529000D31A642B01D9032307E25B4B1B6803F489
:1052A0000033002BF0D014E0FEF752F8386108E02C
:1052B000FEF74EF802463B69D31A642B01D903234B
:1052C000F3E1514B1B6803F40033002BF0D100E0F5
:1052D00000BF7B681B6803F00203002B63D04A4BBE
:1052E0009B6803F00C03002B0BD0474B9B6803F02B
:1052F0000C03082B1CD1444B5B6803F48003002B88
:1053000016D1414B1B6803F00203002B05D07B68CC
:10531000DB68012B01D00123C7E13B4B1B6823F065
:10532000F8027B681B69DB00374913430B603AE0E6
:105330007B68DB68002B20D0344B01221A60FEF71B
:1053400007F8386108E0FEF703F802463B69D31A14
:10535000022B01D90323A8E12B4B1B6803F00203A6
:10536000002BF0D0284B1B6823F0F8027B681B69E8
:10537000DB00254913430B6015E0244B00221A6023
:10538000FDF7E6FF386108E0FDF7E2FF02463B6902
:10539000D31A022B01D9032387E11B4B1B6803F0AF
:1053A0000203002BF0D17B681B6803F00803002B7D
:1053B00036D07B685B69002B16D0154B01221A6032
:1053C000FDF7C6FF386108E0FDF7C2FF02463B6902
:1053D000D31A022B01D9032367E10B4B5B6F03F058
:1053E0000203002BF0D01BE0094B00221A60FDF7EE
:1053F000AFFF38610EE0FDF7ABFF02463B69D31A01
:10540000022B07D9032350E1003802400000474235
:10541000800E4742884B5B6F03F00203002BEAD1FA
:105420007B681B6803F00403002B00F097800023C7
:10543000FB75814B1B6C03F08053002B0FD10023B5
:10544000BB607D4B1B6C7C4A43F0805313647A4BEA
:105450001B6C03F08053BB60BB680123FB75774B6B
:105460001B6803F48073002B18D1744B1B68734ABC
:1054700043F480731360FDF76BFF386108E0FDF7BC
:1054800067FF02463B69D31A022B01D903230CE1C3
:105490006A4B1B6803F48073002BF0D07B689B6819
:1054A000012B06D1644B1B6F634A43F00103136762
:1054B0001CE07B689B68052B0CD15F4B1B6F5E4A21
:1054C00043F0040313675C4B1B6F5B4A43F001031B
:1054D00013670BE0584B1B6F574A23F00103136708
:1054E000554B1B6F544A23F0040313677B689B687A
:1054F000002B15D0FDF72CFF38610AE0FDF728FFDF
:1055000002463B69D31A41F28832934201D9032300
:10551000CBE0494B1B6F03F00203002BEED014E0ED
:10552000FDF716FF38610AE0FDF712FF02463B69FE
:10553000D31A41F28832934201D90323B5E03E4B9E
:105540001B6F03F00203002BEED1FB7D012B05D175
:10555000394B1B6C384A23F0805313647B689B697A
:10556000002B00F0A180344B9B6803F00C03082B48
:105570005CD07B689B69022B41D1314B00221A60C1
:10558000FDF7E6FE386108E0FDF7E2FE02463B6902
:10559000D31A022B01D9032387E0274B1B6803F0A2
:1055A0000073002BF0D17B68DA697B681B6A1A43B1
:1055B0007B685B6A9B011A437B689B6A5B08013BC3
:1055C0001B041A437B68DB6A1B061B4913434B60B1
:1055D0001B4B01221A60FDF7BBFE386108E0FDF7A6
:1055E000B7FE02463B69D31A022B01D903235CE0C4
:1055F000114B1B6803F00073002BF0D054E0104BEC
:1056000000221A60FDF7A4FE386108E0FDF7A0FE55
:1056100002463B69D31A022B01D9032345E0064B0E
:105620001B6803F00073002BF0D13DE07B689B69A1
:10563000012B07D1012338E0003802400070004000
:10564000600047421B4B5B68FB607B689B69012BDA
:1056500028D0FB6803F480027B68DB699A4221D181
:10566000FB6803F03F027B681B6A9A421AD1FA6812
:1056700047F6C07313407A68526A9201934211D17F
:10568000FB6803F440327B689B6A5B08013B1B04A8
:105690009A4207D1FB6803F070627B68DB6A1B06E5
:1056A0009A4201D0012300E0002318461837BD4676
:1056B00080BD00BF0038024080B584B000AF786084
:1056C00039607B68002B01D10123CCE0684B1B685B
:1056D00003F007033A689A420CD9654B3A68D2B294
:1056E0001A70634B1B6803F007033A689A4201D0B3
:1056F0000123B8E07B681B6803F00203002B20D075
:105700007B681B6803F00403002B05D0594B9B6892
:10571000584A43F4E05393607B681B6803F0080326
:10572000002B05D0534B9B68524A43F4604393606F
:10573000504B9B6823F0F0027B689B684D491343F4
:105740008B607B681B6803F00103002B44D07B68EF
:105750005B68012B07D1474B1B6803F40033002B18
:1057600019D101237FE07B685B68022B03D07B6843
:105770005B68032B07D13F4B1B6803F00073002BC2
:1057800009D101236FE03B4B1B6803F00203002BA0
:1057900001D1012367E0374B9B6823F003027B684C
:1057A0005B68344913438B60FDF7D2FDF8600AE073
:1057B000FDF7CEFD0246FB68D31A41F288329342D0
:1057C00001D903234FE02B4B9B6803F00C027B684D
:1057D0005B689B009A42EBD1254B1B6803F00703E3
:1057E0003A689A420CD2224B3A68D2B21A70204BD5
:1057F0001B6803F007033A689A4201D0012332E0A4
:105800007B681B6803F00403002B08D0194B9B68CE
:1058100023F4E0527B68DB68164913438B607B6896
:105820001B6803F00803002B09D0124B9B6823F47C
:1058300060427B681B69DB000E4913438B6000F0FC
:1058400021F802460B4B9B681B0903F00F030A4922
:10585000CB5C22FA03F3094A1360094B1B68184614
:10586000FDF732FD002318461037BD4680BD00BF4E
:10587000003C02400038024044710008040000204F
:10588000080000202DE9B04F90B000AF00237B63EB
:105890000023FB6300233B630023BB63594B9B68DE
:1058A00003F00C03082B0DD0082B00F2A180002B75
:1058B00002D0042B03D09BE0534BBB639BE0534BC4
:1058C000BB6398E04F4B5B6803F03F037B634D4B3A
:1058D0005B6803F48003002B28D04A4B5B689B096C
:1058E00000223B627A623B6AC3F308000021474B07
:1058F00003FB01F2002300FB03F31344434AA0FB24
:105900000212FA620A46BA62FA6A1344FB627B6BBD
:105910000022BB61FA61D7E90623D7E90A01FAF749
:10592000AFFC02460B461346FB6353E0354B5B6806
:105930009B0900223B617A613B69C3F3080A4FF07F
:10594000000B52465B464FF000004FF0000159013A
:1059500041EAD261500102460B46B2EB0A0863EB02
:105960000B094FF000024FF000034FEA891343EA9E
:1059700098634FEA8812B2EB080463EB09054FF015
:1059800000024FF00003EB0043EA5473E2001446B8
:105990001D4614EB0A033B6045EB0B037B604FF0A5
:1059A00000024FF00003D7E9004529468B0221464B
:1059B00043EA915321468A02104619467B6B002226
:1059C000BB60FA60D7E90223FAF75AFC02460B469D
:1059D0001346FB630B4B5B681B0C03F003030133A3
:1059E0005B003B63FA6B3B6BB2FBF3F3BB6302E020
:1059F000054BBB6300BFBB6B18464037BD46BDE8D7
:105A0000B08F00BF003802400024F40040787D01D0
:105A100080B400AF034B1B681846BD465DF8047B9D
:105A2000704700BF0400002080B500AFFFF7F0FF13
:105A30000246054B9B689B0A03F007030349CB5CB6
:105A400022FA03F3184680BD003802405471000862
:105A500080B582B000AF78607B68002B01D1012354
:105A600041E07B6893F83D30DBB2002B06D17B68C8
:105A7000002283F83C207868FDF752F97B68022207
:105A800083F83D207B681A687B680433194610460A
:105A900000F0CAF97B68012283F846207B68012266
:105AA00083F83E207B68012283F83F207B68012237
:105AB00083F840207B68012283F841207B68012223
:105AC00083F842207B68012283F843207B6801220F
:105AD00083F844207B68012283F845207B680122FB
