:020000040800F2
:1000000000000120813200081D2E0008232E000868
:10001000292E00082F2E0008352E000800000000B1
:100020000000000000000000000000003B2E00085F
:10003000492E000800000000572E0008652E000819
:10004000D1320008D1320008D1320008D132000884
:10005000D1320008D1320008D1320008D132000874
:10006000D1320008D1320008D1320008D132000864
:10007000D1320008D1320008D1320008D132000854
:10008000D1320008D1320008D1320008000000004F
:10009000000000000000000000000000D132000855
:1000A000D1320008712E0008D1320008D132000888
:1000B000D1320008D1320008D1320008D132000814
:1000C000D1320008D1320008D1320008D132000804
:1000D000D1320008D1320008D132000800000000FF
:1000E000D1320008D1320008D132000800000000EF
:1000F000000000000000000000000000D1320008F5
:1001000000000000D1320008D1320008D1320008CE
:1001100000000000000000000000000000000000DF
:10012000D1320008D1320008D1320008D1320008A3
:10013000D1320008000000000000000000000000B4
:10014000000000000000000000000000D1320008A4
:10015000D1320008D1320008D1320008D132000873
:10016000D1320008D1320008000000000000000079
:10017000000000000000000000000000000000007F
:1001800000000000D1320008000000000000000064
:04019000D132000860
:1001A00010B5054C237833B9044B13B10448AFF3B1
:1001B00000800123237010BD7400002000000000A7
:1001C0005C74000808B5034B1BB103490348AFF347
:1001D000008008BD00000000780000205C7400086A
:1001E00001F0FF01102A2BDB10F0070F08D010F8E8
:1001F000013B013A8B422DD010F0070F42B3F6D1EC
:10020000F0B441EA012141EA014122F007047FF004
:1002100000070023F0E80256083C85EA010586EA5B
:10022000010685FA47F5A3FA87F586FA47F6A5FA97
:1002300087F68EB9EED1F0BC01F0FF0102F00702A3
:1002400032B110F8013B013A83EA010313B1F8D14E
:100250000020704701387047002D06BF354603382F
:10026000073815F0010F07D1013015F4807F02BF68
:10027000013015F4C03F0130F0BC0138704700BFB9
:1002800053B94AB9002908BF00281CBF4FF0FF31FD
:100290004FF0FF3000F06EB9ADF1080C6DE904CEFF
:1002A00000F006F8DDF804E0DDE9022304B0704751
:1002B0002DE9F047089D04468C46002B40F08380D2
:1002C0008A42174647D9B2FA82F242B1C2F12000FF
:1002D00024FA00F09140974040EA010C94404FEA24
:1002E0001748230CBCFBF8F61FFA87FE08FB16C163
:1002F00043EA014306FB0EF1994209D9FB1806F1C6
:10030000FF3080F01981994240F21681023E3B4451
:100310005B1AA4B2B3FBF8F008FB103344EA0344C1
:1003200000FB0EFEA64509D93C1900F1FF3380F011
:100330000581A64540F2028102383C4440EA06406D
:10034000A4EB0E0400261DB1D4400023C5E90043F0
:100350003146BDE8F08702B9FFDEB2FA82F2002A28
:1003600050D1CB1B4FEA174E1FFA87F80126B3FB7B
:10037000FEFC210C0EFB1C3341EA034108FB0CF38D
:100380008B4207D979180CF1FF3002D28B4200F270
:10039000E9808446C91AA3B2B1FBFEF00EFB10112E
:1003A00043EA014408FB00F8A04507D93C1900F1D5
:1003B000FF3302D2A04500F2D9801846A4EB08040E
:1003C00040EA0C40BFE78B4209D9002D00F0B18014
:1003D0000026C5E9000130463146BDE8F087B3FA92
:1003E00083F6002E4AD18B4202D3824200F2B880BB
:1003F000841A61EB030101208C46002DA8D0C5E9C9
:10040000004CA5E7C2F1200320FA03F6974001FA59
:1004100002F04FEA174ED9403043030CB1FBFEF611
:100420001FFA87F80EFB161143EA014306FB08F199
:10043000994204FA02F409D9FB1806F1FF3C80F056
:100440008D80994240F28A80023E3B445B1A81B221
:10045000B3FBFEF00EFB103341EA034100FB08F34F
:100460008B4207D9791800F1FF3C73D28B4271D9C6
:1004700002383944CB1A40EA064678E7C6F1200C28
:1004800003FA06F422FA0CF31C4320FA0CF701FAE3
:1004900006F34FEA144E21FA0CF11F433B0CB1FB5B
:1004A000FEF91FFA84F80EFB191143EA014109FB1A
:1004B00008FA8A4502FA06F200FA06F308D961182A
:1004C00009F1FF3048D28A4546D9A9F102092144F1
:1004D000A1EB0A01BFB2B1FBFEF00EFB101147EA1F
:1004E000014700FB08F8B84507D9E71900F1FF31CB
:1004F0002ED2B8452CD90238274440EA0940A7EB50
:100500000807A0FB02894F45C64649461AD317D0B3
:100510005DB1B3EB0E0267EB010707FA0CFCF2408A
:100520004CEA0202F740C5E9002700263146BDE843
:10053000F0872E4628460BE70646E9E61846FDE614
:100540004345E5D2B8EB020E69EB04010138DFE761
:100550000846D2E760468DE78146B9E7664675E70B
:1005600030464AE7ACF1020C394413E702383C4408
:1005700024E700BF704700BF80B582B000AF78604D
:100580000021002001F004FB084801F037FB0121A5
:10059000002001F0FDFA786801F030FB4FF47A702A
:1005A00002F00AFF00BF0837BD4680BD7474000822
:1005B00080B582B000AF7F48FFF7DEFF00BF02F0DA
:1005C0004BFA03461A4640F2F2339A42F7D840F209
:1005D000DC5002F0F1FE02F03FFA0346BB80BB881C
:1005E00040F2F13293421ED8BB880A2B1BD9FB88FC
:1005F000002B18D14FF4FA7002F0DEFE02F02CFA54
:1006000003461A466C4B1A806B4B1B881946C82050
:1006100002F04CFA0121072001F0BAFA674801F014
:10062000EDFA0123FB80BB8840F2F232934218D9E5
:10063000FB88012B15D10121072001F0A9FA6048A0
:1006400001F0DCFA0023FB8000BF0121002001F053
:100650009FFA5C4801F0D2FA4FF47A7002F0ACFED7
:1006600003E0642002F0A8FEB5E702F0F5F90346C6
:100670001A4640F2F2339A42F7D84FF4FA7002F079
:100680009BFE02F0E9F90346BB80BB8840F2F132E1
:1006900093421ED8BB880A2B1BD9FB88002B18D18C
:1006A0004FF4FA7002F088FE02F0D6F903461A46BB
:1006B000414B5A80404B5B881946142002F0F6F9F2
:1006C0000121072001F064FA3C4801F097FA012368
:1006D000FB80BB8840F2F2329342D2D9FB88012BD7
:1006E000CFD10121072001F053FA354801F086FAF5
:1006F0000023FB8000BF0121002001F049FA3248AD
:1007000001F07CFA4FF47A7002F056FE02F0A4F980
:1007100003461A4640F2F2339A42F7D84FF4FA7081
:1007200002F04AFE02F098F90346BB80BB8840F213
:10073000F13293421ED8BB880A2B1BD9FB88002BB1
:1007400018D14FF4FA7002F037FE02F085F9034633
:100750001A46194BDA80184BDB8819461E2002F026
:10076000A5F90121072001F013FA144801F046FA17
:100770000123FB80BB8840F2F2329342D2D9FB883E
:10078000012BCFD10121072001F002FA0C4801F022
:1007900035FA0123FB8000BF02F05EF903461A46DA
:1007A00040F2F2339A42F7D800BF00BF0837BD4687
:1007B00080BD00BF7C740008F8010020847400082C
:1007C000887400088C7400089474000880B500AF29
:1007D0000021002001F0DCF9294801F00FFA294B33
:1007E0001B78184601F026FA274801F007FA012184
:1007F000002001F0CDF9254801F000FA244801F06D
:10080000FDF9204B5B78184601F014FA01210A200B
:1008100001F0BEF91F4801F0F1F91A4BDB78042B07
:100820002CD801A252F823F03D0800084D0800081A
:100830005D0800085D0800086D08000800210C2014
:1008400001F0A6F9144801F0D9F917E000210C20B5
:1008500001F09EF9114801F0D1F90FE000210C20C0
:1008600001F096F90E4801F0C9F907E000210C20CB
:1008700001F08EF90B4801F0C1F900BF00BF80BD47
:100880009C740008F8000020A4740008A8740008F4
:10089000B0740008B4740008BC740008C074000888
:1008A000C4740008C874000880B582B000AF184B4B
:1008B0001B78184605F0A2FD0023FB7100237B7115
:1008C0001BE005F0C9FD0246124B83FB02135910D1
:1008D000D317C91A0B469B000B44D11A0B46FB7168
:1008E000BA79FB799A42ECD0FB79BB717B790A49E2
:1008F000FA79CA547B7901337B71084B1B787A797A
:100900009A42EDD900BF00BF0837BD4680BD00BF89
:100910003202002067666666C4010020F8000020ED
:1009200080B582B000AF0023FB71292002F05CF893
:1009300003463B6000BF02F08FF80346042BFAD950
:100940004FF47A7002F038FD4EE0FB790133FB7111
:100950000021052001F01CF9644801F04FF9C8207E
:1009600002F02AFD0021052001F012F9604A3B68DF
:1009700013441B78184601F05DF9C82002F01CFDF5
:1009800002F06AF803461A465A4B5B880A3B9A42C1
:1009900010DB02F061F803461A46564B5B880A33B7
:1009A0009A4207DC3B68052B04DC3B6801333B6063
:1009B0000023FB7102F050F803461A464D4B1B888A
:1009C0000A3B9A4210DB02F047F803461A46494BAD
:1009D0001B880A339A4207DC3B68002B04D03B6833
:1009E000013B3B600023FB71FB79042BADD929202F
:1009F00001F0FAFF03461A463B68934205D03B6874
:100A0000DBB21946292002F00BF8394A3B6813443F
:100A10001A78394B1A700023FB71374B5B783B60B7
:100A20004AE0FB790133FB710121072001F0B0F8A6
:100A3000324801F0E3F8962002F0BEFC01210720C5
:100A400001F0A6F8386801F0F5F8962002F0B4FC41
:100A500002F002F803461A46264B5B880A3B9A428C
:100A600010DB01F0F9FF03461A46224B5B880A337C
:100A70009A4207DC3B68082B04DC3B6801333B608F
:100A80000023FB7101F0E8FF03461A46194B1B884F
:100A90000A3B9A4210DB01F0DFFF03461A46154B72
:100AA0001B880A339A4207DC3B68002B04D03B6862
:100AB000013B3B600023FB71FB79042BB1D964201F
:100AC00001F092FF03461A463B68934205D03B680B
:100AD000DBB21946642001F0A3FF3B68DAB2064B93
:100AE0005A7000BF0837BD4680BD00BFCC740008F7
:100AF00010750008F8010020F8000020D0740008EC
:100B000080B500AF0021002001F042F8464801F016
:100B100075F86DE001F0A0FF03461A46434B5B8871
:100B20000A3B9A4212DB01F097FF03461A463F4BFD
:100B30005B880A339A4209DC3D4BDB78032B05D8EE
:100B40003B4BDB780133DAB2394BDA7001F084FFCA
:100B500003461A46354B1B880A3B9A4212DB01F0CA
:100B60007BFF03461A46314B1B880A339A4209DC45
:100B70002F4BDB78002B05D02D4BDB78013BDAB215
:100B80002B4BDA702A4BDB78042B2DD801A252F8BC
:100B900023F000BFA90B0008B90B0008C90B00081F
:100BA000D90B0008C90B000800210C2000F0F0FF51
:100BB000204801F023F817E000210C2000F0E8FFA6
:100BC0001D4801F01BF80FE000210C2000F0E0FFB1
:100BD0001A4801F013F807E000210C2000F0D8FFBC
:100BE000174801F00BF800BF4FF4FA7002F0E4FB75
:100BF00001F032FF0346042B8CD80D4BDB781946ED
:100C0000282001F00DFF01F065F9FFF7DFFD00BFBF
:100C100001F022FF0346042BFAD94FF4967002F03C
:100C2000CBFB00BF80BD00BFD4740008F8010020DA
:100C3000F8000020E4740008E8740008EC74000870
:100C4000F074000880B582B000AF00237B6016E02E
:100C500001224FF480510E4803F062FA4FF496706F
:100C600002F0AAFB00224FF48051094803F058FA21
:100C70004FF4967002F0A0FB7B6801337B607B68C9
:100C8000022BE5DD00BF00BF0837BD4680BD00BFB9
:100C90000004024080B500AF01224FF480510748A4
:100CA00003F03EFA4FF4FA6002F086FB00224FF4A4
:100CB0008051024803F034FA00BF80BD00040240B6
:100CC00080B582B000AF00237B6008E001224FF4C2
:100CD00080510A4803F024FA7B6801337B607B680B
:100CE000074A9342F2D900224FF48051034803F09F
:100CF00017FA00BF0837BD4680BD00BF00040240A0
:100D00009F86010080B582B000AF0346FB71FB797E
:100D1000013B092B00F29B8001A252F823F000BF97
:100D2000490D00085F0D0008750D00088B0D0008C7
:100D3000A10D0008B70D0008CD0D0008E30D000857
:100D4000F90D0008110E00080121434803F0D0F905
:100D50000346002B68D0414B00221A7064E0022148
:100D60003D4803F0C5F90346002B5FD03B4B002202
:100D70001A705BE00421384803F0BAF90346002BEF
:100D800056D0364B00221A7052E00821324803F048
:100D9000AFF90346002B4DD0304B00221A7049E0CA
:100DA00010212D4803F0A4F90346002B44D02B4B0F
:100DB00000221A7040E02021274803F099F90346E9
:100DC000002B3BD0254B00221A7037E040212248EF
:100DD00003F08EF90346002B32D0204B00221A700C
:100DE0002EE080211C4803F083F90346002B29D014
:100DF0001A4B00221A7025E04FF48071164803F058
:100E000077F90346002B1FD0144B00221A701BE009
:100E10004FF40071104803F06BF90346002B15D016
:100E20000E4B00221A7011E000BF10E000BF0EE070
:100E300000BF0CE000BF0AE000BF08E000BF06E012
:100E400000BF04E000BF02E000BF00E000BF00BF41
:100E50000837BD4680BD00BF000002409000002062
:100E600080B500AF5C4B1B79C3F30303DBB21A46BA
:100E7000594B5B789A4242D1574A13796FF3030377
:100E80001371564B1B780133DAB2544B1A7000229F
:100E90004FF48061524803F043F900224FF400619F
:100EA0004F4803F03DF900224FF480514C4803F0C5
:100EB00037F900224FF40041494803F031F900228C
:100EC0000421484803F02CF900220821454803F08A
:100ED00027F900221021434803F022F900222021A3
:100EE000404803F01DF900224FF480713D4803F0A3
:100EF00017F900224FF400713A4803F011F9364B0C
:100F00001A78364B1B789A4213D3374B00221A803B
:100F1000324B1B781A46354B9B5C184600F06EF836
:100F20002E4B1B781A46314B9B5C184600F030F96B
:100F30003DE000224FF48061294803F0F1F80022DF
:100F40004FF40061264803F0EBF800224FF4805183
:100F5000234803F0E5F800224FF40041204803F055
:100F6000DFF8002204211F4803F0DAF800220821EC
:100F70001C4803F0D5F8002210211A4803F0D0F8DD
:100F800000222021174803F0CBF800224FF4807193
:100F9000144803F0C5F800224FF40071114803F023
:100FA000BFF8134B02221A70124B01221A70124B17
:100FB0001B78002B0DD1084B1B79C3F30303DBB265
:100FC000013303F00F03D9B2034A137961F303032A
:100FD000137100BF80BD00BFF80000209500002005
:100FE000000002400004024092000020C4010020E2
:100FF00094000020960000209000002080B582B070
:1010000000AF0346FB71FB79092B59D801A252F8B6
:1010100023F000BF3D1000084B10000859100008D5
:101020006710000875100008811000088D10000876
:1010300099100008A5100008B310000801224FF411
:101040008061214803F06CF83AE001224FF400611E
:101050001D4803F065F833E001224FF480511A482F
:1010600003F05EF82CE001224FF40041164803F033
:1010700057F825E001220421144803F051F81FE03D
:1010800001220821114803F04BF819E00122102138
:101090000E4803F045F813E0012220210B4803F02D
:1010A0003FF80DE001224FF48071084803F038F852
:1010B00006E001224FF40071044803F031F800BF4C
:1010C00000BF0837BD4680BD00000240000402405A
:1010D00080B582B000AF0346FB71294B9B7801338A
:1010E000DAB2274B9A7000224FF48061254803F052
:1010F00017F800224FF40061224803F011F8002293
:101100004FF480511F4803F00BF800224FF40041C8
:101110001C4803F005F8002204211B4803F000F8E6
:1011200000220821184802F0FBFF00221021164877
:1011300002F0F6FF00222021134802F0F1FF002206
:101140004FF48071104802F0EBFF00224FF4007161
:101150000D4802F0E5FFFB790133DAB20B4B1A7050
:10116000074B5B7803F00F03D9B2054A137961F39B
:1011700003031371FFF7A4FD00BF0837BD4680BD10
:10118000F80000200000024000040240900000200F
:1011900080B582B000AF0346FB71FB799BB2194664
:1011A000064801F073FF0346002B03D0FB79184675
:1011B000FFF78EFF00BF0837BD4680BD000002402C
:1011C00080B582B000AF0023FB7101237B7144E046
:1011D000394B1B78322B03D9374B00221A7005E0AC
:1011E000354B1B780133DAB2334B1A70324B1B7814
:1011F0000133DAB2304B1A7005F02EF902462F4B4C
:1012000083FB02135910D317C91A0B469B000B44DA
:10121000D11A0B46FB71284B1B78184605F0EEF8E7
:101220000EE005F019F90246244B83FB0213591016
:10123000D317C91A0B469B000B44D11A0B46FB71FE
:10124000BA79FB799A42ECD0FB79BB717B791C4966
:10125000FA79CA547B7901337B711A4B1B787A79FE
:101260009A42B5D901233B711BE005F0F5F802461F
:10127000124B83FB02135910D317C91A0B469B005C
:101280000B44D11A0B46FB71BA79FB799A42ECD028
:10129000FB79BB713B790C49FA79CA543B7901332C
:1012A0003B71084B1B783A799A42EDD900BF00BFD9
:1012B0000837BD4680BD00BF320200206766666603
:1012C00000020020F80000204801002080B584B012
:1012D00000AF03460A46FB711346BB710023FB7344
:1012E000FB79013B042B4DD801A252F823F000BF3B
:1012F000051300081B1300083113000847130008EA
:101300005D13000801214C4802F0F2FE0346002B59
:101310002FD0FB7B0133FB732BE00221464802F008
:10132000E7FE0346002B26D0FB7B0133FB7322E054
:101330000421414802F0DCFE0346002B1DD0FB7B5C
:101340000133FB7319E008213B4802F0D1FE03464C
:10135000002B14D0FB7B0133FB7310E010213648C7
:1013600002F0C6FE0346002B0BD0FB7B0133FB7360
:1013700007E000BF06E000BF04E000BF02E000BFDE
:1013800000E000BFBB79013B042B4FD801A252F80B
:1013900023F000BFA9130008BF130008D5130008ED
:1013A000EB130008031400082021234802F0A0FEDC
:1013B0000346002B31D0FB7B0133FB732DE0402132
:1013C0001D4802F095FE0346002B28D0FB7B01331D
:1013D000FB7324E08021184802F08AFE0346002BAC
:1013E0001FD0FB7B0133FB731BE04FF4807112486D
:1013F00002F07EFE0346002B15D0FB7B0133FB730E
:1014000011E04FF400710C4802F072FE0346002B0D
:101410000BD0FB7B0133FB7307E000BF06E000BF8E
:1014200004E000BF02E000BF00E000BFFB7B184605
:101430001037BD4680BD00BF0000024080B500AF40
:10144000A54B1B79C3F30303DBB21A46A24B5B78AF
:101450009A4252D1A04A13796FF3451313719E4AF1
:1014600013796FF3041313719B4B00225A719A4B3B
:1014700000229A71984A13796FF303031371974B03
:101480001B780133DAB2954B1A7000224FF4806159
:10149000934802F045FE00224FF40061904802F0AC
:1014A0003FFE00224FF480518D4802F039FE0022A9
:1014B0004FF400418A4802F033FE0022042189489B
:1014C00002F02EFE00220821864802F029FE0022AA
:1014D0001021844802F024FE00222021814802F0DD
:1014E0001FFE00224FF480717E4802F019FE002298
:1014F0004FF400717B4802F013FE774B1A78774B5C
:101500001B789A42C0F0F680774B00221A80734B0A
:101510001B781A46754B9B5C704A12781146744AC8
:10152000525C1146184600F0ADF96C4B1B781A4618
:101530006E4B9B5C042B66D801A252F823F000BFCF
:10154000551500087515000895150008B515000813
:10155000D51500080121624802F0CAFD0346002BA0
:1015600048D15D4A137943F0100313715A4B01229D
:101570005A713FE002215A4802F0BAFD0346002B9F
:101580003AD1554A137943F010031371524B02229A
:101590005A7131E00421524802F0AAFD0346002BA3
:1015A0002CD14D4A137943F0100313714A4B032297
:1015B0005A7123E008214A4802F09AFD0346002BA5
:1015C0001ED1454A137943F010031371424B042294
:1015D0005A7115E01021424802F08AFD0346002BA3
:1015E00010D13D4A137943F0100313713A4B052291
:1015F0005A7107E000BF06E000BF04E000BF02E050
:1016000000BF00E000BF354B1B781A46384B9B5C8F
:10161000042B00F2B78001A252F823F03116000823
:10162000531600087516000895160008B71600082E
:1016300020212B4802F05CFD0346002B40F09980EE
:10164000254A137943F020031371234B01229A7129
:101650008FE04021224802F04BFD0346002B40F072
:101660008A801D4A137943F0200313711A4B02221A
:101670009A7180E080211A4802F03AFD0346002B5F
:101680007BD1154A137943F020031371124B0322C7
:101690009A7172E04FF48071114802F029FD0346FF
:1016A000002B6CD10C4A137943F0200313710A4BC1
:1016B00004229A7163E04FF40071094802F018FDAA
:1016C0000346002B5DD1044A137943F020031371C4
:1016D000014B05229A7154E0F8000020950000208B
:1016E000000002400004024092000020000200209E
:1016F0004801002000224FF480615C4802F010FD98
:1017000000224FF40061594802F00AFD00224FF414
:101710008051564802F004FD00224FF40041534826
:1017200002F0FEFC00220421514802F0F9FC0022E4
:1017300008214F4802F0F4FC002210214C4802F02E
:10174000EFFC002220214A4802F0EAFC00224FF47C
:101750008071474802F0E4FC00224FF400714448D5
:1017600002F0DEFC434B02221A70434B01221A7036
:1017700008E000BF06E000BF04E000BF02E000BFD9
:1017800000E000BF3D4B1B7903F02003DBB2002BD0
:1017900057D03A4B1B7903F01003DBB2002B50D02B
:1017A000374B1B780A2B4CD0344B9B780133DAB281
:1017B000324B9A7000224FF480612C4802F0B0FC4A
:1017C00000224FF40061294802F0AAFC00224FF4E5
:1017D0008051264802F0A4FC00224FF40041234827
:1017E00002F09EFC00220421214802F099FC002214
:1017F00008211F4802F094FC002210211C4802F02E
:101800008FFC002220211A4802F08AFC00224FF4AB
:101810008071174802F084FC00224FF400711448D4
:1018200002F07EFCFFF74CFA154B0A221A70134B9C
:101830005B7803F00F03D9B2104A137961F3030305
:1018400013710F4B1B78002B0DD10C4B1B79C3F37D
:101850000303DBB2013303F00F03D9B2074A137954
:1018600061F30303137100BF80BD00BF000002409D
:10187000000402409400002096000020F8000020A0
:101880009000002080B582B000AF03460A46FB718D
:101890001346BB71FB79042B2ED801A252F823F01A
:1018A000B5180008C3180008D1180008DF18000890
:1018B000ED18000801224FF48061294802F030FC45
:1018C0001AE001224FF40061254802F029FC13E0E0
:1018D00001224FF48051224802F022FC0CE0012248
:1018E0004FF400411E4802F01BFC05E001220421D8
:1018F0001C4802F015FC00BFBB79042B2CD801A2B8
:1019000052F823F0191900082519000831190008A8
:101910003D1900084B19000801220821114802F066
:10192000FFFB19E0012210210E4802F0F9FB13E041
:10193000012220210B4802F0F3FB0DE001224FF4BD
:101940008071084802F0ECFB06E001224FF40071C0
:10195000044802F0E5FB00BF00BF0837BD4680BD6C
:10196000000002400004024080B586B002AF03468A
:10197000FB7107F10903FB60FB7923F00F03FB7296
:10198000FB791B01BB723A4B1B78012B05D1FB7A0B
:1019900043F00C03DBB27B7204E0FB7A43F00403F8
:1019A000DBB27B72334B1B789BB25B0099B24FF07A
:1019B000FF3300930123FA682F4802F00FFD2C4BF0
:1019C0001B78012B05D17B7A23F00403DBB27B72F9
:1019D00004E07B7A23F00C03DBB27B72254B1B788F
:1019E0009BB25B0099B24FF0FF3300930123FA687A
:1019F000214802F0F3FC1E4B1B78012B05D1BB7A6A
:101A000043F00C03DBB27B7204E0BB7A43F00403C7
:101A1000DBB27B72174B1B789BB25B0099B24FF025
:101A2000FF3300930123FA68134802F0D7FC104BF0
:101A30001B78012B05D17B7A23F00403DBB27B7288
:101A400004E07B7A23F00C03DBB27B72094B1B783A
:101A50009BB25B0099B24FF0FF3300930123FA6809
:101A6000054802F0BBFC00BF1037BD4680BD00BF7B
:101A7000010000207A010020A400002080B586B07B
:101A800002AF0346FB7107F10903FB60FB7923F00A
:101A90000F03FB72FB791B01BB723A4B1B78012BC6
:101AA00005D1FB7A43F00D03DBB27B7204E0FB7AD5
:101AB00043F00503DBB27B72334B1B789BB25B00B8
:101AC00099B24FF0FF3300930123FA682F4802F0D8
:101AD00085FC2C4B1B78012B05D17B7A23F004036A
:101AE000DBB27B7204E07B7A23F00C03DBB27B7207
:101AF000254B1B789BB25B0099B24FF0FF330093EC
:101B00000123FA68214802F069FC1E4B1B78012B67
:101B100005D1BB7A43F00D03DBB27B7204E0BB7AE4
:101B200043F00503DBB27B72174B1B789BB25B0063
:101B300099B24FF0FF3300930123FA68134802F083
:101B40004DFC104B1B78012B05D17B7A23F004034D
:101B5000DBB27B7204E07B7A23F00C03DBB27B7296
:101B6000094B1B789BB25B0099B24FF0FF33009397
:101B70000123FA68054802F031FC00BF1037BD466A
:101B800080BD00BF010000207A010020A4000020D9
:101B900080B582B000AF03460A46FB711346BB71A5
:101BA000154B1B78022B05D1BB79012B02D1FB7998
:101BB0004033FB71104B1B78042B11D1BB79012BE7
:101BC00002D1FB794033FB71BB79022B02D1FB7947
:101BD0001433FB71BB79032B02D1FB795433FB71B6
:101BE000FB7963F07F03FB71FB791846FFF7BCFEBE
:101BF00000BF0837BD4680BD0000002080B584B01E
:101C000000AF78600023FB730AE07B681B781846FE
:101C1000FFF734FF7B6801337B60FB7B0133FB7391
:101C20007B681B78002BF0D100BF00BF1037BD468A
:101C300080BD000080B584B000AF78607B68002B69
:101C400005DA3C48FFF7DAFF7B685B427B607B6824
:101C5000FB607B6842F20F72934214DDFB68364AE8
:101C600082FB03121213DB17D31AFB72FB7A303399
:101C7000DBB21846FFF702FFFB7A304A02FB03F3A0
:101C8000FA681344FB607B68B3F57A7F14DBFB686A
:101C90002B4A82FB03129211DB17D31AFB72FB7AD9
:101CA0003033DBB21846FFF7E9FEFB7A254A02FB28
:101CB00003F3FA681344FB607B68632B15DDFB6854
:101CC000214A82FB03125211DB17D31AFB72FB7AF3
:101CD0003033DBB21846FFF7D1FEFB7A6FF06302B8
:101CE00002FB03F3FA681344FB607B68092B15DDE4
:101CF000FB68164A82FB03129210DB17D31AFB72A1
:101D0000FB7A3033DBB21846FFF7B8FEFB7A6FF090
:101D1000090202FB03F3FA681344FB60FB68DBB2C1
:101D20003033DBB21846FFF7A9FE00BF1037BD46BF
:101D300080BD00BFF4740008AD8BDB68F0D8FFFFF6
:101D4000D34D621018FCFFFF1F85EB516766666676
:101D500080B586B002AF0023FB7316E0FB7B9BB21D
:101D60005B0099B20A230122584802F055FF03464E
:101D7000FB71FB79002B05D1FB7B502B02D0544A21
:101D8000FB7B1370FB7B0133FB7397F90F30002B48
:101D9000E4DABB1DBB600F2001F00EFB3423BB71E6
:101DA0004B4B1B789BB25B0099B24FF0FF33009313
:101DB0000123BA68454802F011FB012001F0FCFA4A
:101DC0003023BB71424B1B789BB25B0099B24FF042
:101DD000FF3300930123BA683C4802F0FFFA052064
:101DE00001F0EAFA3423BB71394B1B789BB25B00DC
:101DF00099B24FF0FF3300930123BA68334802F0E1
:101E0000EDFA3023BB71012001F0D6FA304B1B787C
:101E10009BB25B0099B24FF0FF3300930123BA6885
:101E20002A4802F0DBFA012001F0C6FA2423BB7134
:101E3000274B1B789BB25B0099B24FF0FF330093A6
:101E40000123BA68214802F0C9FA012001F0B4FA6E
:101E50002023BB711E4B1B789BB25B0099B24FF0E5
:101E6000FF3300930123BA68184802F0B7FA012043
:101E700001F0A2FA2820FFF777FD012001F09CFA7B
:101E80000920FFF771FD012001F096FA0120FFF70C
:101E90006BFD022001F090FA0620FFF765FD01209E
:101EA00001F08AFA0C20FFF75FFD012001F084FAAF
:101EB0000220FFF759FD022001F07EFA00210020E8
:101EC000FFF766FE00BF1037BD4680BDA4000020AE
:101ED0007A01002080B500AF00210020FFF758FEF6
:101EE0000548FFF78BFE01210020FFF751FE024855
:101EF000FFF784FE00BF80BDF874000880B500AF16
:101F00005C4B1B79C3F30303DBB21A46594B5B7876
:101F10009A4242D1574A13796FF303031371564B18
:101F20001B780133DAB2544B1A7001224FF48061EE
:101F3000524802F0F5F801224FF400614F4802F0D8
:101F4000EFF801224FF480514C4802F0E9F80122E9
:101F50004FF40041494802F0E3F8012204214848C7
:101F600002F0DEF800220821454802F0D9F80022EC
:101F70001021434802F0D4F800222021404802F00A
:101F8000CFF800224FF480713D4802F0C9F80022DA
:101F90004FF400713A4802F0C3F8364B1A78364BCA
:101FA0001B789A4213D3374B00221A80324B1B788E
:101FB0001A46354B9B5C184600F06EF82E4B1B788A
:101FC0001A46314B9B5C184600F030F93DE0002288
:101FD0004FF48061294802F0A3F800224FF4006119
:101FE000264802F09DF800224FF48051234802F069
:101FF00097F800224FF40041204802F091F80022A7
:1020000004211F4802F08CF8002208211C4802F02D
:1020100087F8002210211A4802F082F800222021BD
:10202000174802F07DF800224FF48071144802F046
:1020300077F800224FF40071114802F071F8134B49
:1020400002221A70124B01221A70124B1B78002BBD
:102050000DD1084B1B79C3F30303DBB2013303F04B
:102060000F03D9B2034A137961F30303137100BF5D
:1020700080BD00BFF8000020950000200000024055
:102080000004024092000020C401002094000020BF
:10209000960000209000002080B582B000AF03467B
:1020A000FB71FB79092B59D801A252F823F000BF2C
:1020B000D9200008E7200008F520000803210008C7
:1020C000112100081D2100082921000835210008E0
:1020D000412100084F21000800224FF4806121486F
:1020E00002F01EF83AE000224FF400611D4802F0B1
:1020F00017F833E000224FF480511A4802F010F82C
:102100002CE000224FF40041164802F009F825E0C7
:1021100000220421144802F003F81FE000220821E5
:10212000114801F0FDFF19E0002210210E4801F0D6
:10213000F7FF13E0002220210B4801F0F1FF0DE032
:1021400000224FF48071084801F0EAFF06E0002207
:102150004FF40071044801F0E3FF00BF00BF0837EF
:10216000BD4680BD000002400004024080B582B040
:1021700000AF0346FB71294B9B780133DAB2274B42
:102180009A7001224FF48061254801F0C9FF0122B5
:102190004FF40061224801F0C3FF01224FF4805147
:1021A0001F4801F0BDFF01224FF400411C4801F01F
:1021B000B7FF012204211B4801F0B2FF00220821D1
:1021C000184801F0ADFF00221021164801F0A8FFC9
:1021D00000222021134801F0A3FF00224FF4807158
:1021E000104801F09DFF00224FF400710D4801F0EE
:1021F00097FFFB790133DAB20B4B1A70074B5B7810
:1022000003F00F03D9B2054A137961F30303137185
:10221000FEF756FD00BF0837BD4680BDF800002020
:1022200000000240000402409000002080B582B00F
:1022300000AF0346FB71FB799BB21946064800F0DC
:1022400025FF0346002B03D0FB791846FFF78EFFCE
:1022500000BF0837BD4680BD0000024080B500AF1A
:1022600001F038F800F002FA00F010FB00F0BCFAC0
:1022700000F066FA00F0E6FAFFF76AFDC14803F0E5
:102280005BFE00224FF48061BF4801F049FF00224D
:102290004FF40061BC4801F043FF00224FF480512D
:1022A000B94801F03DFF00224FF40041B64801F06B
:1022B00037FF00220421B54801F032FF0022082137
:1022C000B24801F02DFF00221021B04801F028FF94
:1022D00000222021AD4801F023FF00224FF480713D
:1022E000AA4801F01DFF00224FF40071A74801F039
:1022F00017FF00F0B1FB0346042B01D8FEF758F995
:102300004FF47A7001F058F800F052FCFEF75EFAD4
:102310009F4B03221A7001210E20FFF739FC9D4BC1
:102320009B781846FFF786FC984B1B6903F4806383
:10233000002B6CD10A229549142000F0BFFE034601
:10234000002B64D0944B00221A70FFF7C3FD904B12
:1023500003221A708F4B00229A7000224FF4806182
:10236000894801F0DDFE00224FF40061864801F04B
:10237000D7FE00224FF48051834801F0D1FE0022A5
:102380004FF40041804801F0CBFE002204217F4839
:1023900001F0C6FE002208217C4801F0C1FE0022A7
:1023A00010217A4801F0BCFE00222021774801F07C
:1023B000B7FE00224FF48071744801F0B1FE002294
:1023C0004FF40071714801F0ABFE00BF6F4B1B6909
:1023D00003F48063002BF9D000BF6C4B1B6903F43E
:1023E0008063002B07D00A226849142000F066FEA3
:1023F0000346002BF1D100BF644B1B6903F48063DB
:10240000002BF9D0644B01221A70FEF7DFF9634B01
:102410001B78012B0DD15F4B9A785E4B1B789A424B
:1024200002D1FEF70FFC01E0FEF734FC5B4B00220B
:102430001A70584BDB78012B03D0564BDB78002BFE
:1024400004D1574B1B781846FEF75CFC514B5B7967
:10245000504A927911461846FEF738FF0346022B80
:1024600006D14C4BDB78022B02D14D4B00221A7067
:1024700000F0F2FA0346042B01D8FEF751FA0121CD
:10248000414801F035FE0346002B72D1404B1B78CA
:10249000002B6ED13F4BDB78022B02D1FEF790FE72
:1024A00001E0FEF701FA3B4BDB78012B03D0394BFF
:1024B000DB78002B02D1FEF7F7F905E0354BDB782E
:1024C000022B01D1FEF77CFE364B01221A70314AF5
:1024D00013796FF30303137100224FF480612A48CC
:1024E00001F01EFE00BF0121274801F001FE034656
:1024F000002BF8D0264B01221A70264BDB78012BDB
:1025000037D101224FF480611F4801F009FE0122FA
:102510004FF400611C4801F003FE01224FF480518A
:10252000194801F0FDFD01224FF40041164801F069
:10253000F7FD01220421154801F0F2FD00220821D7
:10254000124801F0EDFD00221021104801F0E8FDD5
:10255000002220210D4801F0E3FD00224FF480719C
:102560000A4801F0DDFD00224FF40071074801F038
:10257000D7FD0D4B1B78322B18D90B4B00221A704C
:102580001AE000BF7C01002000000240000402406D
:1025900094000020F8000020010000209600002098
:1025A000900000209500002032020020284B1B786C
:1025B0000133DAB2264B1A7000F04EFA03461A467F
:1025C000244BDB880A3B9A423EDB00F045FA034687
:1025D0001A46204BDB880A339A4235DC1E4B002218
:1025E0001A8003E01C4B1B88142B12D800F034FA1D
:1025F00003461A46174BDB880A3B9A420ADB00F077
:102600002BFA03461A46134BDB880A339A42E9DD5C
:1026100000E000BF104B1B880A2B02D9FEF770FAAE
:1026200012E00E4B00229A7001210F20FFF7B0FA42
:102630000B48FFF7E3FA01224FF48061094801F0EB
:102640006FFD094B00221A70642000F0B5FE62E6AF
:1026500032020020F801002092000020F800002043
:102660000C750008000002409400002080B594B072
:1026700000AF07F1200330220021184603F0B6FE18
:1026800007F10C0300221A605A609A60DA601A613E
:102690000023BB60284B1B6C274A43F08053136414
:1026A000254B1B6C03F08053BB60BB6800237B6031
:1026B000224B1B6823F44043204A43F40043136039
:1026C0001E4B1B6803F440437B607B6801233B6225
:1026D0004FF480337B620223BB634FF48003FB63C0
:1026E00019233B64A8237B640223BB640423FB649B
:1026F00007F12003184602F09BFF0346002B01D090
:1027000000F06CF90F23FB6002233B6100237B6127
:102710004FF4A053BB610023FB6107F10C030221BE
:10272000184603F0FDF90346002B01D000F056F9DE
:1027300000BF5037BD4680BD0038024000700040E9
:1027400080B584B000AF3B4600221A605A609A60A0
:10275000DA60224B224A1A60204B4FF480325A60D2
:102760001E4B4FF080729A601C4B00221A611B4B6B
:1027700000221A76194B002283F82020174B0022E2
:10278000DA62164B174A9A62144B0022DA60134B36
:102790000122DA61114B002283F830200F4B012215
:1027A0005A610E4800F02CFE0346002B01D000F0C9
:1027B00015F908233B6001237B600023BB603B4687
:1027C0001946064800F0E0FF0346002B01D000F058
:1027D00005F900BF1037BD4680BD00BF00010020D5
:1027E000002001400100000F80B500AF124B134ADA
:1027F0001A60114B124A5A600F4B00229A600E4B1E
:102800000022DA600C4B4FF480421A610A4B00221E
:102810005A61094B00229A61074B0022DA61064B8C
:1028200000221A62044801F095FC0346002B01D0F7
:1028300000F0D4F800BF80BDA40000200054004088
:10284000A086010080B500AF0E4B0F4A1A600D4BF9
:102850004AF20F425A600B4B00229A60094BC72282
:10286000DA60084B00221A61064B00229A61054883
:1028700003F012FB0346002B01D000F0AFF800BFBD
:1028800080BD00BF7C0100200044014080B58AB0BB
:1028900000AF07F1140300221A605A609A60DA60F0
:1028A0001A6100233B61494B1B6B484A43F0040308
:1028B0001363464B1B6B03F004033B613B6900232E
:1028C000FB60424B1B6B414A43F0800313633F4B59
:1028D0001B6B03F08003FB60FB680023BB603B4B7A
:1028E0001B6B3A4A43F001031363384B1B6B03F035
:1028F0000103BB60BB6800237B60344B1B6B334A16
:1029000043F002031363314B1B6B03F002037B6044
:102910007B6800224FF420412D4801F001FC002289
:1029200041F23C312B4801F0FBFB00224FF41C41EB
:10293000294801F0F5FB4FF420437B610123BB6183
:102940000023FB6100233B6207F114031946204872
:1029500001F04AFA40F2FF337B610023BB6101239F
:10296000FB6107F1140319461B4801F03DFA41F2DF
:102970003C337B610123BB610023FB6100233B628D
:1029800007F114031946134801F02EFA4FF41053BF
:102990007B610023BB610123FB6107F1140319462E
:1029A0000C4801F021FA4FF41C437B610123BB6109
:1029B0000023FB6100233B6207F11403194606481C
:1029C00001F012FA00BF2837BD4680BD0038024032
:1029D00000080240000402400000024080B400AF42
:1029E00072B600BFFEE7000080B588B004AF0346B2
:1029F000FB71FB799AB24FF0FF33029301230193ED
:102A000007F10F0300931023A021044801F0DEFE1C
:102A1000FB7B18461037BD4680BD00BFA4000020D8
:102A200080B586B004AF03460A46FB711346BB71FE
:102A3000FB799AB24FF0FF33029301230193BB1D40
:102A400000931023A021034801F0C6FD00BF083702
:102A5000BD4680BDA400002080B582B000AF002339
:102A6000FB80114800F010FD00237B710EE00A216D
:102A70000D4800F0F0FD0C4800F078FE0346FB80A6
:102A8000FB885B00FB807B7901337B717B79032BB7
:102A9000EDD9FB885B08FB80034800F0A9FDFB88AB
:102AA00018460837BD4680BD0001002080B588B0BB
:102AB00004AF03460A46FB711346BB805023FB73E9
:102AC000BB88FF2B19D8BB88DBB23B7300237B7319
:102AD0000023BB73FB7B9BB25B0099B2FB799AB27C
:102AE0004FF0FF3302930323019307F10C0300938C
:102AF0001023154801F070FD21E0BB88134AA2FBAA
:102B00000323DB099BB2DBB23B73BB88DAB23B7BAE
:102B10001344DBB27B730123BB73FB7B9BB25B0073
:102B200099B2FB799AB24FF0FF33029303230193DA
:102B300007F10C0300931023034801F04DFD00BF83
:102B40001037BD4680BD00BFA4000020818080807A
:102B500090B585B000AF0346FB710023FB81FB7984
:102B60000233DBB21846FFF73FFF0346002B06D1C6
:102B7000FB791846FFF738FF03469BB214E0FB7958
:102B80001846FFF731FF03469BB21A461202D31ACA
:102B90009CB2FB790133DBB21846FFF725FF0346F1
:102BA0009BB22344FB81FB8918461437BD4690BD78
:102BB00080B500AFC820FFF7CBFF03461A46264B6F
:102BC0001A801420FFF7C4FF03461A46224B5A808E
:102BD0001E20FFF7BDFF03461A461F4BDA80282050
:102BE000FFF702FF03461A461C4BDA702920FFF755
:102BF000FBFE03461A461A4B9A5C184B1A70642067
:102C0000FFF7F2FE03461A46144B5A70134B1B781B
:102C1000642B06D900212920FFF702FF0F4B002269
:102C20001A700E4BDB78032B06D900212820FFF702
:102C3000F7FE0A4B0022DA706420FFF7D5FE034648
:102C4000142B06D901216420FFF7EAFE034B012271
:102C50005A7000BF80BD00BFF8010020F8000020BE
:102C60001075000880B483B000AF00237B60104B68
:102C70005B6C0F4A43F4804353640D4B5B6C03F46D
:102C800080437B607B6800233B60094B1B6C084AD8
:102C900043F080531364064B1B6C03F080533B607E
:102CA0003B6800BF0C37BD465DF8047B704700BF32
:102CB0000038024080B58AB000AF786007F1140395
:102CC00000221A605A609A60DA601A617B681B6899
:102CD000174A934227D100233B61164B5B6C154A80
:102CE00043F480735364134B5B6C03F480733B6158
:102CF0003B690023FB600F4B1B6B0E4A43F0020342
:102D000013630C4B1B6B03F00203FB60FB68032394
:102D10007B610323BB610023FB6107F114031946A8
:102D2000054801F061F800BF2837BD4680BD00BFEF
:102D300000200140003802400004024080B58AB003
:102D400000AF786007F1140300221A605A609A609D
:102D5000DA601A617B681B68194A93422BD1002301
:102D60003B61184B1B6B174A43F002031363154B6F
:102D70001B6B03F002033B613B69C0237B611223A1
:102D8000BB610123FB6103233B6204237B6207F1E8
:102D9000140319460C4801F027F80023FB60094B87
:102DA0001B6C084A43F400131364064B1B6C03F4BA
:102DB0000013FB60FB6800BF2837BD4680BD00BF25
:102DC00000540040003802400004024080B584B046
:102DD00000AF78607B681B680E4A934215D10023D0
:102DE000FB600D4B5B6C0C4A43F4003353640A4B9D
:102DF0005B6C03F40033FB60FB68002200211920A8
:102E000000F0BBFF192000F0D4FF00BF1037BD4613
:102E100080BD00BF004401400038024080B400AFD4
:102E2000FEE780B400AFFEE780B400AFFEE780B4F9
:102E300000AFFEE780B400AFFEE780B400AF00BF94
:102E4000BD465DF8047B704780B400AF00BFBD464F
:102E50005DF8047B704780B400AF00BFBD465DF8ED
:102E6000047B704780B500AF00F086FA00BF80BDDC
:102E700080B500AF1D4803F0C1F81D4B1B8801331E
:102E80009AB21B4B1A801B4B1B78012B09D11A4B92
:102E90001B78002B05D1194BDB78002B01D1FDF7F6
:102EA000DFFF144B1B78012B09D1134B1B78002B30
:102EB00005D1124BDB78012B01D1FFF71FF80D4B29
:102EC0001B78012B09D10C4B1B78002B05D10B4B28
:102ED000DB78022B01D1FEF7B1FA084BDB78042B2B
:102EE00001D100F031F900BF80BD00BF7C0100209E
:102EF000920000209400002090000020F8000020A4
:102F000080B400AF01231846BD465DF8047B7047CE
:102F100080B582B000AF7860396003F03DFA0346B7
:102F200016221A604FF0FF3318460837BD4680BDA1
:102F300080B582B000AF78604FF0FF317868FFF75E
:102F4000E7FFFEE780B586B000AFF860B9607A6051
:102F500000237B610AE0AFF300800146BB685A1C86
:102F6000BA60CAB21A707B6901337B617A697B6887
:102F70009A42F0DB7B6818461837BD4680BD80B5A5
:102F800086B000AFF860B9607A6000237B6109E029
:102F9000BB685A1CBA601B781846AFF300807B6987
:102FA00001337B617A697B689A42F1DB7B68184662
:102FB0001837BD4680BD80B483B000AF78604FF055
:102FC000FF3318460C37BD465DF8047B704780B46C
:102FD00083B000AF786039603B684FF400525A60AC
:102FE000002318460C37BD465DF8047B704780B45B
:102FF00083B000AF7860012318460C37BD465DF8FA
:10300000047B704780B485B000AFF860B9607A6027
:10301000002318461437BD465DF8047B7047000056
:1030200080B586B000AF7860144A154BD31A7B6127
:103030007B693B61134B1B68002B02D1114B124A79
:103040001A60104B1A687B6813443A699A4207D297
:1030500003F0A2F903460C221A604FF0FF3309E097
:10306000084B1B68FB60074B1A687B681344054AD2
:103070001360FB6818461837BD4680BD000001206C
:1030800000040000980000205802002080B483B0A3
:1030900000AF78600B467B807B681A697B8822FAD8
:1030A00003F303F00103002B01D1012300E000230F
:1030B00018460C37BD465DF8047B704780B584B078
:1030C00000AF03463960FB711346BB800023FB73DE
:1030D0000023BB7300237B730023FB7312E03B6868
:1030E0001A69BB881340002B03D1BB7B0133BB7330
:1030F00002E07B7B01337B73012000F05DF9FB7BF9
:103100000133FB73FA7BFB799A42E8D3BA7B7B7B72
:103110009A4201D9012300E0002318461037BD462A
:1031200080BD000080B400AF064BD3F88830054A5C
:1031300043F47003C2F8883000BFBD465DF8047BDD
:10314000704700BF00ED00E080B500AF00224FF4F3
:103150008061494800F0E4FF00224FF400614648D6
:1031600000F0DEFF00224FF48051434800F0D8FF0A
:1031700000224FF40041404800F0D2FF0022042119
:103180003E4800F0CDFF002208213C4800F0C8FF77
:1031900000221021394800F0C3FF002220213748C7
:1031A00000F0BEFF00224FF48071344800F0B8FFF9
:1031B00000224FF40071314800F0B2FF01212E4887
:1031C00000F096FF0346002B06D101224FF48061E8
:1031D000294800F0A5FF4CE00221274800F088FFB5
:1031E0000346002B06D101224FF40061224800F073
:1031F00097FF3EE00421204800F07AFF0346002BB1
:1032000006D101224FF480511B4800F089FF30E0C5
:103210000821194800F06CFF0346002B06D101225B
:103220004FF40041144800F07BFF22E010211248C7
:1032300000F05EFF0346002B05D1012204210F4858
:1032400000F06EFF15E020210B4800F051FF4021F7
:10325000094800F04DFF8021074800F049FF4FF476
:103260008071054800F044FF4FF40071024800F0FF
:103270003FFF00BF80BD00BF0000024000040240CD
:10328000DFF834D00D480E490E4A002302E0D4582E
:10329000C4500433C4188C42F9D30B4A0B4C00239E
:1032A00001E013600432A242FBD3FFF73BFF03F0BF
:1032B00079F8FEF7D3FF70470000012000000020DE
:1032C000740000208C760008740000205402002056
:1032D000FEE7000080B500AF0E4B1B680D4A43F4BB
:1032E000007313600B4B1B680A4A43F4806313603E
:1032F000084B1B68074A43F480731360032000F0F7
:1033000031FD002000F008F8FFF7ACFC0023184660
:1033100080BD00BF003C024080B582B000AF786045
:10332000124B1A68124B1B7819464FF47A73B3FB91
:10333000F1F3B2FBF3F3184600F049FD0346002B0E
:1033400001D001230EE07B680F2B0AD80022796898
:103350004FF0FF3000F011FD064A7B681360002338
:1033600000E0012318460837BD4680BD0400002058
:103370000C0000200800002080B400AF064B1B7832
:103380001A46064B1B681344044A136000BFBD462F
:103390005DF8047B704700BF0C0000204002002055
:1033A00080B400AF034B1B681846BD465DF8047B34
:1033B000704700BF4002002080B584B000AF786045
:1033C000FFF7EEFFB8607B68FB60FB68B3F1FF3F7F
:1033D00005D00A4B1B781A46FB681344FB6000BFFC
:1033E000FFF7DEFF0246BB68D31AFA689A42F7D8A5
:1033F00000BF00BF1037BD4680BD00BF0C000020DD
:1034000080B584B000AF78600023FB737B68002B2D
:1034100001D1012333E07B681B6C002B09D1786854
:10342000FFF748FC7B6800225A647B68002283F81F
:103430003C207B681B6C03F01003002B18D17B68C9
:103440001B6C23F4885323F0020343F002027B68D1
:103450001A64786800F0BAFA7B6800225A647B68C4
:103460001B6C23F0030343F001027B681A6401E044
:103470000123FB737B68002283F83C20FB7B18460A
:103480001037BD4680BD000080B485B000AF7860C5
:103490000023BB607B6893F83C30012B01D10223F1
:1034A00097E07B68012283F83C207B681B689B685F
:1034B00003F00103012B18D07B681B689A687B68B6
:1034C0001B6842F001029A60454B1B68454AA2FB0B
:1034D00003239A0C13465B001344BB6002E0BB68F5
:1034E000013BBB60BB68002BF9D17B681B689B6804
:1034F00003F00103012B5FD17B681B6C23F4E063B5
:1035000023F0010343F480727B681A647B681B68B4
:103510005B6803F48063002B07D07B681B6C23F48B
:10352000405343F480527B681A647B681B6C03F43D
:103530008053B3F5805F06D17B685B6C23F0060295
:103540007B685A6402E07B6800225A647B68002230
:1035500083F83C20244BFB607B681B686FF02202E1
:103560001A60FB685B6803F01F03002B0FD17B68B8
:103570001B689B6803F04053002B29D17B681B68B4
:103580009A687B681B6842F080429A6020E07B6802
:103590001B68164A93421BD17B681B689B6803F02B
:1035A0004053002B14D17B681B689A687B681B68AA
:1035B00042F080429A600BE07B681B6C43F0100283
:1035C0007B681A647B685B6C43F001027B685A6419
:1035D000002318461437BD465DF8047B704700BFD2
:1035E0000400002083DE1B43002301400020014033
:1035F00080B483B000AF78607B6893F83C30012BD7
:1036000001D1022321E07B68012283F83C207B6802
:103610001B689A687B681B6822F001029A607B68CD
:103620001B689B6803F00103002B09D17B681B6CAE
:1036300023F4885323F0010343F001027B681A64EA
:103640007B68002283F83C20002318460C37BD46D7
:103650005DF8047B704780B584B000AF7860396056
:103660000023FB607B681B689B6803F48063B3F5F1
:10367000806F13D17B681B689B6803F48073B3F57C
:10368000807F0BD17B681B6C43F020027B681A643F
:103690007B68002283F83C20012363E0FFF780FE73
:1036A000F86021E03B68B3F1FF3F1DD03B68002B81
:1036B00007D0FFF775FE0246FB68D31A3A689A42B4
:1036C00012D27B681B681B6803F00203022B0BD02D
:1036D0007B681B6C43F004027B681A647B680022E1
:1036E00083F83C2003233DE07B681B681B6803F0E4
:1036F0000203022BD6D17B681B686FF012021A609E
:103700007B681B6C43F400727B681A647B681B68DF
:103710009B6803F04053002B23D17B681B7E002B5A
:103720001FD17B681B68DB6A03F47003002B06D093
:103730007B681B689B6803F48063002B11D17B6856
:103740001B6C23F480727B681A647B681B6C03F427
:103750008053002B05D17B681B6C43F001027B6812
:103760001A64002318461037BD4680BD80B483B06C
:1037700000AF78607B681B68DB6C18460C37BD4671
:103780005DF8047B7047000080B485B000AF7860BE
:1037900039600023BB607B6893F83C30012B01D17A
:1037A000022305E17B68012283F83C203B681B680B
:1037B000092B25D97B681B68D9683B681B689BB2BD
:1037C0001A4613465B0013441E3B072202FA03F31A
:1037D000DA437B681B680A40DA607B681B68D9683B
:1037E0003B689A683B681B689BB2184603465B00BF
:1037F00003441E3B9A407B681B680A43DA6022E060
:103800007B681B6819693B681B689BB21A461346A4
:103810005B001344072202FA03F3DA437B681B6858
:103820000A401A617B681B6819693B689A683B68A3
:103830001B689BB2184603465B0003449A407B68B2
:103840001B680A431A613B685B68062B24D87B68B7
:103850001B68596B3B685A6813469B001344053B31
:103860001F2202FA03F3DA437B681B680A405A639B
:103870007B681B68596B3B681B689BB218463B68AA
:103880005A6813469B001344053B00FA03F27B6819
:103890001B680A435A634CE03B685B680C2B24D8D6
:1038A0007B681B68196B3B685A6813469B0013447E
:1038B000233B1F2202FA03F3DA437B681B680A40AA
:1038C0001A637B681B68196B3B681B689BB21846C0
:1038D0003B685A6813469B001344233B00FA03F2EB
:1038E0007B681B680A431A6323E07B681B68D96AFC
:1038F0003B685A6813469B001344413B1F2202FA5F
:1039000003F3DA437B681B680A40DA627B681B6852
:10391000D96A3B681B689BB218463B685A681346D5
:103920009B001344413B00FA03F27B681B680A4387
:10393000DA62224BFB607B681B68214A934209D103
:103940003B681B68122B05D1FB685B6843F480025F
:10395000FB685A607B681B68194A934223D13B6815
:103960001B68102B03D03B681B68112B1BD1FB6815
:103970005B6843F40002FB685A603B681B68102BCD
:1039800011D1104B1B68104AA2FB03239A0C13465B
:103990009B0013445B00BB6002E0BB68013BBB6063
:1039A000BB68002BF9D17B68002283F83C20002300
:1039B00018461437BD465DF8047B7047002301406C
:1039C000002001400400002083DE1B4380B485B04A
:1039D00000AF7860794BFB60FB685B6823F4403292
:1039E000FB685A60FB685A687B685B681A43FB682F
:1039F0005A607B681B685A687B681B6822F4807277
:103A00005A607B681B6859687B681B691A027B686F
:103A10001B680A435A607B681B685A687B681B688E
:103A200022F040725A607B681B6859687B689A680C
:103A30007B681B680A435A607B681B689A687B68CE
:103A40001B6822F400629A607B681B6899687B6837
:103A5000DA687B681B680A439A607B689B6A584AED
:103A6000934222D07B681B689A687B681B6822F0AF
:103A700070629A607B681B6899687B689A6A7B6849
:103A80001B680A439A607B681B689A687B681B689E
:103A900022F040529A607B681B6899687B68DA6AFA
:103AA0007B681B680A439A600FE07B681B689A6812
:103AB0007B681B6822F070629A607B681B689A685A
:103AC0007B681B6822F040529A607B681B689A688A
:103AD0007B681B6822F002029A607B681B68996809
:103AE0007B681B7E5A007B681B680A439A607B6870
:103AF00093F82030002B1BD07B681B685A687B68CA
:103B00001B6842F400625A607B681B685A687B68D5
:103B10001B6822F460425A607B681B6859687B68A6
:103B20005B6A013B5A037B681B680A435A6007E0E3
:103B30007B681B685A687B681B6822F400625A60C5
:103B40007B681B68DA6A7B681B6822F47002DA62A1
:103B50007B681B68D96A7B68DB69013B1A057B6857
:103B60001B680A43DA627B681B689A687B681B687B
:103B700022F400729A607B681B6899687B6893F8EE
:103B800030305A027B681B680A439A607B681B6866
:103B90009A687B681B6822F480629A607B681B6865
:103BA00099687B685B699A027B681B680A439A6024
:103BB00000BF1437BD465DF8047B70470023014009
:103BC0000100000F80B485B000AF78607B6803F01F
:103BD0000703FB600C4BDB68BB60BA684FF6FF0362
:103BE0001340BB60FB681A02BB68134343F0BF631A
:103BF00043F40033BB60044ABB68D36000BF143792
:103C0000BD465DF8047B704700ED00E080B400AF76
:103C1000044BDB681B0A03F007031846BD465DF83A
:103C2000047B704700ED00E080B483B000AF034632
:103C3000FB7197F90730002B0BDBFB7903F01F02B8
:103C4000074997F907305B09012000FA02F241F8B1
:103C5000232000BF0C37BD465DF8047B704700BFD2
:103C600000E100E080B483B000AF03463960FB712F
:103C700097F90730002B0ADB3B68DAB20C4997F959
:103C800007301201D2B20B4483F800230AE03B68EC
:103C9000DAB20849FB7903F00F03043B1201D2B2F8
:103CA0000B441A7600BF0C37BD465DF8047B7047A5
:103CB00000E100E000ED00E080B489B000AFF86002
:103CC000B9607A60FB6803F00703FB61FB69C3F12D
:103CD0000703042B28BF0423BB61FB690433062BB5
:103CE00002D9FB69033B00E000237B614FF0FF3208
:103CF000BB6902FA03F3DA43BB681A407B699A4056
:103D00004FF0FF317B6901FA03F3D9437B680B4025
:103D1000134318462437BD465DF8047B7047000006
:103D200080B582B000AF78607B68013BB3F1807FE3
:103D300001D301230FE00A4A7B68013B53600F2146
:103D40004FF0FF30FFF78EFF054B00229A60044BC7
:103D500007221A60002318460837BD4680BD00BF01
:103D600010E000E080B582B000AF78607868FFF7BF
:103D700029FF00BF0837BD4680BD80B586B000AFC3
:103D80000346B9607A60FB7300237B61FFF73EFF57
:103D900078617A68B9687869FFF78EFF024697F90B
:103DA0000F3011461846FFF75DFF00BF1837BD46BC
:103DB00080BD80B582B000AF0346FB7197F9073034
:103DC0001846FFF731FF00BF0837BD4680BD80B5FC
:103DD00082B000AF78607868FFF7A2FF034618460C
:103DE0000837BD4680BD000080B489B000AF786060
:103DF000396000237B6100233B610023BB6100230A
:103E0000FB6159E10122FB6902FA03F37B613B6824
:103E10001B687A6913403B613A697B699A4240F0BA
:103E200048813B685B6803F00303012B05D03B68C6
:103E30005B6803F00303022B30D17B689B68BB6196
:103E4000FB695B00032202FA03F3DB43BA69134008
:103E5000BB613B68DA68FB695B0002FA03F3BA698D
:103E60001343BB617B68BA699A607B685B68BB611E
:103E70000122FB6902FA03F3DB43BA691340BB6119
:103E80003B685B681B0903F00102FB6902FA03F35C
:103E9000BA691343BB617B68BA695A603B685B6867
:103EA00003F00303032B17D07B68DB68BB61FB695E
:103EB0005B00032202FA03F3DB43BA691340BB61E0
:103EC0003B689A68FB695B0002FA03F3BA69134323
:103ED000BB617B68BA69DA603B685B6803F0030327
:103EE000022B23D1FB69DA087B68083253F82230B1
:103EF000BB61FB6903F007039B000F2202FA03F387
:103F0000DB43BA691340BB613B681A69FB6903F084
:103F100007039B0002FA03F3BA691343BB61FB6911
:103F2000DA087B680832B96943F822107B681B689D
:103F3000BB61FB695B00032202FA03F3DB43BA694E
:103F40001340BB613B685B6803F00302FB695B00E5
:103F500002FA03F3BA691343BB617B68BA691A605A
:103F60003B685B6803F44033002B00F0A280002321
:103F7000FB60574B5B6C564A43F480435364544B8D
:103F80005B6C03F48043FB60FB68524AFB699B084F
:103F9000023352F82330BB61FB6903F003039B003B
:103FA0000F2202FA03F3DB43BA691340BB617B685B
:103FB000494A934219D07B68484A934213D07B68A0
:103FC000474A93420DD07B68464A934207D07B68AC
:103FD000454A934201D1042308E0072306E0032366
:103FE00004E0022302E0012300E00023FA6902F06A
:103FF000030292009340BA691343BB613549FB69E0
:104000009B080233BA6941F82320384B1B68BB6117
:104010003B69DB43BA691340BB613B685B6803F4EF
:104020008033002B03D0BA693B691343BB612F4A2D
:10403000BB6913602D4B5B68BB613B69DB43BA69AD
:104040001340BB613B685B6803F40033002B03D073
:10405000BA693B691343BB61244ABB695360234B74
:104060009B68BB613B69DB43BA691340BB613B683A
:104070005B6803F48013002B03D0BA693B691343D8
:10408000BB611A4ABB699360184BDB68BB613B6933
:10409000DB43BA691340BB613B685B6803F4001300
:1040A000002B03D0BA693B691343BB610F4ABB695C
:1040B000D360FB690133FB61FB690F2B7FF6A2AE76
:1040C00000BF00BF2437BD465DF8047B704700BFCA
:1040D0000038024000380140000002400004024065
:1040E00000080240000C024000100240003C014069
:1040F00080B485B000AF78600B467B807B681A691E
:104100007B881340002B02D00123FB7301E00023C6
:10411000FB73FB7B18461437BD465DF8047B704784
:1041200080B483B000AF78600B467B8013467B7011
:104130007B78002B03D07A887B689A6103E07B88C8
:104140001A047B689A6100BF0C37BD465DF8047B9A
:104150007047000080B584B000AF78607B68002BAA
:1041600001D101232BE17B6893F83D30DBB2002BBA
:1041700006D17B68002283F83C207868FEF7DEFDDC
:104180007B68242283F83D207B681B681A687B6863
:104190001B6822F001021A607B681B681A687B6842
:1041A0001B6842F400421A607B681B681A687B68CF
:1041B0001B6822F400421A6001F05AFEF8607B6826
:1041C0005B68814A934207D8FB68804A934294BF58
:1041D00001230023DBB206E0FB687D4A934294BFD3
:1041E00001230023DBB2002B01D00123E7E0FB68B1
:1041F000784AA2FB03239B0CBB607B681B685B684F
:1042000023F03F017B681B68BA680A435A607B68E9
:104210001B681B6A23F03F017B685B686A4A934214
:1042200002D8BB68013309E0BB684FF4967202FB09
:1042300003F3694AA2FB03239B0901337A681268DE
:104240000B4313627B681B68DB6923F44F4222F047
:10425000FF027B685B685C498B4219D8FB68591E7A
:104260007B685B685B00B1FBF3F3591C40F6FC73A1
:104270000B40002B0AD0FB68591E7B685B685B0013
:10428000B1FBF3F30133C3F30B0351E004234FE01D
:104290007B689B68002B11D1FB68581E7B685968AE
:1042A0000B465B000B44B0FBF3F30133C3F30B038A
:1042B000002B0CBF01230023DBB212E0FB68581E69
:1042C0007B6859680B469B000B4499000B44B0FB7C
:1042D000F3F30133C3F30B03002B0CBF01230023C3
:1042E000DBB2002B01D0012322E07B689B68002B0E
:1042F0000ED1FB68581E7B6859680B465B000B4467
:10430000B0FBF3F30133C3F30B0343F400430FE0BB
:10431000FB68581E7B6859680B469B000B4499004C
:104320000B44B0FBF3F30133C3F30B0343F44043FB
:10433000796809681343CB617B681B681B6823F0AD
:10434000C0017B68DA697B681B6A1A437B681B685B
:104350000A431A607B681B689B6823F4034323F0BD
:10436000FF037A6811697A68D26811437A68126823
:104370000B4393607B681B68DB6823F0FF017B685D
:104380005A697B689B691A437B681B680A43DA6039
:104390007B681B681A687B681B6842F001021A6020
:1043A0007B6800221A647B68202283F83D207B68AA
:1043B00000221A637B68002283F83E2000231846FF
:1043C0001037BD4680BD00BFA08601007F841E005F
:1043D000FF083D0083DE1B43D34D621080B588B0DB
:1043E00002AFF8607A601A460B467B8113463B8128
:1043F000FEF7D6FF7861FB6893F83D30DBB2202BE7
:1044000040F0E0807B690093192301227049F8682D
:1044100000F030FF0346002B01D00223D3E0FB68FD
:1044200093F83C30012B01D10223CCE0FB68012240
:1044300083F83C20FB681B681B6803F00103012B19
:1044400007D0FB681B681A68FB681B6842F0010212
:104450001A60FB681B681A68FB681B6822F400621C
:104460001A60FB68212283F83D20FB68102283F844
:104470003E20FB6800221A64FB687A685A62FB6877
:104480003A895A85FB685B8D9AB2FB681A85FB688E
:10449000504ADA6279897B693A6AF86800F0EAFC86
:1044A0000346002B01D001238DE000233B61FB6814
:1044B0001B685B693B61FB681B689B693B613B69EF
:1044C00066E07A69396AF86800F0AAFF0346002BB3
:1044D0000DD0FB681B6C042B07D1FB681B681A68A6
:1044E000FB681B6842F400721A6001236BE0FB68F2
:1044F0005B6A1A78FB681B681A61FB685B6A5A1C66
:10450000FB685A62FB685B8D9BB2013B9AB2FB6809
:104510005A85FB681B8D013B9AB2FB681A85FB68C4
:104520001B685B6903F00403042B1BD1FB681B8D24
:10453000002B17D0FB685B6A1A78FB681B681A614E
:10454000FB685B6A5A1CFB685A62FB685B8D9BB216
:10455000013B9AB2FB685A85FB681B8D013B9AB2FE
:10456000FB681A857A69396AF86800F09AFF034691
:10457000002B0DD0FB681B6C042B07D1FB681B685C
:104580001A68FB681B6842F400721A6001231AE083
:10459000FB681B8D002B94D1FB681B681A68FB68B5
:1045A0001B6842F400721A60FB68202283F83D20E9
:1045B000FB68002283F83E20FB68002283F83C2041
:1045C000002300E0022318461837BD4680BD00BF17
:1045D000020010000000FFFF80B588B002AFF86055
:1045E000084611461A4603467B810B463B8113461B
:1045F000FB80FEF7D5FE7861FB6893F83D30DBB2B7
:10460000202B40F0D9807B690093192301226D494A
:10461000F86800F02FFE0346002B01D00223CCE007
:10462000FB6893F83C30012B01D10223C5E0FB6805
:10463000012283F83C20FB681B681B6803F0010320
:10464000012B07D0FB681B681A68FB681B6842F0E7
:1046500001021A60FB681B681A68FB681B6822F479
:1046600000621A60FB68212283F83D20FB6840222B
:1046700083F83E20FB6800221A64FB683A6A5A629B
:10468000FB68BA8C5A85FB685B8D9AB2FB681A8509
:10469000FB684D4ADA62F8883A8979897B69019327
:1046A000BB6A00930346F86800F066FC0346002BE3
:1046B00052D0012381E07A69B96AF86800F0B0FE4F
:1046C0000346002B0DD0FB681B6C042B07D1FB6845
:1046D0001B681A68FB681B6842F400721A600123A9
:1046E0006BE0FB685B6A1A78FB681B681A61FB6801
:1046F0005B6A5A1CFB685A62FB681B8D013B9AB2CD
:10470000FB681A85FB685B8D9BB2013B9AB2FB6824
:104710005A85FB681B685B6903F00403042B1BD1FB
:10472000FB681B8D002B17D0FB685B6A1A78FB684F
:104730001B681A61FB685B6A5A1CFB685A62FB685B
:104740001B8D013B9AB2FB681A85FB685B8D9BB29F
:10475000013B9AB2FB685A85FB681B8D002BAAD1DE
:104760007A69B96AF86800F09CFE0346002B0DD008
:10477000FB681B6C042B07D1FB681B681A68FB687D
:104780001B6842F400721A60012316E0FB681B6884
:104790001A68FB681B6842F400721A60FB682022EA
:1047A00083F83D20FB68002283F83E20FB6800224E
:1047B00083F83C20002300E0022318461837BD464A
:1047C00080BD00BF020010000000FFFF80B58CB06C
:1047D00002AFF860084611461A4603467B810B4635
:1047E0003B811346FB80FEF7DBFD7862FB6893F8A4
:1047F0003D30DBB2202B40F008827B6A0093192306
:1048000001227B49F86800F035FD0346002B01D0FA
:104810000223FBE1FB6893F83C30012B01D102231A
:10482000F4E1FB68012283F83C20FB681B681B68ED
:1048300003F00103012B07D0FB681B681A68FB68B3
:104840001B6842F001021A60FB681B681A68FB686B
:104850001B6822F400621A60FB68222283F83D2064
:10486000FB68402283F83E20FB6800221A64FB6844
:104870003A6B5A62FB68BA8E5A85FB685B8D9AB2B6
:10488000FB681A85FB685B4ADA62F8883A8979899D
:104890007B6A0193BB6B00930346F86800F002FC4F
:1048A0000346002B01D00123B0E1FB681B8D002BD8
:1048B00013D100233B62FB681B685B693B62FB68AA
:1048C0001B689B693B623B6AFB681B681A68FB6854
:1048D0001B6842F400721A6084E1FB681B8D012B97
:1048E0001BD1FB681B681A68FB681B6822F4806296
:1048F0001A600023FB61FB681B685B69FB61FB6856
:104900001B689B69FB61FB69FB681B681A68FB6895
:104910001B6842F400721A6064E1FB681B8D022B75
:104920001BD1FB681B681A68FB681B6822F4806255
:104930001A60FB681B681A68FB681B6842F4006217
:104940001A600023BB61FB681B685B69BB61FB6885
:104950001B689B69BB61BB6944E100237B61FB6809
:104960001B685B697B61FB681B689B697B617B697A
:1049700038E1FB681B8D032B00F2F180FB681B8D77
:10498000012B23D17A6AB96BF86800F0CBFD03469E
:10499000002B01D0012339E1FB681B681A69FB6811
:1049A0005B6AD2B21A70FB685B6A5A1CFB685A6277
:1049B000FB681B8D013B9AB2FB681A85FB685B8D17
:1049C0009BB2013B9AB2FB685A850BE1FB681B8DD9
:1049D000022B4ED17B6A0093BB6B00220649F8681C
:1049E00000F048FC0346002B08D001230EE100BF75
:1049F000020010000000FFFF04000100FB681B68BC
:104A00001A68FB681B6842F400721A60FB681B6836
:104A10001A69FB685B6AD2B21A70FB685B6A5A1C3F
:104A2000FB685A62FB681B8D013B9AB2FB681A85D2
:104A3000FB685B8D9BB2013B9AB2FB685A85FB68B1
:104A40001B681A69FB685B6AD2B21A70FB685B6A02
:104A50005A1CFB685A62FB681B8D013B9AB2FB68CB
:104A60001A85FB685B8D9BB2013B9AB2FB685A8545
:104A7000B8E07B6A0093BB6B00226649F86800F0DF
:104A8000F9FB0346002B01D00123BFE0FB681B6844
:104A90001A68FB681B6822F480621A60FB681B6856
:104AA0001A69FB685B6AD2B21A70FB685B6A5A1CAF
:104AB000FB685A62FB681B8D013B9AB2FB681A8542
:104AC000FB685B8D9BB2013B9AB2FB685A857B6A9F
:104AD0000093BB6B00224F49F86800F0CBFB034604
:104AE000002B01D0012391E0FB681B681A68FB686A
:104AF0001B6842F400721A60FB681B681A69FB6845
:104B00005B6AD2B21A70FB685B6A5A1CFB685A6215
:104B1000FB681B8D013B9AB2FB681A85FB685B8DB5
:104B20009BB2013B9AB2FB685A85FB681B681A6905
:104B3000FB685B6AD2B21A70FB685B6A5A1CFB683E
:104B40005A62FB681B8D013B9AB2FB681A85FB68B1
:104B50005B8D9BB2013B9AB2FB685A8542E07A6A50
:104B6000B96BF86800F0DEFC0346002B01D001238E
:104B70004CE0FB681B681A69FB685B6AD2B21A706A
:104B8000FB685B6A5A1CFB685A62FB681B8D013B21
:104B90009AB2FB681A85FB685B8D9BB2013B9AB2A7
:104BA000FB685A85FB681B685B6903F00403042BF0
:104BB00018D1FB681B681A69FB685B6AD2B21A706D
:104BC000FB685B6A5A1CFB685A62FB681B8D013BE1
:104BD0009AB2FB681A85FB685B8D9BB2013B9AB267
:104BE000FB685A85FB681B8D002B7FF4C2AEFB6807
:104BF000202283F83D20FB68002283F83E20FB68DA
:104C0000002283F83C20002300E0022318462837C6
:104C1000BD4680BD0400010080B58AB002AFF860D7
:104C20007A603B600B467B81FEF7BAFBF86101239B
:104C3000BB61FB6893F83D30DBB2202B40F0118163
:104C4000FB690093192301228849F86800F012FBE0
:104C50000346002B01D0022304E1FB6893F83C30AB
:104C6000012B01D10223FDE0FB68012283F83C20E7
:104C7000FB681B681B6803F00103012B07D0FB686E
:104C80001B681A68FB681B6842F001021A60FB6827
:104C90001B681A68FB681B6822F400621A60FB68D4
:104CA000242283F83D20FB6800221A64FB68704AC6
:104CB000DA62FB681B681A68FB681B6842F4807242
:104CC0001A60FB6900933B6800224FF00111F868FD
:104CD00000F0D0FA0346002B0DD0FB681B681B6860
:104CE00003F48073B3F5807F03D1FB684FF4007247
:104CF0001A640323B6E07B89DBB21A46FB681B68A3
:104D000002F0FE021A61FEF74BFBF861FB681B68BC
:104D10005B6903F00203022B0CBF01230023DBB20B
:104D2000FB75FB681B685B6903F48063B3F5806FF8
:104D30000CBF01230023DBB2BB7525E0FEF730FB7F
:104D40000246FB69D31A3A689A4202D33B68002BA9
:104D500003D1FB68A02283F83D20FB681B685B69D8
:104D600003F00203022B0CBF01230023DBB2FB750F
:104D7000FB681B685B6903F48063B3F5806F0CBF4D
:104D800001230023DBB2BB75FB6893F83D30DBB237
:104D9000A02B05D0FB7D002B02D1BB7D002BCDD0FD
:104DA000FB68202283F83D20FB681B685B6903F0E9
:104DB0000203022B29D1FB681B681A68FB681B6879
:104DC00042F400721A6000233B61FB681B685B6958
:104DD0003B61FB681B689B693B613B69FB69009316
:104DE000192301222149F86800F044FA0346002BF8
:104DF00001D0012336E0FB68202283F83D20FB68C8
:104E0000002283F83C2000232CE0FB681B681A6812
:104E1000FB681B6842F400721A60FB681B686FF441
:104E200080625A61FB690093192301220F49F868D7
:104E300000F020FA0346002B01D0012312E0BB69E9
:104E40000133BB61BA697B689A42FFF432AFFB68F9
:104E5000202283F83D20FB68002283F83C200123B8
:104E600000E0022318462037BD4680BD0200100036
:104E70000000FFFF80B588B002AFF8607A603B6049
:104E80000B467B81FB68DB6A7B617B69082B06D064
:104E90007B69012B03D07B6913F5803F08D1FB6848
:104EA0001B681A68FB681B6842F480721A600BE08A
:104EB000FB681B6B122B07D1FB681B681A68FB6829
:104EC0001B6842F480721A603B6800937B68002282
:104ED0004FF00111F86800F0CDF90346002B0DD01A
:104EE000FB681B681B6803F48073B3F5807F03D1F4
:104EF000FB684FF400721A64032335E0FB681B69FA
:104F0000B3F5804F08D17B89DBB21A46FB681B687A
:104F100002F0FE021A611BE07B89DB11DBB203F0B9
:104F20000603DBB263F00F03DAB2FB681B681A6199
:104F30003B687A680E49F86800F0F3F90346002BE5
:104F400001D0012310E07B89DAB2FB681B681A618B
:104F50003B687A680749F86800F0E3F90346002BDC
:104F600001D0012300E0002318461837BD4680BD5C
:104F7000080001000200010080B588B002AFF860AF
:104F8000084611461A4603467B810B463B81134671
:104F9000FB80FB681B681A68FB681B6842F4807220
:104FA0001A607B6A00933B6A00224FF00111F86897
:104FB00000F060F90346002B0DD0FB681B681B68EE
:104FC00003F48073B3F5807F03D1FB684FF4007264
:104FD0001A6403235FE07B89DBB21A46FB681B6817
:104FE00002F0FE021A617B6A3A6A2D49F86800F005
:104FF00098F90346002B01D001234CE000237B618C
:10500000FB681B685B697B61FB681B689B697B6154
:105010007B697A6A396AF86800F002FA0346002B65
:105020000DD0FB681B6C042B07D1FB681B681A684A
:10503000FB681B6842F400721A6001232BE0FB88B6
:10504000012B05D13B89DAB2FB681B681A6121E0AC
:105050003B891B0A9BB2DAB2FB681B681A617A6A49
:10506000396AF86800F0DCF90346002B0DD0FB68C4
:105070001B6C042B07D1FB681B681A68FB681B6854
:1050800042F400721A60012305E03B89DAB2FB6842
:105090001B681A61002318461837BD4680BD00BF43
:1050A0000200010080B588B002AFF86008461146E2
:1050B0001A4603467B810B463B811346FB80FB6807
:1050C0001B681A68FB681B6842F480621A60FB6800
:1050D0001B681A68FB681B6842F480721A607B6A5E
:1050E00000933B6A00224FF00111F86800F0C2F80B
:1050F0000346002B0DD0FB681B681B6803F480730C
:10510000B3F5807F03D1FB684FF400721A64032368
:10511000AAE07B89DBB21A46FB681B6802F0FE023C
:105120001A617B6A3A6A5249F86800F0FAF8034655
:10513000002B01D0012397E000237B61FB681B68F3
:105140005B697B61FB681B689B697B617B697A6A31
:10515000396AF86800F064F90346002B0DD0FB684B
:105160001B6C042B07D1FB681B681A68FB681B6863
:1051700042F400721A60012376E0FB88012B05D10E
:105180003B89DAB2FB681B681A6121E03B891B0A84
:105190009BB2DAB2FB681B681A617A6A396AF868EE
:1051A00000F03EF90346002B0DD0FB681B6C042B6E
:1051B00007D1FB681B681A68FB681B6842F4007221
:1051C0001A60012350E03B89DAB2FB681B681A6160
:1051D0007A6A396AF86800F023F90346002B0DD08B
:1051E000FB681B6C042B07D1FB681B681A68FB6803
:1051F0001B6842F400721A60012335E0FB681B68EB
:105200001A68FB681B6842F480721A607B6A00931C
:105210003B6A00224FF00111F86800F02BF80346BA
:10522000002B0DD0FB681B681B6803F48073B3F57B
:10523000807F03D1FB684FF400721A64032313E0EC
:105240007B89DBB243F00103DAB2FB681B681A61A9
:105250007B6A3A6A0649F86800F063F80346002B57
:1052600001D0012300E0002318461837BD4680BD59
:105270000200010080B584B000AFF860B9603B6007
:105280001346FB7125E03B68B3F1FF3F21D0FEF7E9
:1052900087F80246BB69D31A3A689A4202D33B6840
:1052A000002B16D1FB6800221A63FB68202283F8CA
:1052B0003D20FB68002283F83E20FB681B6C43F016
:1052C0002002FB681A64FB68002283F83C2001235B
:1052D00023E0BB681B0CDBB2012B0DD1FB681B6804
:1052E0005B69DA43BB6813409BB2002B0CBF012300
:1052F0000023DBB21A460CE0FB681B689B69DA43AB
:10530000BB6813409BB2002B0CBF01230023DBB210
:105310001A46FB799A42B6D0002318461037BD468C
:1053200080BD80B584B000AFF860B9607A603B6042
:1053300051E0FB681B685B6903F48063B3F5806F21
:1053400023D1FB681B681A68FB681B6842F4007273
:105350001A60FB681B686FF480625A61FB68002268
:105360001A63FB68202283F83D20FB68002283F843
:105370003E20FB681B6C43F00402FB681A64FB6868
:10538000002283F83C20012346E07B68B3F1FF3F15
:1053900021D0FEF705F802463B68D31A7A689A4294
:1053A00002D37B68002B16D1FB6800221A63FB68CE
:1053B000202283F83D20FB68002283F83E20FB6812
:1053C0001B6C43F02002FB681A64FB68002283F820
:1053D0003C20012320E0BB681B0CDBB2012B0CD16D
:1053E000FB681B685B69DA43BB6813409BB2002B08
:1053F00014BF01230023DBB20BE0FB681B689B6931
:10540000DA43BB6813409BB2002B14BF0123002377
:10541000DBB2002B8DD1002318461037BD4680BD6E
:1054200080B584B000AFF860B9607A602DE0F868AC
:1054300000F0CEF80346002B01D001232DE0BB681D
:10544000B3F1FF3F21D0FDF7ABFF02467B68D31AD3
:10545000BA689A4202D3BB68002B16D1FB680022BF
:105460001A63FB68202283F83D20FB68002283F842
:105470003E20FB681B6C43F02002FB681A64FB684B
:10548000002283F83C20012307E0FB681B685B696E
:1054900003F08003802BCAD1002318461037BD4685
:1054A00080BD80B584B000AFF860B9607A602DE04F
:1054B000F86800F08DF80346002B01D001232DE0A1
:1054C000BB68B3F1FF3F21D0FDF76AFF02467B685E
:1054D000D31ABA689A4202D3BB68002B16D1FB6874
:1054E00000221A63FB68202283F83D20FB6800221B
:1054F00083F83E20FB681B6C43F02002FB681A64B3
:10550000FB68002283F83C20012307E0FB681B684E
:105510005B6903F00403042BCAD10023184610373B
:10552000BD4680BD80B584B000AFF860B9607A60D8
:1055300042E0FB681B685B6903F01003102B19D174
:10554000FB681B686FF010025A61FB6800221A6347
:10555000FB68202283F83D20FB68002283F83E2070
:10556000FB681A6CFB681A64FB68002283F83C2015
:10557000012329E0FDF714FF02467B68D31ABA68BD
:105580009A4202D3BB68002B16D1FB6800221A6333
:10559000FB68202283F83D20FB68002283F83E2030
:1055A000FB681B6C43F02002FB681A64FB68002256
:1055B00083F83C20012307E0FB681B685B6903F06C
:1055C0004003402BB5D1002318461037BD4680BD9F
:1055D00080B483B000AF78607B681B685B6903F4BC
:1055E0008063B3F5806F1BD17B681B686FF48062AA
:1055F0005A617B6800221A637B68202283F83D2071
:105600007B68002283F83E207B681B6C43F0040219
:105610007B681A647B68002283F83C20012300E049
:10562000002318460C37BD465DF8047B7047000028
:1056300080B586B000AF78607B68002B01D1012374
:1056400064E27B681B6803F00103002B75D0A34B59
:105650009B6803F00C03042B0CD0A04B9B6803F059
:105660000C03082B12D19D4B5B6803F48003B3F548
:10567000800F0BD1994B1B6803F40033002B5BD0D8
:105680007B685B68002B57D101233FE27B685B6836
:10569000B3F5803F06D1914B1B68904A43F48033A9
:1056A00013601DE07B685B68B3F5A02F0CD18B4BBA
:1056B0001B688A4A43F480231360884B1B68874A1F
:1056C00043F4803313600BE0844B1B68834A23F45C
:1056D00080331360814B1B68804A23F4802313605E
:1056E0007B685B68002B13D0FDF75AFE386108E039
:1056F000FDF756FE02463B69D31A642B01D90323FA
:1057000004E2764B1B6803F40033002BF0D014E066
:10571000FDF746FE386108E0FDF742FE02463B69B0
:10572000D31A642B01D90323F0E16C4B1B6803F4FB
:105730000033002BF0D100E000BF7B681B6803F052
:105740000203002B63D0654B9B6803F00C03002B16
:105750000BD0624B9B6803F00C03082B1CD15F4BF2
:105760005B6803F48003002B16D15C4B1B6803F0CD
:105770000203002B05D07B68DB68012B01D00123DD
:10578000C4E1564B1B6823F0F8027B681B69DB0001
:10579000524913430B603AE07B68DB68002B20D052
:1057A0004F4B01221A60FDF7FBFD386108E0FDF761
:1057B000F7FD02463B69D31A022B01D90323A5E169
:1057C000464B1B6803F00203002BF0D0434B1B68D1
:1057D00023F0F8027B681B69DB00404913430B6030
:1057E00015E03F4B00221A60FDF7DAFD386108E052
:1057F000FDF7D6FD02463B69D31A022B01D90323DC
:1058000084E1364B1B6803F00203002BF0D17B6868
:105810001B6803F00803002B30D07B685B69002B0A
:1058200016D0304B01221A60FDF7BAFD386108E04E
:10583000FDF7B6FD02463B69D31A022B01D90323BB
:1058400064E1264B5B6F03F00203002BF0D015E000
:10585000244B00221A60FDF7A3FD386108E0FDF734
:105860009FFD02463B69D31A022B01D903234DE168
:105870001A4B5B6F03F00203002BF0D17B681B68AF
:1058800003F00403002B00F0A0800023FB75134BF2
:105890001B6C03F08053002B0FD10023BB600F4B18
:1058A0001B6C0E4A43F0805313640C4B1B6C03F0CB
:1058B0008053BB60BB680123FB750B4B1B6803F473
:1058C0008073002B21D1084B1B68074A43F4807377
:1058D0001360FDF765FD386111E000BF003802403C
:1058E00000004742800E474200700040FDF758FD1F
:1058F00002463B69D31A022B01D9032306E1854BEB
:105900001B6803F48073002BF0D07B689B68012B2D
:1059100006D1814B1B6F804A43F0010313671CE0E3
:105920007B689B68052B0CD17B4B1B6F7A4A43F03D
:1059300004031367784B1B6F774A43F00103136727
:105940000BE0754B1B6F744A23F001031367724B16
:105950001B6F714A23F0040313677B689B68002B5D
:1059600015D0FDF71DFD38610AE0FDF719FD02466F
:105970003B69D31A41F28832934201D90323C5E02F
:10598000654B1B6F03F00203002BEED014E0FDF714
:1059900007FD38610AE0FDF703FD02463B69D31AB3
:1059A00041F28832934201D90323AFE05A4B1B6F77
:1059B00003F00203002BEED1FB7D012B05D1564BEA
:1059C0001B6C554A23F0805313647B689B69002B42
:1059D00000F09B80504B9B6803F00C03082B5CD0BD
:1059E0007B689B69022B41D14C4B00221A60FDF76A
:1059F000D7FC386108E0FDF7D3FC02463B69D31AB7
:105A0000022B01D9032381E0434B1B6803F0007391
:105A1000002BF0D17B68DA697B681B6A1A437B68CC
:105A20005B6A9B011A437B689B6A5B08013B1B0412
:105A30001A437B68DB6A1B06374913434B60374BBD
:105A400001221A60FDF7ACFC386108E0FDF7A8FC04
:105A500002463B69D31A022B01D9032356E02E4B91
:105A60001B6803F00073002BF0D04EE02B4B00229C
:105A70001A60FDF795FC386108E0FDF791FC0246DD
:105A80003B69D31A022B01D903233FE0224B1B6849
:105A900003F00073002BF0D137E07B689B69012B8A
:105AA00001D1012332E01C4B5B68FB607B689B6982
:105AB000012B28D0FB6803F480027B68DB699A42E3
:105AC00021D1FB6803F03F027B681B6A9A421AD11E
:105AD000FA6847F6C07313407A68526A920193429B
